{
  "contractName": "Bank",
  "abi": [
    {
      "inputs": [
        {
          "internalType": "contract BankConfig",
          "name": "_config",
          "type": "address"
        }
      ],
      "payable": false,
      "stateMutability": "nonpayable",
      "type": "constructor"
    },
    {
      "anonymous": false,
      "inputs": [
        {
          "indexed": true,
          "internalType": "uint256",
          "name": "id",
          "type": "uint256"
        },
        {
          "indexed": false,
          "internalType": "uint256",
          "name": "debtShare",
          "type": "uint256"
        }
      ],
      "name": "AddDebt",
      "type": "event"
    },
    {
      "anonymous": false,
      "inputs": [
        {
          "indexed": true,
          "internalType": "address",
          "name": "owner",
          "type": "address"
        },
        {
          "indexed": true,
          "internalType": "address",
          "name": "spender",
          "type": "address"
        },
        {
          "indexed": false,
          "internalType": "uint256",
          "name": "value",
          "type": "uint256"
        }
      ],
      "name": "Approval",
      "type": "event"
    },
    {
      "anonymous": false,
      "inputs": [
        {
          "indexed": true,
          "internalType": "uint256",
          "name": "id",
          "type": "uint256"
        },
        {
          "indexed": true,
          "internalType": "address",
          "name": "killer",
          "type": "address"
        },
        {
          "indexed": false,
          "internalType": "uint256",
          "name": "prize",
          "type": "uint256"
        },
        {
          "indexed": false,
          "internalType": "uint256",
          "name": "left",
          "type": "uint256"
        }
      ],
      "name": "Kill",
      "type": "event"
    },
    {
      "anonymous": false,
      "inputs": [
        {
          "indexed": true,
          "internalType": "address",
          "name": "previousOwner",
          "type": "address"
        },
        {
          "indexed": true,
          "internalType": "address",
          "name": "newOwner",
          "type": "address"
        }
      ],
      "name": "OwnershipTransferred",
      "type": "event"
    },
    {
      "anonymous": false,
      "inputs": [
        {
          "indexed": true,
          "internalType": "uint256",
          "name": "id",
          "type": "uint256"
        },
        {
          "indexed": false,
          "internalType": "uint256",
          "name": "debtShare",
          "type": "uint256"
        }
      ],
      "name": "RemoveDebt",
      "type": "event"
    },
    {
      "anonymous": false,
      "inputs": [
        {
          "indexed": true,
          "internalType": "address",
          "name": "from",
          "type": "address"
        },
        {
          "indexed": true,
          "internalType": "address",
          "name": "to",
          "type": "address"
        },
        {
          "indexed": false,
          "internalType": "uint256",
          "name": "value",
          "type": "uint256"
        }
      ],
      "name": "Transfer",
      "type": "event"
    },
    {
      "anonymous": false,
      "inputs": [
        {
          "indexed": true,
          "internalType": "uint256",
          "name": "id",
          "type": "uint256"
        },
        {
          "indexed": false,
          "internalType": "uint256",
          "name": "loan",
          "type": "uint256"
        }
      ],
      "name": "Work",
      "type": "event"
    },
    {
      "payable": true,
      "stateMutability": "payable",
      "type": "fallback"
    },
    {
      "constant": true,
      "inputs": [
        {
          "internalType": "address",
          "name": "owner",
          "type": "address"
        },
        {
          "internalType": "address",
          "name": "spender",
          "type": "address"
        }
      ],
      "name": "allowance",
      "outputs": [
        {
          "internalType": "uint256",
          "name": "",
          "type": "uint256"
        }
      ],
      "payable": false,
      "stateMutability": "view",
      "type": "function"
    },
    {
      "constant": false,
      "inputs": [
        {
          "internalType": "address",
          "name": "spender",
          "type": "address"
        },
        {
          "internalType": "uint256",
          "name": "value",
          "type": "uint256"
        }
      ],
      "name": "approve",
      "outputs": [
        {
          "internalType": "bool",
          "name": "",
          "type": "bool"
        }
      ],
      "payable": false,
      "stateMutability": "nonpayable",
      "type": "function"
    },
    {
      "constant": true,
      "inputs": [
        {
          "internalType": "address",
          "name": "account",
          "type": "address"
        }
      ],
      "name": "balanceOf",
      "outputs": [
        {
          "internalType": "uint256",
          "name": "",
          "type": "uint256"
        }
      ],
      "payable": false,
      "stateMutability": "view",
      "type": "function"
    },
    {
      "constant": true,
      "inputs": [],
      "name": "config",
      "outputs": [
        {
          "internalType": "contract BankConfig",
          "name": "",
          "type": "address"
        }
      ],
      "payable": false,
      "stateMutability": "view",
      "type": "function"
    },
    {
      "constant": true,
      "inputs": [],
      "name": "decimals",
      "outputs": [
        {
          "internalType": "uint8",
          "name": "",
          "type": "uint8"
        }
      ],
      "payable": false,
      "stateMutability": "view",
      "type": "function"
    },
    {
      "constant": false,
      "inputs": [
        {
          "internalType": "address",
          "name": "spender",
          "type": "address"
        },
        {
          "internalType": "uint256",
          "name": "subtractedValue",
          "type": "uint256"
        }
      ],
      "name": "decreaseAllowance",
      "outputs": [
        {
          "internalType": "bool",
          "name": "",
          "type": "bool"
        }
      ],
      "payable": false,
      "stateMutability": "nonpayable",
      "type": "function"
    },
    {
      "constant": true,
      "inputs": [],
      "name": "glbDebtShare",
      "outputs": [
        {
          "internalType": "uint256",
          "name": "",
          "type": "uint256"
        }
      ],
      "payable": false,
      "stateMutability": "view",
      "type": "function"
    },
    {
      "constant": true,
      "inputs": [],
      "name": "glbDebtVal",
      "outputs": [
        {
          "internalType": "uint256",
          "name": "",
          "type": "uint256"
        }
      ],
      "payable": false,
      "stateMutability": "view",
      "type": "function"
    },
    {
      "constant": false,
      "inputs": [
        {
          "internalType": "address",
          "name": "spender",
          "type": "address"
        },
        {
          "internalType": "uint256",
          "name": "addedValue",
          "type": "uint256"
        }
      ],
      "name": "increaseAllowance",
      "outputs": [
        {
          "internalType": "bool",
          "name": "",
          "type": "bool"
        }
      ],
      "payable": false,
      "stateMutability": "nonpayable",
      "type": "function"
    },
    {
      "constant": true,
      "inputs": [],
      "name": "isOwner",
      "outputs": [
        {
          "internalType": "bool",
          "name": "",
          "type": "bool"
        }
      ],
      "payable": false,
      "stateMutability": "view",
      "type": "function"
    },
    {
      "constant": true,
      "inputs": [],
      "name": "lastAccrueTime",
      "outputs": [
        {
          "internalType": "uint256",
          "name": "",
          "type": "uint256"
        }
      ],
      "payable": false,
      "stateMutability": "view",
      "type": "function"
    },
    {
      "constant": true,
      "inputs": [],
      "name": "name",
      "outputs": [
        {
          "internalType": "string",
          "name": "",
          "type": "string"
        }
      ],
      "payable": false,
      "stateMutability": "view",
      "type": "function"
    },
    {
      "constant": true,
      "inputs": [],
      "name": "nextPositionID",
      "outputs": [
        {
          "internalType": "uint256",
          "name": "",
          "type": "uint256"
        }
      ],
      "payable": false,
      "stateMutability": "view",
      "type": "function"
    },
    {
      "constant": true,
      "inputs": [],
      "name": "owner",
      "outputs": [
        {
          "internalType": "address",
          "name": "",
          "type": "address"
        }
      ],
      "payable": false,
      "stateMutability": "view",
      "type": "function"
    },
    {
      "constant": true,
      "inputs": [
        {
          "internalType": "uint256",
          "name": "",
          "type": "uint256"
        }
      ],
      "name": "positions",
      "outputs": [
        {
          "internalType": "address",
          "name": "goblin",
          "type": "address"
        },
        {
          "internalType": "address",
          "name": "owner",
          "type": "address"
        },
        {
          "internalType": "uint256",
          "name": "debtShare",
          "type": "uint256"
        }
      ],
      "payable": false,
      "stateMutability": "view",
      "type": "function"
    },
    {
      "constant": false,
      "inputs": [],
      "name": "renounceOwnership",
      "outputs": [],
      "payable": false,
      "stateMutability": "nonpayable",
      "type": "function"
    },
    {
      "constant": true,
      "inputs": [],
      "name": "reservePool",
      "outputs": [
        {
          "internalType": "uint256",
          "name": "",
          "type": "uint256"
        }
      ],
      "payable": false,
      "stateMutability": "view",
      "type": "function"
    },
    {
      "constant": true,
      "inputs": [],
      "name": "symbol",
      "outputs": [
        {
          "internalType": "string",
          "name": "",
          "type": "string"
        }
      ],
      "payable": false,
      "stateMutability": "view",
      "type": "function"
    },
    {
      "constant": true,
      "inputs": [],
      "name": "totalSupply",
      "outputs": [
        {
          "internalType": "uint256",
          "name": "",
          "type": "uint256"
        }
      ],
      "payable": false,
      "stateMutability": "view",
      "type": "function"
    },
    {
      "constant": false,
      "inputs": [
        {
          "internalType": "address",
          "name": "recipient",
          "type": "address"
        },
        {
          "internalType": "uint256",
          "name": "amount",
          "type": "uint256"
        }
      ],
      "name": "transfer",
      "outputs": [
        {
          "internalType": "bool",
          "name": "",
          "type": "bool"
        }
      ],
      "payable": false,
      "stateMutability": "nonpayable",
      "type": "function"
    },
    {
      "constant": false,
      "inputs": [
        {
          "internalType": "address",
          "name": "sender",
          "type": "address"
        },
        {
          "internalType": "address",
          "name": "recipient",
          "type": "address"
        },
        {
          "internalType": "uint256",
          "name": "amount",
          "type": "uint256"
        }
      ],
      "name": "transferFrom",
      "outputs": [
        {
          "internalType": "bool",
          "name": "",
          "type": "bool"
        }
      ],
      "payable": false,
      "stateMutability": "nonpayable",
      "type": "function"
    },
    {
      "constant": false,
      "inputs": [
        {
          "internalType": "address",
          "name": "newOwner",
          "type": "address"
        }
      ],
      "name": "transferOwnership",
      "outputs": [],
      "payable": false,
      "stateMutability": "nonpayable",
      "type": "function"
    },
    {
      "constant": true,
      "inputs": [
        {
          "internalType": "uint256",
          "name": "msgValue",
          "type": "uint256"
        }
      ],
      "name": "pendingInterest",
      "outputs": [
        {
          "internalType": "uint256",
          "name": "",
          "type": "uint256"
        }
      ],
      "payable": false,
      "stateMutability": "view",
      "type": "function"
    },
    {
      "constant": true,
      "inputs": [
        {
          "internalType": "uint256",
          "name": "debtShare",
          "type": "uint256"
        }
      ],
      "name": "debtShareToVal",
      "outputs": [
        {
          "internalType": "uint256",
          "name": "",
          "type": "uint256"
        }
      ],
      "payable": false,
      "stateMutability": "view",
      "type": "function"
    },
    {
      "constant": true,
      "inputs": [
        {
          "internalType": "uint256",
          "name": "debtVal",
          "type": "uint256"
        }
      ],
      "name": "debtValToShare",
      "outputs": [
        {
          "internalType": "uint256",
          "name": "",
          "type": "uint256"
        }
      ],
      "payable": false,
      "stateMutability": "view",
      "type": "function"
    },
    {
      "constant": true,
      "inputs": [
        {
          "internalType": "uint256",
          "name": "id",
          "type": "uint256"
        }
      ],
      "name": "positionInfo",
      "outputs": [
        {
          "internalType": "uint256",
          "name": "",
          "type": "uint256"
        },
        {
          "internalType": "uint256",
          "name": "",
          "type": "uint256"
        }
      ],
      "payable": false,
      "stateMutability": "view",
      "type": "function"
    },
    {
      "constant": true,
      "inputs": [],
      "name": "totalETH",
      "outputs": [
        {
          "internalType": "uint256",
          "name": "",
          "type": "uint256"
        }
      ],
      "payable": false,
      "stateMutability": "view",
      "type": "function"
    },
    {
      "constant": false,
      "inputs": [],
      "name": "deposit",
      "outputs": [],
      "payable": true,
      "stateMutability": "payable",
      "type": "function"
    },
    {
      "constant": false,
      "inputs": [
        {
          "internalType": "uint256",
          "name": "share",
          "type": "uint256"
        }
      ],
      "name": "withdraw",
      "outputs": [],
      "payable": false,
      "stateMutability": "nonpayable",
      "type": "function"
    },
    {
      "constant": false,
      "inputs": [
        {
          "internalType": "uint256",
          "name": "id",
          "type": "uint256"
        },
        {
          "internalType": "address",
          "name": "goblin",
          "type": "address"
        },
        {
          "internalType": "uint256",
          "name": "loan",
          "type": "uint256"
        },
        {
          "internalType": "uint256",
          "name": "maxReturn",
          "type": "uint256"
        },
        {
          "internalType": "bytes",
          "name": "data",
          "type": "bytes"
        }
      ],
      "name": "work",
      "outputs": [],
      "payable": true,
      "stateMutability": "payable",
      "type": "function"
    },
    {
      "constant": false,
      "inputs": [
        {
          "internalType": "uint256",
          "name": "id",
          "type": "uint256"
        }
      ],
      "name": "kill",
      "outputs": [],
      "payable": false,
      "stateMutability": "nonpayable",
      "type": "function"
    },
    {
      "constant": false,
      "inputs": [
        {
          "internalType": "contract BankConfig",
          "name": "_config",
          "type": "address"
        }
      ],
      "name": "updateConfig",
      "outputs": [],
      "payable": false,
      "stateMutability": "nonpayable",
      "type": "function"
    },
    {
      "constant": false,
      "inputs": [
        {
          "internalType": "address",
          "name": "to",
          "type": "address"
        },
        {
          "internalType": "uint256",
          "name": "value",
          "type": "uint256"
        }
      ],
      "name": "withdrawReserve",
      "outputs": [],
      "payable": false,
      "stateMutability": "nonpayable",
      "type": "function"
    },
    {
      "constant": false,
      "inputs": [
        {
          "internalType": "uint256",
          "name": "value",
          "type": "uint256"
        }
      ],
      "name": "reduceReserve",
      "outputs": [],
      "payable": false,
      "stateMutability": "nonpayable",
      "type": "function"
    },
    {
      "constant": false,
      "inputs": [
        {
          "internalType": "address",
          "name": "token",
          "type": "address"
        },
        {
          "internalType": "address",
          "name": "to",
          "type": "address"
        },
        {
          "internalType": "uint256",
          "name": "value",
          "type": "uint256"
        }
      ],
      "name": "recover",
      "outputs": [],
      "payable": false,
      "stateMutability": "nonpayable",
      "type": "function"
    }
  ],
  "bytecode": "0x60c0604052601460808190527f496e7465726573742042656172696e672045544800000000000000000000000060a090815262000040916005919062000138565b50604080518082019091526005808252640d2c48aa8960db1b60209092019182526200006f9160069162000138565b506007805460ff1916601217905560016009553480156200008f57600080fd5b50604051620038023803806200380283398181016040526020811015620000b557600080fd5b50516001600355600480546001600160a01b0319163317908190556040516001600160a01b0391909116906000907f8be0079c531659141344cd1fd0a4f28419497f9722a3daafe3b4186f6b6457e0908290a3600780546001600160a01b0390921661010002610100600160a81b031990921691909117905542600c55620001dd565b828054600181600116156101000203166002900490600052602060002090601f016020900481019282601f106200017b57805160ff1916838001178555620001ab565b82800160010185558215620001ab579182015b82811115620001ab5782518255916020019190600101906200018e565b50620001b9929150620001bd565b5090565b620001da91905b80821115620001b95760008155600101620001c4565b90565b61361580620001ed6000396000f3fe6080604052600436106102345760003560e01c806370a0823111610138578063a457c2d7116100b0578063d29a00251161007f578063ea7d530f11610064578063ea7d530f146108ee578063f2fde38b14610918578063f60290e41461095857610234565b8063d29a00251461087c578063dd62ed3e146108a657610234565b8063a457c2d7146107d3578063a6cb8f7d14610819578063a9059cbb1461082e578063d0e30db01461087457610234565b80638da5cb5b1161010757806395d89b41116100ec57806395d89b411461074857806399fbab881461075d5780639ffe7973146107be57610234565b80638da5cb5b1461071e5780638f32d59b1461073357610234565b806370a0823114610648578063715018a61461068857806379502c551461069d57806389097a6a146106db57610234565b80632118c75c116101cb578063313ce5671161019a578063395093511161017f57806339509351146105985780636b6216ad146105de5780636cc919c81461060857610234565b8063313ce5671461055857806336bdee741461058357610234565b80632118c75c1461041657806323b872dd146104b45780632e1a7d4d146105045780632fc11c0f1461052e57610234565b806318160ddd1161020757806318160ddd146103565780631c58ce141461036b5780631c824905146103b15780631ec82cb8146103c657610234565b80630266f0441461023657806306fdde031461025d578063095ea7b3146102e75780630f82519914610341575b005b34801561024257600080fd5b5061024b610982565b60408051918252519081900360200190f35b34801561026957600080fd5b50610272610988565b6040805160208082528351818301528351919283929083019185019080838360005b838110156102ac578181015183820152602001610294565b50505050905090810190601f1680156102d95780820380516001836020036101000a031916815260200191505b509250505060405180910390f35b3480156102f357600080fd5b5061032d6004803603604081101561030a57600080fd5b5073ffffffffffffffffffffffffffffffffffffffff8135169060200135610a34565b604080519115158252519081900360200190f35b34801561034d57600080fd5b5061024b610a4b565b34801561036257600080fd5b5061024b610a51565b34801561037757600080fd5b506102346004803603604081101561038e57600080fd5b5073ffffffffffffffffffffffffffffffffffffffff8135169060200135610a57565b3480156103bd57600080fd5b5061024b610b6a565b3480156103d257600080fd5b50610234600480360360608110156103e957600080fd5b5073ffffffffffffffffffffffffffffffffffffffff813581169160208101359091169060400135610b70565b610234600480360360a081101561042c57600080fd5b81359173ffffffffffffffffffffffffffffffffffffffff6020820135169160408201359160608101359181019060a08101608082013564010000000081111561047557600080fd5b82018360208201111561048757600080fd5b803590602001918460018302840111640100000000831117156104a957600080fd5b509092509050610c8b565b3480156104c057600080fd5b5061032d600480360360608110156104d757600080fd5b5073ffffffffffffffffffffffffffffffffffffffff8135811691602081013590911690604001356117ac565b34801561051057600080fd5b506102346004803603602081101561052757600080fd5b5035611810565b34801561053a57600080fd5b5061024b6004803603602081101561055157600080fd5b5035611989565b34801561056457600080fd5b5061056d611ab7565b6040805160ff9092168252519081900360200190f35b34801561058f57600080fd5b5061024b611ac0565b3480156105a457600080fd5b5061032d600480360360408110156105bb57600080fd5b5073ffffffffffffffffffffffffffffffffffffffff8135169060200135611aee565b3480156105ea57600080fd5b506102346004803603602081101561060157600080fd5b5035611b37565b34801561061457600080fd5b506102346004803603602081101561062b57600080fd5b503573ffffffffffffffffffffffffffffffffffffffff16611bc3565b34801561065457600080fd5b5061024b6004803603602081101561066b57600080fd5b503573ffffffffffffffffffffffffffffffffffffffff16611c82565b34801561069457600080fd5b50610234611caa565b3480156106a957600080fd5b506106b2611d8c565b6040805173ffffffffffffffffffffffffffffffffffffffff9092168252519081900360200190f35b3480156106e757600080fd5b50610705600480360360208110156106fe57600080fd5b5035611dad565b6040805192835260208301919091528051918290030190f35b34801561072a57600080fd5b506106b2611e70565b34801561073f57600080fd5b5061032d611e8c565b34801561075457600080fd5b50610272611eaa565b34801561076957600080fd5b506107876004803603602081101561078057600080fd5b5035611f23565b6040805173ffffffffffffffffffffffffffffffffffffffff94851681529290931660208301528183015290519081900360600190f35b3480156107ca57600080fd5b5061024b611f5e565b3480156107df57600080fd5b5061032d600480360360408110156107f657600080fd5b5073ffffffffffffffffffffffffffffffffffffffff8135169060200135611f64565b34801561082557600080fd5b5061024b611fad565b34801561083a57600080fd5b5061032d6004803603604081101561085157600080fd5b5073ffffffffffffffffffffffffffffffffffffffff8135169060200135611fb3565b610234611fc0565b34801561088857600080fd5b506102346004803603602081101561089f57600080fd5b5035612149565b3480156108b257600080fd5b5061024b600480360360408110156108c957600080fd5b5073ffffffffffffffffffffffffffffffffffffffff81358116916020013516612726565b3480156108fa57600080fd5b5061024b6004803603602081101561091157600080fd5b503561275e565b34801561092457600080fd5b506102346004803603602081101561093b57600080fd5b503573ffffffffffffffffffffffffffffffffffffffff1661278d565b34801561096457600080fd5b5061024b6004803603602081101561097b57600080fd5b503561280c565b600d5481565b6005805460408051602060026001851615610100027fffffffffffffffffffffffffffffffffffffffffffffffffffffffffffffffff0190941693909304601f81018490048402820184019092528181529291830182828015610a2c5780601f10610a0157610100808354040283529160200191610a2c565b820191906000526020600020905b815481529060010190602001808311610a0f57829003601f168201915b505050505081565b6000610a4133848461283b565b5060015b92915050565b600a5481565b60025490565b610a5f611e8c565b610aca57604080517f08c379a000000000000000000000000000000000000000000000000000000000815260206004820181905260248201527f4f776e61626c653a2063616c6c6572206973206e6f7420746865206f776e6572604482015290519081900360640190fd5b6003805460010190819055600d54610ae8908363ffffffff61298216565b600d55610af583836129f9565b6003548114610b6557604080517f08c379a000000000000000000000000000000000000000000000000000000000815260206004820152601f60248201527f5265656e7472616e637947756172643a207265656e7472616e742063616c6c00604482015290519081900360640190fd5b505050565b60095481565b610b78611e8c565b610be357604080517f08c379a000000000000000000000000000000000000000000000000000000000815260206004820181905260248201527f4f776e61626c653a2063616c6c6572206973206e6f7420746865206f776e6572604482015290519081900360640190fd5b6003805460010190819055610c1573ffffffffffffffffffffffffffffffffffffffff8516848463ffffffff612b4716565b6003548114610c8557604080517f08c379a000000000000000000000000000000000000000000000000000000000815260206004820152601f60248201527f5265656e7472616e637947756172643a207265656e7472616e742063616c6c00604482015290519081900360640190fd5b50505050565b333214610cf957604080517f08c379a000000000000000000000000000000000000000000000000000000000815260206004820152600760248201527f6e6f7420656f6100000000000000000000000000000000000000000000000000604482015290519081900360640190fd5b34600c54421115610dff576000610d0f82611989565b90506000610dc9612710610dbd600760019054906101000a900473ffffffffffffffffffffffffffffffffffffffff1673ffffffffffffffffffffffffffffffffffffffff166309956f666040518163ffffffff1660e01b815260040160206040518083038186803b158015610d8457600080fd5b505afa158015610d98573d6000803e3d6000fd5b505050506040513d6020811015610dae57600080fd5b5051859063ffffffff612d2416565b9063ffffffff612d9e16565b600d54909150610ddf908263ffffffff612e2216565b600d55600b54610df5908363ffffffff612e2216565b600b55505042600c555b600380546001019081905587610e7c576009805460018082019092556000818152600860205260409020805473ffffffffffffffffffffffffffffffffffffffff8b167fffffffffffffffffffffffff00000000000000000000000000000000000000009182161782559201805490921633179091559750611016565b6009548810610eec57604080517f08c379a000000000000000000000000000000000000000000000000000000000815260206004820152600f60248201527f62616420706f736974696f6e2069640000000000000000000000000000000000604482015290519081900360640190fd5b60008881526008602052604090205473ffffffffffffffffffffffffffffffffffffffff888116911614610f8157604080517f08c379a000000000000000000000000000000000000000000000000000000000815260206004820152601360248201527f62616420706f736974696f6e20676f626c696e00000000000000000000000000604482015290519081900360640190fd5b60008881526008602052604090206001015473ffffffffffffffffffffffffffffffffffffffff16331461101657604080517f08c379a000000000000000000000000000000000000000000000000000000000815260206004820152601260248201527f6e6f7420706f736974696f6e206f776e65720000000000000000000000000000604482015290519081900360640190fd5b60408051878152905189917f73c4ef442856bea52a6b34a83f35484ee65828010254ec27766c5a8c13db6c84919081900360200190a2600754604080517f045d84ed00000000000000000000000000000000000000000000000000000000815273ffffffffffffffffffffffffffffffffffffffff8a8116600483015291516101009093049091169163045d84ed91602480820192602092909190829003018186803b1580156110c557600080fd5b505afa1580156110d9573d6000803e3d6000fd5b505050506040513d60208110156110ef57600080fd5b505161115c57604080517f08c379a000000000000000000000000000000000000000000000000000000000815260206004820152600c60248201527f6e6f74206120676f626c696e0000000000000000000000000000000000000000604482015290519081900360640190fd5b8515806112085750600754604080517e0237f000000000000000000000000000000000000000000000000000000000815273ffffffffffffffffffffffffffffffffffffffff8a81166004830152915161010090930490911691620237f091602480820192602092909190829003018186803b1580156111db57600080fd5b505afa1580156111ef573d6000803e3d6000fd5b505050506040513d602081101561120557600080fd5b50515b61127357604080517f08c379a000000000000000000000000000000000000000000000000000000000815260206004820152601b60248201527f676f626c696e206e6f7420616363657074206d6f726520646562740000000000604482015290519081900360640190fd5b600061128e876112828b612e96565b9063ffffffff612e2216565b90506000806112a3348a63ffffffff612e2216565b90504781111561131457604080517f08c379a000000000000000000000000000000000000000000000000000000000815260206004820152601c60248201527f696e73756666696369656e742045544820696e207468652062616e6b00000000604482015290519081900360640190fd5b6000611326478363ffffffff61298216565b90508a73ffffffffffffffffffffffffffffffffffffffff166348db8cc4838e33888d8d6040518763ffffffff1660e01b8152600401808681526020018573ffffffffffffffffffffffffffffffffffffffff1673ffffffffffffffffffffffffffffffffffffffff168152602001848152602001806020018281038252848482818152602001925080828437600081840152601f19601f82011690508083019250505096505050505050506000604051808303818588803b1580156113eb57600080fd5b505af11580156113ff573d6000803e3d6000fd5b5050505050611417814761298290919063ffffffff16565b9250505060006114308361142b848b612f3b565b612f3b565b9050611442838263ffffffff61298216565b9250821561171b57600760019054906101000a900473ffffffffffffffffffffffffffffffffffffffff1673ffffffffffffffffffffffffffffffffffffffff1663e1ed42866040518163ffffffff1660e01b815260040160206040518083038186803b1580156114b257600080fd5b505afa1580156114c6573d6000803e3d6000fd5b505050506040513d60208110156114dc57600080fd5b505183101561154c57604080517f08c379a000000000000000000000000000000000000000000000000000000000815260206004820152601360248201527f746f6f20736d616c6c20646562742073697a6500000000000000000000000000604482015290519081900360640190fd5b60008a73ffffffffffffffffffffffffffffffffffffffff1663783b6d608d6040518263ffffffff1660e01b81526004018082815260200191505060206040518083038186803b15801561159f57600080fd5b505afa1580156115b3573d6000803e3d6000fd5b505050506040513d60208110156115c957600080fd5b5051600754604080517fad58e57300000000000000000000000000000000000000000000000000000000815273ffffffffffffffffffffffffffffffffffffffff8f811660048301526024820189905291519394506000936101009093049091169163ad58e57391604480820192602092909190829003018186803b15801561165157600080fd5b505afa158015611665573d6000803e3d6000fd5b505050506040513d602081101561167b57600080fd5b505190506116918561271063ffffffff612d2416565b6116a1838363ffffffff612d2416565b101561170e57604080517f08c379a000000000000000000000000000000000000000000000000000000000815260206004820152600f60248201527f62616420776f726b20666163746f720000000000000000000000000000000000604482015290519081900360640190fd5b6117188d86612f51565b50505b8082111561172f5761172f338284036129f9565b50505060035481146117a257604080517f08c379a000000000000000000000000000000000000000000000000000000000815260206004820152601f60248201527f5265656e7472616e637947756172643a207265656e7472616e742063616c6c00604482015290519081900360640190fd5b5050505050505050565b60006117b9848484612fee565b73ffffffffffffffffffffffffffffffffffffffff8416600090815260016020908152604080832033808552925290912054611806918691611801908663ffffffff61298216565b61283b565b5060019392505050565b6000600c544211156118d257600061182782611989565b9050600061189c612710610dbd600760019054906101000a900473ffffffffffffffffffffffffffffffffffffffff1673ffffffffffffffffffffffffffffffffffffffff166309956f666040518163ffffffff1660e01b815260040160206040518083038186803b158015610d8457600080fd5b600d549091506118b2908263ffffffff612e2216565b600d55600b546118c8908363ffffffff612e2216565b600b55505042600c555b600380546001019081905560006119026118ea610a51565b610dbd6118f5611ac0565b879063ffffffff612d2416565b905061190e33856131a5565b61191833826129f9565b506003548114610b6557604080517f08c379a000000000000000000000000000000000000000000000000000000000815260206004820152601f60248201527f5265656e7472616e637947756172643a207265656e7472616e742063616c6c00604482015290519081900360640190fd5b6000600c54421115611aae5760006119ac600c544261298290919063ffffffff16565b905060006119c0478563ffffffff61298216565b90506000600760019054906101000a900473ffffffffffffffffffffffffffffffffffffffff1673ffffffffffffffffffffffffffffffffffffffff1663c6dfa13f600b54846040518363ffffffff1660e01b8152600401808381526020018281526020019250505060206040518083038186803b158015611a4157600080fd5b505afa158015611a55573d6000803e3d6000fd5b505050506040513d6020811015611a6b57600080fd5b5051600b54909150611aa490670de0b6b3a764000090610dbd908690611a9890869063ffffffff612d2416565b9063ffffffff612d2416565b9350505050611ab2565b5060005b919050565b60075460ff1681565b6000611ae9600d54611add600b5447612e2290919063ffffffff16565b9063ffffffff61298216565b905090565b33600081815260016020908152604080832073ffffffffffffffffffffffffffffffffffffffff871684529091528120549091610a41918590611801908663ffffffff612e2216565b611b3f611e8c565b611baa57604080517f08c379a000000000000000000000000000000000000000000000000000000000815260206004820181905260248201527f4f776e61626c653a2063616c6c6572206973206e6f7420746865206f776e6572604482015290519081900360640190fd5b600d54611bbd908263ffffffff61298216565b600d5550565b611bcb611e8c565b611c3657604080517f08c379a000000000000000000000000000000000000000000000000000000000815260206004820181905260248201527f4f776e61626c653a2063616c6c6572206973206e6f7420746865206f776e6572604482015290519081900360640190fd5b6007805473ffffffffffffffffffffffffffffffffffffffff909216610100027fffffffffffffffffffffff0000000000000000000000000000000000000000ff909216919091179055565b73ffffffffffffffffffffffffffffffffffffffff1660009081526020819052604090205490565b611cb2611e8c565b611d1d57604080517f08c379a000000000000000000000000000000000000000000000000000000000815260206004820181905260248201527f4f776e61626c653a2063616c6c6572206973206e6f7420746865206f776e6572604482015290519081900360640190fd5b60045460405160009173ffffffffffffffffffffffffffffffffffffffff16907f8be0079c531659141344cd1fd0a4f28419497f9722a3daafe3b4186f6b6457e0908390a3600480547fffffffffffffffffffffffff0000000000000000000000000000000000000000169055565b600754610100900473ffffffffffffffffffffffffffffffffffffffff1681565b6000818152600860209081526040808320805482517f783b6d600000000000000000000000000000000000000000000000000000000081526004810187905292518594929373ffffffffffffffffffffffffffffffffffffffff9092169263783b6d609260248082019391829003018186803b158015611e2c57600080fd5b505afa158015611e40573d6000803e3d6000fd5b505050506040513d6020811015611e5657600080fd5b50516002820154611e669061275e565b9250925050915091565b60045473ffffffffffffffffffffffffffffffffffffffff1690565b60045473ffffffffffffffffffffffffffffffffffffffff16331490565b6006805460408051602060026001851615610100027fffffffffffffffffffffffffffffffffffffffffffffffffffffffffffffffff0190941693909304601f81018490048402820184019092528181529291830182828015610a2c5780601f10610a0157610100808354040283529160200191610a2c565b60086020526000908152604090208054600182015460029092015473ffffffffffffffffffffffffffffffffffffffff918216929091169083565b600c5481565b33600081815260016020908152604080832073ffffffffffffffffffffffffffffffffffffffff871684529091528120549091610a41918590611801908663ffffffff61298216565b600b5481565b6000610a41338484612fee565b34600c54421115612081576000611fd682611989565b9050600061204b612710610dbd600760019054906101000a900473ffffffffffffffffffffffffffffffffffffffff1673ffffffffffffffffffffffffffffffffffffffff166309956f666040518163ffffffff1660e01b815260040160206040518083038186803b158015610d8457600080fd5b600d54909150612061908263ffffffff612e2216565b600d55600b54612077908363ffffffff612e2216565b600b55505042600c555b6003805460010190819055600061209a34611add611ac0565b9050600081156120c5576120c082610dbd6120b3610a51565b349063ffffffff612d2416565b6120c7565b345b90506120d333826132bf565b5050600354811461214557604080517f08c379a000000000000000000000000000000000000000000000000000000000815260206004820152601f60248201527f5265656e7472616e637947756172643a207265656e7472616e742063616c6c00604482015290519081900360640190fd5b5050565b3332146121b757604080517f08c379a000000000000000000000000000000000000000000000000000000000815260206004820152600760248201527f6e6f7420656f6100000000000000000000000000000000000000000000000000604482015290519081900360640190fd5b6000600c544211156122795760006121ce82611989565b90506000612243612710610dbd600760019054906101000a900473ffffffffffffffffffffffffffffffffffffffff1673ffffffffffffffffffffffffffffffffffffffff166309956f666040518163ffffffff1660e01b815260040160206040518083038186803b158015610d8457600080fd5b600d54909150612259908263ffffffff612e2216565b600d55600b5461226f908363ffffffff612e2216565b600b55505042600c555b60038054600101908190556000838152600860205260409020600281015461230257604080517f08c379a000000000000000000000000000000000000000000000000000000000815260206004820152600760248201527f6e6f206465627400000000000000000000000000000000000000000000000000604482015290519081900360640190fd5b600061230d85612e96565b8254604080517f783b6d6000000000000000000000000000000000000000000000000000000000815260048101899052905192935060009273ffffffffffffffffffffffffffffffffffffffff9092169163783b6d6091602480820192602092909190829003018186803b15801561238457600080fd5b505afa158015612398573d6000803e3d6000fd5b505050506040513d60208110156123ae57600080fd5b50516007548454604080517f13f6321b00000000000000000000000000000000000000000000000000000000815273ffffffffffffffffffffffffffffffffffffffff9283166004820152602481018790529051939450600093610100909304909116916313f6321b91604480820192602092909190829003018186803b15801561243857600080fd5b505afa15801561244c573d6000803e3d6000fd5b505050506040513d602081101561246257600080fd5b505190506124788361271063ffffffff612d2416565b612488838363ffffffff612d2416565b106124f457604080517f08c379a000000000000000000000000000000000000000000000000000000000815260206004820152600f60248201527f63616e2774206c69717569646174650000000000000000000000000000000000604482015290519081900360640190fd5b8354604080517f415f1240000000000000000000000000000000000000000000000000000000008152600481018a90529051479273ffffffffffffffffffffffffffffffffffffffff169163415f124091602480830192600092919082900301818387803b15801561256557600080fd5b505af1158015612579573d6000803e3d6000fd5b505050506000612592824761298290919063ffffffff16565b90506000612607612710610dbd600760019054906101000a900473ffffffffffffffffffffffffffffffffffffffff1673ffffffffffffffffffffffffffffffffffffffff166328ae433e6040518163ffffffff1660e01b815260040160206040518083038186803b158015610d8457600080fd5b9050600061261b838363ffffffff61298216565b9050811561262d5761262d33836129f9565b600087821161263d576000612641565b8782035b9050801561266e57600189015461266e9073ffffffffffffffffffffffffffffffffffffffff16826129f9565b6040805184815260208101839052815133928f927fa150a1ba7e1c4b72a15f8cb872406ce63950404709b67fbfe52b36792f483a39929081900390910190a35050505050505050506003548114610b6557604080517f08c379a000000000000000000000000000000000000000000000000000000000815260206004820152601f60248201527f5265656e7472616e637947756172643a207265656e7472616e742063616c6c00604482015290519081900360640190fd5b73ffffffffffffffffffffffffffffffffffffffff918216600090815260016020908152604080832093909416825291909152205490565b6000600a5460001415612772575080611ab2565b610a45600a54610dbd600b5485612d2490919063ffffffff16565b612795611e8c565b61280057604080517f08c379a000000000000000000000000000000000000000000000000000000000815260206004820181905260248201527f4f776e61626c653a2063616c6c6572206973206e6f7420746865206f776e6572604482015290519081900360640190fd5b612809816133f0565b50565b6000600a5460001415612820575080611ab2565b610a45600b54610dbd600a5485612d2490919063ffffffff16565b73ffffffffffffffffffffffffffffffffffffffff83166128a7576040517f08c379a00000000000000000000000000000000000000000000000000000000081526004018080602001828103825260248152602001806135bd6024913960400191505060405180910390fd5b73ffffffffffffffffffffffffffffffffffffffff8216612913576040517f08c379a00000000000000000000000000000000000000000000000000000000081526004018080602001828103825260228152602001806135346022913960400191505060405180910390fd5b73ffffffffffffffffffffffffffffffffffffffff808416600081815260016020908152604080832094871680845294825291829020859055815185815291517f8c5be1e5ebec7d5bd14f71427d1e84f3dd0314c0f7b2291e5b200ac8c7c3b9259281900390910190a3505050565b6000828211156129f357604080517f08c379a000000000000000000000000000000000000000000000000000000000815260206004820152601e60248201527f536166654d6174683a207375627472616374696f6e206f766572666c6f770000604482015290519081900360640190fd5b50900390565b6040805160008082526020820190925273ffffffffffffffffffffffffffffffffffffffff84169083906040518082805190602001908083835b60208310612a7057805182527fffffffffffffffffffffffffffffffffffffffffffffffffffffffffffffffe09092019160209182019101612a33565b6001836020036101000a03801982511681845116808217855250505050505090500191505060006040518083038185875af1925050503d8060008114612ad2576040519150601f19603f3d011682016040523d82523d6000602084013e612ad7565b606091505b5050905080610b6557604080517f08c379a000000000000000000000000000000000000000000000000000000000815260206004820152601060248201527f21736166655472616e7366657245544800000000000000000000000000000000604482015290519081900360640190fd5b6040805173ffffffffffffffffffffffffffffffffffffffff8481166024830152604480830185905283518084039091018152606490920183526020820180517bffffffffffffffffffffffffffffffffffffffffffffffffffffffff167fa9059cbb00000000000000000000000000000000000000000000000000000000178152925182516000946060949389169392918291908083835b60208310612c1d57805182527fffffffffffffffffffffffffffffffffffffffffffffffffffffffffffffffe09092019160209182019101612be0565b6001836020036101000a0380198251168184511680821785525050505050509050019150506000604051808303816000865af19150503d8060008114612c7f576040519150601f19603f3d011682016040523d82523d6000602084013e612c84565b606091505b5091509150818015612cb2575080511580612cb25750808060200190516020811015612caf57600080fd5b50515b612d1d57604080517f08c379a000000000000000000000000000000000000000000000000000000000815260206004820152600d60248201527f21736166655472616e7366657200000000000000000000000000000000000000604482015290519081900360640190fd5b5050505050565b600082612d3357506000610a45565b82820282848281612d4057fe5b0414612d97576040517f08c379a00000000000000000000000000000000000000000000000000000000081526004018080602001828103825260218152602001806135566021913960400191505060405180910390fd5b9392505050565b6000808211612e0e57604080517f08c379a000000000000000000000000000000000000000000000000000000000815260206004820152601a60248201527f536166654d6174683a206469766973696f6e206279207a65726f000000000000604482015290519081900360640190fd5b6000828481612e1957fe5b04949350505050565b600082820183811015612d9757604080517f08c379a000000000000000000000000000000000000000000000000000000000815260206004820152601b60248201527f536166654d6174683a206164646974696f6e206f766572666c6f770000000000604482015290519081900360640190fd5b600081815260086020526040812060028101548015612f30576000612eba8261275e565b60006002850155600a54909150612ed7908363ffffffff61298216565b600a55600b54612eed908263ffffffff61298216565b600b5560408051838152905186917fc141cd58846e97354928242dcc7ddd92a6a0ecf03bdb5d3a411d260b9abc3272919081900360200190a29250611ab2915050565b600092505050611ab2565b6000818310612f4a5781612d97565b5090919050565b600082815260086020526040812090612f698361280c565b6002830154909150612f81908263ffffffff612e2216565b6002830155600a54612f99908263ffffffff612e2216565b600a55600b54612faf908463ffffffff612e2216565b600b5560408051828152905185917f43b70d61bab6f8bfcf27c791452876c7da386b19652e19b8f21e8927aa6577ab919081900360200190a250505050565b73ffffffffffffffffffffffffffffffffffffffff831661305a576040517f08c379a00000000000000000000000000000000000000000000000000000000081526004018080602001828103825260258152602001806135986025913960400191505060405180910390fd5b73ffffffffffffffffffffffffffffffffffffffff82166130c6576040517f08c379a00000000000000000000000000000000000000000000000000000000081526004018080602001828103825260238152602001806134eb6023913960400191505060405180910390fd5b73ffffffffffffffffffffffffffffffffffffffff83166000908152602081905260409020546130fc908263ffffffff61298216565b73ffffffffffffffffffffffffffffffffffffffff808516600090815260208190526040808220939093559084168152205461313e908263ffffffff612e2216565b73ffffffffffffffffffffffffffffffffffffffff8084166000818152602081815260409182902094909455805185815290519193928716927fddf252ad1be2c89b69c2b068fc378daa952ba7f163c4a11628f55a4df523b3ef92918290030190a3505050565b73ffffffffffffffffffffffffffffffffffffffff8216613211576040517f08c379a00000000000000000000000000000000000000000000000000000000081526004018080602001828103825260218152602001806135776021913960400191505060405180910390fd5b600254613224908263ffffffff61298216565b60025573ffffffffffffffffffffffffffffffffffffffff821660009081526020819052604090205461325d908263ffffffff61298216565b73ffffffffffffffffffffffffffffffffffffffff8316600081815260208181526040808320949094558351858152935191937fddf252ad1be2c89b69c2b068fc378daa952ba7f163c4a11628f55a4df523b3ef929081900390910190a35050565b73ffffffffffffffffffffffffffffffffffffffff821661334157604080517f08c379a000000000000000000000000000000000000000000000000000000000815260206004820152601f60248201527f45524332303a206d696e7420746f20746865207a65726f206164647265737300604482015290519081900360640190fd5b600254613354908263ffffffff612e2216565b60025573ffffffffffffffffffffffffffffffffffffffff821660009081526020819052604090205461338d908263ffffffff612e2216565b73ffffffffffffffffffffffffffffffffffffffff83166000818152602081815260408083209490945583518581529351929391927fddf252ad1be2c89b69c2b068fc378daa952ba7f163c4a11628f55a4df523b3ef9281900390910190a35050565b73ffffffffffffffffffffffffffffffffffffffff811661345c576040517f08c379a000000000000000000000000000000000000000000000000000000000815260040180806020018281038252602681526020018061350e6026913960400191505060405180910390fd5b60045460405173ffffffffffffffffffffffffffffffffffffffff8084169216907f8be0079c531659141344cd1fd0a4f28419497f9722a3daafe3b4186f6b6457e090600090a3600480547fffffffffffffffffffffffff00000000000000000000000000000000000000001673ffffffffffffffffffffffffffffffffffffffff9290921691909117905556fe45524332303a207472616e7366657220746f20746865207a65726f20616464726573734f776e61626c653a206e6577206f776e657220697320746865207a65726f206164647265737345524332303a20617070726f766520746f20746865207a65726f2061646472657373536166654d6174683a206d756c7469706c69636174696f6e206f766572666c6f7745524332303a206275726e2066726f6d20746865207a65726f206164647265737345524332303a207472616e736665722066726f6d20746865207a65726f206164647265737345524332303a20617070726f76652066726f6d20746865207a65726f2061646472657373a265627a7a72315820e5cb4812970b9a000a184ddb5851712a208a62e0d4ea28e94be276581a8bd95e64736f6c63430005100032",
  "source": "pragma solidity 0.5.16;\nimport \"openzeppelin-solidity-2.3.0/contracts/ownership/Ownable.sol\";\nimport \"openzeppelin-solidity-2.3.0/contracts/token/ERC20/ERC20.sol\";\nimport \"openzeppelin-solidity-2.3.0/contracts/math/SafeMath.sol\";\nimport \"openzeppelin-solidity-2.3.0/contracts/math/Math.sol\";\nimport \"openzeppelin-solidity-2.3.0/contracts/utils/ReentrancyGuard.sol\";\nimport \"./BankConfig.sol\";\nimport \"./Goblin.sol\";\nimport \"./SafeToken.sol\";\n\ncontract Bank is ERC20, ReentrancyGuard, Ownable {\n    /// @notice Libraries\n    using SafeToken for address;\n    using SafeMath for uint256;\n\n    /// @notice Events\n    event AddDebt(uint256 indexed id, uint256 debtShare);\n    event RemoveDebt(uint256 indexed id, uint256 debtShare);\n    event Work(uint256 indexed id, uint256 loan);\n    event Kill(uint256 indexed id, address indexed killer, uint256 prize, uint256 left);\n\n    string public name = \"Interest Bearing ETH\";\n    string public symbol = \"ibETH\";\n    uint8 public decimals = 18;\n\n    struct Position {\n        address goblin;\n        address owner;\n        uint256 debtShare;\n    }\n\n    BankConfig public config;\n    mapping (uint256 => Position) public positions;\n    uint256 public nextPositionID = 1;\n\n    uint256 public glbDebtShare;\n    uint256 public glbDebtVal;\n    uint256 public lastAccrueTime;\n    uint256 public reservePool;\n\n    /// @dev Require that the caller must be an EOA account to avoid flash loans.\n    modifier onlyEOA() {\n        require(msg.sender == tx.origin, \"not eoa\");\n        _;\n    }\n\n    /// @dev Add more debt to the global debt pool.\n    modifier accrue(uint256 msgValue) {\n        if (now > lastAccrueTime) {\n            uint256 interest = pendingInterest(msgValue);\n            uint256 toReserve = interest.mul(config.getReservePoolBps()).div(10000);\n            reservePool = reservePool.add(toReserve);\n            glbDebtVal = glbDebtVal.add(interest);\n            lastAccrueTime = now;\n        }\n        _;\n    }\n\n    constructor(BankConfig _config) public {\n        config = _config;\n        lastAccrueTime = now;\n    }\n\n    /// @dev Return the pending interest that will be accrued in the next call.\n    /// @param msgValue Balance value to subtract off address(this).balance when called from payable functions.\n    function pendingInterest(uint256 msgValue) public view returns (uint256) {\n        if (now > lastAccrueTime) {\n            uint256 timePast = now.sub(lastAccrueTime);\n            uint256 balance = address(this).balance.sub(msgValue);\n            uint256 ratePerSec = config.getInterestRate(glbDebtVal, balance);\n            return ratePerSec.mul(glbDebtVal).mul(timePast).div(1e18);\n        } else {\n            return 0;\n        }\n    }\n\n    /// @dev Return the ETH debt value given the debt share. Be careful of unaccrued interests.\n    /// @param debtShare The debt share to be converted.\n    function debtShareToVal(uint256 debtShare) public view returns (uint256) {\n        if (glbDebtShare == 0) return debtShare; // When there's no share, 1 share = 1 val.\n        return debtShare.mul(glbDebtVal).div(glbDebtShare);\n    }\n\n    /// @dev Return the debt share for the given debt value. Be careful of unaccrued interests.\n    /// @param debtVal The debt value to be converted.\n    function debtValToShare(uint256 debtVal) public view returns (uint256) {\n        if (glbDebtShare == 0) return debtVal; // When there's no share, 1 share = 1 val.\n        return debtVal.mul(glbDebtShare).div(glbDebtVal);\n    }\n\n    /// @dev Return ETH value and debt of the given position. Be careful of unaccrued interests.\n    /// @param id The position ID to query.\n    function positionInfo(uint256 id) public view returns (uint256, uint256) {\n        Position storage pos = positions[id];\n        return (Goblin(pos.goblin).health(id), debtShareToVal(pos.debtShare));\n    }\n\n    /// @dev Return the total ETH entitled to the token holders. Be careful of unaccrued interests.\n    function totalETH() public view returns (uint256) {\n        return address(this).balance.add(glbDebtVal).sub(reservePool);\n    }\n\n    /// @dev Add more ETH to the bank. Hope to get some good returns.\n    function deposit() external payable accrue(msg.value) nonReentrant {\n        uint256 total = totalETH().sub(msg.value);\n        uint256 share = total == 0 ? msg.value : msg.value.mul(totalSupply()).div(total);\n        _mint(msg.sender, share);\n    }\n\n    /// @dev Withdraw ETH from the bank by burning the share tokens.\n    function withdraw(uint256 share) external accrue(0) nonReentrant {\n        uint256 amount = share.mul(totalETH()).div(totalSupply());\n        _burn(msg.sender, share);\n        SafeToken.safeTransferETH(msg.sender, amount);\n    }\n\n    /// @dev Create a new farming position to unlock your yield farming potential.\n    /// @param id The ID of the position to unlock the earning. Use ZERO for new position.\n    /// @param goblin The address of the authorized goblin to work for this position.\n    /// @param loan The amount of ETH to borrow from the pool.\n    /// @param maxReturn The max amount of ETH to return to the pool.\n    /// @param data The calldata to pass along to the goblin for more working context.\n    function work(uint256 id, address goblin, uint256 loan, uint256 maxReturn, bytes calldata data)\n        external payable\n        onlyEOA accrue(msg.value) nonReentrant\n    {\n        // 1. Sanity check the input position, or add a new position of ID is 0.\n        if (id == 0) {\n            id = nextPositionID++;\n            positions[id].goblin = goblin;\n            positions[id].owner = msg.sender;\n        } else {\n            require(id < nextPositionID, \"bad position id\");\n            require(positions[id].goblin == goblin, \"bad position goblin\");\n            require(positions[id].owner == msg.sender, \"not position owner\");\n        }\n        emit Work(id, loan);\n        // 2. Make sure the goblin can accept more debt and remove the existing debt.\n        require(config.isGoblin(goblin), \"not a goblin\");\n        require(loan == 0 || config.acceptDebt(goblin), \"goblin not accept more debt\");\n        uint256 debt = _removeDebt(id).add(loan);\n        // 3. Perform the actual work, using a new scope to avoid stack-too-deep errors.\n        uint256 back;\n        {\n            uint256 sendETH = msg.value.add(loan);\n            require(sendETH <= address(this).balance, \"insufficient ETH in the bank\");\n            uint256 beforeETH = address(this).balance.sub(sendETH);\n            Goblin(goblin).work.value(sendETH)(id, msg.sender, debt, data);\n            back = address(this).balance.sub(beforeETH);\n        }\n        // 4. Check and update position debt.\n        uint256 lessDebt = Math.min(debt, Math.min(back, maxReturn));\n        debt = debt.sub(lessDebt);\n        if (debt > 0) {\n            require(debt >= config.minDebtSize(), \"too small debt size\");\n            uint256 health = Goblin(goblin).health(id);\n            uint256 workFactor = config.workFactor(goblin, debt);\n            require(health.mul(workFactor) >= debt.mul(10000), \"bad work factor\");\n            _addDebt(id, debt);\n        }\n        // 5. Return excess ETH back.\n        if (back > lessDebt) SafeToken.safeTransferETH(msg.sender, back - lessDebt);\n    }\n\n    /// @dev Kill the given to the position. Liquidate it immediately if killFactor condition is met.\n    /// @param id The position ID to be killed.\n    function kill(uint256 id) external onlyEOA accrue(0) nonReentrant {\n        // 1. Verify that the position is eligible for liquidation.\n        Position storage pos = positions[id];\n        require(pos.debtShare > 0, \"no debt\");\n        uint256 debt = _removeDebt(id);\n        uint256 health = Goblin(pos.goblin).health(id);\n        uint256 killFactor = config.killFactor(pos.goblin, debt);\n        require(health.mul(killFactor) < debt.mul(10000), \"can't liquidate\");\n        // 2. Perform liquidation and compute the amount of ETH received.\n        uint256 beforeETH = address(this).balance;\n        Goblin(pos.goblin).liquidate(id);\n        uint256 back = address(this).balance.sub(beforeETH);\n        uint256 prize = back.mul(config.getKillBps()).div(10000);\n        uint256 rest = back.sub(prize);\n        // 3. Clear position debt and return funds to liquidator and position owner.\n        if (prize > 0) SafeToken.safeTransferETH(msg.sender, prize);\n        uint256 left = rest > debt ? rest - debt : 0;\n        if (left > 0) SafeToken.safeTransferETH(pos.owner, left);\n        emit Kill(id, msg.sender, prize, left);\n    }\n\n    /// @dev Internal function to add the given debt value to the given position.\n    function _addDebt(uint256 id, uint256 debtVal) internal {\n        Position storage pos = positions[id];\n        uint256 debtShare = debtValToShare(debtVal);\n        pos.debtShare = pos.debtShare.add(debtShare);\n        glbDebtShare = glbDebtShare.add(debtShare);\n        glbDebtVal = glbDebtVal.add(debtVal);\n        emit AddDebt(id, debtShare);\n    }\n\n    /// @dev Internal function to clear the debt of the given position. Return the debt value.\n    function _removeDebt(uint256 id) internal returns (uint256) {\n        Position storage pos = positions[id];\n        uint256 debtShare = pos.debtShare;\n        if (debtShare > 0) {\n            uint256 debtVal = debtShareToVal(debtShare);\n            pos.debtShare = 0;\n            glbDebtShare = glbDebtShare.sub(debtShare);\n            glbDebtVal = glbDebtVal.sub(debtVal);\n            emit RemoveDebt(id, debtShare);\n            return debtVal;\n        } else {\n            return 0;\n        }\n    }\n\n    /// @dev Update bank configuration to a new address. Must only be called by owner.\n    /// @param _config The new configurator address.\n    function updateConfig(BankConfig _config) external onlyOwner {\n        config = _config;\n    }\n\n    /// @dev Withdraw ETH reserve for underwater positions to the given address.\n    /// @param to The address to transfer ETH to.\n    /// @param value The number of ETH tokens to withdraw. Must not exceed `reservePool`.\n    function withdrawReserve(address to, uint256 value) external onlyOwner nonReentrant {\n        reservePool = reservePool.sub(value);\n        SafeToken.safeTransferETH(to, value);\n    }\n\n    /// @dev Reduce ETH reserve, effectively giving them to the depositors.\n    /// @param value The number of ETH reserve to reduce.\n    function reduceReserve(uint256 value) external onlyOwner {\n        reservePool = reservePool.sub(value);\n    }\n\n    /// @dev Recover ERC20 tokens that were accidentally sent to this smart contract.\n    /// @param token The token contract. Can be anything. This contract should not hold ERC20 tokens.\n    /// @param to The address to send the tokens to.\n    /// @param value The number of tokens to transfer to `to`.\n    function recover(address token, address to, uint256 value) external onlyOwner nonReentrant {\n        token.safeTransfer(to, value);\n    }\n\n    /// @dev Fallback function to accept ETH. Goblins will send ETH back the pool.\n    function() external payable {}\n}\n",
  "sourcePath": "C:/workspace/Project/projects.spider.miner/alphahomora/contracts/5/Bank.sol",
  "compiler": {
    "name": "solc",
    "version": "0.5.16+commit.9c3226ce.Emscripten.clang"
  },
  "schemaVersion": "3.3.2",
  "updatedAt": "2021-01-13T08:43:03.898Z",
  "networkType": "ethereum",
  "devdoc": {
    "methods": {
      "allowance(address,address)": {
        "details": "See `IERC20.allowance`."
      },
      "approve(address,uint256)": {
        "details": "See `IERC20.approve`.     * Requirements:     * - `spender` cannot be the zero address."
      },
      "balanceOf(address)": {
        "details": "See `IERC20.balanceOf`."
      },
      "debtShareToVal(uint256)": {
        "details": "Return the ETH debt value given the debt share. Be careful of unaccrued interests.",
        "params": {
          "debtShare": "The debt share to be converted."
        }
      },
      "debtValToShare(uint256)": {
        "details": "Return the debt share for the given debt value. Be careful of unaccrued interests.",
        "params": {
          "debtVal": "The debt value to be converted."
        }
      },
      "decreaseAllowance(address,uint256)": {
        "details": "Atomically decreases the allowance granted to `spender` by the caller.     * This is an alternative to `approve` that can be used as a mitigation for problems described in `IERC20.approve`.     * Emits an `Approval` event indicating the updated allowance.     * Requirements:     * - `spender` cannot be the zero address. - `spender` must have allowance for the caller of at least `subtractedValue`."
      },
      "deposit()": {
        "details": "Add more ETH to the bank. Hope to get some good returns."
      },
      "increaseAllowance(address,uint256)": {
        "details": "Atomically increases the allowance granted to `spender` by the caller.     * This is an alternative to `approve` that can be used as a mitigation for problems described in `IERC20.approve`.     * Emits an `Approval` event indicating the updated allowance.     * Requirements:     * - `spender` cannot be the zero address."
      },
      "isOwner()": {
        "details": "Returns true if the caller is the current owner."
      },
      "kill(uint256)": {
        "details": "Kill the given to the position. Liquidate it immediately if killFactor condition is met.",
        "params": {
          "id": "The position ID to be killed."
        }
      },
      "owner()": {
        "details": "Returns the address of the current owner."
      },
      "pendingInterest(uint256)": {
        "details": "Return the pending interest that will be accrued in the next call.",
        "params": {
          "msgValue": "Balance value to subtract off address(this).balance when called from payable functions."
        }
      },
      "positionInfo(uint256)": {
        "details": "Return ETH value and debt of the given position. Be careful of unaccrued interests.",
        "params": {
          "id": "The position ID to query."
        }
      },
      "recover(address,address,uint256)": {
        "details": "Recover ERC20 tokens that were accidentally sent to this smart contract.",
        "params": {
          "to": "The address to send the tokens to.",
          "token": "The token contract. Can be anything. This contract should not hold ERC20 tokens.",
          "value": "The number of tokens to transfer to `to`."
        }
      },
      "reduceReserve(uint256)": {
        "details": "Reduce ETH reserve, effectively giving them to the depositors.",
        "params": {
          "value": "The number of ETH reserve to reduce."
        }
      },
      "renounceOwnership()": {
        "details": "Leaves the contract without owner. It will not be possible to call `onlyOwner` functions anymore. Can only be called by the current owner.     * > Note: Renouncing ownership will leave the contract without an owner, thereby removing any functionality that is only available to the owner."
      },
      "totalETH()": {
        "details": "Return the total ETH entitled to the token holders. Be careful of unaccrued interests."
      },
      "totalSupply()": {
        "details": "See `IERC20.totalSupply`."
      },
      "transfer(address,uint256)": {
        "details": "See `IERC20.transfer`.     * Requirements:     * - `recipient` cannot be the zero address. - the caller must have a balance of at least `amount`."
      },
      "transferFrom(address,address,uint256)": {
        "details": "See `IERC20.transferFrom`.     * Emits an `Approval` event indicating the updated allowance. This is not required by the EIP. See the note at the beginning of `ERC20`;     * Requirements: - `sender` and `recipient` cannot be the zero address. - `sender` must have a balance of at least `value`. - the caller must have allowance for `sender`'s tokens of at least `amount`."
      },
      "transferOwnership(address)": {
        "details": "Transfers ownership of the contract to a new account (`newOwner`). Can only be called by the current owner."
      },
      "updateConfig(address)": {
        "details": "Update bank configuration to a new address. Must only be called by owner.",
        "params": {
          "_config": "The new configurator address."
        }
      },
      "withdraw(uint256)": {
        "details": "Withdraw ETH from the bank by burning the share tokens."
      },
      "withdrawReserve(address,uint256)": {
        "details": "Withdraw ETH reserve for underwater positions to the given address.",
        "params": {
          "to": "The address to transfer ETH to.",
          "value": "The number of ETH tokens to withdraw. Must not exceed `reservePool`."
        }
      },
      "work(uint256,address,uint256,uint256,bytes)": {
        "details": "Create a new farming position to unlock your yield farming potential.",
        "params": {
          "data": "The calldata to pass along to the goblin for more working context.",
          "goblin": "The address of the authorized goblin to work for this position.",
          "id": "The ID of the position to unlock the earning. Use ZERO for new position.",
          "loan": "The amount of ETH to borrow from the pool.",
          "maxReturn": "The max amount of ETH to return to the pool."
        }
      }
    }
  },
  "userdoc": {
    "methods": {}
  }
}