{
  "contractName": "ConfigurableInterestBankConfig",
  "abi": [
    {
      "inputs": [
        {
          "internalType": "uint256",
          "name": "_minDebtSize",
          "type": "uint256"
        },
        {
          "internalType": "uint256",
          "name": "_reservePoolBps",
          "type": "uint256"
        },
        {
          "internalType": "uint256",
          "name": "_killBps",
          "type": "uint256"
        },
        {
          "internalType": "contract InterestModel",
          "name": "_interestModel",
          "type": "address"
        }
      ],
      "payable": false,
      "stateMutability": "nonpayable",
      "type": "constructor"
    },
    {
      "anonymous": false,
      "inputs": [
        {
          "indexed": true,
          "internalType": "address",
          "name": "previousOwner",
          "type": "address"
        },
        {
          "indexed": true,
          "internalType": "address",
          "name": "newOwner",
          "type": "address"
        }
      ],
      "name": "OwnershipTransferred",
      "type": "event"
    },
    {
      "constant": true,
      "inputs": [],
      "name": "getKillBps",
      "outputs": [
        {
          "internalType": "uint256",
          "name": "",
          "type": "uint256"
        }
      ],
      "payable": false,
      "stateMutability": "view",
      "type": "function"
    },
    {
      "constant": true,
      "inputs": [],
      "name": "getReservePoolBps",
      "outputs": [
        {
          "internalType": "uint256",
          "name": "",
          "type": "uint256"
        }
      ],
      "payable": false,
      "stateMutability": "view",
      "type": "function"
    },
    {
      "constant": true,
      "inputs": [
        {
          "internalType": "address",
          "name": "",
          "type": "address"
        }
      ],
      "name": "goblins",
      "outputs": [
        {
          "internalType": "contract GoblinConfig",
          "name": "",
          "type": "address"
        }
      ],
      "payable": false,
      "stateMutability": "view",
      "type": "function"
    },
    {
      "constant": true,
      "inputs": [],
      "name": "interestModel",
      "outputs": [
        {
          "internalType": "contract InterestModel",
          "name": "",
          "type": "address"
        }
      ],
      "payable": false,
      "stateMutability": "view",
      "type": "function"
    },
    {
      "constant": true,
      "inputs": [],
      "name": "isOwner",
      "outputs": [
        {
          "internalType": "bool",
          "name": "",
          "type": "bool"
        }
      ],
      "payable": false,
      "stateMutability": "view",
      "type": "function"
    },
    {
      "constant": true,
      "inputs": [],
      "name": "minDebtSize",
      "outputs": [
        {
          "internalType": "uint256",
          "name": "",
          "type": "uint256"
        }
      ],
      "payable": false,
      "stateMutability": "view",
      "type": "function"
    },
    {
      "constant": true,
      "inputs": [],
      "name": "owner",
      "outputs": [
        {
          "internalType": "address",
          "name": "",
          "type": "address"
        }
      ],
      "payable": false,
      "stateMutability": "view",
      "type": "function"
    },
    {
      "constant": false,
      "inputs": [],
      "name": "renounceOwnership",
      "outputs": [],
      "payable": false,
      "stateMutability": "nonpayable",
      "type": "function"
    },
    {
      "constant": false,
      "inputs": [
        {
          "internalType": "address",
          "name": "newOwner",
          "type": "address"
        }
      ],
      "name": "transferOwnership",
      "outputs": [],
      "payable": false,
      "stateMutability": "nonpayable",
      "type": "function"
    },
    {
      "constant": false,
      "inputs": [
        {
          "internalType": "uint256",
          "name": "_minDebtSize",
          "type": "uint256"
        },
        {
          "internalType": "uint256",
          "name": "_reservePoolBps",
          "type": "uint256"
        },
        {
          "internalType": "uint256",
          "name": "_killBps",
          "type": "uint256"
        },
        {
          "internalType": "contract InterestModel",
          "name": "_interestModel",
          "type": "address"
        }
      ],
      "name": "setParams",
      "outputs": [],
      "payable": false,
      "stateMutability": "nonpayable",
      "type": "function"
    },
    {
      "constant": false,
      "inputs": [
        {
          "internalType": "address[]",
          "name": "addrs",
          "type": "address[]"
        },
        {
          "internalType": "contract GoblinConfig[]",
          "name": "configs",
          "type": "address[]"
        }
      ],
      "name": "setGoblins",
      "outputs": [],
      "payable": false,
      "stateMutability": "nonpayable",
      "type": "function"
    },
    {
      "constant": true,
      "inputs": [
        {
          "internalType": "uint256",
          "name": "debt",
          "type": "uint256"
        },
        {
          "internalType": "uint256",
          "name": "floating",
          "type": "uint256"
        }
      ],
      "name": "getInterestRate",
      "outputs": [
        {
          "internalType": "uint256",
          "name": "",
          "type": "uint256"
        }
      ],
      "payable": false,
      "stateMutability": "view",
      "type": "function"
    },
    {
      "constant": true,
      "inputs": [
        {
          "internalType": "address",
          "name": "goblin",
          "type": "address"
        }
      ],
      "name": "isGoblin",
      "outputs": [
        {
          "internalType": "bool",
          "name": "",
          "type": "bool"
        }
      ],
      "payable": false,
      "stateMutability": "view",
      "type": "function"
    },
    {
      "constant": true,
      "inputs": [
        {
          "internalType": "address",
          "name": "goblin",
          "type": "address"
        }
      ],
      "name": "acceptDebt",
      "outputs": [
        {
          "internalType": "bool",
          "name": "",
          "type": "bool"
        }
      ],
      "payable": false,
      "stateMutability": "view",
      "type": "function"
    },
    {
      "constant": true,
      "inputs": [
        {
          "internalType": "address",
          "name": "goblin",
          "type": "address"
        },
        {
          "internalType": "uint256",
          "name": "debt",
          "type": "uint256"
        }
      ],
      "name": "workFactor",
      "outputs": [
        {
          "internalType": "uint256",
          "name": "",
          "type": "uint256"
        }
      ],
      "payable": false,
      "stateMutability": "view",
      "type": "function"
    },
    {
      "constant": true,
      "inputs": [
        {
          "internalType": "address",
          "name": "goblin",
          "type": "address"
        },
        {
          "internalType": "uint256",
          "name": "debt",
          "type": "uint256"
        }
      ],
      "name": "killFactor",
      "outputs": [
        {
          "internalType": "uint256",
          "name": "",
          "type": "uint256"
        }
      ],
      "payable": false,
      "stateMutability": "view",
      "type": "function"
    }
  ],
  "bytecode": "0x608060405234801561001057600080fd5b50604051610d8b380380610d8b8339818101604052608081101561003357600080fd5b5080516020820151604080840151606090940151600080546001600160a01b031916331780825592519495939491926001600160a01b0316917f8be0079c531659141344cd1fd0a4f28419497f9722a3daafe3b4186f6b6457e0908290a36100a6848484846001600160e01b036100af16565b50505050610152565b6100c06001600160e01b0361014116565b610111576040805162461bcd60e51b815260206004820181905260248201527f4f776e61626c653a2063616c6c6572206973206e6f7420746865206f776e6572604482015290519081900360640190fd5b600193909355600291909155600355600580546001600160a01b0319166001600160a01b03909216919091179055565b6000546001600160a01b0316331490565b610c2a806101616000396000f3fe608060405234801561001057600080fd5b50600436106100ff5760003560e01c80638da5cb5b11610097578063ad58e57311610066578063ad58e5731461035e578063c6dfa13f14610397578063e1ed4286146103ba578063f2fde38b146103c2576100ff565b80638da5cb5b146102ea5780638f32d59b1461031b578063a71d6f4314610323578063ac165d7a14610356576100ff565b806328ae433e116100d357806328ae433e146101d157806331baa138146101d9578063715018a61461029d57806383801a88146102a5576100ff565b80620237f014610104578063045d84ed1461014b57806309956f661461017e57806313f6321b14610198575b600080fd5b6101376004803603602081101561011a57600080fd5b503573ffffffffffffffffffffffffffffffffffffffff166103f5565b604080519115158252519081900360200190f35b6101376004803603602081101561016157600080fd5b503573ffffffffffffffffffffffffffffffffffffffff166104a3565b6101866104d0565b60408051918252519081900360200190f35b610186600480360360408110156101ae57600080fd5b5073ffffffffffffffffffffffffffffffffffffffff81351690602001356104d6565b61018661058e565b61029b600480360360408110156101ef57600080fd5b81019060208101813564010000000081111561020a57600080fd5b82018360208201111561021c57600080fd5b8035906020019184602083028401116401000000008311171561023e57600080fd5b91939092909160208101903564010000000081111561025c57600080fd5b82018360208201111561026e57600080fd5b8035906020019184602083028401116401000000008311171561029057600080fd5b509092509050610594565b005b61029b61072b565b61029b600480360360808110156102bb57600080fd5b508035906020810135906040810135906060013573ffffffffffffffffffffffffffffffffffffffff1661080d565b6102f26108d5565b6040805173ffffffffffffffffffffffffffffffffffffffff9092168252519081900360200190f35b6101376108f1565b6102f26004803603602081101561033957600080fd5b503573ffffffffffffffffffffffffffffffffffffffff1661090f565b6102f2610937565b6101866004803603604081101561037457600080fd5b5073ffffffffffffffffffffffffffffffffffffffff8135169060200135610953565b610186600480360360408110156103ad57600080fd5b50803590602001356109d8565b610186610a51565b61029b600480360360208110156103d857600080fd5b503573ffffffffffffffffffffffffffffffffffffffff16610a57565b73ffffffffffffffffffffffffffffffffffffffff80821660008181526004602081815260408084205481517e0237f0000000000000000000000000000000000000000000000000000000008152938401959095525192949390931692620237f092602480840193829003018186803b15801561047157600080fd5b505afa158015610485573d6000803e3d6000fd5b505050506040513d602081101561049b57600080fd5b505192915050565b73ffffffffffffffffffffffffffffffffffffffff90811660009081526004602052604090205416151590565b60025481565b73ffffffffffffffffffffffffffffffffffffffff80831660008181526004602081815260408084205481517f13f6321b000000000000000000000000000000000000000000000000000000008152938401959095526024830187905251929493909316926313f6321b92604480840193829003018186803b15801561055b57600080fd5b505afa15801561056f573d6000803e3d6000fd5b505050506040513d602081101561058557600080fd5b50519392505050565b60035481565b61059c6108f1565b61060757604080517f08c379a000000000000000000000000000000000000000000000000000000000815260206004820181905260248201527f4f776e61626c653a2063616c6c6572206973206e6f7420746865206f776e6572604482015290519081900360640190fd5b82811461067557604080517f08c379a000000000000000000000000000000000000000000000000000000000815260206004820152600a60248201527f626164206c656e67746800000000000000000000000000000000000000000000604482015290519081900360640190fd5b60005b838110156107245782828281811061068c57fe5b9050602002013573ffffffffffffffffffffffffffffffffffffffff16600460008787858181106106b957fe5b73ffffffffffffffffffffffffffffffffffffffff602091820293909301358316845283019390935260409091016000208054939091167fffffffffffffffffffffffff00000000000000000000000000000000000000009093169290921790915550600101610678565b5050505050565b6107336108f1565b61079e57604080517f08c379a000000000000000000000000000000000000000000000000000000000815260206004820181905260248201527f4f776e61626c653a2063616c6c6572206973206e6f7420746865206f776e6572604482015290519081900360640190fd5b6000805460405173ffffffffffffffffffffffffffffffffffffffff909116907f8be0079c531659141344cd1fd0a4f28419497f9722a3daafe3b4186f6b6457e0908390a3600080547fffffffffffffffffffffffff0000000000000000000000000000000000000000169055565b6108156108f1565b61088057604080517f08c379a000000000000000000000000000000000000000000000000000000000815260206004820181905260248201527f4f776e61626c653a2063616c6c6572206973206e6f7420746865206f776e6572604482015290519081900360640190fd5b600193909355600291909155600355600580547fffffffffffffffffffffffff00000000000000000000000000000000000000001673ffffffffffffffffffffffffffffffffffffffff909216919091179055565b60005473ffffffffffffffffffffffffffffffffffffffff1690565b60005473ffffffffffffffffffffffffffffffffffffffff16331490565b60046020526000908152604090205473ffffffffffffffffffffffffffffffffffffffff1681565b60055473ffffffffffffffffffffffffffffffffffffffff1681565b73ffffffffffffffffffffffffffffffffffffffff80831660008181526004602081815260408084205481517fad58e5730000000000000000000000000000000000000000000000000000000081529384019590955260248301879052519294939093169263ad58e57392604480840193829003018186803b15801561055b57600080fd5b600554604080517fc6dfa13f0000000000000000000000000000000000000000000000000000000081526004810185905260248101849052905160009273ffffffffffffffffffffffffffffffffffffffff169163c6dfa13f916044808301926020929190829003018186803b15801561055b57600080fd5b60015481565b610a5f6108f1565b610aca57604080517f08c379a000000000000000000000000000000000000000000000000000000000815260206004820181905260248201527f4f776e61626c653a2063616c6c6572206973206e6f7420746865206f776e6572604482015290519081900360640190fd5b610ad381610ad6565b50565b73ffffffffffffffffffffffffffffffffffffffff8116610b42576040517f08c379a0000000000000000000000000000000000000000000000000000000008152600401808060200182810382526026815260200180610bd06026913960400191505060405180910390fd5b6000805460405173ffffffffffffffffffffffffffffffffffffffff808516939216917f8be0079c531659141344cd1fd0a4f28419497f9722a3daafe3b4186f6b6457e091a3600080547fffffffffffffffffffffffff00000000000000000000000000000000000000001673ffffffffffffffffffffffffffffffffffffffff9290921691909117905556fe4f776e61626c653a206e6577206f776e657220697320746865207a65726f2061646472657373a265627a7a72315820b1bd61e91e4eb29e29040f843126fe7624af2c33232b7dbfa0e99d51790a5a3d64736f6c63430005100032",
  "source": "pragma solidity 0.5.16;\nimport \"openzeppelin-solidity-2.3.0/contracts/ownership/Ownable.sol\";\nimport \"openzeppelin-solidity-2.3.0/contracts/math/SafeMath.sol\";\nimport \"./BankConfig.sol\";\nimport \"./GoblinConfig.sol\";\n\n\ninterface InterestModel {\n    /// @dev Return the interest rate per second, using 1e18 as denom.\n    function getInterestRate(uint256 debt, uint256 floating) external view returns (uint256);\n}\n\ncontract TripleSlopeModel {\n    using SafeMath for uint256;\n\n    /// @dev Return the interest rate per second, using 1e18 as denom.\n    function getInterestRate(uint256 debt, uint256 floating) external pure returns (uint256) {\n        uint256 total = debt.add(floating);\n        uint256 utilization = debt.mul(10000).div(total);\n        if (utilization < 5000) {\n            // Less than 50% utilization - 10% APY\n            return uint256(10e16) / 365 days;\n        } else if (utilization < 9500) {\n            // Between 50% and 95% - 10%-25% APY\n            return (10e16 + utilization.sub(5000).mul(15e16).div(10000)) / 365 days;\n        } else if (utilization < 10000) {\n            // Between 95% and 100% - 25%-100% APY\n            return (25e16 + utilization.sub(7500).mul(75e16).div(10000)) / 365 days;\n        } else {\n            // Not possible, but just in case - 100% APY\n            return uint256(100e16) / 365 days;\n        }\n    }\n}\n\ncontract ConfigurableInterestBankConfig is BankConfig, Ownable {\n    /// The minimum ETH debt size per position.\n    uint256 public minDebtSize;\n    /// The portion of interests allocated to the reserve pool.\n    uint256 public getReservePoolBps;\n    /// The reward for successfully killing a position.\n    uint256 public getKillBps;\n    /// Mapping for goblin address to its configuration.\n    mapping (address => GoblinConfig) public goblins;\n    /// Interest rate model\n    InterestModel public interestModel;\n\n    constructor(\n        uint256 _minDebtSize,\n        uint256 _reservePoolBps,\n        uint256 _killBps,\n        InterestModel _interestModel\n    ) public {\n        setParams(_minDebtSize, _reservePoolBps, _killBps, _interestModel);\n    }\n\n    /// @dev Set all the basic parameters. Must only be called by the owner.\n    /// @param _minDebtSize The new minimum debt size value.\n    /// @param _reservePoolBps The new interests allocated to the reserve pool value.\n    /// @param _killBps The new reward for killing a position value.\n    /// @param _interestModel The new interest rate model contract.\n    function setParams(\n        uint256 _minDebtSize,\n        uint256 _reservePoolBps,\n        uint256 _killBps,\n        InterestModel _interestModel\n    ) public onlyOwner {\n        minDebtSize = _minDebtSize;\n        getReservePoolBps = _reservePoolBps;\n        getKillBps = _killBps;\n        interestModel = _interestModel;\n    }\n\n    /// @dev Set the configuration for the given goblins. Must only be called by the owner.\n    function setGoblins(address[] calldata addrs, GoblinConfig[] calldata configs) external onlyOwner {\n        require(addrs.length == configs.length, \"bad length\");\n        for (uint256 idx = 0; idx < addrs.length; idx++) {\n            goblins[addrs[idx]] = configs[idx];\n        }\n    }\n\n    /// @dev Return the interest rate per second, using 1e18 as denom.\n    function getInterestRate(uint256 debt, uint256 floating) external view returns (uint256) {\n        return interestModel.getInterestRate(debt, floating);\n    }\n\n    /// @dev Return whether the given address is a goblin.\n    function isGoblin(address goblin) external view returns (bool) {\n        return address(goblins[goblin]) != address(0);\n    }\n\n    /// @dev Return whether the given goblin accepts more debt. Revert on non-goblin.\n    function acceptDebt(address goblin) external view returns (bool) {\n        return goblins[goblin].acceptDebt(goblin);\n    }\n\n    /// @dev Return the work factor for the goblin + ETH debt, using 1e4 as denom. Revert on non-goblin.\n    function workFactor(address goblin, uint256 debt) external view returns (uint256) {\n        return goblins[goblin].workFactor(goblin, debt);\n    }\n\n    /// @dev Return the kill factor for the goblin + ETH debt, using 1e4 as denom. Revert on non-goblin.\n    function killFactor(address goblin, uint256 debt) external view returns (uint256) {\n        return goblins[goblin].killFactor(goblin, debt);\n    }\n}\n",
  "sourcePath": "C:/workspace/Project/projects.spider.miner/alphahomora/contracts/5/ConfigurableInterestBankConfig.sol",
  "compiler": {
    "name": "solc",
    "version": "0.5.16+commit.9c3226ce.Emscripten.clang"
  },
  "schemaVersion": "3.2.5",
  "updatedAt": "2021-01-08T06:13:44.719Z",
  "devdoc": {
    "methods": {
      "acceptDebt(address)": {
        "details": "Return whether the given goblin accepts more debt. Revert on non-goblin."
      },
      "getInterestRate(uint256,uint256)": {
        "details": "Return the interest rate per second, using 1e18 as denom."
      },
      "isGoblin(address)": {
        "details": "Return whether the given address is a goblin."
      },
      "isOwner()": {
        "details": "Returns true if the caller is the current owner."
      },
      "killFactor(address,uint256)": {
        "details": "Return the kill factor for the goblin + ETH debt, using 1e4 as denom. Revert on non-goblin."
      },
      "owner()": {
        "details": "Returns the address of the current owner."
      },
      "renounceOwnership()": {
        "details": "Leaves the contract without owner. It will not be possible to call `onlyOwner` functions anymore. Can only be called by the current owner.     * > Note: Renouncing ownership will leave the contract without an owner, thereby removing any functionality that is only available to the owner."
      },
      "setGoblins(address[],address[])": {
        "details": "Set the configuration for the given goblins. Must only be called by the owner."
      },
      "setParams(uint256,uint256,uint256,address)": {
        "details": "Set all the basic parameters. Must only be called by the owner.",
        "params": {
          "_interestModel": "The new interest rate model contract.",
          "_killBps": "The new reward for killing a position value.",
          "_minDebtSize": "The new minimum debt size value.",
          "_reservePoolBps": "The new interests allocated to the reserve pool value."
        }
      },
      "transferOwnership(address)": {
        "details": "Transfers ownership of the contract to a new account (`newOwner`). Can only be called by the current owner."
      },
      "workFactor(address,uint256)": {
        "details": "Return the work factor for the goblin + ETH debt, using 1e4 as denom. Revert on non-goblin."
      }
    }
  },
  "userdoc": {
    "methods": {}
  }
}