{
  "contractName": "IbETHRouter",
  "abi": [
    {
      "inputs": [
        {
          "internalType": "address",
          "name": "_router",
          "type": "address"
        },
        {
          "internalType": "address",
          "name": "_ibETH",
          "type": "address"
        },
        {
          "internalType": "address",
          "name": "_alpha",
          "type": "address"
        }
      ],
      "payable": false,
      "stateMutability": "nonpayable",
      "type": "constructor"
    },
    {
      "anonymous": false,
      "inputs": [
        {
          "indexed": true,
          "internalType": "address",
          "name": "previousOwner",
          "type": "address"
        },
        {
          "indexed": true,
          "internalType": "address",
          "name": "newOwner",
          "type": "address"
        }
      ],
      "name": "OwnershipTransferred",
      "type": "event"
    },
    {
      "payable": true,
      "stateMutability": "payable",
      "type": "fallback"
    },
    {
      "constant": true,
      "inputs": [],
      "name": "alpha",
      "outputs": [
        {
          "internalType": "address",
          "name": "",
          "type": "address"
        }
      ],
      "payable": false,
      "stateMutability": "view",
      "type": "function"
    },
    {
      "constant": true,
      "inputs": [],
      "name": "ibETH",
      "outputs": [
        {
          "internalType": "address",
          "name": "",
          "type": "address"
        }
      ],
      "payable": false,
      "stateMutability": "view",
      "type": "function"
    },
    {
      "constant": true,
      "inputs": [],
      "name": "isOwner",
      "outputs": [
        {
          "internalType": "bool",
          "name": "",
          "type": "bool"
        }
      ],
      "payable": false,
      "stateMutability": "view",
      "type": "function"
    },
    {
      "constant": true,
      "inputs": [],
      "name": "lpToken",
      "outputs": [
        {
          "internalType": "address",
          "name": "",
          "type": "address"
        }
      ],
      "payable": false,
      "stateMutability": "view",
      "type": "function"
    },
    {
      "constant": true,
      "inputs": [],
      "name": "owner",
      "outputs": [
        {
          "internalType": "address",
          "name": "",
          "type": "address"
        }
      ],
      "payable": false,
      "stateMutability": "view",
      "type": "function"
    },
    {
      "constant": false,
      "inputs": [],
      "name": "renounceOwnership",
      "outputs": [],
      "payable": false,
      "stateMutability": "nonpayable",
      "type": "function"
    },
    {
      "constant": true,
      "inputs": [],
      "name": "router",
      "outputs": [
        {
          "internalType": "address",
          "name": "",
          "type": "address"
        }
      ],
      "payable": false,
      "stateMutability": "view",
      "type": "function"
    },
    {
      "constant": false,
      "inputs": [
        {
          "internalType": "address",
          "name": "newOwner",
          "type": "address"
        }
      ],
      "name": "transferOwnership",
      "outputs": [],
      "payable": false,
      "stateMutability": "nonpayable",
      "type": "function"
    },
    {
      "constant": true,
      "inputs": [
        {
          "internalType": "uint256",
          "name": "amountETH",
          "type": "uint256"
        }
      ],
      "name": "ibETHForExactETH",
      "outputs": [
        {
          "internalType": "uint256",
          "name": "",
          "type": "uint256"
        }
      ],
      "payable": false,
      "stateMutability": "view",
      "type": "function"
    },
    {
      "constant": false,
      "inputs": [
        {
          "internalType": "uint256",
          "name": "amountAlphaDesired",
          "type": "uint256"
        },
        {
          "internalType": "uint256",
          "name": "amountAlphaMin",
          "type": "uint256"
        },
        {
          "internalType": "uint256",
          "name": "amountETHMin",
          "type": "uint256"
        },
        {
          "internalType": "address",
          "name": "to",
          "type": "address"
        },
        {
          "internalType": "uint256",
          "name": "deadline",
          "type": "uint256"
        }
      ],
      "name": "addLiquidityETH",
      "outputs": [
        {
          "internalType": "uint256",
          "name": "amountAlpha",
          "type": "uint256"
        },
        {
          "internalType": "uint256",
          "name": "amountETH",
          "type": "uint256"
        },
        {
          "internalType": "uint256",
          "name": "liquidity",
          "type": "uint256"
        }
      ],
      "payable": true,
      "stateMutability": "payable",
      "type": "function"
    },
    {
      "constant": false,
      "inputs": [
        {
          "internalType": "uint256",
          "name": "amountIbETHDesired",
          "type": "uint256"
        },
        {
          "internalType": "uint256",
          "name": "amountAlphaDesired",
          "type": "uint256"
        },
        {
          "internalType": "uint256",
          "name": "amountLPMin",
          "type": "uint256"
        },
        {
          "internalType": "address",
          "name": "to",
          "type": "address"
        },
        {
          "internalType": "uint256",
          "name": "deadline",
          "type": "uint256"
        }
      ],
      "name": "addLiquidityTwoSidesOptimal",
      "outputs": [
        {
          "internalType": "uint256",
          "name": "liquidity",
          "type": "uint256"
        }
      ],
      "payable": false,
      "stateMutability": "nonpayable",
      "type": "function"
    },
    {
      "constant": false,
      "inputs": [
        {
          "internalType": "uint256",
          "name": "amountAlphaDesired",
          "type": "uint256"
        },
        {
          "internalType": "uint256",
          "name": "amountLPMin",
          "type": "uint256"
        },
        {
          "internalType": "address",
          "name": "to",
          "type": "address"
        },
        {
          "internalType": "uint256",
          "name": "deadline",
          "type": "uint256"
        }
      ],
      "name": "addLiquidityTwoSidesOptimalETH",
      "outputs": [
        {
          "internalType": "uint256",
          "name": "liquidity",
          "type": "uint256"
        }
      ],
      "payable": true,
      "stateMutability": "payable",
      "type": "function"
    },
    {
      "constant": false,
      "inputs": [
        {
          "internalType": "uint256",
          "name": "liquidity",
          "type": "uint256"
        },
        {
          "internalType": "uint256",
          "name": "amountAlphaMin",
          "type": "uint256"
        },
        {
          "internalType": "uint256",
          "name": "amountETHMin",
          "type": "uint256"
        },
        {
          "internalType": "address",
          "name": "to",
          "type": "address"
        },
        {
          "internalType": "uint256",
          "name": "deadline",
          "type": "uint256"
        }
      ],
      "name": "removeLiquidityETH",
      "outputs": [
        {
          "internalType": "uint256",
          "name": "amountAlpha",
          "type": "uint256"
        },
        {
          "internalType": "uint256",
          "name": "amountETH",
          "type": "uint256"
        }
      ],
      "payable": false,
      "stateMutability": "nonpayable",
      "type": "function"
    },
    {
      "constant": false,
      "inputs": [
        {
          "internalType": "uint256",
          "name": "liquidity",
          "type": "uint256"
        },
        {
          "internalType": "uint256",
          "name": "amountAlphaMin",
          "type": "uint256"
        },
        {
          "internalType": "address",
          "name": "to",
          "type": "address"
        },
        {
          "internalType": "uint256",
          "name": "deadline",
          "type": "uint256"
        }
      ],
      "name": "removeLiquidityAllAlpha",
      "outputs": [
        {
          "internalType": "uint256",
          "name": "amountAlpha",
          "type": "uint256"
        }
      ],
      "payable": false,
      "stateMutability": "nonpayable",
      "type": "function"
    },
    {
      "constant": false,
      "inputs": [
        {
          "internalType": "uint256",
          "name": "amountAlphaOutMin",
          "type": "uint256"
        },
        {
          "internalType": "address",
          "name": "to",
          "type": "address"
        },
        {
          "internalType": "uint256",
          "name": "deadline",
          "type": "uint256"
        }
      ],
      "name": "swapExactETHForAlpha",
      "outputs": [
        {
          "internalType": "uint256[]",
          "name": "amounts",
          "type": "uint256[]"
        }
      ],
      "payable": true,
      "stateMutability": "payable",
      "type": "function"
    },
    {
      "constant": false,
      "inputs": [
        {
          "internalType": "uint256",
          "name": "amountETHOut",
          "type": "uint256"
        },
        {
          "internalType": "uint256",
          "name": "amountAlphaInMax",
          "type": "uint256"
        },
        {
          "internalType": "address",
          "name": "to",
          "type": "address"
        },
        {
          "internalType": "uint256",
          "name": "deadline",
          "type": "uint256"
        }
      ],
      "name": "swapAlphaForExactETH",
      "outputs": [
        {
          "internalType": "uint256[]",
          "name": "amounts",
          "type": "uint256[]"
        }
      ],
      "payable": false,
      "stateMutability": "nonpayable",
      "type": "function"
    },
    {
      "constant": false,
      "inputs": [
        {
          "internalType": "uint256",
          "name": "amountAlphaIn",
          "type": "uint256"
        },
        {
          "internalType": "uint256",
          "name": "amountETHOutMin",
          "type": "uint256"
        },
        {
          "internalType": "address",
          "name": "to",
          "type": "address"
        },
        {
          "internalType": "uint256",
          "name": "deadline",
          "type": "uint256"
        }
      ],
      "name": "swapExactAlphaForETH",
      "outputs": [
        {
          "internalType": "uint256[]",
          "name": "amounts",
          "type": "uint256[]"
        }
      ],
      "payable": false,
      "stateMutability": "nonpayable",
      "type": "function"
    },
    {
      "constant": false,
      "inputs": [
        {
          "internalType": "uint256",
          "name": "amountAlphaOut",
          "type": "uint256"
        },
        {
          "internalType": "address",
          "name": "to",
          "type": "address"
        },
        {
          "internalType": "uint256",
          "name": "deadline",
          "type": "uint256"
        }
      ],
      "name": "swapETHForExactAlpha",
      "outputs": [
        {
          "internalType": "uint256[]",
          "name": "amounts",
          "type": "uint256[]"
        }
      ],
      "payable": true,
      "stateMutability": "payable",
      "type": "function"
    },
    {
      "constant": false,
      "inputs": [
        {
          "internalType": "address",
          "name": "token",
          "type": "address"
        },
        {
          "internalType": "address",
          "name": "to",
          "type": "address"
        },
        {
          "internalType": "uint256",
          "name": "value",
          "type": "uint256"
        }
      ],
      "name": "recover",
      "outputs": [],
      "payable": false,
      "stateMutability": "nonpayable",
      "type": "function"
    },
    {
      "constant": false,
      "inputs": [
        {
          "internalType": "address",
          "name": "to",
          "type": "address"
        },
        {
          "internalType": "uint256",
          "name": "value",
          "type": "uint256"
        }
      ],
      "name": "recoverETH",
      "outputs": [],
      "payable": false,
      "stateMutability": "nonpayable",
      "type": "function"
    }
  ],
  "bytecode": "0x60806040523480156200001157600080fd5b506040516200488a3803806200488a833981810160405260608110156200003757600080fd5b5080516020820151604092830151600080546001600160a01b031916331780825594519394929391926001600160a01b0316917f8be0079c531659141344cd1fd0a4f28419497f9722a3daafe3b4186f6b6457e0908290a3600180546001600160a01b038086166001600160a01b0319928316179283905560028054868316908416179055600380548583169316929092179091556040805163c45a015560e01b815290516000939092169163c45a015591600480820192602092909190829003018186803b1580156200010a57600080fd5b505afa1580156200011f573d6000803e3d6000fd5b505050506040513d60208110156200013657600080fd5b5051600254600354919250620001679183916001600160a01b03908116911662000320602090811b6200429d17901c565b600480546001600160a01b0319166001600160a01b03928316178082556001546040805163095ea7b360e01b8152918516938201939093526000196024820152915192169163095ea7b3916044808201926020929091908290030181600087803b158015620001d557600080fd5b505af1158015620001ea573d6000803e3d6000fd5b505050506040513d60208110156200020157600080fd5b50506002546001546040805163095ea7b360e01b81526001600160a01b03928316600482015260001960248201529051919092169163095ea7b39160448083019260209291908290030181600087803b1580156200025e57600080fd5b505af115801562000273573d6000803e3d6000fd5b505050506040513d60208110156200028a57600080fd5b50506003546001546040805163095ea7b360e01b81526001600160a01b03928316600482015260001960248201529051919092169163095ea7b39160448083019260209291908290030181600087803b158015620002e757600080fd5b505af1158015620002fc573d6000803e3d6000fd5b505050506040513d60208110156200031357600080fd5b50620003aa945050505050565b6040805163e6a4390560e01b81526001600160a01b0384811660048301528381166024830152915160009286169163e6a43905916044808301926020929190829003018186803b1580156200037457600080fd5b505afa15801562000389573d6000803e3d6000fd5b505050506040513d6020811015620003a057600080fd5b5051949350505050565b6144d080620003ba6000396000f3fe60806040526004361061015f5760003560e01c80638f32d59b116100c0578063ee1fae3c11610074578063f58a733c11610059578063f58a733c1461060e578063f887ea4014610638578063fca03f471461064d5761015f565b8063ee1fae3c1461055d578063f2fde38b146105ce5761015f565b8063bab8e1c0116100a5578063bab8e1c0146104ca578063bb8a88bb146104df578063db1d0fd5146105485761015f565b80638f32d59b14610462578063b8f3962f1461048b5761015f565b80636faad94e1161011757806376f7b35f116100fc57806376f7b35f146103b05780638596f3d6146103f55780638da5cb5b1461044d5761015f565b80636faad94e14610349578063715018a61461039b5761015f565b80633e0c0629116101485780633e0c06291461026157806347241fad146102a75780635fcbd2851461030b5761015f565b806305ea4671146101825780631ec82cb814610211575b60025473ffffffffffffffffffffffffffffffffffffffff16331461018057fe5b005b6101c16004803603606081101561019857600080fd5b5080359073ffffffffffffffffffffffffffffffffffffffff602082013516906040013561069f565b60408051602080825283518183015283519192839290830191858101910280838360005b838110156101fd5781810151838201526020016101e5565b505050509050019250505060405180910390f35b34801561021d57600080fd5b506101806004803603606081101561023457600080fd5b5073ffffffffffffffffffffffffffffffffffffffff813581169160208101359091169060400135610a8a565b34801561026d57600080fd5b506101806004803603604081101561028457600080fd5b5073ffffffffffffffffffffffffffffffffffffffff8135169060200135610b0d565b3480156102b357600080fd5b506102f9600480360360808110156102ca57600080fd5b5080359060208101359073ffffffffffffffffffffffffffffffffffffffff6040820135169060600135610b8e565b60408051918252519081900360200190f35b34801561031757600080fd5b50610320610fed565b6040805173ffffffffffffffffffffffffffffffffffffffff9092168252519081900360200190f35b34801561035557600080fd5b506101c16004803603608081101561036c57600080fd5b5080359060208101359073ffffffffffffffffffffffffffffffffffffffff6040820135169060600135611009565b3480156103a757600080fd5b5061018061140b565b6102f9600480360360808110156103c657600080fd5b5080359060208101359073ffffffffffffffffffffffffffffffffffffffff60408201351690606001356114ed565b34801561040157600080fd5b506102f9600480360360a081101561041857600080fd5b5080359060208101359060408101359073ffffffffffffffffffffffffffffffffffffffff6060820135169060800135611e65565b34801561045957600080fd5b506103206126de565b34801561046e57600080fd5b506104776126fa565b604080519115158252519081900360200190f35b6101c1600480360360608110156104a157600080fd5b5080359073ffffffffffffffffffffffffffffffffffffffff6020820135169060400135612718565b3480156104d657600080fd5b50610320612c30565b61052a600480360360a08110156104f557600080fd5b5080359060208101359060408101359073ffffffffffffffffffffffffffffffffffffffff6060820135169060800135612c4c565b60408051938452602084019290925282820152519081900360600190f35b34801561055457600080fd5b50610320612fc1565b34801561056957600080fd5b506105b5600480360360a081101561058057600080fd5b5080359060208101359060408101359073ffffffffffffffffffffffffffffffffffffffff6060820135169060800135612fdd565b6040805192835260208301919091528051918290030190f35b3480156105da57600080fd5b50610180600480360360208110156105f157600080fd5b503573ffffffffffffffffffffffffffffffffffffffff1661320d565b34801561061a57600080fd5b506102f96004803603602081101561063157600080fd5b503561328c565b34801561064457600080fd5b50610320613410565b34801561065957600080fd5b506101c16004803603608081101561067057600080fd5b5080359060208101359073ffffffffffffffffffffffffffffffffffffffff604082013516906060013561342c565b6060600260009054906101000a900473ffffffffffffffffffffffffffffffffffffffff1673ffffffffffffffffffffffffffffffffffffffff1663d0e30db0346040518263ffffffff1660e01b81526004016000604051808303818588803b15801561070b57600080fd5b505af115801561071f573d6000803e3d6000fd5b505060408051600280825260608083018452955090935091506020830190803883395050600254825192935073ffffffffffffffffffffffffffffffffffffffff169183915060009061076e57fe5b73ffffffffffffffffffffffffffffffffffffffff92831660209182029290920101526003548251911690829060019081106107a657fe5b73ffffffffffffffffffffffffffffffffffffffff928316602091820292909201810191909152600154600254604080517f70a082310000000000000000000000000000000000000000000000000000000081523060048201529051606095938416946338ed17399493909316926370a082319260248082019391829003018186803b15801561083557600080fd5b505afa158015610849573d6000803e3d6000fd5b505050506040513d602081101561085f57600080fd5b50516040517fffffffff0000000000000000000000000000000000000000000000000000000060e084901b16815260048101828152602482018b905273ffffffffffffffffffffffffffffffffffffffff8a1660648301526084820189905260a060448301908152875160a484015287518c9389938d938d939192909160c4909101906020878101910280838360005b838110156109075781810151838201526020016108ef565b505050509050019650505050505050600060405180830381600087803b15801561093057600080fd5b505af1158015610944573d6000803e3d6000fd5b505050506040513d6000823e601f3d9081017fffffffffffffffffffffffffffffffffffffffffffffffffffffffffffffffe0168201604052602081101561098b57600080fd5b81019080805160405193929190846401000000008211156109ab57600080fd5b9083019060208201858111156109c057600080fd5b82518660208202830111640100000000821117156109dd57600080fd5b82525081516020918201928201910280838360005b83811015610a0a5781810151838201526020016109f2565b50506002949092018481526060810160405297985092955050505050508160200160208202803883390190505092503483600081518110610a4757fe5b60200260200101818152505080600181518110610a6057fe5b602002602001015183600181518110610a7557fe5b60200260200101818152505050509392505050565b610a926126fa565b610afd57604080517f08c379a000000000000000000000000000000000000000000000000000000000815260206004820181905260248201527f4f776e61626c653a2063616c6c6572206973206e6f7420746865206f776e6572604482015290519081900360640190fd5b610b0883838361389d565b505050565b610b156126fa565b610b8057604080517f08c379a000000000000000000000000000000000000000000000000000000000815260206004820181905260248201527f4f776e61626c653a2063616c6c6572206973206e6f7420746865206f776e6572604482015290519081900360640190fd5b610b8a8282613a7a565b5050565b600454600090610bb69073ffffffffffffffffffffffffffffffffffffffff16333088613bb2565b600154600354600254604080517fbaa2abde00000000000000000000000000000000000000000000000000000000815273ffffffffffffffffffffffffffffffffffffffff9384166004820152918316602483015260448201899052600060648301819052608483018190523060a484015260c48301879052815190948594169263baa2abde9260e480830193919282900301818787803b158015610c5a57600080fd5b505af1158015610c6e573d6000803e3d6000fd5b505050506040513d6040811015610c8457600080fd5b508051602091820151604080516002808252606080830184529497509295509293830190803883395050600254825192935073ffffffffffffffffffffffffffffffffffffffff1691839150600090610cd957fe5b73ffffffffffffffffffffffffffffffffffffffff9283166020918202929092010152600354825191169082906001908110610d1157fe5b602002602001019073ffffffffffffffffffffffffffffffffffffffff16908173ffffffffffffffffffffffffffffffffffffffff16815250506060600160009054906101000a900473ffffffffffffffffffffffffffffffffffffffff1673ffffffffffffffffffffffffffffffffffffffff166338ed1739846000858b8b6040518663ffffffff1660e01b815260040180868152602001858152602001806020018473ffffffffffffffffffffffffffffffffffffffff1673ffffffffffffffffffffffffffffffffffffffff168152602001838152602001828103825285818151815260200191508051906020019060200280838360005b83811015610e24578181015183820152602001610e0c565b505050509050019650505050505050600060405180830381600087803b158015610e4d57600080fd5b505af1158015610e61573d6000803e3d6000fd5b505050506040513d6000823e601f3d9081017fffffffffffffffffffffffffffffffffffffffffffffffffffffffffffffffe01682016040526020811015610ea857600080fd5b8101908080516040519392919084640100000000821115610ec857600080fd5b908301906020820185811115610edd57600080fd5b8251866020820283011164010000000082111715610efa57600080fd5b82525081516020918201928201910280838360005b83811015610f27578181015183820152602001610f0f565b50505050919091016040525050600354929350610f5f9273ffffffffffffffffffffffffffffffffffffffff1691508990508661389d565b610f8681600181518110610f6f57fe5b602002602001015185613d8290919063ffffffff16565b945087851015610fe1576040517f08c379a00000000000000000000000000000000000000000000000000000000081526004018080602001828103825260338152602001806143a36033913960400191505060405180910390fd5b50505050949350505050565b60045473ffffffffffffffffffffffffffffffffffffffff1681565b6003546060906110319073ffffffffffffffffffffffffffffffffffffffff16333088613bb2565b60408051600280825260608083018452926020830190803883395050600354825192935073ffffffffffffffffffffffffffffffffffffffff169183915060009061107857fe5b73ffffffffffffffffffffffffffffffffffffffff92831660209182029290920101526002548251911690829060019081106110b057fe5b73ffffffffffffffffffffffffffffffffffffffff9283166020918202929092018101919091526001546040517f38ed1739000000000000000000000000000000000000000000000000000000008152600481018a81526000602483018190523060648401819052608484018a905260a060448501908152885160a4860152885160609896909616966338ed1739968f9694958b958e949193919260c49091019187810191028083838b5b8381101561117357818101518382015260200161115b565b505050509050019650505050505050600060405180830381600087803b15801561119c57600080fd5b505af11580156111b0573d6000803e3d6000fd5b505050506040513d6000823e601f3d9081017fffffffffffffffffffffffffffffffffffffffffffffffffffffffffffffffe016820160405260208110156111f757600080fd5b810190808051604051939291908464010000000082111561121757600080fd5b90830190602082018581111561122c57600080fd5b825186602082028301116401000000008211171561124957600080fd5b82525081516020918201928201910280838360005b8381101561127657818101518382015260200161125e565b50505050919091016040525050600254835193945073ffffffffffffffffffffffffffffffffffffffff1692632e1a7d4d925084915060019081106112b757fe5b60200260200101516040518263ffffffff1660e01b815260040180828152602001915050600060405180830381600087803b1580156112f557600080fd5b505af1158015611309573d6000803e3d6000fd5b505060408051600280825260608201835290935091506020830190803883390190505092508060008151811061133b57fe5b60200260200101518360008151811061135057fe5b602002602001018181525050478360018151811061136a57fe5b602002602001018181525050611394858460018151811061138757fe5b6020026020010151613a7a565b85836001815181106113a257fe5b60200260200101511015611401576040517f08c379a000000000000000000000000000000000000000000000000000000000815260040180806020018281038252602f8152602001806143d6602f913960400191505060405180910390fd5b5050949350505050565b6114136126fa565b61147e57604080517f08c379a000000000000000000000000000000000000000000000000000000000815260206004820181905260248201527f4f776e61626c653a2063616c6c6572206973206e6f7420746865206f776e6572604482015290519081900360640190fd5b6000805460405173ffffffffffffffffffffffffffffffffffffffff909116907f8be0079c531659141344cd1fd0a4f28419497f9722a3daafe3b4186f6b6457e0908390a3600080547fffffffffffffffffffffffff0000000000000000000000000000000000000000169055565b6000841561151a5760035461151a9073ffffffffffffffffffffffffffffffffffffffff16333088613bb2565b600260009054906101000a900473ffffffffffffffffffffffffffffffffffffffff1673ffffffffffffffffffffffffffffffffffffffff1663d0e30db0346040518263ffffffff1660e01b81526004016000604051808303818588803b15801561158457600080fd5b505af1158015611598573d6000803e3d6000fd5b5050600254604080517f70a0823100000000000000000000000000000000000000000000000000000000815230600482015290516000955073ffffffffffffffffffffffffffffffffffffffff90921693506370a082319250602480820192602092909190829003018186803b15801561161157600080fd5b505afa158015611625573d6000803e3d6000fd5b505050506040513d602081101561163b57600080fd5b505160048054604080517f0902f1ac000000000000000000000000000000000000000000000000000000008152905193945060009384938493849373ffffffffffffffffffffffffffffffffffffffff90911692630902f1ac92828101926060929190829003018186803b1580156116b257600080fd5b505afa1580156116c6573d6000803e3d6000fd5b505050506040513d60608110156116dc57600080fd5b50805160209182015160025460048054604080517f0dfe168100000000000000000000000000000000000000000000000000000000815290516dffffffffffffffffffffffffffff9687169950959094169650600095869573ffffffffffffffffffffffffffffffffffffffff948516959290941693630dfe16819383810193829003018186803b15801561177057600080fd5b505afa158015611784573d6000803e3d6000fd5b505050506040513d602081101561179a57600080fd5b505173ffffffffffffffffffffffffffffffffffffffff16146117be5782846117c1565b83835b915091506117d1878d8484613dff565b60408051600280825260608083018452949a50929850929650919450925060208401915080388339019050509050816118295760025460035473ffffffffffffffffffffffffffffffffffffffff918216911661184a565b60035460025473ffffffffffffffffffffffffffffffffffffffff91821691165b8260008151811061185757fe5b602002602001018360018151811061186b57fe5b73ffffffffffffffffffffffffffffffffffffffff93841660209182029290920181019190915292821690526001546040517f38ed1739000000000000000000000000000000000000000000000000000000008152600481018781526000602483018190523060648401819052426084850181905260a060448601908152895160a4870152895196909716976338ed1739978c9794968b969495939493919260c49091019187820191028083838b5b8381101561193257818101518382015260200161191a565b505050509050019650505050505050600060405180830381600087803b15801561195b57600080fd5b505af115801561196f573d6000803e3d6000fd5b505050506040513d6000823e601f3d9081017fffffffffffffffffffffffffffffffffffffffffffffffffffffffffffffffe016820160405260208110156119b657600080fd5b81019080805160405193929190846401000000008211156119d657600080fd5b9083019060208201858111156119eb57600080fd5b8251866020820283011164010000000082111715611a0857600080fd5b82525081516020918201928201910280838360005b83811015611a35578181015183820152602001611a1d565b505050509190910160408181526001546003546002547f70a08231000000000000000000000000000000000000000000000000000000008552306004860152925173ffffffffffffffffffffffffffffffffffffffff928316995063e8e3370098509082169650911693508492506370a0823191602480820192602092909190829003018186803b158015611ac957600080fd5b505afa158015611add573d6000803e3d6000fd5b505050506040513d6020811015611af357600080fd5b5051600254604080517f70a08231000000000000000000000000000000000000000000000000000000008152306004820152905173ffffffffffffffffffffffffffffffffffffffff909216916370a0823191602480820192602092909190829003018186803b158015611b6657600080fd5b505afa158015611b7a573d6000803e3d6000fd5b505050506040513d6020811015611b9057600080fd5b5051604080517fffffffff0000000000000000000000000000000000000000000000000000000060e088901b16815273ffffffffffffffffffffffffffffffffffffffff958616600482015293851660248501526044840192909252606483015260006084830181905260a48301819052928c1660c483015260e482018b9052516101048083019360609383900390910190829087803b158015611c3357600080fd5b505af1158015611c47573d6000803e3d6000fd5b505050506040513d6060811015611c5d57600080fd5b5060409081015160035482517f70a08231000000000000000000000000000000000000000000000000000000008152306004820152925191975060009273ffffffffffffffffffffffffffffffffffffffff909116916370a0823191602480820192602092909190829003018186803b158015611cd957600080fd5b505afa158015611ced573d6000803e3d6000fd5b505050506040513d6020811015611d0357600080fd5b5051600254604080517f70a08231000000000000000000000000000000000000000000000000000000008152306004820152905192935060009273ffffffffffffffffffffffffffffffffffffffff909216916370a0823191602480820192602092909190829003018186803b158015611d7c57600080fd5b505afa158015611d90573d6000803e3d6000fd5b505050506040513d6020811015611da657600080fd5b505190508115611dd457600354611dd49073ffffffffffffffffffffffffffffffffffffffff16338461389d565b8015611dfe57600254611dfe9073ffffffffffffffffffffffffffffffffffffffff16338361389d565b89871015611e57576040517f08c379a000000000000000000000000000000000000000000000000000000000815260040180806020018281038252603281526020018061434b6032913960400191505060405180910390fd5b505050505050949350505050565b60008515611e9257600254611e929073ffffffffffffffffffffffffffffffffffffffff16333089613bb2565b8415611ebd57600354611ebd9073ffffffffffffffffffffffffffffffffffffffff16333088613bb2565b600080600080600460009054906101000a900473ffffffffffffffffffffffffffffffffffffffff1673ffffffffffffffffffffffffffffffffffffffff16630902f1ac6040518163ffffffff1660e01b815260040160606040518083038186803b158015611f2b57600080fd5b505afa158015611f3f573d6000803e3d6000fd5b505050506040513d6060811015611f5557600080fd5b50805160209182015160025460048054604080517f0dfe168100000000000000000000000000000000000000000000000000000000815290516dffffffffffffffffffffffffffff9687169950959094169650600095869573ffffffffffffffffffffffffffffffffffffffff948516959290941693630dfe16819383810193829003018186803b158015611fe957600080fd5b505afa158015611ffd573d6000803e3d6000fd5b505050506040513d602081101561201357600080fd5b505173ffffffffffffffffffffffffffffffffffffffff161461203757828461203a565b83835b9150915061204a8c8c8484613dff565b60408051600280825260608083018452949a50929850929650919450925060208401915080388339019050509050816120a25760025460035473ffffffffffffffffffffffffffffffffffffffff91821691166120c3565b60035460025473ffffffffffffffffffffffffffffffffffffffff91821691165b826000815181106120d057fe5b60200260200101836001815181106120e457fe5b73ffffffffffffffffffffffffffffffffffffffff93841660209182029290920181019190915292821690526001546040517f38ed1739000000000000000000000000000000000000000000000000000000008152600481018781526000602483018190523060648401819052426084850181905260a060448601908152895160a4870152895196909716976338ed1739978c9794968b969495939493919260c49091019187820191028083838b5b838110156121ab578181015183820152602001612193565b505050509050019650505050505050600060405180830381600087803b1580156121d457600080fd5b505af11580156121e8573d6000803e3d6000fd5b505050506040513d6000823e601f3d9081017fffffffffffffffffffffffffffffffffffffffffffffffffffffffffffffffe0168201604052602081101561222f57600080fd5b810190808051604051939291908464010000000082111561224f57600080fd5b90830190602082018581111561226457600080fd5b825186602082028301116401000000008211171561228157600080fd5b82525081516020918201928201910280838360005b838110156122ae578181015183820152602001612296565b505050509190910160408181526001546003546002547f70a08231000000000000000000000000000000000000000000000000000000008552306004860152925173ffffffffffffffffffffffffffffffffffffffff928316995063e8e3370098509082169650911693508492506370a0823191602480820192602092909190829003018186803b15801561234257600080fd5b505afa158015612356573d6000803e3d6000fd5b505050506040513d602081101561236c57600080fd5b5051600254604080517f70a08231000000000000000000000000000000000000000000000000000000008152306004820152905173ffffffffffffffffffffffffffffffffffffffff909216916370a0823191602480820192602092909190829003018186803b1580156123df57600080fd5b505afa1580156123f3573d6000803e3d6000fd5b505050506040513d602081101561240957600080fd5b5051604080517fffffffff0000000000000000000000000000000000000000000000000000000060e088901b16815273ffffffffffffffffffffffffffffffffffffffff958616600482015293851660248501526044840192909252606483015260006084830181905260a48301819052928b1660c483015260e482018a9052516101048083019360609383900390910190829087803b1580156124ac57600080fd5b505af11580156124c0573d6000803e3d6000fd5b505050506040513d60608110156124d657600080fd5b5060409081015160035482517f70a08231000000000000000000000000000000000000000000000000000000008152306004820152925191965060009273ffffffffffffffffffffffffffffffffffffffff909116916370a0823191602480820192602092909190829003018186803b15801561255257600080fd5b505afa158015612566573d6000803e3d6000fd5b505050506040513d602081101561257c57600080fd5b5051600254604080517f70a08231000000000000000000000000000000000000000000000000000000008152306004820152905192935060009273ffffffffffffffffffffffffffffffffffffffff909216916370a0823191602480820192602092909190829003018186803b1580156125f557600080fd5b505afa158015612609573d6000803e3d6000fd5b505050506040513d602081101561261f57600080fd5b50519050811561264d5760035461264d9073ffffffffffffffffffffffffffffffffffffffff16338461389d565b8015612677576002546126779073ffffffffffffffffffffffffffffffffffffffff16338361389d565b888610156126d0576040517f08c379a000000000000000000000000000000000000000000000000000000000815260040180806020018281038252603281526020018061434b6032913960400191505060405180910390fd5b505050505095945050505050565b60005473ffffffffffffffffffffffffffffffffffffffff1690565b60005473ffffffffffffffffffffffffffffffffffffffff16331490565b6060600260009054906101000a900473ffffffffffffffffffffffffffffffffffffffff1673ffffffffffffffffffffffffffffffffffffffff1663d0e30db0346040518263ffffffff1660e01b81526004016000604051808303818588803b15801561278457600080fd5b505af1158015612798573d6000803e3d6000fd5b5050600254604080517f70a0823100000000000000000000000000000000000000000000000000000000815230600482015290516000955073ffffffffffffffffffffffffffffffffffffffff90921693506370a082319250602480820192602092909190829003018186803b15801561281157600080fd5b505afa158015612825573d6000803e3d6000fd5b505050506040513d602081101561283b57600080fd5b50516040805160028082526060808301845293945090916020830190803883395050600254825192935073ffffffffffffffffffffffffffffffffffffffff169183915060009061288857fe5b73ffffffffffffffffffffffffffffffffffffffff92831660209182029290920101526003548251911690829060019081106128c057fe5b602002602001019073ffffffffffffffffffffffffffffffffffffffff16908173ffffffffffffffffffffffffffffffffffffffff16815250506060600160009054906101000a900473ffffffffffffffffffffffffffffffffffffffff1673ffffffffffffffffffffffffffffffffffffffff16638803dbee8885858a8a6040518663ffffffff1660e01b815260040180868152602001858152602001806020018473ffffffffffffffffffffffffffffffffffffffff1673ffffffffffffffffffffffffffffffffffffffff168152602001838152602001828103825285818151815260200191508051906020019060200280838360005b838110156129d25781810151838201526020016129ba565b505050509050019650505050505050600060405180830381600087803b1580156129fb57600080fd5b505af1158015612a0f573d6000803e3d6000fd5b505050506040513d6000823e601f3d9081017fffffffffffffffffffffffffffffffffffffffffffffffffffffffffffffffe01682016040526020811015612a5657600080fd5b8101908080516040519392919084640100000000821115612a7657600080fd5b908301906020820185811115612a8b57600080fd5b8251866020820283011164010000000082111715612aa857600080fd5b82525081516020918201928201910280838360005b83811015612ad5578181015183820152602001612abd565b50506002949092018481526060810160405297985092955050505050508160200160208202803883390190505093503484600081518110612b1257fe5b60200260200101818152505080600181518110612b2b57fe5b602002602001015184600181518110612b4057fe5b60200260200101818152505080600081518110612b5957fe5b6020026020010151831115612c2657600254815173ffffffffffffffffffffffffffffffffffffffff90911690632e1a7d4d90612bb2908490600090612b9b57fe5b602002602001015186613e5a90919063ffffffff16565b6040518263ffffffff1660e01b815260040180828152602001915050600060405180830381600087803b158015612be857600080fd5b505af1158015612bfc573d6000803e3d6000fd5b5050505047340384600081518110612c1057fe5b602002602001018181525050612c268647613a7a565b5050509392505050565b60025473ffffffffffffffffffffffffffffffffffffffff1681565b60035460009081908190612c789073ffffffffffffffffffffffffffffffffffffffff1633308b613bb2565b600260009054906101000a900473ffffffffffffffffffffffffffffffffffffffff1673ffffffffffffffffffffffffffffffffffffffff1663d0e30db0346040518263ffffffff1660e01b81526004016000604051808303818588803b158015612ce257600080fd5b505af1158015612cf6573d6000803e3d6000fd5b5050600254604080517f70a0823100000000000000000000000000000000000000000000000000000000815230600482015290516000955073ffffffffffffffffffffffffffffffffffffffff90921693506370a082319250602480820192602092909190829003018186803b158015612d6f57600080fd5b505afa158015612d83573d6000803e3d6000fd5b505050506040513d6020811015612d9957600080fd5b5051600154600354600254604080517fe8e3370000000000000000000000000000000000000000000000000000000000815273ffffffffffffffffffffffffffffffffffffffff93841660048201529183166024830152604482018e905260648201859052608482018d9052600060a483018190528b841660c484015260e483018b9052905194955093919092169163e8e337009161010480830192606092919082900301818787803b158015612e4f57600080fd5b505af1158015612e63573d6000803e3d6000fd5b505050506040513d6060811015612e7957600080fd5b508051602082015160409092015190965093509050848a1115612ec957600354612ec99073ffffffffffffffffffffffffffffffffffffffff1633612ec48d8963ffffffff613e5a16565b61389d565b60025473ffffffffffffffffffffffffffffffffffffffff16632e1a7d4d612ef7848463ffffffff613e5a16565b6040518263ffffffff1660e01b815260040180828152602001915050600060405180830381600087803b158015612f2d57600080fd5b505af1158015612f41573d6000803e3d6000fd5b505047340395505084159050612f5b57612f5b3347613a7a565b87841015612fb4576040517f08c379a000000000000000000000000000000000000000000000000000000000815260040180806020018281038252602f815260200180614426602f913960400191505060405180910390fd5b5050955095509592505050565b60035473ffffffffffffffffffffffffffffffffffffffff1681565b60045460009081906130079073ffffffffffffffffffffffffffffffffffffffff1633308a613bb2565b600154600354600254604080517fbaa2abde00000000000000000000000000000000000000000000000000000000815273ffffffffffffffffffffffffffffffffffffffff93841660048201529183166024830152604482018b9052606482018a90526000608483018190523060a484015260c4830188905281519094939093169263baa2abde9260e480820193929182900301818787803b1580156130ac57600080fd5b505af11580156130c0573d6000803e3d6000fd5b505050506040513d60408110156130d657600080fd5b50805160209091015160035491945091506131089073ffffffffffffffffffffffffffffffffffffffff16868561389d565b600254604080517f2e1a7d4d00000000000000000000000000000000000000000000000000000000815260048101849052905173ffffffffffffffffffffffffffffffffffffffff90921691632e1a7d4d9160248082019260009290919082900301818387803b15801561317b57600080fd5b505af115801561318f573d6000803e3d6000fd5b5050505047915060008211156131a9576131a93347613a7a565b85821015613202576040517f08c379a000000000000000000000000000000000000000000000000000000000815260040180806020018281038252602f8152602001806143d6602f913960400191505060405180910390fd5b509550959350505050565b6132156126fa565b61328057604080517f08c379a000000000000000000000000000000000000000000000000000000000815260206004820181905260248201527f4f776e61626c653a2063616c6c6572206973206e6f7420746865206f776e6572604482015290519081900360640190fd5b61328981613ed1565b50565b600080600260009054906101000a900473ffffffffffffffffffffffffffffffffffffffff1673ffffffffffffffffffffffffffffffffffffffff166336bdee746040518163ffffffff1660e01b815260040160206040518083038186803b1580156132f757600080fd5b505afa15801561330b573d6000803e3d6000fd5b505050506040513d602081101561332157600080fd5b50519050801561340557613400816133f460016133e8856133dc600260009054906101000a900473ffffffffffffffffffffffffffffffffffffffff1673ffffffffffffffffffffffffffffffffffffffff166318160ddd6040518163ffffffff1660e01b815260040160206040518083038186803b1580156133a357600080fd5b505afa1580156133b7573d6000803e3d6000fd5b505050506040513d60208110156133cd57600080fd5b50518a9063ffffffff613fca16565b9063ffffffff613d8216565b9063ffffffff613e5a16565b9063ffffffff61403d16565b613407565b825b9150505b919050565b60015473ffffffffffffffffffffffffffffffffffffffff1681565b6003546060906134549073ffffffffffffffffffffffffffffffffffffffff16333087613bb2565b60408051600280825260608083018452926020830190803883395050600354825192935073ffffffffffffffffffffffffffffffffffffffff169183915060009061349b57fe5b73ffffffffffffffffffffffffffffffffffffffff92831660209182029290920101526002548251911690829060019081106134d357fe5b73ffffffffffffffffffffffffffffffffffffffff9283166020918202929092010152600254604080517f2e1a7d4d00000000000000000000000000000000000000000000000000000000815260006004820181905291519290931692632e1a7d4d926024808301939282900301818387803b15801561355257600080fd5b505af1158015613566573d6000803e3d6000fd5b50506001546060925073ffffffffffffffffffffffffffffffffffffffff169050638803dbee6135958961328c565b888530896040518663ffffffff1660e01b815260040180868152602001858152602001806020018473ffffffffffffffffffffffffffffffffffffffff1673ffffffffffffffffffffffffffffffffffffffff168152602001838152602001828103825285818151815260200191508051906020019060200280838360005b8381101561362c578181015183820152602001613614565b505050509050019650505050505050600060405180830381600087803b15801561365557600080fd5b505af1158015613669573d6000803e3d6000fd5b505050506040513d6000823e601f3d9081017fffffffffffffffffffffffffffffffffffffffffffffffffffffffffffffffe016820160405260208110156136b057600080fd5b81019080805160405193929190846401000000008211156136d057600080fd5b9083019060208201858111156136e557600080fd5b825186602082028301116401000000008211171561370257600080fd5b82525081516020918201928201910280838360005b8381101561372f578181015183820152602001613717565b50505050919091016040525050600254835193945073ffffffffffffffffffffffffffffffffffffffff1692632e1a7d4d9250849150600190811061377057fe5b60200260200101516040518263ffffffff1660e01b815260040180828152602001915050600060405180830381600087803b1580156137ae57600080fd5b505af11580156137c2573d6000803e3d6000fd5b50506040805160028082526060820183529093509150602083019080388339019050509250806000815181106137f457fe5b60200260200101518360008151811061380957fe5b602002602001018181525050478360018151811061382357fe5b6020026020010181815250506138398547613a7a565b8260008151811061384657fe5b60200260200101518611156114015760035483516114019173ffffffffffffffffffffffffffffffffffffffff16903390612ec490879060009061388657fe5b60200260200101518a613e5a90919063ffffffff16565b6040805173ffffffffffffffffffffffffffffffffffffffff8481166024830152604480830185905283518084039091018152606490920183526020820180517bffffffffffffffffffffffffffffffffffffffffffffffffffffffff167fa9059cbb00000000000000000000000000000000000000000000000000000000178152925182516000946060949389169392918291908083835b6020831061397357805182527fffffffffffffffffffffffffffffffffffffffffffffffffffffffffffffffe09092019160209182019101613936565b6001836020036101000a0380198251168184511680821785525050505050509050019150506000604051808303816000865af19150503d80600081146139d5576040519150601f19603f3d011682016040523d82523d6000602084013e6139da565b606091505b5091509150818015613a08575080511580613a085750808060200190516020811015613a0557600080fd5b50515b613a7357604080517f08c379a000000000000000000000000000000000000000000000000000000000815260206004820152601f60248201527f5472616e7366657248656c7065723a205452414e534645525f4641494c454400604482015290519081900360640190fd5b5050505050565b6040805160008082526020820190925273ffffffffffffffffffffffffffffffffffffffff84169083906040518082805190602001908083835b60208310613af157805182527fffffffffffffffffffffffffffffffffffffffffffffffffffffffffffffffe09092019160209182019101613ab4565b6001836020036101000a03801982511681845116808217855250505050505090500191505060006040518083038185875af1925050503d8060008114613b53576040519150601f19603f3d011682016040523d82523d6000602084013e613b58565b606091505b5050905080610b08576040517f08c379a00000000000000000000000000000000000000000000000000000000081526004018080602001828103825260238152602001806144556023913960400191505060405180910390fd5b6040805173ffffffffffffffffffffffffffffffffffffffff85811660248301528481166044830152606480830185905283518084039091018152608490920183526020820180517bffffffffffffffffffffffffffffffffffffffffffffffffffffffff167f23b872dd0000000000000000000000000000000000000000000000000000000017815292518251600094606094938a169392918291908083835b60208310613c9057805182527fffffffffffffffffffffffffffffffffffffffffffffffffffffffffffffffe09092019160209182019101613c53565b6001836020036101000a0380198251168184511680821785525050505050509050019150506000604051808303816000865af19150503d8060008114613cf2576040519150601f19603f3d011682016040523d82523d6000602084013e613cf7565b606091505b5091509150818015613d25575080511580613d255750808060200190516020811015613d2257600080fd5b50515b613d7a576040517f08c379a00000000000000000000000000000000000000000000000000000000081526004018080602001828103825260248152602001806144786024913960400191505060405180910390fd5b505050505050565b600082820183811015613df657604080517f08c379a000000000000000000000000000000000000000000000000000000000815260206004820152601b60248201527f536166654d6174683a206164646974696f6e206f766572666c6f770000000000604482015290519081900360640190fd5b90505b92915050565b600080613e12858563ffffffff613fca16565b613e22878563ffffffff613fca16565b10613e3e57613e33868686866140c1565b915060009050613e51565b613e4a858785876140c1565b9150600190505b94509492505050565b600082821115613ecb57604080517f08c379a000000000000000000000000000000000000000000000000000000000815260206004820152601e60248201527f536166654d6174683a207375627472616374696f6e206f766572666c6f770000604482015290519081900360640190fd5b50900390565b73ffffffffffffffffffffffffffffffffffffffff8116613f3d576040517f08c379a000000000000000000000000000000000000000000000000000000000815260040180806020018281038252602681526020018061437d6026913960400191505060405180910390fd5b6000805460405173ffffffffffffffffffffffffffffffffffffffff808516939216917f8be0079c531659141344cd1fd0a4f28419497f9722a3daafe3b4186f6b6457e091a3600080547fffffffffffffffffffffffff00000000000000000000000000000000000000001673ffffffffffffffffffffffffffffffffffffffff92909216919091179055565b600082613fd957506000613df9565b82820282848281613fe657fe5b0414613df6576040517f08c379a00000000000000000000000000000000000000000000000000000000081526004018080602001828103825260218152602001806144056021913960400191505060405180910390fd5b60008082116140ad57604080517f08c379a000000000000000000000000000000000000000000000000000000000815260206004820152601a60248201527f536166654d6174683a206469766973696f6e206279207a65726f000000000000604482015290519081900360640190fd5b60008284816140b857fe5b04949350505050565b60006140d3848463ffffffff613fca16565b6140e3868463ffffffff613fca16565b101561415057604080517f08c379a000000000000000000000000000000000000000000000000000000000815260206004820152600860248201527f5265766572736564000000000000000000000000000000000000000000000000604482015290519081900360640190fd5b6103e560006141676107cd8663ffffffff613fca16565b9050600061418e61417e888863ffffffff613fca16565b6133e88a8863ffffffff613fca16565b905060006141c7876141bb6141a98b8a63ffffffff613d8216565b6133f4866103e863ffffffff613fca16565b9063ffffffff613fca16565b905060006141e060046141bb878563ffffffff613fca16565b905060006142006141fb836133dc888063ffffffff613fca16565b61424c565b90506000614214828763ffffffff613e5a16565b9050600061422988600263ffffffff613fca16565b905061423b828263ffffffff61403d16565b9d9c50505050505050505050505050565b6000600382111561428f575080600160028204015b818110156142895780915060028182858161427857fe5b04018161428157fe5b049050614261565b5061340b565b811561340b57506001919050565b604080517fe6a4390500000000000000000000000000000000000000000000000000000000815273ffffffffffffffffffffffffffffffffffffffff84811660048301528381166024830152915160009286169163e6a43905916044808301926020929190829003018186803b15801561431657600080fd5b505afa15801561432a573d6000803e3d6000fd5b505050506040513d602081101561434057600080fd5b505194935050505056fe4962455448526f757465723a2072656365697665206c657373206c70546f6b656e207468616e20616d6f756e744c504d696e4f776e61626c653a206e6577206f776e657220697320746865207a65726f20616464726573734962455448526f757465723a2072656365697665206c65737320416c706861207468616e20616d6f756e74416c7068614d696e4962455448526f757465723a2072656365697665206c65737320455448207468616e20616d6f756e744554486d696e536166654d6174683a206d756c7469706c69636174696f6e206f766572666c6f774962455448526f757465723a2072657175697265206d6f726520455448207468616e20616d6f756e744554486d696e5472616e7366657248656c7065723a204554485f5452414e534645525f4641494c45445472616e7366657248656c7065723a205452414e534645525f46524f4d5f4641494c4544a265627a7a723158209c9f81af4581817a2ea7c45e86f1c88312faa9cf64acb755570af2206810e9e064736f6c63430005100032",
  "source": "pragma solidity =0.5.16;\nimport \"openzeppelin-solidity-2.3.0/contracts/ownership/Ownable.sol\";\nimport \"openzeppelin-solidity-2.3.0/contracts/token/ERC20/IERC20.sol\";\nimport \"@uniswap/v2-core/contracts/libraries/Math.sol\";\nimport \"./uniswap/UniswapV2Library.sol\";\nimport \"./uniswap/IUniswapV2Router02.sol\";\nimport \"./interfaces/IBank.sol\";\n\n// helper methods for interacting with ERC20 tokens and sending ETH that do not consistently return true/false\nlibrary TransferHelper {\n    function safeApprove(\n        address token,\n        address to,\n        uint256 value\n    ) internal {\n        // bytes4(keccak256(bytes('approve(address,uint256)')));\n        (bool success, bytes memory data) = token.call(\n            abi.encodeWithSelector(0x095ea7b3, to, value)\n        );\n        require(\n            success && (data.length == 0 || abi.decode(data, (bool))),\n            \"TransferHelper: APPROVE_FAILED\"\n        );\n    }\n\n    function safeTransfer(\n        address token,\n        address to,\n        uint256 value\n    ) internal {\n        // bytes4(keccak256(bytes('transfer(address,uint256)')));\n        (bool success, bytes memory data) = token.call(\n            abi.encodeWithSelector(0xa9059cbb, to, value)\n        );\n        require(\n            success && (data.length == 0 || abi.decode(data, (bool))),\n            \"TransferHelper: TRANSFER_FAILED\"\n        );\n    }\n\n    function safeTransferFrom(\n        address token,\n        address from,\n        address to,\n        uint256 value\n    ) internal {\n        // bytes4(keccak256(bytes('transferFrom(address,address,uint256)')));\n        (bool success, bytes memory data) = token.call(\n            abi.encodeWithSelector(0x23b872dd, from, to, value)\n        );\n        require(\n            success && (data.length == 0 || abi.decode(data, (bool))),\n            \"TransferHelper: TRANSFER_FROM_FAILED\"\n        );\n    }\n\n    function safeTransferETH(address to, uint256 value) internal {\n        (bool success, ) = to.call.value(value)(new bytes(0));\n        require(success, \"TransferHelper: ETH_TRANSFER_FAILED\");\n    }\n}\n\ncontract IbETHRouter is Ownable {\n    using SafeMath for uint256;\n\n    address public router;\n    address public ibETH; \n    address public alpha;     \n    address public lpToken;     \n\n    constructor(address _router, address _ibETH, address _alpha) public {\n        router = _router;\n        ibETH = _ibETH;   \n        alpha = _alpha;                             \n        address factory = IUniswapV2Router02(router).factory();   \n        lpToken = UniswapV2Library.pairFor(factory, ibETH, alpha);                  \n        IUniswapV2Pair(lpToken).approve(router, uint256(-1)); // 100% trust in the router        \n        IBank(ibETH).approve(router, uint256(-1)); // 100% trust in the router        \n        IERC20(alpha).approve(router, uint256(-1)); // 100% trust in the router        \n    }\n\n    function() external payable {\n        assert(msg.sender == ibETH); // only accept ETH via fallback from the Bank contract\n    }\n\n    // **** ETH-ibETH FUNCTIONS ****\n    // Get number of ibETH needed to withdraw to get exact amountETH from the Bank\n    function ibETHForExactETH(uint256 amountETH) public view returns (uint256) {\n        uint256 totalETH = IBank(ibETH).totalETH();        \n        return totalETH == 0 ? amountETH : amountETH.mul(IBank(ibETH).totalSupply()).add(totalETH).sub(1).div(totalETH); \n    }   \n    \n    // Add ETH and Alpha from ibETH-Alpha Pool.\n    // 1. Receive ETH and Alpha from caller.\n    // 2. Wrap ETH to ibETH.\n    // 3. Provide liquidity to the pool.\n    function addLiquidityETH(        \n        uint256 amountAlphaDesired,\n        uint256 amountAlphaMin,\n        uint256 amountETHMin,\n        address to,\n        uint256 deadline\n    )\n        external\n        payable        \n        returns (\n            uint256 amountAlpha,\n            uint256 amountETH,\n            uint256 liquidity\n        ) {                \n        TransferHelper.safeTransferFrom(alpha, msg.sender, address(this), amountAlphaDesired);\n        IBank(ibETH).deposit.value(msg.value)();   \n        uint256 amountIbETHDesired = IBank(ibETH).balanceOf(address(this)); \n        uint256 amountIbETH;\n        (amountAlpha, amountIbETH, liquidity) = IUniswapV2Router02(router).addLiquidity(\n            alpha,\n            ibETH,\n            amountAlphaDesired,            \n            amountIbETHDesired,\n            amountAlphaMin,            \n            0,\n            to,\n            deadline\n        );         \n        if (amountAlphaDesired > amountAlpha) {\n            TransferHelper.safeTransfer(alpha, msg.sender, amountAlphaDesired.sub(amountAlpha));\n        }                       \n        IBank(ibETH).withdraw(amountIbETHDesired.sub(amountIbETH));        \n        amountETH = msg.value - address(this).balance;\n        if (amountETH > 0) {\n            TransferHelper.safeTransferETH(msg.sender, address(this).balance);\n        }\n        require(amountETH >= amountETHMin, \"IbETHRouter: require more ETH than amountETHmin\");\n    }\n\n    /// @dev Compute optimal deposit amount\n    /// @param amtA amount of token A desired to deposit\n    /// @param amtB amonut of token B desired to deposit\n    /// @param resA amount of token A in reserve\n    /// @param resB amount of token B in reserve\n    /// (forked from ./StrategyAddTwoSidesOptimal.sol)\n    function optimalDeposit(\n        uint256 amtA,\n        uint256 amtB,\n        uint256 resA,\n        uint256 resB\n    ) internal pure returns (uint256 swapAmt, bool isReversed) {\n        if (amtA.mul(resB) >= amtB.mul(resA)) {\n            swapAmt = _optimalDepositA(amtA, amtB, resA, resB);\n            isReversed = false;\n        } else {\n            swapAmt = _optimalDepositA(amtB, amtA, resB, resA);\n            isReversed = true;\n        }\n    }\n\n    /// @dev Compute optimal deposit amount helper\n    /// @param amtA amount of token A desired to deposit\n    /// @param amtB amonut of token B desired to deposit\n    /// @param resA amount of token A in reserve\n    /// @param resB amount of token B in reserve\n    /// (forked from ./StrategyAddTwoSidesOptimal.sol)\n    function _optimalDepositA(\n        uint256 amtA,\n        uint256 amtB,\n        uint256 resA,\n        uint256 resB\n    ) internal pure returns (uint256) {\n        require(amtA.mul(resB) >= amtB.mul(resA), \"Reversed\");\n\n        uint256 a = 997;\n        uint256 b = uint256(1997).mul(resA);\n        uint256 _c = (amtA.mul(resB)).sub(amtB.mul(resA));\n        uint256 c = _c.mul(1000).div(amtB.add(resB)).mul(resA);\n\n        uint256 d = a.mul(c).mul(4);\n        uint256 e = Math.sqrt(b.mul(b).add(d));\n\n        uint256 numerator = e.sub(b);\n        uint256 denominator = a.mul(2);\n\n        return numerator.div(denominator);\n    }\n\n    // Add ibETH and Alpha to ibETH-Alpha Pool.\n    // All ibETH and Alpha supplied are optimally swap and add too ibETH-Alpha Pool.\n    function addLiquidityTwoSidesOptimal(        \n        uint256 amountIbETHDesired,        \n        uint256 amountAlphaDesired,        \n        uint256 amountLPMin,\n        address to,\n        uint256 deadline\n    )\n        external        \n        returns (            \n            uint256 liquidity\n        ) {        \n        if (amountIbETHDesired > 0) {\n            TransferHelper.safeTransferFrom(ibETH, msg.sender, address(this), amountIbETHDesired);    \n        }\n        if (amountAlphaDesired > 0) {\n            TransferHelper.safeTransferFrom(alpha, msg.sender, address(this), amountAlphaDesired);    \n        }        \n        uint256 swapAmt;\n        bool isReversed;\n        {\n            (uint256 r0, uint256 r1, ) = IUniswapV2Pair(lpToken).getReserves();\n            (uint256 ibETHReserve, uint256 alphaReserve) = IUniswapV2Pair(lpToken).token0() == ibETH ? (r0, r1) : (r1, r0);\n            (swapAmt, isReversed) = optimalDeposit(amountIbETHDesired, amountAlphaDesired, ibETHReserve, alphaReserve);\n        }\n        address[] memory path = new address[](2);\n        (path[0], path[1]) = isReversed ? (alpha, ibETH) : (ibETH, alpha);        \n        IUniswapV2Router02(router).swapExactTokensForTokens(swapAmt, 0, path, address(this), now);                \n        (,, liquidity) = IUniswapV2Router02(router).addLiquidity(\n            alpha,\n            ibETH,\n            IERC20(alpha).balanceOf(address(this)),            \n            IBank(ibETH).balanceOf(address(this)),\n            0,            \n            0,\n            to,\n            deadline\n        );        \n        uint256 dustAlpha = IERC20(alpha).balanceOf(address(this));\n        uint256 dustIbETH = IBank(ibETH).balanceOf(address(this));\n        if (dustAlpha > 0) {\n            TransferHelper.safeTransfer(alpha, msg.sender, dustAlpha);\n        }    \n        if (dustIbETH > 0) {\n            TransferHelper.safeTransfer(ibETH, msg.sender, dustIbETH);\n        }                    \n        require(liquidity >= amountLPMin, \"IbETHRouter: receive less lpToken than amountLPMin\");\n    }\n\n    // Add ETH and Alpha to ibETH-Alpha Pool.\n    // All ETH and Alpha supplied are optimally swap and add too ibETH-Alpha Pool.\n    function addLiquidityTwoSidesOptimalETH(                \n        uint256 amountAlphaDesired,        \n        uint256 amountLPMin,\n        address to,\n        uint256 deadline\n    )\n        external\n        payable        \n        returns (            \n            uint256 liquidity\n        ) {                \n        if (amountAlphaDesired > 0) {\n            TransferHelper.safeTransferFrom(alpha, msg.sender, address(this), amountAlphaDesired);    \n        }       \n        IBank(ibETH).deposit.value(msg.value)();   \n        uint256 amountIbETHDesired = IBank(ibETH).balanceOf(address(this));                  \n        uint256 swapAmt;\n        bool isReversed;\n        {\n            (uint256 r0, uint256 r1, ) = IUniswapV2Pair(lpToken).getReserves();\n            (uint256 ibETHReserve, uint256 alphaReserve) = IUniswapV2Pair(lpToken).token0() == ibETH ? (r0, r1) : (r1, r0);\n            (swapAmt, isReversed) = optimalDeposit(amountIbETHDesired, amountAlphaDesired, ibETHReserve, alphaReserve);\n        }        \n        address[] memory path = new address[](2);\n        (path[0], path[1]) = isReversed ? (alpha, ibETH) : (ibETH, alpha);        \n        IUniswapV2Router02(router).swapExactTokensForTokens(swapAmt, 0, path, address(this), now);                \n        (,, liquidity) = IUniswapV2Router02(router).addLiquidity(\n            alpha,\n            ibETH,\n            IERC20(alpha).balanceOf(address(this)),            \n            IBank(ibETH).balanceOf(address(this)),\n            0,            \n            0,\n            to,\n            deadline\n        );        \n        uint256 dustAlpha = IERC20(alpha).balanceOf(address(this));\n        uint256 dustIbETH = IBank(ibETH).balanceOf(address(this));\n        if (dustAlpha > 0) {\n            TransferHelper.safeTransfer(alpha, msg.sender, dustAlpha);\n        }    \n        if (dustIbETH > 0) {\n            TransferHelper.safeTransfer(ibETH, msg.sender, dustIbETH);\n        }                    \n        require(liquidity >= amountLPMin, \"IbETHRouter: receive less lpToken than amountLPMin\");\n    }\n      \n    // Remove ETH and Alpha from ibETH-Alpha Pool.\n    // 1. Remove ibETH and Alpha from the pool.\n    // 2. Unwrap ibETH to ETH.\n    // 3. Return ETH and Alpha to caller.\n    function removeLiquidityETH(        \n        uint256 liquidity,\n        uint256 amountAlphaMin,\n        uint256 amountETHMin,\n        address to,\n        uint256 deadline\n    ) public returns (uint256 amountAlpha, uint256 amountETH) {                  \n        TransferHelper.safeTransferFrom(lpToken, msg.sender, address(this), liquidity);          \n        uint256 amountIbETH;\n        (amountAlpha, amountIbETH) = IUniswapV2Router02(router).removeLiquidity(\n            alpha,\n            ibETH,\n            liquidity,\n            amountAlphaMin,\n            0,\n            address(this),\n            deadline\n        );                        \n        TransferHelper.safeTransfer(alpha, to, amountAlpha); \n        IBank(ibETH).withdraw(amountIbETH);        \n        amountETH = address(this).balance;\n        if (amountETH > 0) {\n            TransferHelper.safeTransferETH(msg.sender, address(this).balance);\n        }\n        require(amountETH >= amountETHMin, \"IbETHRouter: receive less ETH than amountETHmin\");                               \n    }\n\n    // Remove liquidity from ibETH-Alpha Pool and convert all ibETH to Alpha \n    // 1. Remove ibETH and Alpha from the pool.\n    // 2. Swap ibETH for Alpha.\n    // 3. Return Alpha to caller.   \n    function removeLiquidityAllAlpha(        \n        uint256 liquidity,\n        uint256 amountAlphaMin,        \n        address to,\n        uint256 deadline\n    ) public returns (uint256 amountAlpha) {                  \n        TransferHelper.safeTransferFrom(lpToken, msg.sender, address(this), liquidity);          \n        (uint256 removeAmountAlpha, uint256 removeAmountIbETH) = IUniswapV2Router02(router).removeLiquidity(\n            alpha,\n            ibETH,\n            liquidity,\n            0,\n            0,\n            address(this),\n            deadline\n        );        \n        address[] memory path = new address[](2);\n        path[0] = ibETH;\n        path[1] = alpha;\n        uint256[] memory amounts = IUniswapV2Router02(router).swapExactTokensForTokens(removeAmountIbETH, 0, path, to, deadline);               \n        TransferHelper.safeTransfer(alpha, to, removeAmountAlpha);                        \n        amountAlpha = removeAmountAlpha.add(amounts[1]);\n        require(amountAlpha >= amountAlphaMin, \"IbETHRouter: receive less Alpha than amountAlphaMin\");                               \n    }       \n\n    // Swap exact amount of ETH for Token\n    // 1. Receive ETH from caller\n    // 2. Wrap ETH to ibETH.\n    // 3. Swap ibETH for Token    \n    function swapExactETHForAlpha(\n        uint256 amountAlphaOutMin,        \n        address to,\n        uint256 deadline\n    ) external payable returns (uint256[] memory amounts) {                           \n        IBank(ibETH).deposit.value(msg.value)();   \n        address[] memory path = new address[](2);\n        path[0] = ibETH;\n        path[1] = alpha;     \n        uint256[] memory swapAmounts = IUniswapV2Router02(router).swapExactTokensForTokens(IBank(ibETH).balanceOf(address(this)), amountAlphaOutMin, path, to, deadline);\n        amounts = new uint256[](2);        \n        amounts[0] = msg.value;\n        amounts[1] = swapAmounts[1];\n    }\n\n    // Swap Token for exact amount of ETH\n    // 1. Receive Token from caller\n    // 2. Swap Token for ibETH.\n    // 3. Unwrap ibETH to ETH.\n    function swapAlphaForExactETH(\n        uint256 amountETHOut,\n        uint256 amountAlphaInMax,         \n        address to,\n        uint256 deadline\n    ) external returns (uint256[] memory amounts) {\n        TransferHelper.safeTransferFrom(alpha, msg.sender, address(this), amountAlphaInMax);\n        address[] memory path = new address[](2);\n        path[0] = alpha;\n        path[1] = ibETH;\n        IBank(ibETH).withdraw(0);\n        uint256[] memory swapAmounts = IUniswapV2Router02(router).swapTokensForExactTokens(ibETHForExactETH(amountETHOut), amountAlphaInMax, path, address(this), deadline);                           \n        IBank(ibETH).withdraw(swapAmounts[1]);\n        amounts = new uint256[](2);\n        amounts[0] = swapAmounts[0];\n        amounts[1] = address(this).balance;\n        TransferHelper.safeTransferETH(to, address(this).balance);        \n        if (amountAlphaInMax > amounts[0]) {\n            TransferHelper.safeTransfer(alpha, msg.sender, amountAlphaInMax.sub(amounts[0]));\n        }                    \n    }\n\n    // Swap exact amount of Token for ETH\n    // 1. Receive Token from caller\n    // 2. Swap Token for ibETH.\n    // 3. Unwrap ibETH to ETH.\n    function swapExactAlphaForETH(\n        uint256 amountAlphaIn,\n        uint256 amountETHOutMin,         \n        address to,\n        uint256 deadline\n    ) external returns (uint256[] memory amounts) {\n        TransferHelper.safeTransferFrom(alpha, msg.sender, address(this), amountAlphaIn); \n        address[] memory path = new address[](2);\n        path[0] = alpha;\n        path[1] = ibETH;\n        uint256[] memory swapAmounts = IUniswapV2Router02(router).swapExactTokensForTokens(amountAlphaIn, 0, path, address(this), deadline);                        \n        IBank(ibETH).withdraw(swapAmounts[1]);        \n        amounts = new uint256[](2);\n        amounts[0] = swapAmounts[0];\n        amounts[1] = address(this).balance;\n        TransferHelper.safeTransferETH(to, amounts[1]);\n        require(amounts[1] >= amountETHOutMin, \"IbETHRouter: receive less ETH than amountETHmin\");                                       \n    }\n\n    // Swap ETH for exact amount of Token\n    // 1. Receive ETH from caller\n    // 2. Wrap ETH to ibETH.\n    // 3. Swap ibETH for Token    \n    function swapETHForExactAlpha(\n        uint256 amountAlphaOut,          \n        address to,\n        uint256 deadline\n    ) external payable returns (uint256[] memory amounts) {             \n        IBank(ibETH).deposit.value(msg.value)();              \n        uint256 amountIbETHInMax = IBank(ibETH).balanceOf(address(this));        \n        address[] memory path = new address[](2);\n        path[0] = ibETH;\n        path[1] = alpha;                \n        uint256[] memory swapAmounts = IUniswapV2Router02(router).swapTokensForExactTokens(amountAlphaOut, amountIbETHInMax, path, to, deadline);                                                \n        amounts = new uint256[](2);               \n        amounts[0] = msg.value;\n        amounts[1] = swapAmounts[1];\n        // Transfer left over ETH back\n        if (amountIbETHInMax > swapAmounts[0]) {                         \n            IBank(ibETH).withdraw(amountIbETHInMax.sub(swapAmounts[0]));                    \n            amounts[0] = msg.value - address(this).balance;\n            TransferHelper.safeTransferETH(to, address(this).balance);\n        }                                       \n    }   \n\n    /// @dev Recover ERC20 tokens that were accidentally sent to this smart contract.\n    /// @param token The token contract. Can be anything. This contract should not hold ERC20 tokens.\n    /// @param to The address to send the tokens to.\n    /// @param value The number of tokens to transfer to `to`.\n    function recover(address token, address to, uint256 value) external onlyOwner {        \n        TransferHelper.safeTransfer(token, to, value);                \n    }\n\n    /// @dev Recover ETH that were accidentally sent to this smart contract.    \n    /// @param to The address to send the ETH to.\n    /// @param value The number of ETH to transfer to `to`.\n    function recoverETH(address to, uint256 value) external onlyOwner {        \n        TransferHelper.safeTransferETH(to, value);                \n    }\n}\n",
  "sourcePath": "C:/workspace/Project/projects.spider.miner/alphahomora/contracts/5/IbETHRouter.sol",
  "compiler": {
    "name": "solc",
    "version": "0.5.16+commit.9c3226ce.Emscripten.clang"
  },
  "schemaVersion": "3.2.5",
  "updatedAt": "2021-01-08T06:13:44.766Z",
  "devdoc": {
    "methods": {
      "isOwner()": {
        "details": "Returns true if the caller is the current owner."
      },
      "owner()": {
        "details": "Returns the address of the current owner."
      },
      "recover(address,address,uint256)": {
        "details": "Recover ERC20 tokens that were accidentally sent to this smart contract.",
        "params": {
          "to": "The address to send the tokens to.",
          "token": "The token contract. Can be anything. This contract should not hold ERC20 tokens.",
          "value": "The number of tokens to transfer to `to`."
        }
      },
      "recoverETH(address,uint256)": {
        "details": "Recover ETH that were accidentally sent to this smart contract.    ",
        "params": {
          "to": "The address to send the ETH to.",
          "value": "The number of ETH to transfer to `to`."
        }
      },
      "renounceOwnership()": {
        "details": "Leaves the contract without owner. It will not be possible to call `onlyOwner` functions anymore. Can only be called by the current owner.     * > Note: Renouncing ownership will leave the contract without an owner, thereby removing any functionality that is only available to the owner."
      },
      "transferOwnership(address)": {
        "details": "Transfers ownership of the contract to a new account (`newOwner`). Can only be called by the current owner."
      }
    }
  },
  "userdoc": {
    "methods": {}
  }
}