{
  "contractName": "IMasterChef",
  "abi": [
    {
      "constant": true,
      "inputs": [
        {
          "internalType": "uint256",
          "name": "",
          "type": "uint256"
        }
      ],
      "name": "poolInfo",
      "outputs": [
        {
          "internalType": "contract IERC20",
          "name": "lpToken",
          "type": "address"
        },
        {
          "internalType": "uint256",
          "name": "allocPoint",
          "type": "uint256"
        },
        {
          "internalType": "uint256",
          "name": "lastRewardBlock",
          "type": "uint256"
        },
        {
          "internalType": "uint256",
          "name": "accSushiPerShare",
          "type": "uint256"
        }
      ],
      "payable": false,
      "stateMutability": "view",
      "type": "function"
    },
    {
      "constant": true,
      "inputs": [],
      "name": "sushi",
      "outputs": [
        {
          "internalType": "address",
          "name": "",
          "type": "address"
        }
      ],
      "payable": false,
      "stateMutability": "view",
      "type": "function"
    },
    {
      "constant": true,
      "inputs": [
        {
          "internalType": "uint256",
          "name": "",
          "type": "uint256"
        },
        {
          "internalType": "address",
          "name": "",
          "type": "address"
        }
      ],
      "name": "userInfo",
      "outputs": [
        {
          "internalType": "uint256",
          "name": "amount",
          "type": "uint256"
        },
        {
          "internalType": "uint256",
          "name": "rewardDebt",
          "type": "uint256"
        }
      ],
      "payable": false,
      "stateMutability": "view",
      "type": "function"
    },
    {
      "constant": false,
      "inputs": [
        {
          "internalType": "uint256",
          "name": "_pid",
          "type": "uint256"
        },
        {
          "internalType": "uint256",
          "name": "_amount",
          "type": "uint256"
        }
      ],
      "name": "deposit",
      "outputs": [],
      "payable": false,
      "stateMutability": "nonpayable",
      "type": "function"
    },
    {
      "constant": false,
      "inputs": [
        {
          "internalType": "uint256",
          "name": "_pid",
          "type": "uint256"
        },
        {
          "internalType": "uint256",
          "name": "_amount",
          "type": "uint256"
        }
      ],
      "name": "withdraw",
      "outputs": [],
      "payable": false,
      "stateMutability": "nonpayable",
      "type": "function"
    }
  ],
  "bytecode": "0x608060405234801561001057600080fd5b50610228806100206000396000f3fe608060405234801561001057600080fd5b50600436106100675760003560e01c8063441a3e7011610050578063441a3e70146100f757806393f1a40b1461011c578063e2bbb158146100f757610067565b80630a0879031461006c5780631526fe271461009d575b600080fd5b61007461016e565b6040805173ffffffffffffffffffffffffffffffffffffffff9092168252519081900360200190f35b6100ba600480360360208110156100b357600080fd5b503561018a565b6040805173ffffffffffffffffffffffffffffffffffffffff90951685526020850193909352838301919091526060830152519081900360800190f35b61011a6004803603604081101561010d57600080fd5b50803590602001356101cb565b005b6101556004803603604081101561013257600080fd5b508035906020013573ffffffffffffffffffffffffffffffffffffffff166101cf565b6040805192835260208301919091528051918290030190f35b60005473ffffffffffffffffffffffffffffffffffffffff1681565b6001602081905260009182526040909120805491810154600282015460039092015473ffffffffffffffffffffffffffffffffffffffff9093169290919084565b5050565b6002602090815260009283526040808420909152908252902080546001909101548256fea265627a7a72315820d8c1de4fe27718a2c83ad22aa2038027bb288fc0113066d2b55376b9f8949d2d64736f6c63430005100032",
  "source": "pragma solidity 0.5.16;\n\nimport \"openzeppelin-solidity-2.3.0/contracts/token/ERC20/IERC20.sol\";\n\n// Making the original MasterChef as an interface leads to compilation fail.\n// Use Contract instead of Interface here\ncontract IMasterChef {\n    // Info of each user.\n    struct UserInfo {\n        uint256 amount; // How many LP tokens the user has provided.\n        uint256 rewardDebt; // Reward debt. See explanation below.\n    }\n\n    // Info of each pool.\n    struct PoolInfo {\n        IERC20 lpToken; // Address of LP token contract.\n        uint256 allocPoint; // How many allocation points assigned to this pool. SUSHIs to distribute per block.\n        uint256 lastRewardBlock; // Last block number that SUSHIs distribution occurs.\n        uint256 accSushiPerShare; // Accumulated SUSHIs per share, times 1e12. See below.\n    }\n\n    address public sushi;\n\n    // Info of each user that stakes LP tokens.\n    mapping(uint256 => PoolInfo) public poolInfo;\n    mapping(uint256 => mapping(address => UserInfo)) public userInfo;\n\n    // Deposit LP tokens to MasterChef for SUSHI allocation.\n    function deposit(uint256 _pid, uint256 _amount) external {}\n\n    // Withdraw LP tokens from MasterChef.\n    function withdraw(uint256 _pid, uint256 _amount) external {}\n}\n",
  "sourcePath": "C:\\workspace\\Project\\projects.spider.miner\\alphahomora\\contracts\\5\\interfaces\\IMasterChef.sol",
  "compiler": {
    "name": "solc",
    "version": "0.5.16+commit.9c3226ce.Emscripten.clang"
  },
  "schemaVersion": "3.3.2",
  "updatedAt": "2021-01-13T08:42:44.306Z",
  "devdoc": {
    "methods": {}
  },
  "userdoc": {
    "methods": {}
  }
}