{
  "contractName": "MStableGoblin",
  "abi": [
    {
      "inputs": [
        {
          "internalType": "address",
          "name": "_operator",
          "type": "address"
        },
        {
          "internalType": "contract IMStableStakingRewards",
          "name": "_staking",
          "type": "address"
        },
        {
          "internalType": "contract IUniswapV2Router02",
          "name": "_router",
          "type": "address"
        },
        {
          "internalType": "address",
          "name": "_mta",
          "type": "address"
        },
        {
          "internalType": "contract Strategy",
          "name": "_addStrat",
          "type": "address"
        },
        {
          "internalType": "contract Strategy",
          "name": "_liqStrat",
          "type": "address"
        },
        {
          "internalType": "uint256",
          "name": "_reinvestBountyBps",
          "type": "uint256"
        }
      ],
      "payable": false,
      "stateMutability": "nonpayable",
      "type": "constructor"
    },
    {
      "anonymous": false,
      "inputs": [
        {
          "indexed": true,
          "internalType": "uint256",
          "name": "id",
          "type": "uint256"
        },
        {
          "indexed": false,
          "internalType": "uint256",
          "name": "share",
          "type": "uint256"
        }
      ],
      "name": "AddShare",
      "type": "event"
    },
    {
      "anonymous": false,
      "inputs": [
        {
          "indexed": true,
          "internalType": "uint256",
          "name": "id",
          "type": "uint256"
        },
        {
          "indexed": false,
          "internalType": "uint256",
          "name": "wad",
          "type": "uint256"
        }
      ],
      "name": "Liquidate",
      "type": "event"
    },
    {
      "anonymous": false,
      "inputs": [
        {
          "indexed": true,
          "internalType": "address",
          "name": "previousOwner",
          "type": "address"
        },
        {
          "indexed": true,
          "internalType": "address",
          "name": "newOwner",
          "type": "address"
        }
      ],
      "name": "OwnershipTransferred",
      "type": "event"
    },
    {
      "anonymous": false,
      "inputs": [
        {
          "indexed": true,
          "internalType": "address",
          "name": "caller",
          "type": "address"
        },
        {
          "indexed": false,
          "internalType": "uint256",
          "name": "reward",
          "type": "uint256"
        },
        {
          "indexed": false,
          "internalType": "uint256",
          "name": "bounty",
          "type": "uint256"
        }
      ],
      "name": "Reinvest",
      "type": "event"
    },
    {
      "anonymous": false,
      "inputs": [
        {
          "indexed": true,
          "internalType": "uint256",
          "name": "id",
          "type": "uint256"
        },
        {
          "indexed": false,
          "internalType": "uint256",
          "name": "share",
          "type": "uint256"
        }
      ],
      "name": "RemoveShare",
      "type": "event"
    },
    {
      "payable": true,
      "stateMutability": "payable",
      "type": "fallback"
    },
    {
      "constant": true,
      "inputs": [],
      "name": "addStrat",
      "outputs": [
        {
          "internalType": "contract Strategy",
          "name": "",
          "type": "address"
        }
      ],
      "payable": false,
      "stateMutability": "view",
      "type": "function"
    },
    {
      "constant": true,
      "inputs": [],
      "name": "factory",
      "outputs": [
        {
          "internalType": "contract IUniswapV2Factory",
          "name": "",
          "type": "address"
        }
      ],
      "payable": false,
      "stateMutability": "view",
      "type": "function"
    },
    {
      "constant": true,
      "inputs": [],
      "name": "isOwner",
      "outputs": [
        {
          "internalType": "bool",
          "name": "",
          "type": "bool"
        }
      ],
      "payable": false,
      "stateMutability": "view",
      "type": "function"
    },
    {
      "constant": true,
      "inputs": [],
      "name": "liqStrat",
      "outputs": [
        {
          "internalType": "contract Strategy",
          "name": "",
          "type": "address"
        }
      ],
      "payable": false,
      "stateMutability": "view",
      "type": "function"
    },
    {
      "constant": true,
      "inputs": [],
      "name": "lpToken",
      "outputs": [
        {
          "internalType": "contract IUniswapV2Pair",
          "name": "",
          "type": "address"
        }
      ],
      "payable": false,
      "stateMutability": "view",
      "type": "function"
    },
    {
      "constant": true,
      "inputs": [],
      "name": "mta",
      "outputs": [
        {
          "internalType": "address",
          "name": "",
          "type": "address"
        }
      ],
      "payable": false,
      "stateMutability": "view",
      "type": "function"
    },
    {
      "constant": true,
      "inputs": [
        {
          "internalType": "address",
          "name": "",
          "type": "address"
        }
      ],
      "name": "okStrats",
      "outputs": [
        {
          "internalType": "bool",
          "name": "",
          "type": "bool"
        }
      ],
      "payable": false,
      "stateMutability": "view",
      "type": "function"
    },
    {
      "constant": true,
      "inputs": [],
      "name": "operator",
      "outputs": [
        {
          "internalType": "address",
          "name": "",
          "type": "address"
        }
      ],
      "payable": false,
      "stateMutability": "view",
      "type": "function"
    },
    {
      "constant": true,
      "inputs": [],
      "name": "owner",
      "outputs": [
        {
          "internalType": "address",
          "name": "",
          "type": "address"
        }
      ],
      "payable": false,
      "stateMutability": "view",
      "type": "function"
    },
    {
      "constant": true,
      "inputs": [],
      "name": "reinvestBountyBps",
      "outputs": [
        {
          "internalType": "uint256",
          "name": "",
          "type": "uint256"
        }
      ],
      "payable": false,
      "stateMutability": "view",
      "type": "function"
    },
    {
      "constant": false,
      "inputs": [],
      "name": "renounceOwnership",
      "outputs": [],
      "payable": false,
      "stateMutability": "nonpayable",
      "type": "function"
    },
    {
      "constant": true,
      "inputs": [],
      "name": "router",
      "outputs": [
        {
          "internalType": "contract IUniswapV2Router02",
          "name": "",
          "type": "address"
        }
      ],
      "payable": false,
      "stateMutability": "view",
      "type": "function"
    },
    {
      "constant": true,
      "inputs": [
        {
          "internalType": "uint256",
          "name": "",
          "type": "uint256"
        }
      ],
      "name": "shares",
      "outputs": [
        {
          "internalType": "uint256",
          "name": "",
          "type": "uint256"
        }
      ],
      "payable": false,
      "stateMutability": "view",
      "type": "function"
    },
    {
      "constant": true,
      "inputs": [],
      "name": "staking",
      "outputs": [
        {
          "internalType": "contract IMStableStakingRewards",
          "name": "",
          "type": "address"
        }
      ],
      "payable": false,
      "stateMutability": "view",
      "type": "function"
    },
    {
      "constant": true,
      "inputs": [],
      "name": "totalShare",
      "outputs": [
        {
          "internalType": "uint256",
          "name": "",
          "type": "uint256"
        }
      ],
      "payable": false,
      "stateMutability": "view",
      "type": "function"
    },
    {
      "constant": false,
      "inputs": [
        {
          "internalType": "address",
          "name": "newOwner",
          "type": "address"
        }
      ],
      "name": "transferOwnership",
      "outputs": [],
      "payable": false,
      "stateMutability": "nonpayable",
      "type": "function"
    },
    {
      "constant": true,
      "inputs": [],
      "name": "weth",
      "outputs": [
        {
          "internalType": "address",
          "name": "",
          "type": "address"
        }
      ],
      "payable": false,
      "stateMutability": "view",
      "type": "function"
    },
    {
      "constant": true,
      "inputs": [
        {
          "internalType": "uint256",
          "name": "share",
          "type": "uint256"
        }
      ],
      "name": "shareToBalance",
      "outputs": [
        {
          "internalType": "uint256",
          "name": "",
          "type": "uint256"
        }
      ],
      "payable": false,
      "stateMutability": "view",
      "type": "function"
    },
    {
      "constant": true,
      "inputs": [
        {
          "internalType": "uint256",
          "name": "balance",
          "type": "uint256"
        }
      ],
      "name": "balanceToShare",
      "outputs": [
        {
          "internalType": "uint256",
          "name": "",
          "type": "uint256"
        }
      ],
      "payable": false,
      "stateMutability": "view",
      "type": "function"
    },
    {
      "constant": false,
      "inputs": [],
      "name": "reinvest",
      "outputs": [],
      "payable": false,
      "stateMutability": "nonpayable",
      "type": "function"
    },
    {
      "constant": false,
      "inputs": [
        {
          "internalType": "uint256",
          "name": "id",
          "type": "uint256"
        },
        {
          "internalType": "address",
          "name": "user",
          "type": "address"
        },
        {
          "internalType": "uint256",
          "name": "debt",
          "type": "uint256"
        },
        {
          "internalType": "bytes",
          "name": "data",
          "type": "bytes"
        }
      ],
      "name": "work",
      "outputs": [],
      "payable": true,
      "stateMutability": "payable",
      "type": "function"
    },
    {
      "constant": true,
      "inputs": [
        {
          "internalType": "uint256",
          "name": "aIn",
          "type": "uint256"
        },
        {
          "internalType": "uint256",
          "name": "rIn",
          "type": "uint256"
        },
        {
          "internalType": "uint256",
          "name": "rOut",
          "type": "uint256"
        }
      ],
      "name": "getMktSellAmount",
      "outputs": [
        {
          "internalType": "uint256",
          "name": "",
          "type": "uint256"
        }
      ],
      "payable": false,
      "stateMutability": "pure",
      "type": "function"
    },
    {
      "constant": true,
      "inputs": [
        {
          "internalType": "uint256",
          "name": "id",
          "type": "uint256"
        }
      ],
      "name": "health",
      "outputs": [
        {
          "internalType": "uint256",
          "name": "",
          "type": "uint256"
        }
      ],
      "payable": false,
      "stateMutability": "view",
      "type": "function"
    },
    {
      "constant": false,
      "inputs": [
        {
          "internalType": "uint256",
          "name": "id",
          "type": "uint256"
        }
      ],
      "name": "liquidate",
      "outputs": [],
      "payable": false,
      "stateMutability": "nonpayable",
      "type": "function"
    },
    {
      "constant": false,
      "inputs": [
        {
          "internalType": "address",
          "name": "token",
          "type": "address"
        },
        {
          "internalType": "address",
          "name": "to",
          "type": "address"
        },
        {
          "internalType": "uint256",
          "name": "value",
          "type": "uint256"
        }
      ],
      "name": "recover",
      "outputs": [],
      "payable": false,
      "stateMutability": "nonpayable",
      "type": "function"
    },
    {
      "constant": false,
      "inputs": [
        {
          "internalType": "uint256",
          "name": "_reinvestBountyBps",
          "type": "uint256"
        }
      ],
      "name": "setReinvestBountyBps",
      "outputs": [],
      "payable": false,
      "stateMutability": "nonpayable",
      "type": "function"
    },
    {
      "constant": false,
      "inputs": [
        {
          "internalType": "address[]",
          "name": "strats",
          "type": "address[]"
        },
        {
          "internalType": "bool",
          "name": "isOk",
          "type": "bool"
        }
      ],
      "name": "setStrategyOk",
      "outputs": [],
      "payable": false,
      "stateMutability": "nonpayable",
      "type": "function"
    },
    {
      "constant": false,
      "inputs": [
        {
          "internalType": "contract Strategy",
          "name": "_addStrat",
          "type": "address"
        },
        {
          "internalType": "contract Strategy",
          "name": "_liqStrat",
          "type": "address"
        }
      ],
      "name": "setCriticalStrategies",
      "outputs": [],
      "payable": false,
      "stateMutability": "nonpayable",
      "type": "function"
    }
  ],
  "bytecode": "0x60806040523480156200001157600080fd5b50604051620030bc380380620030bc833981810160405260e08110156200003757600080fd5b50805160208201516040808401516060850151608086015160a087015160c090970151600080546001600160a01b031916331780825595519798969794969395929491926001600160a01b0316917f8be0079c531659141344cd1fd0a4f28419497f9722a3daafe3b4186f6b6457e0908290a36001808190555086600860006101000a8154816001600160a01b0302191690836001600160a01b03160217905550846001600160a01b031663ad5c46486040518163ffffffff1660e01b815260040160206040518083038186803b1580156200011257600080fd5b505afa15801562000127573d6000803e3d6000fd5b505050506040513d60208110156200013e57600080fd5b5051600680546001600160a01b03199081166001600160a01b03938416179091556002805482168984161790556004805490911691871691821781556040805163c45a015560e01b8152905163c45a015592828101926020929190829003018186803b158015620001ae57600080fd5b505afa158015620001c3573d6000803e3d6000fd5b505050506040513d6020811015620001da57600080fd5b5051600380546001600160a01b039283166001600160a01b03199182161791829055600780548885169216821790556006546040805163e6a4390560e01b8152918516600483015260248201929092529051919092169163e6a43905916044808301926020929190829003018186803b1580156200025757600080fd5b505afa1580156200026c573d6000803e3d6000fd5b505050506040513d60208110156200028357600080fd5b5051600580546001600160a01b03199081166001600160a01b03938416178255600c805482168785161790819055600d805490921686851617825583166000908152600a60209081526040808320805460ff199081166001908117909255945487168452818420805490951617909355600e8690559254825163095ea7b360e01b81528b861660048201526000196024820152925194169363095ea7b3936044808501949193918390030190829087803b1580156200034157600080fd5b505af115801562000356573d6000803e3d6000fd5b505050506040513d60208110156200036d57600080fd5b5050600554600480546040805163095ea7b360e01b81526001600160a01b039283169381019390935260001960248401525192169163095ea7b3916044808201926020929091908290030181600087803b158015620003cb57600080fd5b505af1158015620003e0573d6000803e3d6000fd5b505050506040513d6020811015620003f757600080fd5b505060045462000423906001600160a01b03868116911660001962000430602090811b620028c917901c565b5050505050505062000591565b604080516001600160a01b038481166024830152604480830185905283518084039091018152606490920183526020820180516001600160e01b031663095ea7b360e01b178152925182516000946060949389169392918291908083835b60208310620004af5780518252601f1990920191602091820191016200048e565b6001836020036101000a0380198251168184511680821785525050505050509050019150506000604051808303816000865af19150503d806000811462000513576040519150601f19603f3d011682016040523d82523d6000602084013e62000518565b606091505b5091509150818015620005495750805115806200054957508080602001905160208110156200054657600080fd5b50515b6200058a576040805162461bcd60e51b815260206004820152600c60248201526b2173616665417070726f766560a01b604482015290519081900360640190fd5b5050505050565b612b1b80620005a16000396000f3fe6080604052600436106101b75760003560e01c8063783b6d60116100ec578063d75734c81161008a578063f2fde38b11610064578063f2fde38b146105fb578063f3b8912b1461063b578063f887ea401461067b578063fdb5a03e14610690576101b7565b8063d75734c814610531578063e7956f2114610567578063e98d1558146105e6576101b7565b80638f32d59b116100c65780638f32d59b146104965780638fa4a940146104bf578063c45a015514610507578063c7aa6ae71461051c576101b7565b8063783b6d601461042d57806381955105146104575780638da5cb5b14610481576101b7565b80634cf088d91161015957806357a858fc1161013357806357a858fc146103c45780635fcbd285146103ee5780636191e37b14610403578063715018a614610418576101b7565b80634cf088d914610385578063570ca7351461039a57806357899399146103af576101b7565b80631ec82cb8116101955780631ec82cb8146102345780633fc8cef314610284578063415f1240146102c257806348db8cc4146102ec576101b7565b8063026c4207146101b95780631363bdd3146101e05780631620fbd51461020a575b005b3480156101c557600080fd5b506101ce6106a5565b60408051918252519081900360200190f35b3480156101ec57600080fd5b506101ce6004803603602081101561020357600080fd5b50356106ab565b34801561021657600080fd5b506101b76004803603602081101561022d57600080fd5b503561078e565b34801561024057600080fd5b506101b76004803603606081101561025757600080fd5b5073ffffffffffffffffffffffffffffffffffffffff813581169160208101359091169060400135610806565b34801561029057600080fd5b50610299610920565b6040805173ffffffffffffffffffffffffffffffffffffffff9092168252519081900360200190f35b3480156102ce57600080fd5b506101b7600480360360208110156102e557600080fd5b503561093c565b6101b76004803603608081101561030257600080fd5b81359173ffffffffffffffffffffffffffffffffffffffff602082013516916040820135919081019060808101606082013564010000000081111561034657600080fd5b82018360208201111561035857600080fd5b8035906020019184600183028401116401000000008311171561037a57600080fd5b509092509050610cff565b34801561039157600080fd5b506102996111bd565b3480156103a657600080fd5b506102996111d9565b3480156103bb57600080fd5b506102996111f5565b3480156103d057600080fd5b506101ce600480360360208110156103e757600080fd5b5035611211565b3480156103fa57600080fd5b50610299611223565b34801561040f57600080fd5b5061029961123f565b34801561042457600080fd5b506101b761125b565b34801561043957600080fd5b506101ce6004803603602081101561045057600080fd5b503561133d565b34801561046357600080fd5b506101ce6004803603602081101561047a57600080fd5b50356115ec565b34801561048d57600080fd5b506102996116b7565b3480156104a257600080fd5b506104ab6116d3565b604080519115158252519081900360200190f35b3480156104cb57600080fd5b506101b7600480360360408110156104e257600080fd5b5073ffffffffffffffffffffffffffffffffffffffff813581169160200135166116f1565b34801561051357600080fd5b506102996117b7565b34801561052857600080fd5b506101ce6117d3565b34801561053d57600080fd5b506101ce6004803603606081101561055457600080fd5b50803590602081013590604001356117d9565b34801561057357600080fd5b506101b76004803603604081101561058a57600080fd5b8101906020810181356401000000008111156105a557600080fd5b8201836020820111156105b757600080fd5b803590602001918460208302840111640100000000831117156105d957600080fd5b91935091503515156118be565b3480156105f257600080fd5b506102996119b9565b34801561060757600080fd5b506101b76004803603602081101561061e57600080fd5b503573ffffffffffffffffffffffffffffffffffffffff166119d5565b34801561064757600080fd5b506104ab6004803603602081101561065e57600080fd5b503573ffffffffffffffffffffffffffffffffffffffff16611a54565b34801561068757600080fd5b50610299611a69565b34801561069c57600080fd5b506101b7611a85565b600b5481565b6000600b54600014156106bf575080610789565b600254604080517f70a08231000000000000000000000000000000000000000000000000000000008152306004820152905160009273ffffffffffffffffffffffffffffffffffffffff16916370a08231916024808301926020929190829003018186803b15801561073057600080fd5b505afa158015610744573d6000803e3d6000fd5b505050506040513d602081101561075a57600080fd5b5051600b5490915061078590829061077990869063ffffffff611f4c16565b9063ffffffff611fc816565b9150505b919050565b6107966116d3565b61080157604080517f08c379a000000000000000000000000000000000000000000000000000000000815260206004820181905260248201527f4f776e61626c653a2063616c6c6572206973206e6f7420746865206f776e6572604482015290519081900360640190fd5b600e55565b61080e6116d3565b61087957604080517f08c379a000000000000000000000000000000000000000000000000000000000815260206004820181905260248201527f4f776e61626c653a2063616c6c6572206973206e6f7420746865206f776e6572604482015290519081900360640190fd5b600180548101908190556108aa73ffffffffffffffffffffffffffffffffffffffff8516848463ffffffff61204c16565b600154811461091a57604080517f08c379a000000000000000000000000000000000000000000000000000000000815260206004820152601f60248201527f5265656e7472616e637947756172643a207265656e7472616e742063616c6c00604482015290519081900360640190fd5b50505050565b60065473ffffffffffffffffffffffffffffffffffffffff1681565b60085473ffffffffffffffffffffffffffffffffffffffff1633146109c257604080517f08c379a000000000000000000000000000000000000000000000000000000000815260206004820152600c60248201527f6e6f74206f70657261746f720000000000000000000000000000000000000000604482015290519081900360640190fd5b600180548101908190556109d582612222565b600554600d54604080517f70a08231000000000000000000000000000000000000000000000000000000008152306004820152905173ffffffffffffffffffffffffffffffffffffffff9384169363a9059cbb93169184916370a0823191602480820192602092909190829003018186803b158015610a5357600080fd5b505afa158015610a67573d6000803e3d6000fd5b505050506040513d6020811015610a7d57600080fd5b5051604080517fffffffff0000000000000000000000000000000000000000000000000000000060e086901b16815273ffffffffffffffffffffffffffffffffffffffff909316600484015260248301919091525160448083019260209291908290030181600087803b158015610af357600080fd5b505af1158015610b07573d6000803e3d6000fd5b505050506040513d6020811015610b1d57600080fd5b5050600d546007546040805173ffffffffffffffffffffffffffffffffffffffff92831660208281019190915260008284018190528351808403850181526060808501958690527fb61d27f600000000000000000000000000000000000000000000000000000000909552606484018281526084850183905260a48501958652815160c48601528151969097169663b61d27f6969295869592949193909260e40191850190808383895b83811015610bdf578181015183820152602001610bc7565b50505050905090810190601f168015610c0c5780820380516001836020036101000a031916815260200191505b50945050505050600060405180830381600087803b158015610c2d57600080fd5b505af1158015610c41573d6000803e3d6000fd5b505050506000479050610c543382612333565b60408051828152905184917f253e5385159062a101837d58c10ad4694c58979ebc3ba6b5cb2cbba2fe461692919081900360200190a2506001548114610cfb57604080517f08c379a000000000000000000000000000000000000000000000000000000000815260206004820152601f60248201527f5265656e7472616e637947756172643a207265656e7472616e742063616c6c00604482015290519081900360640190fd5b5050565b60085473ffffffffffffffffffffffffffffffffffffffff163314610d8557604080517f08c379a000000000000000000000000000000000000000000000000000000000815260206004820152600c60248201527f6e6f74206f70657261746f720000000000000000000000000000000000000000604482015290519081900360640190fd5b60018054810190819055610d9886612222565b6000606084846040811015610dac57600080fd5b73ffffffffffffffffffffffffffffffffffffffff8235169190810190604081016020820135640100000000811115610de457600080fd5b820183602082011115610df657600080fd5b80359060200191846001830284011164010000000083111715610e1857600080fd5b91908080601f016020809104026020016040519081016040528093929190818152602001838380828437600092018290525073ffffffffffffffffffffffffffffffffffffffff89168152600a60205260409020549799509297505060ff9095169450610eeb935050505057604080517f08c379a000000000000000000000000000000000000000000000000000000000815260206004820152601860248201527f756e617070726f76656420776f726b2073747261746567790000000000000000604482015290519081900360640190fd5b600554604080517f70a08231000000000000000000000000000000000000000000000000000000008152306004820152905173ffffffffffffffffffffffffffffffffffffffff9092169163a9059cbb91859184916370a08231916024808301926020929190829003018186803b158015610f6557600080fd5b505afa158015610f79573d6000803e3d6000fd5b505050506040513d6020811015610f8f57600080fd5b5051604080517fffffffff0000000000000000000000000000000000000000000000000000000060e086901b16815273ffffffffffffffffffffffffffffffffffffffff909316600484015260248301919091525160448083019260209291908290030181600087803b15801561100557600080fd5b505af1158015611019573d6000803e3d6000fd5b505050506040513d602081101561102f57600080fd5b50506040517fb61d27f600000000000000000000000000000000000000000000000000000000815273ffffffffffffffffffffffffffffffffffffffff88811660048301908152602483018990526060604484019081528451606485015284519286169363b61d27f69334938d938d938993608490910190602085019080838360005b838110156110ca5781810151838201526020016110b2565b50505050905090810190601f1680156110f75780820380516001836020036101000a031916815260200191505b509450505050506000604051808303818588803b15801561111757600080fd5b505af115801561112b573d6000803e3d6000fd5b505050505061113988612486565b6111433347612333565b505060015481146111b557604080517f08c379a000000000000000000000000000000000000000000000000000000000815260206004820152601f60248201527f5265656e7472616e637947756172643a207265656e7472616e742063616c6c00604482015290519081900360640190fd5b505050505050565b60025473ffffffffffffffffffffffffffffffffffffffff1681565b60085473ffffffffffffffffffffffffffffffffffffffff1681565b600c5473ffffffffffffffffffffffffffffffffffffffff1681565b60096020526000908152604090205481565b60055473ffffffffffffffffffffffffffffffffffffffff1681565b600d5473ffffffffffffffffffffffffffffffffffffffff1681565b6112636116d3565b6112ce57604080517f08c379a000000000000000000000000000000000000000000000000000000000815260206004820181905260248201527f4f776e61626c653a2063616c6c6572206973206e6f7420746865206f776e6572604482015290519081900360640190fd5b6000805460405173ffffffffffffffffffffffffffffffffffffffff909116907f8be0079c531659141344cd1fd0a4f28419497f9722a3daafe3b4186f6b6457e0908390a3600080547fffffffffffffffffffffffff0000000000000000000000000000000000000000169055565b6000818152600960205260408120548190611357906115ec565b90506000600560009054906101000a900473ffffffffffffffffffffffffffffffffffffffff1673ffffffffffffffffffffffffffffffffffffffff166318160ddd6040518163ffffffff1660e01b815260040160206040518083038186803b1580156113c357600080fd5b505afa1580156113d7573d6000803e3d6000fd5b505050506040513d60208110156113ed57600080fd5b5051600554604080517f0902f1ac0000000000000000000000000000000000000000000000000000000081529051929350600092839273ffffffffffffffffffffffffffffffffffffffff1691630902f1ac916004808301926060929190829003018186803b15801561145f57600080fd5b505afa158015611473573d6000803e3d6000fd5b505050506040513d606081101561148957600080fd5b508051602091820151600654600554604080517f0dfe168100000000000000000000000000000000000000000000000000000000815290516dffffffffffffffffffffffffffff9586169850949093169550600094859473ffffffffffffffffffffffffffffffffffffffff938416949390921692630dfe16819260048083019392829003018186803b15801561151f57600080fd5b505afa158015611533573d6000803e3d6000fd5b505050506040513d602081101561154957600080fd5b505173ffffffffffffffffffffffffffffffffffffffff161461156d578284611570565b83835b9092509050600061158b86610779898663ffffffff611f4c16565b905060006115a3876107798a8663ffffffff611f4c16565b90506115de826115d2836115bd878263ffffffff61264316565b6115cd898863ffffffff61264316565b6117d9565b9063ffffffff6126ba16565b9a9950505050505050505050565b6000600b5460001415611600575080610789565b600254604080517f70a08231000000000000000000000000000000000000000000000000000000008152306004820152905160009273ffffffffffffffffffffffffffffffffffffffff16916370a08231916024808301926020929190829003018186803b15801561167157600080fd5b505afa158015611685573d6000803e3d6000fd5b505050506040513d602081101561169b57600080fd5b5051600b5490915061078590610779858463ffffffff611f4c16565b60005473ffffffffffffffffffffffffffffffffffffffff1690565b60005473ffffffffffffffffffffffffffffffffffffffff16331490565b6116f96116d3565b61176457604080517f08c379a000000000000000000000000000000000000000000000000000000000815260206004820181905260248201527f4f776e61626c653a2063616c6c6572206973206e6f7420746865206f776e6572604482015290519081900360640190fd5b600c805473ffffffffffffffffffffffffffffffffffffffff9384167fffffffffffffffffffffffff000000000000000000000000000000000000000091821617909155600d8054929093169116179055565b60035473ffffffffffffffffffffffffffffffffffffffff1681565b600e5481565b6000836117e8575060006118b7565b6000831180156117f85750600082115b61186357604080517f08c379a000000000000000000000000000000000000000000000000000000000815260206004820152601260248201527f62616420726573657276652076616c7565730000000000000000000000000000604482015290519081900360640190fd5b6000611877856103e563ffffffff611f4c16565b9050600061188b828563ffffffff611f4c16565b905060006118a5836115d2886103e863ffffffff611f4c16565b90508082816118b057fe5b0493505050505b9392505050565b6118c66116d3565b61193157604080517f08c379a000000000000000000000000000000000000000000000000000000000815260206004820181905260248201527f4f776e61626c653a2063616c6c6572206973206e6f7420746865206f776e6572604482015290519081900360640190fd5b8160005b818110156119b25782600a600087878581811061194e57fe5b6020908102929092013573ffffffffffffffffffffffffffffffffffffffff1683525081019190915260400160002080547fffffffffffffffffffffffffffffffffffffffffffffffffffffffffffffff0016911515919091179055600101611935565b5050505050565b60075473ffffffffffffffffffffffffffffffffffffffff1681565b6119dd6116d3565b611a4857604080517f08c379a000000000000000000000000000000000000000000000000000000000815260206004820181905260248201527f4f776e61626c653a2063616c6c6572206973206e6f7420746865206f776e6572604482015290519081900360640190fd5b611a518161272e565b50565b600a6020526000908152604090205460ff1681565b60045473ffffffffffffffffffffffffffffffffffffffff1681565b333214611af357604080517f08c379a000000000000000000000000000000000000000000000000000000000815260206004820152600760248201527f6e6f7420656f6100000000000000000000000000000000000000000000000000604482015290519081900360640190fd5b60018054810190819055600254604080517fb88a802f000000000000000000000000000000000000000000000000000000008152905173ffffffffffffffffffffffffffffffffffffffff9092169163b88a802f9160048082019260009290919082900301818387803b158015611b6957600080fd5b505af1158015611b7d573d6000803e3d6000fd5b505060075460009250611ba6915073ffffffffffffffffffffffffffffffffffffffff16612827565b905080611bb35750611edc565b6000612710611bcd600e5484611f4c90919063ffffffff16565b81611bd457fe5b6007549190049150611c039073ffffffffffffffffffffffffffffffffffffffff16338363ffffffff61204c16565b600c54611c569073ffffffffffffffffffffffffffffffffffffffff16611c30848463ffffffff61264316565b60075473ffffffffffffffffffffffffffffffffffffffff16919063ffffffff61204c16565b600c546007546040805173ffffffffffffffffffffffffffffffffffffffff9283166020808301919091526000828401819052606080840182905284518085038201815260808501958690527fb61d27f600000000000000000000000000000000000000000000000000000000909552306084850181815260a4860184905260c48601928352865160e48701528651979098169763b61d27f6979196939593949093610104019190850190808383895b83811015611d1e578181015183820152602001611d06565b50505050905090810190601f168015611d4b5780820380516001836020036101000a031916815260200191505b50945050505050600060405180830381600087803b158015611d6c57600080fd5b505af1158015611d80573d6000803e3d6000fd5b5050600254600554604080517f70a08231000000000000000000000000000000000000000000000000000000008152306004820152905173ffffffffffffffffffffffffffffffffffffffff938416955063a694fc3a945091909216916370a08231916024808301926020929190829003018186803b158015611e0257600080fd5b505afa158015611e16573d6000803e3d6000fd5b505050506040513d6020811015611e2c57600080fd5b5051604080517fffffffff0000000000000000000000000000000000000000000000000000000060e085901b168152600481019290925251602480830192600092919082900301818387803b158015611e8457600080fd5b505af1158015611e98573d6000803e3d6000fd5b5050604080518581526020810185905281513394507fc003f45bc224d116b6d079100d4ab57a5b9633244c47a5a92a176c5b79a85f2893509081900390910190a250505b6001548114611a5157604080517f08c379a000000000000000000000000000000000000000000000000000000000815260206004820152601f60248201527f5265656e7472616e637947756172643a207265656e7472616e742063616c6c00604482015290519081900360640190fd5b600082611f5b57506000611fc2565b82820282848281611f6857fe5b0414611fbf576040517f08c379a0000000000000000000000000000000000000000000000000000000008152600401808060200182810382526021815260200180612ac66021913960400191505060405180910390fd5b90505b92915050565b600080821161203857604080517f08c379a000000000000000000000000000000000000000000000000000000000815260206004820152601a60248201527f536166654d6174683a206469766973696f6e206279207a65726f000000000000604482015290519081900360640190fd5b600082848161204357fe5b04949350505050565b6040805173ffffffffffffffffffffffffffffffffffffffff8481166024830152604480830185905283518084039091018152606490920183526020820180517bffffffffffffffffffffffffffffffffffffffffffffffffffffffff167fa9059cbb00000000000000000000000000000000000000000000000000000000178152925182516000946060949389169392918291908083835b6020831061212257805182527fffffffffffffffffffffffffffffffffffffffffffffffffffffffffffffffe090920191602091820191016120e5565b6001836020036101000a0380198251168184511680821785525050505050509050019150506000604051808303816000865af19150503d8060008114612184576040519150601f19603f3d011682016040523d82523d6000602084013e612189565b606091505b50915091508180156121b75750805115806121b757508080602001905160208110156121b457600080fd5b50515b6119b257604080517f08c379a000000000000000000000000000000000000000000000000000000000815260206004820152600d60248201527f21736166655472616e7366657200000000000000000000000000000000000000604482015290519081900360640190fd5b6000818152600960205260409020548015610cfb576000612242826115ec565b600254604080517f2e1a7d4d00000000000000000000000000000000000000000000000000000000815260048101849052905192935073ffffffffffffffffffffffffffffffffffffffff90911691632e1a7d4d9160248082019260009290919082900301818387803b1580156122b857600080fd5b505af11580156122cc573d6000803e3d6000fd5b5050600b546122e4925090508363ffffffff61264316565b600b556000838152600960209081526040808320929092558151848152915185927fca07b1e9ff462c1feca0fa258869d03f3657c3a02eaceed810db4f58848856dc92908290030190a2505050565b6040805160008082526020820190925273ffffffffffffffffffffffffffffffffffffffff84169083906040518082805190602001908083835b602083106123aa57805182527fffffffffffffffffffffffffffffffffffffffffffffffffffffffffffffffe0909201916020918201910161236d565b6001836020036101000a03801982511681845116808217855250505050505090500191505060006040518083038185875af1925050503d806000811461240c576040519150601f19603f3d011682016040523d82523d6000602084013e612411565b606091505b505090508061248157604080517f08c379a000000000000000000000000000000000000000000000000000000000815260206004820152601060248201527f21736166655472616e7366657245544800000000000000000000000000000000604482015290519081900360640190fd5b505050565b600554604080517f70a08231000000000000000000000000000000000000000000000000000000008152306004820152905160009273ffffffffffffffffffffffffffffffffffffffff16916370a08231916024808301926020929190829003018186803b1580156124f757600080fd5b505afa15801561250b573d6000803e3d6000fd5b505050506040513d602081101561252157600080fd5b505190508015610cfb576000612536826106ab565b600254604080517fa694fc3a00000000000000000000000000000000000000000000000000000000815260048101869052905192935073ffffffffffffffffffffffffffffffffffffffff9091169163a694fc3a9160248082019260009290919082900301818387803b1580156125ac57600080fd5b505af11580156125c0573d6000803e3d6000fd5b5050506000848152600960205260409020546125e391508263ffffffff6126ba16565b600084815260096020526040902055600b54612605908263ffffffff6126ba16565b600b5560408051828152905184917fdbdb2d65c9e75a246e9a50307e793774f5ad8d986766a102b8a0eacb58208da2919081900360200190a2505050565b6000828211156126b457604080517f08c379a000000000000000000000000000000000000000000000000000000000815260206004820152601e60248201527f536166654d6174683a207375627472616374696f6e206f766572666c6f770000604482015290519081900360640190fd5b50900390565b600082820183811015611fbf57604080517f08c379a000000000000000000000000000000000000000000000000000000000815260206004820152601b60248201527f536166654d6174683a206164646974696f6e206f766572666c6f770000000000604482015290519081900360640190fd5b73ffffffffffffffffffffffffffffffffffffffff811661279a576040517f08c379a0000000000000000000000000000000000000000000000000000000008152600401808060200182810382526026815260200180612aa06026913960400191505060405180910390fd5b6000805460405173ffffffffffffffffffffffffffffffffffffffff808516939216917f8be0079c531659141344cd1fd0a4f28419497f9722a3daafe3b4186f6b6457e091a3600080547fffffffffffffffffffffffff00000000000000000000000000000000000000001673ffffffffffffffffffffffffffffffffffffffff92909216919091179055565b604080517f70a08231000000000000000000000000000000000000000000000000000000008152306004820152905160009173ffffffffffffffffffffffffffffffffffffffff8416916370a0823191602480820192602092909190829003018186803b15801561289757600080fd5b505afa1580156128ab573d6000803e3d6000fd5b505050506040513d60208110156128c157600080fd5b505192915050565b6040805173ffffffffffffffffffffffffffffffffffffffff8481166024830152604480830185905283518084039091018152606490920183526020820180517bffffffffffffffffffffffffffffffffffffffffffffffffffffffff167f095ea7b300000000000000000000000000000000000000000000000000000000178152925182516000946060949389169392918291908083835b6020831061299f57805182527fffffffffffffffffffffffffffffffffffffffffffffffffffffffffffffffe09092019160209182019101612962565b6001836020036101000a0380198251168184511680821785525050505050509050019150506000604051808303816000865af19150503d8060008114612a01576040519150601f19603f3d011682016040523d82523d6000602084013e612a06565b606091505b5091509150818015612a34575080511580612a345750808060200190516020811015612a3157600080fd5b50515b6119b257604080517f08c379a000000000000000000000000000000000000000000000000000000000815260206004820152600c60248201527f2173616665417070726f76650000000000000000000000000000000000000000604482015290519081900360640190fdfe4f776e61626c653a206e6577206f776e657220697320746865207a65726f2061646472657373536166654d6174683a206d756c7469706c69636174696f6e206f766572666c6f77a265627a7a72315820a4f0e9fcebba87aa401bb601eb7405fc5f50484aa13cc0d06ca50028303724e664736f6c63430005100032",
  "source": "pragma solidity 0.5.16;\nimport \"openzeppelin-solidity-2.3.0/contracts/ownership/Ownable.sol\";\nimport \"openzeppelin-solidity-2.3.0/contracts/math/SafeMath.sol\";\nimport \"openzeppelin-solidity-2.3.0/contracts/utils/ReentrancyGuard.sol\";\nimport \"./mstable/IMStableStakingRewards.sol\";\nimport \"@uniswap/v2-core/contracts/interfaces/IUniswapV2Factory.sol\";\nimport \"@uniswap/v2-core/contracts/interfaces/IUniswapV2Pair.sol\";\nimport \"@uniswap/v2-core/contracts/libraries/Math.sol\";\nimport \"./uniswap/IUniswapV2Router02.sol\";\nimport \"./Strategy.sol\";\nimport \"./SafeToken.sol\";\nimport \"./Goblin.sol\";\n\n// MStableGoblin is specific for MTA-ETH pool in Uniswap.\n// In this case, fToken and reward token, namely MTA, are the same.\ncontract MStableGoblin is Ownable, ReentrancyGuard, Goblin {\n    /// @notice Libraries\n    using SafeToken for address;\n    using SafeMath for uint256;\n\n    /// @notice Events\n    event Reinvest(address indexed caller, uint256 reward, uint256 bounty);\n    event AddShare(uint256 indexed id, uint256 share);\n    event RemoveShare(uint256 indexed id, uint256 share);\n    event Liquidate(uint256 indexed id, uint256 wad);\n\n    /// @notice Immutable variables\n    IMStableStakingRewards public staking;\n    IUniswapV2Factory public factory;\n    IUniswapV2Router02 public router;\n    IUniswapV2Pair public lpToken;\n    address public weth;    \n    address public mta;\n    address public operator;\n\n    /// @notice Mutable state variables\n    mapping(uint256 => uint256) public shares;\n    mapping(address => bool) public okStrats;\n    uint256 public totalShare;\n    Strategy public addStrat;\n    Strategy public liqStrat;\n    uint256 public reinvestBountyBps;\n\n    constructor(\n        address _operator,\n        IMStableStakingRewards _staking,\n        IUniswapV2Router02 _router,        \n        address _mta,\n        Strategy _addStrat,\n        Strategy _liqStrat,\n        uint256 _reinvestBountyBps\n    ) public {\n        operator = _operator;\n        weth = _router.WETH();\n        staking = _staking;\n        router = _router;\n        factory = IUniswapV2Factory(_router.factory());        \n        mta = _mta;\n        lpToken = IUniswapV2Pair(factory.getPair(weth, _mta));        \n        addStrat = _addStrat;\n        liqStrat = _liqStrat;\n        okStrats[address(addStrat)] = true;\n        okStrats[address(liqStrat)] = true;\n        reinvestBountyBps = _reinvestBountyBps;\n        lpToken.approve(address(_staking), uint256(-1)); // 100% trust in the staking pool\n        lpToken.approve(address(router), uint256(-1)); // 100% trust in the router\n        _mta.safeApprove(address(router), uint256(-1)); // 100% trust in the router        \n    }\n\n    /// @dev Require that the caller must be an EOA account to avoid flash loans.\n    modifier onlyEOA() {\n        require(msg.sender == tx.origin, \"not eoa\");\n        _;\n    }\n\n    /// @dev Require that the caller must be the operator (the bank).\n    modifier onlyOperator() {\n        require(msg.sender == operator, \"not operator\");\n        _;\n    }\n\n    /// @dev Return the entitied LP token balance for the given shares.\n    /// @param share The number of shares to be converted to LP balance.\n    function shareToBalance(uint256 share) public view returns (uint256) {\n        if (totalShare == 0) return share; // When there's no share, 1 share = 1 balance.\n        uint256 totalBalance = staking.balanceOf(address(this));\n        return share.mul(totalBalance).div(totalShare);\n    }\n\n    /// @dev Return the number of shares to receive if staking the given LP tokens.\n    /// @param balance the number of LP tokens to be converted to shares.\n    function balanceToShare(uint256 balance) public view returns (uint256) {\n        if (totalShare == 0) return balance; // When there's no share, 1 share = 1 balance.\n        uint256 totalBalance = staking.balanceOf(address(this));\n        return balance.mul(totalShare).div(totalBalance);\n    }\n\n    /// @dev Re-invest whatever this worker has earned back to staked LP tokens.\n    function reinvest() public onlyEOA nonReentrant {\n        // 1. Withdraw all the rewards.\n        staking.claimReward();\n        uint256 reward = mta.myBalance();\n        if (reward == 0) return;\n        // 2. Send the reward bounty to the caller.\n        uint256 bounty = reward.mul(reinvestBountyBps) / 10000;\n        mta.safeTransfer(msg.sender, bounty);\n        // 3. Use add Two-side optimal strategy to convert MTA to ETH and add \n        // liquidity to get LP tokens.\n        mta.safeTransfer(address(addStrat), reward.sub(bounty));\n        addStrat.execute(address(this), 0, abi.encode(mta, 0, 0));\n        // 4. Mint more LP tokens and stake them for more rewards.\n        staking.stake(lpToken.balanceOf(address(this)));\n        emit Reinvest(msg.sender, reward, bounty);\n    }\n\n    /// @dev Work on the given position. Must be called by the operator.\n    /// @param id The position ID to work on.\n    /// @param user The original user that is interacting with the operator.\n    /// @param debt The amount of user debt to help the strategy make decisions.\n    /// @param data The encoded data, consisting of strategy address and calldata.\n    function work(uint256 id, address user, uint256 debt, bytes calldata data)\n        external payable\n        onlyOperator nonReentrant\n    {\n        // 1. Convert this position back to LP tokens.\n        _removeShare(id);\n        // 2. Perform the worker strategy; sending LP tokens + ETH; expecting LP tokens + ETH.\n        (address strat, bytes memory ext) = abi.decode(data, (address, bytes));\n        require(okStrats[strat], \"unapproved work strategy\");\n        lpToken.transfer(strat, lpToken.balanceOf(address(this)));\n        Strategy(strat).execute.value(msg.value)(user, debt, ext);\n        // 3. Add LP tokens back to the farming pool.\n        _addShare(id);\n        // 4. Return any remaining ETH back to the operator.\n        SafeToken.safeTransferETH(msg.sender, address(this).balance);\n    }\n\n    /// @dev Return maximum output given the input amount and the status of mtaswap reserves.\n    /// @param aIn The amount of asset to market sell.\n    /// @param rIn the amount of asset in reserve for input.\n    /// @param rOut The amount of asset in reserve for output.\n    function getMktSellAmount(uint256 aIn, uint256 rIn, uint256 rOut) public pure returns (uint256) {\n        if (aIn == 0) return 0;\n        require(rIn > 0 && rOut > 0, \"bad reserve values\");\n        uint256 aInWithFee = aIn.mul(997);\n        uint256 numerator = aInWithFee.mul(rOut);\n        uint256 denominator = rIn.mul(1000).add(aInWithFee);\n        return numerator / denominator;\n    }\n\n    /// @dev Return the amount of ETH to receive if we are to liquidate the given position.\n    /// @param id The position ID to perform health check.\n    function health(uint256 id) external view returns (uint256) {\n        // 1. Get the position's LP balance and LP total supply.\n        uint256 lpBalance = shareToBalance(shares[id]);\n        uint256 lpSupply = lpToken.totalSupply(); // Ignore pending mintFee as it is insignificant\n        // 2. Get the pool's total supply of WETH and farming token.\n        (uint256 r0, uint256 r1,) = lpToken.getReserves();\n        (uint256 totalWETH, uint256 totalMTA) = lpToken.token0() == weth ? (r0, r1) : (r1, r0);\n        // 3. Convert the position's LP tokens to the underlying assets.\n        uint256 userWETH = lpBalance.mul(totalWETH).div(lpSupply);\n        uint256 userMTA = lpBalance.mul(totalMTA).div(lpSupply);\n        // 4. Convert all farming tokens to ETH and return total ETH.\n        return getMktSellAmount(\n            userMTA, totalMTA.sub(userMTA), totalWETH.sub(userWETH)\n        ).add(userWETH);\n    }\n\n    /// @dev Liquidate the given position by converting it to ETH and return back to caller.\n    /// @param id The position ID to perform liquidation\n    function liquidate(uint256 id) external onlyOperator nonReentrant {\n        // 1. Convert the position back to LP tokens and use liquidate strategy.\n        _removeShare(id);\n        lpToken.transfer(address(liqStrat), lpToken.balanceOf(address(this)));\n        liqStrat.execute(address(0), 0, abi.encode(mta, 0));\n        // 2. Return all available ETH back to the operator.\n        uint256 wad = address(this).balance;\n        SafeToken.safeTransferETH(msg.sender, wad);\n        emit Liquidate(id, wad);\n    }\n\n    /// @dev Internal function to stake all outstanding LP tokens to the given position ID.\n    function _addShare(uint256 id) internal {\n        uint256 balance = lpToken.balanceOf(address(this));\n        if (balance > 0) {\n            uint256 share = balanceToShare(balance);\n            staking.stake(balance);\n            shares[id] = shares[id].add(share);\n            totalShare = totalShare.add(share);\n            emit AddShare(id, share);\n        }\n    }\n\n    /// @dev Internal function to remove shares of the ID and convert to outstanding LP tokens.\n    function _removeShare(uint256 id) internal {\n        uint256 share = shares[id];\n        if (share > 0) {\n            uint256 balance = shareToBalance(share);\n            staking.withdraw(balance);\n            totalShare = totalShare.sub(share);\n            shares[id] = 0;\n            emit RemoveShare(id, share);\n        }\n    }\n\n    /// @dev Recover ERC20 tokens that were accidentally sent to this smart contract.\n    /// @param token The token contract. Can be anything. This contract should not hold ERC20 tokens.\n    /// @param to The address to send the tokens to.\n    /// @param value The number of tokens to transfer to `to`.\n    function recover(address token, address to, uint256 value) external onlyOwner nonReentrant {\n        token.safeTransfer(to, value);\n    }\n\n    /// @dev Set the reward bounty for calling reinvest operations.\n    /// @param _reinvestBountyBps The bounty value to update.\n    function setReinvestBountyBps(uint256 _reinvestBountyBps) external onlyOwner {\n        reinvestBountyBps = _reinvestBountyBps;\n    }\n\n    /// @dev Set the given strategies' approval status.\n    /// @param strats The strategy addresses.\n    /// @param isOk Whether to approve or unapprove the given strategies.\n    function setStrategyOk(address[] calldata strats, bool isOk) external onlyOwner {\n        uint256 len = strats.length;\n        for (uint256 idx = 0; idx < len; idx++) {\n            okStrats[strats[idx]] = isOk;\n        }\n    }\n\n    /// @dev Update critical strategy smart contracts. EMERGENCY ONLY. Bad strategies can steal funds.\n    /// @param _addStrat The new add strategy contract.\n    /// @param _liqStrat The new liquidate strategy contract.\n    function setCriticalStrategies(Strategy _addStrat, Strategy _liqStrat) external onlyOwner {\n        addStrat = _addStrat;\n        liqStrat = _liqStrat;\n    }\n\n    function() external payable {}\n}\n",
  "sourcePath": "C:/workspace/Project/projects.spider.miner/alphahomora/contracts/5/MStableGoblin.sol",
  "compiler": {
    "name": "solc",
    "version": "0.5.16+commit.9c3226ce.Emscripten.clang"
  },
  "schemaVersion": "3.2.5",
  "updatedAt": "2021-01-08T06:13:44.813Z",
  "devdoc": {
    "methods": {
      "balanceToShare(uint256)": {
        "details": "Return the number of shares to receive if staking the given LP tokens.",
        "params": {
          "balance": "the number of LP tokens to be converted to shares."
        }
      },
      "getMktSellAmount(uint256,uint256,uint256)": {
        "details": "Return maximum output given the input amount and the status of mtaswap reserves.",
        "params": {
          "aIn": "The amount of asset to market sell.",
          "rIn": "the amount of asset in reserve for input.",
          "rOut": "The amount of asset in reserve for output."
        }
      },
      "health(uint256)": {
        "details": "Return the amount of ETH to receive if we are to liquidate the given position.",
        "params": {
          "id": "The position ID to perform health check."
        }
      },
      "isOwner()": {
        "details": "Returns true if the caller is the current owner."
      },
      "liquidate(uint256)": {
        "details": "Liquidate the given position by converting it to ETH and return back to caller.",
        "params": {
          "id": "The position ID to perform liquidation"
        }
      },
      "owner()": {
        "details": "Returns the address of the current owner."
      },
      "recover(address,address,uint256)": {
        "details": "Recover ERC20 tokens that were accidentally sent to this smart contract.",
        "params": {
          "to": "The address to send the tokens to.",
          "token": "The token contract. Can be anything. This contract should not hold ERC20 tokens.",
          "value": "The number of tokens to transfer to `to`."
        }
      },
      "reinvest()": {
        "details": "Re-invest whatever this worker has earned back to staked LP tokens."
      },
      "renounceOwnership()": {
        "details": "Leaves the contract without owner. It will not be possible to call `onlyOwner` functions anymore. Can only be called by the current owner.     * > Note: Renouncing ownership will leave the contract without an owner, thereby removing any functionality that is only available to the owner."
      },
      "setCriticalStrategies(address,address)": {
        "details": "Update critical strategy smart contracts. EMERGENCY ONLY. Bad strategies can steal funds.",
        "params": {
          "_addStrat": "The new add strategy contract.",
          "_liqStrat": "The new liquidate strategy contract."
        }
      },
      "setReinvestBountyBps(uint256)": {
        "details": "Set the reward bounty for calling reinvest operations.",
        "params": {
          "_reinvestBountyBps": "The bounty value to update."
        }
      },
      "setStrategyOk(address[],bool)": {
        "details": "Set the given strategies' approval status.",
        "params": {
          "isOk": "Whether to approve or unapprove the given strategies.",
          "strats": "The strategy addresses."
        }
      },
      "shareToBalance(uint256)": {
        "details": "Return the entitied LP token balance for the given shares.",
        "params": {
          "share": "The number of shares to be converted to LP balance."
        }
      },
      "transferOwnership(address)": {
        "details": "Transfers ownership of the contract to a new account (`newOwner`). Can only be called by the current owner."
      },
      "work(uint256,address,uint256,bytes)": {
        "details": "Work on the given position. Must be called by the operator.",
        "params": {
          "data": "The encoded data, consisting of strategy address and calldata.",
          "debt": "The amount of user debt to help the strategy make decisions.",
          "id": "The position ID to work on.",
          "user": "The original user that is interacting with the operator."
        }
      }
    }
  },
  "userdoc": {
    "methods": {}
  }
}