{
  "contractName": "Owned",
  "abi": [
    {
      "inputs": [
        {
          "internalType": "address",
          "name": "_owner",
          "type": "address"
        }
      ],
      "payable": false,
      "stateMutability": "nonpayable",
      "type": "constructor"
    },
    {
      "anonymous": false,
      "inputs": [
        {
          "indexed": false,
          "internalType": "address",
          "name": "oldOwner",
          "type": "address"
        },
        {
          "indexed": false,
          "internalType": "address",
          "name": "newOwner",
          "type": "address"
        }
      ],
      "name": "OwnerChanged",
      "type": "event"
    },
    {
      "anonymous": false,
      "inputs": [
        {
          "indexed": false,
          "internalType": "address",
          "name": "newOwner",
          "type": "address"
        }
      ],
      "name": "OwnerNominated",
      "type": "event"
    },
    {
      "constant": true,
      "inputs": [],
      "name": "nominatedOwner",
      "outputs": [
        {
          "internalType": "address",
          "name": "",
          "type": "address"
        }
      ],
      "payable": false,
      "stateMutability": "view",
      "type": "function"
    },
    {
      "constant": true,
      "inputs": [],
      "name": "owner",
      "outputs": [
        {
          "internalType": "address",
          "name": "",
          "type": "address"
        }
      ],
      "payable": false,
      "stateMutability": "view",
      "type": "function"
    },
    {
      "constant": false,
      "inputs": [
        {
          "internalType": "address",
          "name": "_owner",
          "type": "address"
        }
      ],
      "name": "nominateNewOwner",
      "outputs": [],
      "payable": false,
      "stateMutability": "nonpayable",
      "type": "function"
    },
    {
      "constant": false,
      "inputs": [],
      "name": "acceptOwnership",
      "outputs": [],
      "payable": false,
      "stateMutability": "nonpayable",
      "type": "function"
    }
  ],
  "bytecode": "0x608060405234801561001057600080fd5b506040516104983803806104988339818101604052602081101561003357600080fd5b50516001600160a01b038116610090576040805162461bcd60e51b815260206004820152601960248201527f4f776e657220616464726573732063616e6e6f74206265203000000000000000604482015290519081900360640190fd5b600080546001600160a01b0319166001600160a01b038316908117825560408051928352602083019190915280517fb532073b38c83145e3e5135377a08bf9aab55bc0fd7c1179cd4fb995d2a5159c9281900390910190a1506103a0806100f86000396000f3fe608060405234801561001057600080fd5b506004361061004c5760003560e01c80631627540c1461005157806353a47bb71461008657806379ba5097146100b75780638da5cb5b146100bf575b600080fd5b6100846004803603602081101561006757600080fd5b503573ffffffffffffffffffffffffffffffffffffffff166100c7565b005b61008e610148565b6040805173ffffffffffffffffffffffffffffffffffffffff9092168252519081900360200190f35b610084610164565b61008e610279565b6100cf610295565b6001805473ffffffffffffffffffffffffffffffffffffffff83167fffffffffffffffffffffffff0000000000000000000000000000000000000000909116811790915560408051918252517f906a1c6bd7e3091ea86693dd029a831c19049ce77f1dce2ce0bab1cacbabce229181900360200190a150565b60015473ffffffffffffffffffffffffffffffffffffffff1681565b60015473ffffffffffffffffffffffffffffffffffffffff1633146101d4576040517f08c379a00000000000000000000000000000000000000000000000000000000081526004018080602001828103825260358152602001806103086035913960400191505060405180910390fd5b6000546001546040805173ffffffffffffffffffffffffffffffffffffffff938416815292909116602083015280517fb532073b38c83145e3e5135377a08bf9aab55bc0fd7c1179cd4fb995d2a5159c9281900390910190a160018054600080547fffffffffffffffffffffffff000000000000000000000000000000000000000090811673ffffffffffffffffffffffffffffffffffffffff841617909155169055565b60005473ffffffffffffffffffffffffffffffffffffffff1681565b60005473ffffffffffffffffffffffffffffffffffffffff163314610305576040517f08c379a000000000000000000000000000000000000000000000000000000000815260040180806020018281038252602f81526020018061033d602f913960400191505060405180910390fd5b56fe596f75206d757374206265206e6f6d696e61746564206265666f726520796f752063616e20616363657074206f776e6572736869704f6e6c792074686520636f6e7472616374206f776e6572206d617920706572666f726d207468697320616374696f6ea265627a7a72315820daf3d80fc6bf09c0b8bf015607869ed5e3fc12740c091f080b37fbb3469225e464736f6c63430005100032",
  "source": "pragma solidity ^0.5.16;\n\n\n// https://docs.synthetix.io/contracts/Owned\ncontract Owned {\n    address public owner;\n    address public nominatedOwner;\n\n    constructor(address _owner) public {\n        require(_owner != address(0), \"Owner address cannot be 0\");\n        owner = _owner;\n        emit OwnerChanged(address(0), _owner);\n    }\n\n    function nominateNewOwner(address _owner) external onlyOwner {\n        nominatedOwner = _owner;\n        emit OwnerNominated(_owner);\n    }\n\n    function acceptOwnership() external {\n        require(msg.sender == nominatedOwner, \"You must be nominated before you can accept ownership\");\n        emit OwnerChanged(owner, nominatedOwner);\n        owner = nominatedOwner;\n        nominatedOwner = address(0);\n    }\n\n    modifier onlyOwner {\n        _onlyOwner();\n        _;\n    }\n\n    function _onlyOwner() private view {\n        require(msg.sender == owner, \"Only the contract owner may perform this action\");\n    }\n\n    event OwnerNominated(address newOwner);\n    event OwnerChanged(address oldOwner, address newOwner);\n}\n",
  "sourcePath": "synthetix\\contracts\\Owned.sol",
  "compiler": {
    "name": "solc",
    "version": "0.5.16+commit.9c3226ce.Emscripten.clang"
  },
  "schemaVersion": "3.2.5",
  "updatedAt": "2021-01-08T06:13:45.391Z",
  "devdoc": {
    "methods": {}
  },
  "userdoc": {
    "methods": {}
  }
}