{
  "contractName": "SimplePriceOracle",
  "abi": [
    {
      "anonymous": false,
      "inputs": [
        {
          "indexed": true,
          "internalType": "address",
          "name": "previousOwner",
          "type": "address"
        },
        {
          "indexed": true,
          "internalType": "address",
          "name": "newOwner",
          "type": "address"
        }
      ],
      "name": "OwnershipTransferred",
      "type": "event"
    },
    {
      "anonymous": false,
      "inputs": [
        {
          "indexed": true,
          "internalType": "address",
          "name": "token0",
          "type": "address"
        },
        {
          "indexed": true,
          "internalType": "address",
          "name": "token1",
          "type": "address"
        },
        {
          "indexed": false,
          "internalType": "uint256",
          "name": "price",
          "type": "uint256"
        }
      ],
      "name": "PriceUpdate",
      "type": "event"
    },
    {
      "constant": true,
      "inputs": [],
      "name": "isOwner",
      "outputs": [
        {
          "internalType": "bool",
          "name": "",
          "type": "bool"
        }
      ],
      "payable": false,
      "stateMutability": "view",
      "type": "function"
    },
    {
      "constant": true,
      "inputs": [],
      "name": "owner",
      "outputs": [
        {
          "internalType": "address",
          "name": "",
          "type": "address"
        }
      ],
      "payable": false,
      "stateMutability": "view",
      "type": "function"
    },
    {
      "constant": false,
      "inputs": [],
      "name": "renounceOwnership",
      "outputs": [],
      "payable": false,
      "stateMutability": "nonpayable",
      "type": "function"
    },
    {
      "constant": true,
      "inputs": [
        {
          "internalType": "address",
          "name": "",
          "type": "address"
        },
        {
          "internalType": "address",
          "name": "",
          "type": "address"
        }
      ],
      "name": "store",
      "outputs": [
        {
          "internalType": "uint192",
          "name": "price",
          "type": "uint192"
        },
        {
          "internalType": "uint64",
          "name": "lastUpdate",
          "type": "uint64"
        }
      ],
      "payable": false,
      "stateMutability": "view",
      "type": "function"
    },
    {
      "constant": false,
      "inputs": [
        {
          "internalType": "address",
          "name": "newOwner",
          "type": "address"
        }
      ],
      "name": "transferOwnership",
      "outputs": [],
      "payable": false,
      "stateMutability": "nonpayable",
      "type": "function"
    },
    {
      "constant": false,
      "inputs": [
        {
          "internalType": "address[]",
          "name": "token0s",
          "type": "address[]"
        },
        {
          "internalType": "address[]",
          "name": "token1s",
          "type": "address[]"
        },
        {
          "internalType": "uint256[]",
          "name": "prices",
          "type": "uint256[]"
        }
      ],
      "name": "setPrices",
      "outputs": [],
      "payable": false,
      "stateMutability": "nonpayable",
      "type": "function"
    },
    {
      "constant": true,
      "inputs": [
        {
          "internalType": "address",
          "name": "token0",
          "type": "address"
        },
        {
          "internalType": "address",
          "name": "token1",
          "type": "address"
        }
      ],
      "name": "getPrice",
      "outputs": [
        {
          "internalType": "uint256",
          "name": "price",
          "type": "uint256"
        },
        {
          "internalType": "uint256",
          "name": "lastUpdate",
          "type": "uint256"
        }
      ],
      "payable": false,
      "stateMutability": "view",
      "type": "function"
    }
  ],
  "bytecode": "0x60806040819052600080546001600160a01b03191633178082556001600160a01b0316917f8be0079c531659141344cd1fd0a4f28419497f9722a3daafe3b4186f6b6457e0908290a3610a46806100576000396000f3fe608060405234801561001057600080fd5b506004361061007d5760003560e01c8063922aaa541161005b578063922aaa54146100d9578063ac41865a146101ed578063b13be7c214610241578063f2fde38b146102b95761007d565b8063715018a6146100825780638da5cb5b1461008c5780638f32d59b146100bd575b600080fd5b61008a6102ec565b005b6100946103ce565b6040805173ffffffffffffffffffffffffffffffffffffffff9092168252519081900360200190f35b6100c56103ea565b604080519115158252519081900360200190f35b61008a600480360360608110156100ef57600080fd5b81019060208101813564010000000081111561010a57600080fd5b82018360208201111561011c57600080fd5b8035906020019184602083028401116401000000008311171561013e57600080fd5b91939092909160208101903564010000000081111561015c57600080fd5b82018360208201111561016e57600080fd5b8035906020019184602083028401116401000000008311171561019057600080fd5b9193909290916020810190356401000000008111156101ae57600080fd5b8201836020820111156101c057600080fd5b803590602001918460208302840111640100000000831117156101e257600080fd5b509092509050610408565b6102286004803603604081101561020357600080fd5b5073ffffffffffffffffffffffffffffffffffffffff813581169160200135166106e4565b6040805192835260208301919091528051918290030190f35b61027c6004803603604081101561025757600080fd5b5073ffffffffffffffffffffffffffffffffffffffff813581169160200135166107fd565b6040805177ffffffffffffffffffffffffffffffffffffffffffffffff909316835267ffffffffffffffff90911660208301528051918290030190f35b61008a600480360360208110156102cf57600080fd5b503573ffffffffffffffffffffffffffffffffffffffff1661085c565b6102f46103ea565b61035f57604080517f08c379a000000000000000000000000000000000000000000000000000000000815260206004820181905260248201527f4f776e61626c653a2063616c6c6572206973206e6f7420746865206f776e6572604482015290519081900360640190fd5b6000805460405173ffffffffffffffffffffffffffffffffffffffff909116907f8be0079c531659141344cd1fd0a4f28419497f9722a3daafe3b4186f6b6457e0908390a3600080547fffffffffffffffffffffffff0000000000000000000000000000000000000000169055565b60005473ffffffffffffffffffffffffffffffffffffffff1690565b60005473ffffffffffffffffffffffffffffffffffffffff16331490565b6104106103ea565b61047b57604080517f08c379a000000000000000000000000000000000000000000000000000000000815260206004820181905260248201527f4f776e61626c653a2063616c6c6572206973206e6f7420746865206f776e6572604482015290519081900360640190fd5b848381146104ea57604080517f08c379a000000000000000000000000000000000000000000000000000000000815260206004820152601260248201527f62616420746f6b656e3173206c656e6774680000000000000000000000000000604482015290519081900360640190fd5b81811461055857604080517f08c379a000000000000000000000000000000000000000000000000000000000815260206004820152601160248201527f62616420707269636573206c656e677468000000000000000000000000000000604482015290519081900360640190fd5b60005b818110156106da57600088888381811061057157fe5b9050602002013573ffffffffffffffffffffffffffffffffffffffff169050600087878481811061059e57fe5b9050602002013573ffffffffffffffffffffffffffffffffffffffff16905060008686858181106105cb57fe5b60408051808201825277ffffffffffffffffffffffffffffffffffffffffffffffff60209384029590950135858116825267ffffffffffffffff42811683860190815273ffffffffffffffffffffffffffffffffffffffff808c16600081815260018952878120928d16808252928952879020955186549351909416780100000000000000000000000000000000000000000000000002938a167fffffffffffffffff0000000000000000000000000000000000000000000000009093169290921790981691909117909255825181815292519096509093507f70b5f9f8ff6c1a28c0a5fdf3554e857baac5c6fd461bc00d0d83b50272f75a8f929181900390910190a350505060010161055b565b5050505050505050565b6000806106ef6109d4565b50505073ffffffffffffffffffffffffffffffffffffffff828116600090815260016020908152604080832093851683529281529082902082518084019093525477ffffffffffffffffffffffffffffffffffffffffffffffff8116808452780100000000000000000000000000000000000000000000000090910467ffffffffffffffff1691830182905291821580159061078a57508115155b6107f557604080517f08c379a000000000000000000000000000000000000000000000000000000000815260206004820152600e60248201527f6261642070726963652064617461000000000000000000000000000000000000604482015290519081900360640190fd5b509250929050565b600160209081526000928352604080842090915290825290205477ffffffffffffffffffffffffffffffffffffffffffffffff8116907801000000000000000000000000000000000000000000000000900467ffffffffffffffff1682565b6108646103ea565b6108cf57604080517f08c379a000000000000000000000000000000000000000000000000000000000815260206004820181905260248201527f4f776e61626c653a2063616c6c6572206973206e6f7420746865206f776e6572604482015290519081900360640190fd5b6108d8816108db565b50565b73ffffffffffffffffffffffffffffffffffffffff8116610947576040517f08c379a00000000000000000000000000000000000000000000000000000000081526004018080602001828103825260268152602001806109ec6026913960400191505060405180910390fd5b6000805460405173ffffffffffffffffffffffffffffffffffffffff808516939216917f8be0079c531659141344cd1fd0a4f28419497f9722a3daafe3b4186f6b6457e091a3600080547fffffffffffffffffffffffff00000000000000000000000000000000000000001673ffffffffffffffffffffffffffffffffffffffff92909216919091179055565b60408051808201909152600080825260208201529056fe4f776e61626c653a206e6577206f776e657220697320746865207a65726f2061646472657373a265627a7a72315820a2edaea8ca659096ec77c88e2dc712498fc71398ac064f90c6eefff0a8fabde764736f6c63430005100032",
  "source": "pragma solidity 0.5.16;\nimport \"openzeppelin-solidity-2.3.0/contracts/ownership/Ownable.sol\";\nimport \"./PriceOracle.sol\";\n\ncontract SimplePriceOracle is Ownable, PriceOracle {\n    event PriceUpdate(address indexed token0, address indexed token1, uint256 price);\n\n    struct PriceData {\n        uint192 price;\n        uint64 lastUpdate;\n    }\n\n    /// @notice Public price data mapping storage.\n    mapping (address => mapping (address => PriceData)) public store;\n\n    /// @dev Set the prices of the token token pairs. Must be called by the owner.\n    function setPrices(\n        address[] calldata token0s,\n        address[] calldata token1s,\n        uint256[] calldata prices\n    )\n        external\n        onlyOwner\n    {\n        uint256 len = token0s.length;\n        require(token1s.length == len, \"bad token1s length\");\n        require(prices.length == len, \"bad prices length\");\n        for (uint256 idx = 0; idx < len; idx++) {\n            address token0 = token0s[idx];\n            address token1 = token1s[idx];\n            uint256 price = prices[idx];\n            store[token0][token1] = PriceData({\n                price: uint192(price),\n                lastUpdate: uint64(now)\n            });\n            emit PriceUpdate(token0, token1, price);\n        }\n    }\n\n    /// @dev Return the wad price of token0/token1, multiplied by 1e18\n    /// NOTE: (if you have 1 token0 how much you can sell it for token1)\n    function getPrice(address token0, address token1)\n        external view\n        returns (uint256 price, uint256 lastUpdate)\n    {\n        PriceData memory data = store[token0][token1];\n        price = uint256(data.price);\n        lastUpdate = uint256(data.lastUpdate);\n        require(price != 0 && lastUpdate != 0, \"bad price data\");\n        return (price, lastUpdate);\n    }\n}\n",
  "sourcePath": "C:/workspace/Project/projects.spider.miner/alphahomora/contracts/5/SimplePriceOracle.sol",
  "compiler": {
    "name": "solc",
    "version": "0.5.16+commit.9c3226ce.Emscripten.clang"
  },
  "schemaVersion": "3.2.5",
  "updatedAt": "2021-01-08T06:13:44.876Z",
  "devdoc": {
    "methods": {
      "getPrice(address,address)": {
        "details": "Return the wad price of token0/token1, multiplied by 1e18 NOTE: (if you have 1 token0 how much you can sell it for token1)"
      },
      "isOwner()": {
        "details": "Returns true if the caller is the current owner."
      },
      "owner()": {
        "details": "Returns the address of the current owner."
      },
      "renounceOwnership()": {
        "details": "Leaves the contract without owner. It will not be possible to call `onlyOwner` functions anymore. Can only be called by the current owner.     * > Note: Renouncing ownership will leave the contract without an owner, thereby removing any functionality that is only available to the owner."
      },
      "setPrices(address[],address[],uint256[])": {
        "details": "Set the prices of the token token pairs. Must be called by the owner."
      },
      "transferOwnership(address)": {
        "details": "Transfers ownership of the contract to a new account (`newOwner`). Can only be called by the current owner."
      }
    }
  },
  "userdoc": {
    "methods": {}
  }
}