{
  "contractName": "SimpleBankConfig",
  "abi": [
    {
      "inputs": [
        {
          "internalType": "uint256",
          "name": "_minDebtSize",
          "type": "uint256"
        },
        {
          "internalType": "uint256",
          "name": "_interestRate",
          "type": "uint256"
        },
        {
          "internalType": "uint256",
          "name": "_reservePoolBps",
          "type": "uint256"
        },
        {
          "internalType": "uint256",
          "name": "_killBps",
          "type": "uint256"
        }
      ],
      "payable": false,
      "stateMutability": "nonpayable",
      "type": "constructor"
    },
    {
      "anonymous": false,
      "inputs": [
        {
          "indexed": true,
          "internalType": "address",
          "name": "previousOwner",
          "type": "address"
        },
        {
          "indexed": true,
          "internalType": "address",
          "name": "newOwner",
          "type": "address"
        }
      ],
      "name": "OwnershipTransferred",
      "type": "event"
    },
    {
      "constant": true,
      "inputs": [],
      "name": "getKillBps",
      "outputs": [
        {
          "internalType": "uint256",
          "name": "",
          "type": "uint256"
        }
      ],
      "payable": false,
      "stateMutability": "view",
      "type": "function"
    },
    {
      "constant": true,
      "inputs": [],
      "name": "getReservePoolBps",
      "outputs": [
        {
          "internalType": "uint256",
          "name": "",
          "type": "uint256"
        }
      ],
      "payable": false,
      "stateMutability": "view",
      "type": "function"
    },
    {
      "constant": true,
      "inputs": [
        {
          "internalType": "address",
          "name": "",
          "type": "address"
        }
      ],
      "name": "goblins",
      "outputs": [
        {
          "internalType": "bool",
          "name": "isGoblin",
          "type": "bool"
        },
        {
          "internalType": "bool",
          "name": "acceptDebt",
          "type": "bool"
        },
        {
          "internalType": "uint256",
          "name": "workFactor",
          "type": "uint256"
        },
        {
          "internalType": "uint256",
          "name": "killFactor",
          "type": "uint256"
        }
      ],
      "payable": false,
      "stateMutability": "view",
      "type": "function"
    },
    {
      "constant": true,
      "inputs": [],
      "name": "interestRate",
      "outputs": [
        {
          "internalType": "uint256",
          "name": "",
          "type": "uint256"
        }
      ],
      "payable": false,
      "stateMutability": "view",
      "type": "function"
    },
    {
      "constant": true,
      "inputs": [],
      "name": "isOwner",
      "outputs": [
        {
          "internalType": "bool",
          "name": "",
          "type": "bool"
        }
      ],
      "payable": false,
      "stateMutability": "view",
      "type": "function"
    },
    {
      "constant": true,
      "inputs": [],
      "name": "minDebtSize",
      "outputs": [
        {
          "internalType": "uint256",
          "name": "",
          "type": "uint256"
        }
      ],
      "payable": false,
      "stateMutability": "view",
      "type": "function"
    },
    {
      "constant": true,
      "inputs": [],
      "name": "owner",
      "outputs": [
        {
          "internalType": "address",
          "name": "",
          "type": "address"
        }
      ],
      "payable": false,
      "stateMutability": "view",
      "type": "function"
    },
    {
      "constant": false,
      "inputs": [],
      "name": "renounceOwnership",
      "outputs": [],
      "payable": false,
      "stateMutability": "nonpayable",
      "type": "function"
    },
    {
      "constant": false,
      "inputs": [
        {
          "internalType": "address",
          "name": "newOwner",
          "type": "address"
        }
      ],
      "name": "transferOwnership",
      "outputs": [],
      "payable": false,
      "stateMutability": "nonpayable",
      "type": "function"
    },
    {
      "constant": false,
      "inputs": [
        {
          "internalType": "uint256",
          "name": "_minDebtSize",
          "type": "uint256"
        },
        {
          "internalType": "uint256",
          "name": "_interestRate",
          "type": "uint256"
        },
        {
          "internalType": "uint256",
          "name": "_reservePoolBps",
          "type": "uint256"
        },
        {
          "internalType": "uint256",
          "name": "_killBps",
          "type": "uint256"
        }
      ],
      "name": "setParams",
      "outputs": [],
      "payable": false,
      "stateMutability": "nonpayable",
      "type": "function"
    },
    {
      "constant": false,
      "inputs": [
        {
          "internalType": "address",
          "name": "goblin",
          "type": "address"
        },
        {
          "internalType": "bool",
          "name": "_isGoblin",
          "type": "bool"
        },
        {
          "internalType": "bool",
          "name": "_acceptDebt",
          "type": "bool"
        },
        {
          "internalType": "uint256",
          "name": "_workFactor",
          "type": "uint256"
        },
        {
          "internalType": "uint256",
          "name": "_killFactor",
          "type": "uint256"
        }
      ],
      "name": "setGoblin",
      "outputs": [],
      "payable": false,
      "stateMutability": "nonpayable",
      "type": "function"
    },
    {
      "constant": true,
      "inputs": [
        {
          "internalType": "uint256",
          "name": "",
          "type": "uint256"
        },
        {
          "internalType": "uint256",
          "name": "",
          "type": "uint256"
        }
      ],
      "name": "getInterestRate",
      "outputs": [
        {
          "internalType": "uint256",
          "name": "",
          "type": "uint256"
        }
      ],
      "payable": false,
      "stateMutability": "view",
      "type": "function"
    },
    {
      "constant": true,
      "inputs": [
        {
          "internalType": "address",
          "name": "goblin",
          "type": "address"
        }
      ],
      "name": "isGoblin",
      "outputs": [
        {
          "internalType": "bool",
          "name": "",
          "type": "bool"
        }
      ],
      "payable": false,
      "stateMutability": "view",
      "type": "function"
    },
    {
      "constant": true,
      "inputs": [
        {
          "internalType": "address",
          "name": "goblin",
          "type": "address"
        }
      ],
      "name": "acceptDebt",
      "outputs": [
        {
          "internalType": "bool",
          "name": "",
          "type": "bool"
        }
      ],
      "payable": false,
      "stateMutability": "view",
      "type": "function"
    },
    {
      "constant": true,
      "inputs": [
        {
          "internalType": "address",
          "name": "goblin",
          "type": "address"
        },
        {
          "internalType": "uint256",
          "name": "",
          "type": "uint256"
        }
      ],
      "name": "workFactor",
      "outputs": [
        {
          "internalType": "uint256",
          "name": "",
          "type": "uint256"
        }
      ],
      "payable": false,
      "stateMutability": "view",
      "type": "function"
    },
    {
      "constant": true,
      "inputs": [
        {
          "internalType": "address",
          "name": "goblin",
          "type": "address"
        },
        {
          "internalType": "uint256",
          "name": "",
          "type": "uint256"
        }
      ],
      "name": "killFactor",
      "outputs": [
        {
          "internalType": "uint256",
          "name": "",
          "type": "uint256"
        }
      ],
      "payable": false,
      "stateMutability": "view",
      "type": "function"
    }
  ],
  "bytecode": "0x608060405234801561001057600080fd5b50604051610c3d380380610c3d8339818101604052608081101561003357600080fd5b5080516020820151604080840151606090940151600080546001600160a01b031916331780825592519495939491926001600160a01b0316917f8be0079c531659141344cd1fd0a4f28419497f9722a3daafe3b4186f6b6457e0908290a36100a6848484846001600160e01b036100af16565b50505050610136565b6100c06001600160e01b0361012516565b610111576040805162461bcd60e51b815260206004820181905260248201527f4f776e61626c653a2063616c6c6572206973206e6f7420746865206f776e6572604482015290519081900360640190fd5b600193909355600291909155600355600455565b6000546001600160a01b0316331490565b610af8806101456000396000f3fe608060405234801561001057600080fd5b50600436106100ff5760003560e01c80637ece45e811610097578063ad58e57311610066578063ad58e573146102fd578063c6dfa13f14610336578063e1ed428614610359578063f2fde38b14610361576100ff565b80637ece45e81461023a5780638da5cb5b146102695780638f32d59b1461029a578063a71d6f43146102a2576100ff565b806328ae433e116100d357806328ae433e146101d1578063309e9022146101d9578063715018a61461022a5780637c3a00fd14610232576100ff565b80620237f014610104578063045d84ed1461014b57806309956f661461017e57806313f6321b14610198575b600080fd5b6101376004803603602081101561011a57600080fd5b503573ffffffffffffffffffffffffffffffffffffffff16610394565b604080519115158252519081900360200190f35b6101376004803603602081101561016157600080fd5b503573ffffffffffffffffffffffffffffffffffffffff16610459565b610186610484565b60408051918252519081900360200190f35b610186600480360360408110156101ae57600080fd5b5073ffffffffffffffffffffffffffffffffffffffff813516906020013561048a565b61018661054b565b610228600480360360a08110156101ef57600080fd5b5073ffffffffffffffffffffffffffffffffffffffff813516906020810135151590604081013515159060608101359060800135610551565b005b610228610680565b610186610762565b6102286004803603608081101561025057600080fd5b5080359060208101359060408101359060600135610768565b6102716107ef565b6040805173ffffffffffffffffffffffffffffffffffffffff9092168252519081900360200190f35b61013761080b565b6102d5600480360360208110156102b857600080fd5b503573ffffffffffffffffffffffffffffffffffffffff16610829565b6040805194151585529215156020850152838301919091526060830152519081900360800190f35b6101866004803603604081101561031357600080fd5b5073ffffffffffffffffffffffffffffffffffffffff8135169060200135610856565b6101866004803603604081101561034c57600080fd5b5080359060200135610917565b61018661091f565b6102286004803603602081101561037757600080fd5b503573ffffffffffffffffffffffffffffffffffffffff16610925565b73ffffffffffffffffffffffffffffffffffffffff811660009081526005602052604081205460ff1661042857604080517f08c379a000000000000000000000000000000000000000000000000000000000815260206004820152600760248201527f21676f626c696e00000000000000000000000000000000000000000000000000604482015290519081900360640190fd5b5073ffffffffffffffffffffffffffffffffffffffff16600090815260056020526040902054610100900460ff1690565b73ffffffffffffffffffffffffffffffffffffffff1660009081526005602052604090205460ff1690565b60035481565b73ffffffffffffffffffffffffffffffffffffffff821660009081526005602052604081205460ff1661051e57604080517f08c379a000000000000000000000000000000000000000000000000000000000815260206004820152600760248201527f21676f626c696e00000000000000000000000000000000000000000000000000604482015290519081900360640190fd5b505073ffffffffffffffffffffffffffffffffffffffff1660009081526005602052604090206002015490565b60045481565b61055961080b565b6105c457604080517f08c379a000000000000000000000000000000000000000000000000000000000815260206004820181905260248201527f4f776e61626c653a2063616c6c6572206973206e6f7420746865206f776e6572604482015290519081900360640190fd5b60408051608081018252941515855292151560208086019182528585019384526060860192835273ffffffffffffffffffffffffffffffffffffffff90961660009081526005909652929094209251835492511515610100027fffffffffffffffffffffffffffffffffffffffffffffffffffffffffffff00ff9115157fffffffffffffffffffffffffffffffffffffffffffffffffffffffffffffff0090941693909317169190911782555160018201559051600290910155565b61068861080b565b6106f357604080517f08c379a000000000000000000000000000000000000000000000000000000000815260206004820181905260248201527f4f776e61626c653a2063616c6c6572206973206e6f7420746865206f776e6572604482015290519081900360640190fd5b6000805460405173ffffffffffffffffffffffffffffffffffffffff909116907f8be0079c531659141344cd1fd0a4f28419497f9722a3daafe3b4186f6b6457e0908390a3600080547fffffffffffffffffffffffff0000000000000000000000000000000000000000169055565b60025481565b61077061080b565b6107db57604080517f08c379a000000000000000000000000000000000000000000000000000000000815260206004820181905260248201527f4f776e61626c653a2063616c6c6572206973206e6f7420746865206f776e6572604482015290519081900360640190fd5b600193909355600291909155600355600455565b60005473ffffffffffffffffffffffffffffffffffffffff1690565b60005473ffffffffffffffffffffffffffffffffffffffff16331490565b60056020526000908152604090208054600182015460029092015460ff8083169361010090930416919084565b73ffffffffffffffffffffffffffffffffffffffff821660009081526005602052604081205460ff166108ea57604080517f08c379a000000000000000000000000000000000000000000000000000000000815260206004820152600760248201527f21676f626c696e00000000000000000000000000000000000000000000000000604482015290519081900360640190fd5b505073ffffffffffffffffffffffffffffffffffffffff1660009081526005602052604090206001015490565b505060025490565b60015481565b61092d61080b565b61099857604080517f08c379a000000000000000000000000000000000000000000000000000000000815260206004820181905260248201527f4f776e61626c653a2063616c6c6572206973206e6f7420746865206f776e6572604482015290519081900360640190fd5b6109a1816109a4565b50565b73ffffffffffffffffffffffffffffffffffffffff8116610a10576040517f08c379a0000000000000000000000000000000000000000000000000000000008152600401808060200182810382526026815260200180610a9e6026913960400191505060405180910390fd5b6000805460405173ffffffffffffffffffffffffffffffffffffffff808516939216917f8be0079c531659141344cd1fd0a4f28419497f9722a3daafe3b4186f6b6457e091a3600080547fffffffffffffffffffffffff00000000000000000000000000000000000000001673ffffffffffffffffffffffffffffffffffffffff9290921691909117905556fe4f776e61626c653a206e6577206f776e657220697320746865207a65726f2061646472657373a265627a7a7231582059ceeffb6f4e421618cad877c94e9d7037c3322a28f45a1f2066999435ebdb7e64736f6c63430005100032",
  "source": "pragma solidity 0.5.16;\nimport \"openzeppelin-solidity-2.3.0/contracts/ownership/Ownable.sol\";\nimport \"./BankConfig.sol\";\n\ncontract SimpleBankConfig is BankConfig, Ownable {\n    /// @notice Configuration for each goblin.\n    struct GoblinConfig {\n        bool isGoblin;\n        bool acceptDebt;\n        uint256 workFactor;\n        uint256 killFactor;\n    }\n\n    /// The minimum ETH debt size per position.\n    uint256 public minDebtSize;\n    /// The interest rate per second, multiplied by 1e18.\n    uint256 public interestRate;\n    /// The portion of interests allocated to the reserve pool.\n    uint256 public getReservePoolBps;\n    /// The reward for successfully killing a position.\n    uint256 public getKillBps;\n    /// Mapping for goblin address to its configuration.\n    mapping (address => GoblinConfig) public goblins;\n\n    constructor(\n        uint256 _minDebtSize,\n        uint256 _interestRate,\n        uint256 _reservePoolBps,\n        uint256 _killBps\n    ) public {\n        setParams(_minDebtSize, _interestRate, _reservePoolBps, _killBps);\n    }\n\n    /// @dev Set all the basic parameters. Must only be called by the owner.\n    /// @param _minDebtSize The new minimum debt size value.\n    /// @param _interestRate The new interest rate per second value.\n    /// @param _reservePoolBps The new interests allocated to the reserve pool value.\n    /// @param _killBps The new reward for killing a position value.\n    function setParams(\n        uint256 _minDebtSize,\n        uint256 _interestRate,\n        uint256 _reservePoolBps,\n        uint256 _killBps\n    ) public onlyOwner {\n        minDebtSize = _minDebtSize;\n        interestRate = _interestRate;\n        getReservePoolBps = _reservePoolBps;\n        getKillBps = _killBps;\n    }\n\n    /// @dev Set the configuration for the given goblin. Must only be called by the owner.\n    /// @param goblin The goblin address to set configuration.\n    /// @param _isGoblin Whether the given address is a valid goblin.\n    /// @param _acceptDebt Whether the goblin is accepting new debts.\n    /// @param _workFactor The work factor value for this goblin.\n    /// @param _killFactor The kill factor value for this goblin.\n    function setGoblin(\n        address goblin,\n        bool _isGoblin,\n        bool _acceptDebt,\n        uint256 _workFactor,\n        uint256 _killFactor\n    ) public onlyOwner {\n        goblins[goblin] = GoblinConfig({\n            isGoblin: _isGoblin,\n            acceptDebt: _acceptDebt,\n            workFactor: _workFactor,\n            killFactor: _killFactor\n        });\n    }\n\n    /// @dev Return the interest rate per second, using 1e18 as denom.\n    function getInterestRate(uint256 /* debt */, uint256 /* floating */) external view returns (uint256) {\n        return interestRate;\n    }\n\n    /// @dev Return whether the given address is a goblin.\n    function isGoblin(address goblin) external view returns (bool) {\n        return goblins[goblin].isGoblin;\n    }\n\n    /// @dev Return whether the given goblin accepts more debt. Revert on non-goblin.\n    function acceptDebt(address goblin) external view returns (bool) {\n        require(goblins[goblin].isGoblin, \"!goblin\");\n        return goblins[goblin].acceptDebt;\n    }\n\n    /// @dev Return the work factor for the goblin + ETH debt, using 1e4 as denom. Revert on non-goblin.\n    function workFactor(address goblin, uint256 /* debt */) external view returns (uint256) {\n        require(goblins[goblin].isGoblin, \"!goblin\");\n        return goblins[goblin].workFactor;\n    }\n\n    /// @dev Return the kill factor for the goblin + ETH debt, using 1e4 as denom. Revert on non-goblin.\n    function killFactor(address goblin, uint256 /* debt */) external view returns (uint256) {\n        require(goblins[goblin].isGoblin, \"!goblin\");\n        return goblins[goblin].killFactor;\n    }\n}\n",
  "sourcePath": "C:/workspace/Project/projects.spider.miner/alphahomora/contracts/5/SimpleBankConfig.sol",
  "compiler": {
    "name": "solc",
    "version": "0.5.16+commit.9c3226ce.Emscripten.clang"
  },
  "schemaVersion": "3.3.2",
  "updatedAt": "2021-01-13T08:43:03.918Z",
  "networkType": "ethereum",
  "devdoc": {
    "methods": {
      "acceptDebt(address)": {
        "details": "Return whether the given goblin accepts more debt. Revert on non-goblin."
      },
      "getInterestRate(uint256,uint256)": {
        "details": "Return the interest rate per second, using 1e18 as denom."
      },
      "isGoblin(address)": {
        "details": "Return whether the given address is a goblin."
      },
      "isOwner()": {
        "details": "Returns true if the caller is the current owner."
      },
      "killFactor(address,uint256)": {
        "details": "Return the kill factor for the goblin + ETH debt, using 1e4 as denom. Revert on non-goblin."
      },
      "owner()": {
        "details": "Returns the address of the current owner."
      },
      "renounceOwnership()": {
        "details": "Leaves the contract without owner. It will not be possible to call `onlyOwner` functions anymore. Can only be called by the current owner.     * > Note: Renouncing ownership will leave the contract without an owner, thereby removing any functionality that is only available to the owner."
      },
      "setGoblin(address,bool,bool,uint256,uint256)": {
        "details": "Set the configuration for the given goblin. Must only be called by the owner.",
        "params": {
          "_acceptDebt": "Whether the goblin is accepting new debts.",
          "_isGoblin": "Whether the given address is a valid goblin.",
          "_killFactor": "The kill factor value for this goblin.",
          "_workFactor": "The work factor value for this goblin.",
          "goblin": "The goblin address to set configuration."
        }
      },
      "setParams(uint256,uint256,uint256,uint256)": {
        "details": "Set all the basic parameters. Must only be called by the owner.",
        "params": {
          "_interestRate": "The new interest rate per second value.",
          "_killBps": "The new reward for killing a position value.",
          "_minDebtSize": "The new minimum debt size value.",
          "_reservePoolBps": "The new interests allocated to the reserve pool value."
        }
      },
      "transferOwnership(address)": {
        "details": "Transfers ownership of the contract to a new account (`newOwner`). Can only be called by the current owner."
      },
      "workFactor(address,uint256)": {
        "details": "Return the work factor for the goblin + ETH debt, using 1e4 as denom. Revert on non-goblin."
      }
    }
  },
  "userdoc": {
    "methods": {}
  }
}