{
  "contractName": "StrategyAddTwoSidesOptimal",
  "abi": [
    {
      "inputs": [
        {
          "internalType": "contract IUniswapV2Router02",
          "name": "_router",
          "type": "address"
        },
        {
          "internalType": "address",
          "name": "_goblin",
          "type": "address"
        }
      ],
      "payable": false,
      "stateMutability": "nonpayable",
      "type": "constructor"
    },
    {
      "anonymous": false,
      "inputs": [
        {
          "indexed": true,
          "internalType": "address",
          "name": "previousOwner",
          "type": "address"
        },
        {
          "indexed": true,
          "internalType": "address",
          "name": "newOwner",
          "type": "address"
        }
      ],
      "name": "OwnershipTransferred",
      "type": "event"
    },
    {
      "payable": true,
      "stateMutability": "payable",
      "type": "fallback"
    },
    {
      "constant": true,
      "inputs": [],
      "name": "factory",
      "outputs": [
        {
          "internalType": "contract IUniswapV2Factory",
          "name": "",
          "type": "address"
        }
      ],
      "payable": false,
      "stateMutability": "view",
      "type": "function"
    },
    {
      "constant": true,
      "inputs": [],
      "name": "goblin",
      "outputs": [
        {
          "internalType": "address",
          "name": "",
          "type": "address"
        }
      ],
      "payable": false,
      "stateMutability": "view",
      "type": "function"
    },
    {
      "constant": true,
      "inputs": [],
      "name": "isOwner",
      "outputs": [
        {
          "internalType": "bool",
          "name": "",
          "type": "bool"
        }
      ],
      "payable": false,
      "stateMutability": "view",
      "type": "function"
    },
    {
      "constant": true,
      "inputs": [],
      "name": "owner",
      "outputs": [
        {
          "internalType": "address",
          "name": "",
          "type": "address"
        }
      ],
      "payable": false,
      "stateMutability": "view",
      "type": "function"
    },
    {
      "constant": false,
      "inputs": [],
      "name": "renounceOwnership",
      "outputs": [],
      "payable": false,
      "stateMutability": "nonpayable",
      "type": "function"
    },
    {
      "constant": true,
      "inputs": [],
      "name": "router",
      "outputs": [
        {
          "internalType": "contract IUniswapV2Router02",
          "name": "",
          "type": "address"
        }
      ],
      "payable": false,
      "stateMutability": "view",
      "type": "function"
    },
    {
      "constant": false,
      "inputs": [
        {
          "internalType": "address",
          "name": "newOwner",
          "type": "address"
        }
      ],
      "name": "transferOwnership",
      "outputs": [],
      "payable": false,
      "stateMutability": "nonpayable",
      "type": "function"
    },
    {
      "constant": true,
      "inputs": [],
      "name": "weth",
      "outputs": [
        {
          "internalType": "address",
          "name": "",
          "type": "address"
        }
      ],
      "payable": false,
      "stateMutability": "view",
      "type": "function"
    },
    {
      "constant": true,
      "inputs": [],
      "name": "isGoblin",
      "outputs": [
        {
          "internalType": "bool",
          "name": "",
          "type": "bool"
        }
      ],
      "payable": false,
      "stateMutability": "view",
      "type": "function"
    },
    {
      "constant": false,
      "inputs": [
        {
          "internalType": "address",
          "name": "user",
          "type": "address"
        },
        {
          "internalType": "uint256",
          "name": "",
          "type": "uint256"
        },
        {
          "internalType": "bytes",
          "name": "data",
          "type": "bytes"
        }
      ],
      "name": "execute",
      "outputs": [],
      "payable": true,
      "stateMutability": "payable",
      "type": "function"
    },
    {
      "constant": false,
      "inputs": [
        {
          "internalType": "address",
          "name": "token",
          "type": "address"
        },
        {
          "internalType": "address",
          "name": "to",
          "type": "address"
        },
        {
          "internalType": "uint256",
          "name": "value",
          "type": "uint256"
        }
      ],
      "name": "recover",
      "outputs": [],
      "payable": false,
      "stateMutability": "nonpayable",
      "type": "function"
    }
  ],
  "bytecode": "0x60806040523480156200001157600080fd5b5060405162001ea538038062001ea5833981810160405260408110156200003757600080fd5b508051602090910151600080546001600160a01b03191633178082556040516001600160a01b039190911691907f8be0079c531659141344cd1fd0a4f28419497f9722a3daafe3b4186f6b6457e0908290a360018081905550816001600160a01b031663c45a01556040518163ffffffff1660e01b815260040160206040518083038186803b158015620000ca57600080fd5b505afa158015620000df573d6000803e3d6000fd5b505050506040513d6020811015620000f657600080fd5b5051600280546001600160a01b039283166001600160a01b031991821617909155600380549285169290911682179055604080516315ab88c960e31b8152905163ad5c464891600480820192602092909190829003018186803b1580156200015d57600080fd5b505afa15801562000172573d6000803e3d6000fd5b505050506040513d60208110156200018957600080fd5b5051600480546001600160a01b039283166001600160a01b0319918216179091556005805493909216921691909117905550611cda80620001cb6000396000f3fe6080604052600436106100bc5760003560e01c80638f32d59b11610074578063c45a01551161004e578063c45a01551461025b578063f2fde38b14610270578063f887ea40146102b0576100bc565b80638f32d59b1461019f578063b61d27f6146101b4578063b7156cf914610246576100bc565b806351a61870116100a557806351a618701461014c578063715018a6146101755780638da5cb5b1461018a576100bc565b80631ec82cb8146100be5780633fc8cef31461010e575b005b3480156100ca57600080fd5b506100bc600480360360608110156100e157600080fd5b5073ffffffffffffffffffffffffffffffffffffffff8135811691602081013590911690604001356102c5565b34801561011a57600080fd5b506101236103df565b6040805173ffffffffffffffffffffffffffffffffffffffff9092168252519081900360200190f35b34801561015857600080fd5b506101616103fb565b604080519115158252519081900360200190f35b34801561018157600080fd5b506100bc610419565b34801561019657600080fd5b506101236104fb565b3480156101ab57600080fd5b50610161610517565b6100bc600480360360608110156101ca57600080fd5b73ffffffffffffffffffffffffffffffffffffffff8235169160208101359181019060608101604082013564010000000081111561020757600080fd5b82018360208201111561021957600080fd5b8035906020019184600183028401116401000000008311171561023b57600080fd5b509092509050610535565b34801561025257600080fd5b50610123611016565b34801561026757600080fd5b50610123611032565b34801561027c57600080fd5b506100bc6004803603602081101561029357600080fd5b503573ffffffffffffffffffffffffffffffffffffffff1661104e565b3480156102bc57600080fd5b506101236110cd565b6102cd610517565b61033857604080517f08c379a000000000000000000000000000000000000000000000000000000000815260206004820181905260248201527f4f776e61626c653a2063616c6c6572206973206e6f7420746865206f776e6572604482015290519081900360640190fd5b6001805481019081905561036973ffffffffffffffffffffffffffffffffffffffff8516848463ffffffff6110e916565b60015481146103d957604080517f08c379a000000000000000000000000000000000000000000000000000000000815260206004820152601f60248201527f5265656e7472616e637947756172643a207265656e7472616e742063616c6c00604482015290519081900360640190fd5b50505050565b60045473ffffffffffffffffffffffffffffffffffffffff1681565b60055473ffffffffffffffffffffffffffffffffffffffff16331490565b610421610517565b61048c57604080517f08c379a000000000000000000000000000000000000000000000000000000000815260206004820181905260248201527f4f776e61626c653a2063616c6c6572206973206e6f7420746865206f776e6572604482015290519081900360640190fd5b6000805460405173ffffffffffffffffffffffffffffffffffffffff909116907f8be0079c531659141344cd1fd0a4f28419497f9722a3daafe3b4186f6b6457e0908390a3600080547fffffffffffffffffffffffff0000000000000000000000000000000000000000169055565b60005473ffffffffffffffffffffffffffffffffffffffff1690565b60005473ffffffffffffffffffffffffffffffffffffffff16331490565b61053d6103fb565b6105a857604080517f08c379a000000000000000000000000000000000000000000000000000000000815260206004820152601860248201527f63616c6c6572206973206e6f742074686520676f626c696e0000000000000000604482015290519081900360640190fd5b6001805481019081905560008080858560608110156105c657600080fd5b5060025460048054604080517fe6a4390500000000000000000000000000000000000000000000000000000000815273ffffffffffffffffffffffffffffffffffffffff8635811694820185905292831660248201528151939850602080870135985091909501359550600094939091169263e6a439059260448083019392829003018186803b15801561065957600080fd5b505afa15801561066d573d6000803e3d6000fd5b505050506040513d602081101561068357600080fd5b5051905082156106b5576106b573ffffffffffffffffffffffffffffffffffffffff85168a308663ffffffff6112bf16565b60004790506000806000808573ffffffffffffffffffffffffffffffffffffffff16630902f1ac6040518163ffffffff1660e01b815260040160606040518083038186803b15801561070657600080fd5b505afa15801561071a573d6000803e3d6000fd5b505050506040513d606081101561073057600080fd5b50805160209182015160048054604080517f0dfe168100000000000000000000000000000000000000000000000000000000815290516dffffffffffffffffffffffffffff9586169850949093169550600094859473ffffffffffffffffffffffffffffffffffffffff92831694928d1693630dfe16819380820193929190829003018186803b1580156107c357600080fd5b505afa1580156107d7573d6000803e3d6000fd5b505050506040513d60208110156107ed57600080fd5b505173ffffffffffffffffffffffffffffffffffffffff1614610811578284610814565b83835b915091506108428761083b8d73ffffffffffffffffffffffffffffffffffffffff166114a5565b8484611549565b600354919750955061087b945073ffffffffffffffffffffffffffffffffffffffff8c811694501691506000905063ffffffff6115a416565b6003546108c89073ffffffffffffffffffffffffffffffffffffffff89811691167fffffffffffffffffffffffffffffffffffffffffffffffffffffffffffffffff63ffffffff6115a416565b60408051600280825260608083018452926020830190803883390190505090508161090c5760045473ffffffffffffffffffffffffffffffffffffffff1688610928565b600454889073ffffffffffffffffffffffffffffffffffffffff165b8260008151811061093557fe5b602002602001018360018151811061094957fe5b73ffffffffffffffffffffffffffffffffffffffff9384166020918202929092010152911690528115610b38576003546040517f18cbafe5000000000000000000000000000000000000000000000000000000008152600481018581526000602483018190523060648401819052426084850181905260a060448601908152875160a4870152875173ffffffffffffffffffffffffffffffffffffffff909716966318cbafe5968b968a9594939092909160c40190602080880191028083838b5b83811015610a22578181015183820152602001610a0a565b505050509050019650505050505050600060405180830381600087803b158015610a4b57600080fd5b505af1158015610a5f573d6000803e3d6000fd5b505050506040513d6000823e601f3d9081017fffffffffffffffffffffffffffffffffffffffffffffffffffffffffffffffe01682016040526020811015610aa657600080fd5b8101908080516040519392919084640100000000821115610ac657600080fd5b908301906020820185811115610adb57600080fd5b8251866020820283011164010000000082111715610af857600080fd5b82525081516020918201928201910280838360005b83811015610b25578181015183820152602001610b0d565b5050505090500160405250505050610cef565b6003546040517f7ff36ab50000000000000000000000000000000000000000000000000000000081526000600482018181523060448401819052426064850181905260806024860190815287516084870152875173ffffffffffffffffffffffffffffffffffffffff90971696637ff36ab5968b96958a9594939092909160a40190602080880191028083838b5b83811015610bde578181015183820152602001610bc6565b50505050905001955050505050506000604051808303818588803b158015610c0557600080fd5b505af1158015610c19573d6000803e3d6000fd5b50505050506040513d6000823e601f3d9081017fffffffffffffffffffffffffffffffffffffffffffffffffffffffffffffffe01682016040526020811015610c6157600080fd5b8101908080516040519392919084640100000000821115610c8157600080fd5b908301906020820185811115610c9657600080fd5b8251866020820283011164010000000082111715610cb357600080fd5b82525081516020918201928201910280838360005b83811015610ce0578181015183820152602001610cc8565b50505050905001604052505050505b60035460009073ffffffffffffffffffffffffffffffffffffffff9081169063f305d7199047908c90610d239082166114a5565b604080517fffffffff0000000000000000000000000000000000000000000000000000000060e087901b16815273ffffffffffffffffffffffffffffffffffffffff9093166004840152602483019190915260006044830181905260648301523060848301524260a48301525160c480830192606092919082900301818588803b158015610db057600080fd5b505af1158015610dc4573d6000803e3d6000fd5b50505050506040513d6060811015610ddb57600080fd5b5060400151905086811015610e5157604080517f08c379a000000000000000000000000000000000000000000000000000000000815260206004820152601f60248201527f696e73756666696369656e74204c5020746f6b656e7320726563656976656400604482015290519081900360640190fd5b604080517f70a08231000000000000000000000000000000000000000000000000000000008152306004820152905173ffffffffffffffffffffffffffffffffffffffff88169163a9059cbb91339184916370a0823191602480820192602092909190829003018186803b158015610ec857600080fd5b505afa158015610edc573d6000803e3d6000fd5b505050506040513d6020811015610ef257600080fd5b5051604080517fffffffff0000000000000000000000000000000000000000000000000000000060e086901b16815273ffffffffffffffffffffffffffffffffffffffff909316600484015260248301919091525160448083019260209291908290030181600087803b158015610f6857600080fd5b505af1158015610f7c573d6000803e3d6000fd5b505050506040513d6020811015610f9257600080fd5b50506001548a14985061100f97505050505050505057604080517f08c379a000000000000000000000000000000000000000000000000000000000815260206004820152601f60248201527f5265656e7472616e637947756172643a207265656e7472616e742063616c6c00604482015290519081900360640190fd5b5050505050565b60055473ffffffffffffffffffffffffffffffffffffffff1681565b60025473ffffffffffffffffffffffffffffffffffffffff1681565b611056610517565b6110c157604080517f08c379a000000000000000000000000000000000000000000000000000000000815260206004820181905260248201527f4f776e61626c653a2063616c6c6572206973206e6f7420746865206f776e6572604482015290519081900360640190fd5b6110ca8161177a565b50565b60035473ffffffffffffffffffffffffffffffffffffffff1681565b6040805173ffffffffffffffffffffffffffffffffffffffff8481166024830152604480830185905283518084039091018152606490920183526020820180517bffffffffffffffffffffffffffffffffffffffffffffffffffffffff167fa9059cbb00000000000000000000000000000000000000000000000000000000178152925182516000946060949389169392918291908083835b602083106111bf57805182527fffffffffffffffffffffffffffffffffffffffffffffffffffffffffffffffe09092019160209182019101611182565b6001836020036101000a0380198251168184511680821785525050505050509050019150506000604051808303816000865af19150503d8060008114611221576040519150601f19603f3d011682016040523d82523d6000602084013e611226565b606091505b5091509150818015611254575080511580611254575080806020019051602081101561125157600080fd5b50515b61100f57604080517f08c379a000000000000000000000000000000000000000000000000000000000815260206004820152600d60248201527f21736166655472616e7366657200000000000000000000000000000000000000604482015290519081900360640190fd5b6040805173ffffffffffffffffffffffffffffffffffffffff85811660248301528481166044830152606480830185905283518084039091018152608490920183526020820180517bffffffffffffffffffffffffffffffffffffffffffffffffffffffff167f23b872dd0000000000000000000000000000000000000000000000000000000017815292518251600094606094938a169392918291908083835b6020831061139d57805182527fffffffffffffffffffffffffffffffffffffffffffffffffffffffffffffffe09092019160209182019101611360565b6001836020036101000a0380198251168184511680821785525050505050509050019150506000604051808303816000865af19150503d80600081146113ff576040519150601f19603f3d011682016040523d82523d6000602084013e611404565b606091505b5091509150818015611432575080511580611432575080806020019051602081101561142f57600080fd5b50515b61149d57604080517f08c379a000000000000000000000000000000000000000000000000000000000815260206004820152601160248201527f21736166655472616e7366657246726f6d000000000000000000000000000000604482015290519081900360640190fd5b505050505050565b604080517f70a08231000000000000000000000000000000000000000000000000000000008152306004820152905160009173ffffffffffffffffffffffffffffffffffffffff8416916370a0823191602480820192602092909190829003018186803b15801561151557600080fd5b505afa158015611529573d6000803e3d6000fd5b505050506040513d602081101561153f57600080fd5b505190505b919050565b60008061155c858563ffffffff61187316565b61156c878563ffffffff61187316565b106115885761157d868686866118ef565b91506000905061159b565b611594858785876118ef565b9150600190505b94509492505050565b6040805173ffffffffffffffffffffffffffffffffffffffff8481166024830152604480830185905283518084039091018152606490920183526020820180517bffffffffffffffffffffffffffffffffffffffffffffffffffffffff167f095ea7b300000000000000000000000000000000000000000000000000000000178152925182516000946060949389169392918291908083835b6020831061167a57805182527fffffffffffffffffffffffffffffffffffffffffffffffffffffffffffffffe0909201916020918201910161163d565b6001836020036101000a0380198251168184511680821785525050505050509050019150506000604051808303816000865af19150503d80600081146116dc576040519150601f19603f3d011682016040523d82523d6000602084013e6116e1565b606091505b509150915081801561170f57508051158061170f575080806020019051602081101561170c57600080fd5b50515b61100f57604080517f08c379a000000000000000000000000000000000000000000000000000000000815260206004820152600c60248201527f2173616665417070726f76650000000000000000000000000000000000000000604482015290519081900360640190fd5b73ffffffffffffffffffffffffffffffffffffffff81166117e6576040517f08c379a0000000000000000000000000000000000000000000000000000000008152600401808060200182810382526026815260200180611c5f6026913960400191505060405180910390fd5b6000805460405173ffffffffffffffffffffffffffffffffffffffff808516939216917f8be0079c531659141344cd1fd0a4f28419497f9722a3daafe3b4186f6b6457e091a3600080547fffffffffffffffffffffffff00000000000000000000000000000000000000001673ffffffffffffffffffffffffffffffffffffffff92909216919091179055565b600082611882575060006118e9565b8282028284828161188f57fe5b04146118e6576040517f08c379a0000000000000000000000000000000000000000000000000000000008152600401808060200182810382526021815260200180611c856021913960400191505060405180910390fd5b90505b92915050565b6000611901848463ffffffff61187316565b611911868463ffffffff61187316565b101561197e57604080517f08c379a000000000000000000000000000000000000000000000000000000000815260206004820152600860248201527f5265766572736564000000000000000000000000000000000000000000000000604482015290519081900360640190fd5b6103e560006119956107cd8663ffffffff61187316565b905060006119c86119ac888863ffffffff61187316565b6119bc8a8863ffffffff61187316565b9063ffffffff611a9e16565b90506000611a0d87611a016119e38b8a63ffffffff611b1516565b6119f5866103e863ffffffff61187316565b9063ffffffff611b8916565b9063ffffffff61187316565b90506000611a266004611a01878563ffffffff61187316565b90506000611a52611a4d83611a41888063ffffffff61187316565b9063ffffffff611b1516565b611c0d565b90506000611a66828763ffffffff611a9e16565b90506000611a7b88600263ffffffff61187316565b9050611a8d828263ffffffff611b8916565b9d9c50505050505050505050505050565b600082821115611b0f57604080517f08c379a000000000000000000000000000000000000000000000000000000000815260206004820152601e60248201527f536166654d6174683a207375627472616374696f6e206f766572666c6f770000604482015290519081900360640190fd5b50900390565b6000828201838110156118e657604080517f08c379a000000000000000000000000000000000000000000000000000000000815260206004820152601b60248201527f536166654d6174683a206164646974696f6e206f766572666c6f770000000000604482015290519081900360640190fd5b6000808211611bf957604080517f08c379a000000000000000000000000000000000000000000000000000000000815260206004820152601a60248201527f536166654d6174683a206469766973696f6e206279207a65726f000000000000604482015290519081900360640190fd5b6000828481611c0457fe5b04949350505050565b60006003821115611c50575080600160028204015b81811015611c4a57809150600281828581611c3957fe5b040181611c4257fe5b049050611c22565b50611544565b81156115445750600191905056fe4f776e61626c653a206e6577206f776e657220697320746865207a65726f2061646472657373536166654d6174683a206d756c7469706c69636174696f6e206f766572666c6f77a265627a7a723158209dfe57cb97283aba26e3b0fa069d074bc50281e452eb0341e4e613d9bcf9bb1c64736f6c63430005100032",
  "source": "pragma solidity 0.5.16;\nimport \"openzeppelin-solidity-2.3.0/contracts/ownership/Ownable.sol\";\nimport \"openzeppelin-solidity-2.3.0/contracts/math/SafeMath.sol\";\nimport \"openzeppelin-solidity-2.3.0/contracts/utils/ReentrancyGuard.sol\";\nimport \"@uniswap/v2-core/contracts/interfaces/IUniswapV2Factory.sol\";\nimport \"@uniswap/v2-core/contracts/interfaces/IUniswapV2Pair.sol\";\nimport \"@uniswap/v2-core/contracts/libraries/Math.sol\";\nimport \"./uniswap/IUniswapV2Router02.sol\";\nimport \"./SafeToken.sol\";\nimport \"./Strategy.sol\";\n\ncontract StrategyAddTwoSidesOptimal is Ownable, ReentrancyGuard, Strategy {\n    using SafeToken for address;\n    using SafeMath for uint256;\n\n    IUniswapV2Factory public factory;\n    IUniswapV2Router02 public router;\n    address public weth;\n    address public goblin;\n\n    /// @dev Create a new add two-side optimal strategy instance.\n    /// @param _router The Uniswap router smart contract.\n    constructor(IUniswapV2Router02 _router, address _goblin) public {\n        factory = IUniswapV2Factory(_router.factory());\n        router = _router;\n        weth = _router.WETH();\n        goblin = _goblin;\n    }\n    \n    /// @dev Throws if called by any account other than the goblin.\n    modifier onlyGoblin() {\n        require(isGoblin(), \"caller is not the goblin\");\n        _;\n    }\n\n    /// @dev Returns true if the caller is the current goblin.\n    function isGoblin() public view returns (bool) {\n        return msg.sender == goblin;\n    }\n\n    /// @dev Compute optimal deposit amount\n    /// @param amtA amount of token A desired to deposit\n    /// @param amtB amonut of token B desired to deposit\n    /// @param resA amount of token A in reserve\n    /// @param resB amount of token B in reserve\n    function optimalDeposit(\n        uint256 amtA,\n        uint256 amtB,\n        uint256 resA,\n        uint256 resB\n    ) internal pure returns (uint256 swapAmt, bool isReversed) {\n        if (amtA.mul(resB) >= amtB.mul(resA)) {\n            swapAmt = _optimalDepositA(amtA, amtB, resA, resB);\n            isReversed = false;\n        } else {\n            swapAmt = _optimalDepositA(amtB, amtA, resB, resA);\n            isReversed = true;\n        }\n    }\n\n    /// @dev Compute optimal deposit amount helper\n    /// @param amtA amount of token A desired to deposit\n    /// @param amtB amonut of token B desired to deposit\n    /// @param resA amount of token A in reserve\n    /// @param resB amount of token B in reserve\n    function _optimalDepositA(\n        uint256 amtA,\n        uint256 amtB,\n        uint256 resA,\n        uint256 resB\n    ) internal pure returns (uint256) {\n        require(amtA.mul(resB) >= amtB.mul(resA), \"Reversed\");\n\n        uint256 a = 997;\n        uint256 b = uint256(1997).mul(resA);\n        uint256 _c = (amtA.mul(resB)).sub(amtB.mul(resA));\n        uint256 c = _c.mul(1000).div(amtB.add(resB)).mul(resA);\n\n        uint256 d = a.mul(c).mul(4);\n        uint256 e = Math.sqrt(b.mul(b).add(d));\n\n        uint256 numerator = e.sub(b);\n        uint256 denominator = a.mul(2);\n\n        return numerator.div(denominator);\n    }\n\n    /// @dev Execute worker strategy. Take LP tokens + ETH. Return LP tokens + ETH.\n    /// @param user User address\n    /// @param data Extra calldata information passed along to this strategy.\n    function execute(address user, uint256, /* debt */ bytes calldata data) \n        external         \n        payable  \n        onlyGoblin       \n        nonReentrant \n    {\n        // 1. Find out what farming token we are dealing with.\n        (address fToken, uint256 fAmount, uint256 minLPAmount) = abi.decode(data, (address, uint256, uint256));\n        IUniswapV2Pair lpToken = IUniswapV2Pair(factory.getPair(fToken, weth));        \n        // 2. Compute the optimal amount of ETH and fToken to be converted.  \n        if (fAmount > 0) {  \n            fToken.safeTransferFrom(user, address(this), fAmount);            \n        }\n        uint256 ethBalance = address(this).balance;\n        uint256 swapAmt;\n        bool isReversed;\n        {\n            (uint256 r0, uint256 r1, ) = lpToken.getReserves();\n            (uint256 ethReserve, uint256 fReserve) = lpToken.token0() == weth ? (r0, r1) : (r1, r0);\n            (swapAmt, isReversed) = optimalDeposit(ethBalance, fToken.myBalance(), ethReserve, fReserve);\n        }\n        // 3. Convert between ETH and farming tokens\n        fToken.safeApprove(address(router), 0);\n        fToken.safeApprove(address(router), uint256(-1));\n        address[] memory path = new address[](2);\n        (path[0], path[1]) = isReversed ? (fToken, weth) : (weth, fToken);\n        if (isReversed) {\n            router.swapExactTokensForETH(swapAmt, 0, path, address(this), now); // farming tokens to ETH\n        } else {\n            router.swapExactETHForTokens.value(swapAmt)(0, path, address(this), now); // ETH to farming tokens\n        }\n        // 4. Mint more LP tokens and return all LP tokens to the sender.\n        (,, uint256 moreLPAmount) = router.addLiquidityETH.value(address(this).balance)(\n            fToken, fToken.myBalance(), 0, 0, address(this), now\n        );\n        require(moreLPAmount >= minLPAmount, \"insufficient LP tokens received\");\n        lpToken.transfer(msg.sender, lpToken.balanceOf(address(this)));\n    }\n\n    /// @dev Recover ERC20 tokens that were accidentally sent to this smart contract.\n    /// @param token The token contract. Can be anything. This contract should not hold ERC20 tokens.\n    /// @param to The address to send the tokens to.\n    /// @param value The number of tokens to transfer to `to`.\n    function recover(address token, address to, uint256 value) external onlyOwner nonReentrant {\n        token.safeTransfer(to, value);\n    }\n\n    function() external payable {}\n}\n",
  "sourcePath": "C:/workspace/Project/projects.spider.miner/alphahomora/contracts/5/StrategyAddTwoSidesOptimal.sol",
  "compiler": {
    "name": "solc",
    "version": "0.5.16+commit.9c3226ce.Emscripten.clang"
  },
  "schemaVersion": "3.2.5",
  "updatedAt": "2021-01-08T06:13:44.891Z",
  "devdoc": {
    "methods": {
      "constructor": {
        "details": "Create a new add two-side optimal strategy instance.",
        "params": {
          "_router": "The Uniswap router smart contract."
        }
      },
      "execute(address,uint256,bytes)": {
        "details": "Execute worker strategy. Take LP tokens + ETH. Return LP tokens + ETH.",
        "params": {
          "data": "Extra calldata information passed along to this strategy.",
          "user": "User address"
        }
      },
      "isGoblin()": {
        "details": "Returns true if the caller is the current goblin."
      },
      "isOwner()": {
        "details": "Returns true if the caller is the current owner."
      },
      "owner()": {
        "details": "Returns the address of the current owner."
      },
      "recover(address,address,uint256)": {
        "details": "Recover ERC20 tokens that were accidentally sent to this smart contract.",
        "params": {
          "to": "The address to send the tokens to.",
          "token": "The token contract. Can be anything. This contract should not hold ERC20 tokens.",
          "value": "The number of tokens to transfer to `to`."
        }
      },
      "renounceOwnership()": {
        "details": "Leaves the contract without owner. It will not be possible to call `onlyOwner` functions anymore. Can only be called by the current owner.     * > Note: Renouncing ownership will leave the contract without an owner, thereby removing any functionality that is only available to the owner."
      },
      "transferOwnership(address)": {
        "details": "Transfers ownership of the contract to a new account (`newOwner`). Can only be called by the current owner."
      }
    }
  },
  "userdoc": {
    "methods": {}
  }
}