{
  "contractName": "StrategyAllETHOnly",
  "abi": [
    {
      "inputs": [
        {
          "internalType": "contract IUniswapV2Router02",
          "name": "_router",
          "type": "address"
        }
      ],
      "payable": false,
      "stateMutability": "nonpayable",
      "type": "constructor"
    },
    {
      "anonymous": false,
      "inputs": [
        {
          "indexed": true,
          "internalType": "address",
          "name": "previousOwner",
          "type": "address"
        },
        {
          "indexed": true,
          "internalType": "address",
          "name": "newOwner",
          "type": "address"
        }
      ],
      "name": "OwnershipTransferred",
      "type": "event"
    },
    {
      "payable": true,
      "stateMutability": "payable",
      "type": "fallback"
    },
    {
      "constant": true,
      "inputs": [],
      "name": "factory",
      "outputs": [
        {
          "internalType": "contract IUniswapV2Factory",
          "name": "",
          "type": "address"
        }
      ],
      "payable": false,
      "stateMutability": "view",
      "type": "function"
    },
    {
      "constant": true,
      "inputs": [],
      "name": "isOwner",
      "outputs": [
        {
          "internalType": "bool",
          "name": "",
          "type": "bool"
        }
      ],
      "payable": false,
      "stateMutability": "view",
      "type": "function"
    },
    {
      "constant": true,
      "inputs": [],
      "name": "owner",
      "outputs": [
        {
          "internalType": "address",
          "name": "",
          "type": "address"
        }
      ],
      "payable": false,
      "stateMutability": "view",
      "type": "function"
    },
    {
      "constant": false,
      "inputs": [],
      "name": "renounceOwnership",
      "outputs": [],
      "payable": false,
      "stateMutability": "nonpayable",
      "type": "function"
    },
    {
      "constant": true,
      "inputs": [],
      "name": "router",
      "outputs": [
        {
          "internalType": "contract IUniswapV2Router02",
          "name": "",
          "type": "address"
        }
      ],
      "payable": false,
      "stateMutability": "view",
      "type": "function"
    },
    {
      "constant": false,
      "inputs": [
        {
          "internalType": "address",
          "name": "newOwner",
          "type": "address"
        }
      ],
      "name": "transferOwnership",
      "outputs": [],
      "payable": false,
      "stateMutability": "nonpayable",
      "type": "function"
    },
    {
      "constant": true,
      "inputs": [],
      "name": "weth",
      "outputs": [
        {
          "internalType": "address",
          "name": "",
          "type": "address"
        }
      ],
      "payable": false,
      "stateMutability": "view",
      "type": "function"
    },
    {
      "constant": false,
      "inputs": [
        {
          "internalType": "address",
          "name": "",
          "type": "address"
        },
        {
          "internalType": "uint256",
          "name": "",
          "type": "uint256"
        },
        {
          "internalType": "bytes",
          "name": "data",
          "type": "bytes"
        }
      ],
      "name": "execute",
      "outputs": [],
      "payable": true,
      "stateMutability": "payable",
      "type": "function"
    },
    {
      "constant": false,
      "inputs": [
        {
          "internalType": "address",
          "name": "token",
          "type": "address"
        },
        {
          "internalType": "address",
          "name": "to",
          "type": "address"
        },
        {
          "internalType": "uint256",
          "name": "value",
          "type": "uint256"
        }
      ],
      "name": "recover",
      "outputs": [],
      "payable": false,
      "stateMutability": "nonpayable",
      "type": "function"
    }
  ],
  "bytecode": "0x608060405234801561001057600080fd5b5060405161176f38038061176f8339818101604052602081101561003357600080fd5b5051600080546001600160a01b03191633178082556040516001600160a01b039190911691907f8be0079c531659141344cd1fd0a4f28419497f9722a3daafe3b4186f6b6457e0908290a360018081905550806001600160a01b031663c45a01556040518163ffffffff1660e01b815260040160206040518083038186803b1580156100be57600080fd5b505afa1580156100d2573d6000803e3d6000fd5b505050506040513d60208110156100e857600080fd5b5051600280546001600160a01b039283166001600160a01b031991821617909155600380549284169290911682179055604080516315ab88c960e31b8152905163ad5c464891600480820192602092909190829003018186803b15801561014e57600080fd5b505afa158015610162573d6000803e3d6000fd5b505050506040513d602081101561017857600080fd5b5051600480546001600160a01b0319166001600160a01b03909216919091179055506115c6806101a96000396000f3fe6080604052600436106100965760003560e01c80638f32d59b11610069578063c45a01551161004e578063c45a01551461020b578063f2fde38b14610220578063f887ea401461026057610096565b80638f32d59b14610150578063b61d27f61461017957610096565b80631ec82cb8146100985780633fc8cef3146100e8578063715018a6146101265780638da5cb5b1461013b575b005b3480156100a457600080fd5b50610096600480360360608110156100bb57600080fd5b5073ffffffffffffffffffffffffffffffffffffffff813581169160208101359091169060400135610275565b3480156100f457600080fd5b506100fd61038f565b6040805173ffffffffffffffffffffffffffffffffffffffff9092168252519081900360200190f35b34801561013257600080fd5b506100966103ab565b34801561014757600080fd5b506100fd61048d565b34801561015c57600080fd5b506101656104a9565b604080519115158252519081900360200190f35b6100966004803603606081101561018f57600080fd5b73ffffffffffffffffffffffffffffffffffffffff823516916020810135918101906060810160408201356401000000008111156101cc57600080fd5b8201836020820111156101de57600080fd5b8035906020019184600183028401116401000000008311171561020057600080fd5b5090925090506104c7565b34801561021757600080fd5b506100fd610d93565b34801561022c57600080fd5b506100966004803603602081101561024357600080fd5b503573ffffffffffffffffffffffffffffffffffffffff16610daf565b34801561026c57600080fd5b506100fd610e2e565b61027d6104a9565b6102e857604080517f08c379a000000000000000000000000000000000000000000000000000000000815260206004820181905260248201527f4f776e61626c653a2063616c6c6572206973206e6f7420746865206f776e6572604482015290519081900360640190fd5b6001805481019081905561031973ffffffffffffffffffffffffffffffffffffffff8516848463ffffffff610e4a16565b600154811461038957604080517f08c379a000000000000000000000000000000000000000000000000000000000815260206004820152601f60248201527f5265656e7472616e637947756172643a207265656e7472616e742063616c6c00604482015290519081900360640190fd5b50505050565b60045473ffffffffffffffffffffffffffffffffffffffff1681565b6103b36104a9565b61041e57604080517f08c379a000000000000000000000000000000000000000000000000000000000815260206004820181905260248201527f4f776e61626c653a2063616c6c6572206973206e6f7420746865206f776e6572604482015290519081900360640190fd5b6000805460405173ffffffffffffffffffffffffffffffffffffffff909116907f8be0079c531659141344cd1fd0a4f28419497f9722a3daafe3b4186f6b6457e0908390a3600080547fffffffffffffffffffffffff0000000000000000000000000000000000000000169055565b60005473ffffffffffffffffffffffffffffffffffffffff1690565b60005473ffffffffffffffffffffffffffffffffffffffff16331490565b60018054810190819055600080848460408110156104e457600080fd5b5060025460048054604080517fe6a4390500000000000000000000000000000000000000000000000000000000815273ffffffffffffffffffffffffffffffffffffffff86358116948201859052928316602482015290519296506020948501359550600094939091169263e6a4390592604480840193829003018186803b15801561056f57600080fd5b505afa158015610583573d6000803e3d6000fd5b505050506040513d602081101561059957600080fd5b5051604080517f0902f1ac00000000000000000000000000000000000000000000000000000000815290519192504791600091829173ffffffffffffffffffffffffffffffffffffffff861691630902f1ac916004808301926060929190829003018186803b15801561060b57600080fd5b505afa15801561061f573d6000803e3d6000fd5b505050506040513d606081101561063557600080fd5b50805160209182015160048054604080517f0dfe168100000000000000000000000000000000000000000000000000000000815290516dffffffffffffffffffffffffffff958616985094909316955060009473ffffffffffffffffffffffffffffffffffffffff91821694918a1693630dfe1681938181019391829003018186803b1580156106c457600080fd5b505afa1580156106d8573d6000803e3d6000fd5b505050506040513d60208110156106ee57600080fd5b505173ffffffffffffffffffffffffffffffffffffffff16146107115781610713565b825b905060006107ca61078861072f846107cd63ffffffff61102016565b61077c61077761076a61074b88623cda2963ffffffff61102016565b61075e8c623cda2063ffffffff61102016565b9063ffffffff61109c16565b879063ffffffff61102016565b611110565b9063ffffffff61116216565b8161078f57fe5b6040805160028082526060808301845294909304945091906020830190803883395050600454825192935073ffffffffffffffffffffffffffffffffffffffff16918391506000906107dd57fe5b602002602001019073ffffffffffffffffffffffffffffffffffffffff16908173ffffffffffffffffffffffffffffffffffffffff1681525050888160018151811061082557fe5b73ffffffffffffffffffffffffffffffffffffffff9283166020918202929092018101919091526003546040517f7ff36ab5000000000000000000000000000000000000000000000000000000008152600060048201818152306044840181905242606485018190526080602486019081528951608487015289519690981697637ff36ab5978b9795968b969495939460a49091019187810191028083838b5b838110156108dd5781810151838201526020016108c5565b50505050905001955050505050506000604051808303818588803b15801561090457600080fd5b505af1158015610918573d6000803e3d6000fd5b50505050506040513d6000823e601f3d9081017fffffffffffffffffffffffffffffffffffffffffffffffffffffffffffffffe0168201604052602081101561096057600080fd5b810190808051604051939291908464010000000082111561098057600080fd5b90830190602082018581111561099557600080fd5b82518660208202830111640100000000821117156109b257600080fd5b82525081516020918201928201910280838360005b838110156109df5781810151838201526020016109c7565b50505050919091016040525050600354610a1e935073ffffffffffffffffffffffffffffffffffffffff8d81169350169050600063ffffffff6111d916565b600354610a6b9073ffffffffffffffffffffffffffffffffffffffff8b811691167fffffffffffffffffffffffffffffffffffffffffffffffffffffffffffffffff63ffffffff6111d916565b60035460009073ffffffffffffffffffffffffffffffffffffffff9081169063f305d7199047908d90610a9f9082166113af565b604080517fffffffff0000000000000000000000000000000000000000000000000000000060e087901b16815273ffffffffffffffffffffffffffffffffffffffff9093166004840152602483019190915260006044830181905260648301523060848301524260a48301525160c480830192606092919082900301818588803b158015610b2c57600080fd5b505af1158015610b40573d6000803e3d6000fd5b50505050506040513d6060811015610b5757600080fd5b5060400151905088811015610bcd57604080517f08c379a000000000000000000000000000000000000000000000000000000000815260206004820152601f60248201527f696e73756666696369656e74204c5020746f6b656e7320726563656976656400604482015290519081900360640190fd5b604080517f70a08231000000000000000000000000000000000000000000000000000000008152306004820152905173ffffffffffffffffffffffffffffffffffffffff8a169163a9059cbb91339184916370a0823191602480820192602092909190829003018186803b158015610c4457600080fd5b505afa158015610c58573d6000803e3d6000fd5b505050506040513d6020811015610c6e57600080fd5b5051604080517fffffffff0000000000000000000000000000000000000000000000000000000060e086901b16815273ffffffffffffffffffffffffffffffffffffffff909316600484015260248301919091525160448083019260209291908290030181600087803b158015610ce457600080fd5b505af1158015610cf8573d6000803e3d6000fd5b505050506040513d6020811015610d0e57600080fd5b50506001548b149950610d8c9850505050505050505057604080517f08c379a000000000000000000000000000000000000000000000000000000000815260206004820152601f60248201527f5265656e7472616e637947756172643a207265656e7472616e742063616c6c00604482015290519081900360640190fd5b5050505050565b60025473ffffffffffffffffffffffffffffffffffffffff1681565b610db76104a9565b610e2257604080517f08c379a000000000000000000000000000000000000000000000000000000000815260206004820181905260248201527f4f776e61626c653a2063616c6c6572206973206e6f7420746865206f776e6572604482015290519081900360640190fd5b610e2b81611451565b50565b60035473ffffffffffffffffffffffffffffffffffffffff1681565b6040805173ffffffffffffffffffffffffffffffffffffffff8481166024830152604480830185905283518084039091018152606490920183526020820180517bffffffffffffffffffffffffffffffffffffffffffffffffffffffff167fa9059cbb00000000000000000000000000000000000000000000000000000000178152925182516000946060949389169392918291908083835b60208310610f2057805182527fffffffffffffffffffffffffffffffffffffffffffffffffffffffffffffffe09092019160209182019101610ee3565b6001836020036101000a0380198251168184511680821785525050505050509050019150506000604051808303816000865af19150503d8060008114610f82576040519150601f19603f3d011682016040523d82523d6000602084013e610f87565b606091505b5091509150818015610fb5575080511580610fb55750808060200190516020811015610fb257600080fd5b50515b610d8c57604080517f08c379a000000000000000000000000000000000000000000000000000000000815260206004820152600d60248201527f21736166655472616e7366657200000000000000000000000000000000000000604482015290519081900360640190fd5b60008261102f57506000611096565b8282028284828161103c57fe5b0414611093576040517f08c379a00000000000000000000000000000000000000000000000000000000081526004018080602001828103825260218152602001806115716021913960400191505060405180910390fd5b90505b92915050565b60008282018381101561109357604080517f08c379a000000000000000000000000000000000000000000000000000000000815260206004820152601b60248201527f536166654d6174683a206164646974696f6e206f766572666c6f770000000000604482015290519081900360640190fd5b60006003821115611153575080600160028204015b8181101561114d5780915060028182858161113c57fe5b04018161114557fe5b049050611125565b5061115d565b811561115d575060015b919050565b6000828211156111d357604080517f08c379a000000000000000000000000000000000000000000000000000000000815260206004820152601e60248201527f536166654d6174683a207375627472616374696f6e206f766572666c6f770000604482015290519081900360640190fd5b50900390565b6040805173ffffffffffffffffffffffffffffffffffffffff8481166024830152604480830185905283518084039091018152606490920183526020820180517bffffffffffffffffffffffffffffffffffffffffffffffffffffffff167f095ea7b300000000000000000000000000000000000000000000000000000000178152925182516000946060949389169392918291908083835b602083106112af57805182527fffffffffffffffffffffffffffffffffffffffffffffffffffffffffffffffe09092019160209182019101611272565b6001836020036101000a0380198251168184511680821785525050505050509050019150506000604051808303816000865af19150503d8060008114611311576040519150601f19603f3d011682016040523d82523d6000602084013e611316565b606091505b5091509150818015611344575080511580611344575080806020019051602081101561134157600080fd5b50515b610d8c57604080517f08c379a000000000000000000000000000000000000000000000000000000000815260206004820152600c60248201527f2173616665417070726f76650000000000000000000000000000000000000000604482015290519081900360640190fd5b604080517f70a08231000000000000000000000000000000000000000000000000000000008152306004820152905160009173ffffffffffffffffffffffffffffffffffffffff8416916370a0823191602480820192602092909190829003018186803b15801561141f57600080fd5b505afa158015611433573d6000803e3d6000fd5b505050506040513d602081101561144957600080fd5b505192915050565b73ffffffffffffffffffffffffffffffffffffffff81166114bd576040517f08c379a000000000000000000000000000000000000000000000000000000000815260040180806020018281038252602681526020018061154b6026913960400191505060405180910390fd5b6000805460405173ffffffffffffffffffffffffffffffffffffffff808516939216917f8be0079c531659141344cd1fd0a4f28419497f9722a3daafe3b4186f6b6457e091a3600080547fffffffffffffffffffffffff00000000000000000000000000000000000000001673ffffffffffffffffffffffffffffffffffffffff9290921691909117905556fe4f776e61626c653a206e6577206f776e657220697320746865207a65726f2061646472657373536166654d6174683a206d756c7469706c69636174696f6e206f766572666c6f77a265627a7a72315820a23d1df6db3de4b8f9b5f940feb86c3cd8aded4ae26b4c2165436188e4fe948464736f6c63430005100032",
  "source": "pragma solidity 0.5.16;\nimport \"openzeppelin-solidity-2.3.0/contracts/ownership/Ownable.sol\";\nimport \"openzeppelin-solidity-2.3.0/contracts/math/SafeMath.sol\";\nimport \"openzeppelin-solidity-2.3.0/contracts/utils/ReentrancyGuard.sol\";\nimport \"@uniswap/v2-core/contracts/interfaces/IUniswapV2Factory.sol\";\nimport \"@uniswap/v2-core/contracts/interfaces/IUniswapV2Pair.sol\";\nimport \"@uniswap/v2-core/contracts/libraries/Math.sol\";\nimport \"./uniswap/IUniswapV2Router02.sol\";\nimport \"./SafeToken.sol\";\nimport \"./Strategy.sol\";\n\n\ncontract StrategyAllETHOnly is Ownable, ReentrancyGuard, Strategy {\n    using SafeToken for address;\n    using SafeMath for uint256;\n\n    IUniswapV2Factory public factory;\n    IUniswapV2Router02 public router;\n    address public weth;\n\n    /// @dev Create a new add ETH only strategy instance.\n    /// @param _router The Uniswap router smart contract.\n    constructor(IUniswapV2Router02 _router) public {\n        factory = IUniswapV2Factory(_router.factory());\n        router = _router;\n        weth = _router.WETH();\n    }\n\n    /// @dev Execute worker strategy. Take LP tokens + ETH. Return LP tokens + ETH.\n    /// @param data Extra calldata information passed along to this strategy.\n    function execute(address /* user */, uint256 /* debt */, bytes calldata data)\n        external\n        payable\n        nonReentrant\n    {\n        // 1. Find out what farming token we are dealing with and min additional LP tokens.\n        (address fToken, uint256 minLPAmount) = abi.decode(data, (address, uint256));\n        IUniswapV2Pair lpToken = IUniswapV2Pair(factory.getPair(fToken, weth));\n        // 2. Compute the optimal amount of ETH to be converted to farming tokens.\n        uint256 balance = address(this).balance;\n        (uint256 r0, uint256 r1, ) = lpToken.getReserves();\n        uint256 rIn = lpToken.token0() == weth ? r0 : r1;\n        uint256 aIn = Math.sqrt(rIn.mul(balance.mul(3988000).add(rIn.mul(3988009)))).sub(rIn.mul(1997)) / 1994;\n        // 3. Convert that portion of ETH to farming tokens.\n        address[] memory path = new address[](2);\n        path[0] = weth;\n        path[1] = fToken;\n        router.swapExactETHForTokens.value(aIn)(0, path, address(this), now);\n        // 4. Mint more LP tokens and return all LP tokens to the sender.\n        fToken.safeApprove(address(router), 0);\n        fToken.safeApprove(address(router), uint(-1));\n        (,, uint256 moreLPAmount) = router.addLiquidityETH.value(address(this).balance)(\n            fToken, fToken.myBalance(), 0, 0, address(this), now\n        );\n        require(moreLPAmount >= minLPAmount, \"insufficient LP tokens received\");\n        lpToken.transfer(msg.sender, lpToken.balanceOf(address(this)));\n    }\n\n    /// @dev Recover ERC20 tokens that were accidentally sent to this smart contract.\n    /// @param token The token contract. Can be anything. This contract should not hold ERC20 tokens.\n    /// @param to The address to send the tokens to.\n    /// @param value The number of tokens to transfer to `to`.\n    function recover(address token, address to, uint256 value) external onlyOwner nonReentrant {\n        token.safeTransfer(to, value);\n    }\n\n    function() external payable {}\n}\n",
  "sourcePath": "C:/workspace/Project/projects.spider.miner/alphahomora/contracts/5/StrategyAddETHOnly.sol",
  "compiler": {
    "name": "solc",
    "version": "0.5.16+commit.9c3226ce.Emscripten.clang"
  },
  "schemaVersion": "3.3.2",
  "updatedAt": "2021-01-13T08:43:04.016Z",
  "networkType": "ethereum",
  "devdoc": {
    "methods": {
      "constructor": {
        "details": "Create a new add ETH only strategy instance.",
        "params": {
          "_router": "The Uniswap router smart contract."
        }
      },
      "execute(address,uint256,bytes)": {
        "details": "Execute worker strategy. Take LP tokens + ETH. Return LP tokens + ETH.",
        "params": {
          "data": "Extra calldata information passed along to this strategy."
        }
      },
      "isOwner()": {
        "details": "Returns true if the caller is the current owner."
      },
      "owner()": {
        "details": "Returns the address of the current owner."
      },
      "recover(address,address,uint256)": {
        "details": "Recover ERC20 tokens that were accidentally sent to this smart contract.",
        "params": {
          "to": "The address to send the tokens to.",
          "token": "The token contract. Can be anything. This contract should not hold ERC20 tokens.",
          "value": "The number of tokens to transfer to `to`."
        }
      },
      "renounceOwnership()": {
        "details": "Leaves the contract without owner. It will not be possible to call `onlyOwner` functions anymore. Can only be called by the current owner.     * > Note: Renouncing ownership will leave the contract without an owner, thereby removing any functionality that is only available to the owner."
      },
      "transferOwnership(address)": {
        "details": "Transfers ownership of the contract to a new account (`newOwner`). Can only be called by the current owner."
      }
    }
  },
  "userdoc": {
    "methods": {}
  }
}