{
  "contractName": "StrategyWithdrawMinimizeTrading",
  "abi": [
    {
      "inputs": [
        {
          "internalType": "contract IUniswapV2Router02",
          "name": "_router",
          "type": "address"
        }
      ],
      "payable": false,
      "stateMutability": "nonpayable",
      "type": "constructor"
    },
    {
      "anonymous": false,
      "inputs": [
        {
          "indexed": true,
          "internalType": "address",
          "name": "previousOwner",
          "type": "address"
        },
        {
          "indexed": true,
          "internalType": "address",
          "name": "newOwner",
          "type": "address"
        }
      ],
      "name": "OwnershipTransferred",
      "type": "event"
    },
    {
      "payable": true,
      "stateMutability": "payable",
      "type": "fallback"
    },
    {
      "constant": true,
      "inputs": [],
      "name": "factory",
      "outputs": [
        {
          "internalType": "contract IUniswapV2Factory",
          "name": "",
          "type": "address"
        }
      ],
      "payable": false,
      "stateMutability": "view",
      "type": "function"
    },
    {
      "constant": true,
      "inputs": [],
      "name": "isOwner",
      "outputs": [
        {
          "internalType": "bool",
          "name": "",
          "type": "bool"
        }
      ],
      "payable": false,
      "stateMutability": "view",
      "type": "function"
    },
    {
      "constant": true,
      "inputs": [],
      "name": "owner",
      "outputs": [
        {
          "internalType": "address",
          "name": "",
          "type": "address"
        }
      ],
      "payable": false,
      "stateMutability": "view",
      "type": "function"
    },
    {
      "constant": false,
      "inputs": [],
      "name": "renounceOwnership",
      "outputs": [],
      "payable": false,
      "stateMutability": "nonpayable",
      "type": "function"
    },
    {
      "constant": true,
      "inputs": [],
      "name": "router",
      "outputs": [
        {
          "internalType": "contract IUniswapV2Router02",
          "name": "",
          "type": "address"
        }
      ],
      "payable": false,
      "stateMutability": "view",
      "type": "function"
    },
    {
      "constant": false,
      "inputs": [
        {
          "internalType": "address",
          "name": "newOwner",
          "type": "address"
        }
      ],
      "name": "transferOwnership",
      "outputs": [],
      "payable": false,
      "stateMutability": "nonpayable",
      "type": "function"
    },
    {
      "constant": true,
      "inputs": [],
      "name": "weth",
      "outputs": [
        {
          "internalType": "address",
          "name": "",
          "type": "address"
        }
      ],
      "payable": false,
      "stateMutability": "view",
      "type": "function"
    },
    {
      "constant": false,
      "inputs": [
        {
          "internalType": "address",
          "name": "user",
          "type": "address"
        },
        {
          "internalType": "uint256",
          "name": "debt",
          "type": "uint256"
        },
        {
          "internalType": "bytes",
          "name": "data",
          "type": "bytes"
        }
      ],
      "name": "execute",
      "outputs": [],
      "payable": true,
      "stateMutability": "payable",
      "type": "function"
    },
    {
      "constant": false,
      "inputs": [
        {
          "internalType": "address",
          "name": "token",
          "type": "address"
        },
        {
          "internalType": "address",
          "name": "to",
          "type": "address"
        },
        {
          "internalType": "uint256",
          "name": "value",
          "type": "uint256"
        }
      ],
      "name": "recover",
      "outputs": [],
      "payable": false,
      "stateMutability": "nonpayable",
      "type": "function"
    }
  ],
  "bytecode": "0x608060405234801561001057600080fd5b506040516115d03803806115d08339818101604052602081101561003357600080fd5b5051600080546001600160a01b03191633178082556040516001600160a01b039190911691907f8be0079c531659141344cd1fd0a4f28419497f9722a3daafe3b4186f6b6457e0908290a360018081905550806001600160a01b031663c45a01556040518163ffffffff1660e01b815260040160206040518083038186803b1580156100be57600080fd5b505afa1580156100d2573d6000803e3d6000fd5b505050506040513d60208110156100e857600080fd5b5051600280546001600160a01b039283166001600160a01b031991821617909155600380549284169290911682179055604080516315ab88c960e31b8152905163ad5c464891600480820192602092909190829003018186803b15801561014e57600080fd5b505afa158015610162573d6000803e3d6000fd5b505050506040513d602081101561017857600080fd5b5051600480546001600160a01b0319166001600160a01b0390921691909117905550611427806101a96000396000f3fe6080604052600436106100965760003560e01c80638f32d59b11610069578063c45a01551161004e578063c45a01551461020b578063f2fde38b14610220578063f887ea401461026057610096565b80638f32d59b14610150578063b61d27f61461017957610096565b80631ec82cb8146100985780633fc8cef3146100e8578063715018a6146101265780638da5cb5b1461013b575b005b3480156100a457600080fd5b50610096600480360360608110156100bb57600080fd5b5073ffffffffffffffffffffffffffffffffffffffff813581169160208101359091169060400135610275565b3480156100f457600080fd5b506100fd61038f565b6040805173ffffffffffffffffffffffffffffffffffffffff9092168252519081900360200190f35b34801561013257600080fd5b506100966103ab565b34801561014757600080fd5b506100fd61048d565b34801561015c57600080fd5b506101656104a9565b604080519115158252519081900360200190f35b6100966004803603606081101561018f57600080fd5b73ffffffffffffffffffffffffffffffffffffffff823516916020810135918101906060810160408201356401000000008111156101cc57600080fd5b8201836020820111156101de57600080fd5b8035906020019184600183028401116401000000008311171561020057600080fd5b5090925090506104c7565b34801561021757600080fd5b506100fd610be0565b34801561022c57600080fd5b506100966004803603602081101561024357600080fd5b503573ffffffffffffffffffffffffffffffffffffffff16610bfc565b34801561026c57600080fd5b506100fd610c7b565b61027d6104a9565b6102e857604080517f08c379a000000000000000000000000000000000000000000000000000000000815260206004820181905260248201527f4f776e61626c653a2063616c6c6572206973206e6f7420746865206f776e6572604482015290519081900360640190fd5b6001805481019081905561031973ffffffffffffffffffffffffffffffffffffffff8516848463ffffffff610c9716565b600154811461038957604080517f08c379a000000000000000000000000000000000000000000000000000000000815260206004820152601f60248201527f5265656e7472616e637947756172643a207265656e7472616e742063616c6c00604482015290519081900360640190fd5b50505050565b60045473ffffffffffffffffffffffffffffffffffffffff1681565b6103b36104a9565b61041e57604080517f08c379a000000000000000000000000000000000000000000000000000000000815260206004820181905260248201527f4f776e61626c653a2063616c6c6572206973206e6f7420746865206f776e6572604482015290519081900360640190fd5b6000805460405173ffffffffffffffffffffffffffffffffffffffff909116907f8be0079c531659141344cd1fd0a4f28419497f9722a3daafe3b4186f6b6457e0908390a3600080547fffffffffffffffffffffffff0000000000000000000000000000000000000000169055565b60005473ffffffffffffffffffffffffffffffffffffffff1690565b60005473ffffffffffffffffffffffffffffffffffffffff16331490565b60018054810190819055600080848460408110156104e457600080fd5b5060025460048054604080517fe6a4390500000000000000000000000000000000000000000000000000000000815273ffffffffffffffffffffffffffffffffffffffff86358116948201859052928316602482015290519296506020948501359550600094939091169263e6a4390592604480840193829003018186803b15801561056f57600080fd5b505afa158015610583573d6000803e3d6000fd5b505050506040513d602081101561059957600080fd5b5051600354604080517f095ea7b300000000000000000000000000000000000000000000000000000000815273ffffffffffffffffffffffffffffffffffffffff92831660048201527fffffffffffffffffffffffffffffffffffffffffffffffffffffffffffffffff602482015290519293509083169163095ea7b3916044808201926020929091908290030181600087803b15801561063957600080fd5b505af115801561064d573d6000803e3d6000fd5b505050506040513d602081101561066357600080fd5b5050600354604080517f70a08231000000000000000000000000000000000000000000000000000000008152306004820152905173ffffffffffffffffffffffffffffffffffffffff928316926302751cec928792918616916370a0823191602480820192602092909190829003018186803b1580156106e257600080fd5b505afa1580156106f6573d6000803e3d6000fd5b505050506040513d602081101561070c57600080fd5b5051604080517fffffffff0000000000000000000000000000000000000000000000000000000060e086901b16815273ffffffffffffffffffffffffffffffffffffffff90931660048401526024830191909152600060448301819052606483018190523060848401524260a4840152815160c4808501949192918390030190829087803b15801561079d57600080fd5b505af11580156107b1573d6000803e3d6000fd5b505050506040513d60408110156107c757600080fd5b5050604080516002808252606080830184529260208301908038833901905050905083816000815181106107f757fe5b73ffffffffffffffffffffffffffffffffffffffff928316602091820292909201015260045482519116908290600190811061082f57fe5b73ffffffffffffffffffffffffffffffffffffffff928316602091820292909201015260035461086b918681169116600063ffffffff610e6d16565b6003546108b89073ffffffffffffffffffffffffffffffffffffffff86811691167fffffffffffffffffffffffffffffffffffffffffffffffffffffffffffffffff63ffffffff610e6d16565b4780891115610aae5760006108d38a8363ffffffff61104316565b60035490915073ffffffffffffffffffffffffffffffffffffffff90811690634a25d94a908390610905908a166110ba565b8630426040518663ffffffff1660e01b815260040180868152602001858152602001806020018473ffffffffffffffffffffffffffffffffffffffff1673ffffffffffffffffffffffffffffffffffffffff168152602001838152602001828103825285818151815260200191508051906020019060200280838360005b8381101561099b578181015183820152602001610983565b505050509050019650505050505050600060405180830381600087803b1580156109c457600080fd5b505af11580156109d8573d6000803e3d6000fd5b505050506040513d6000823e601f3d9081017fffffffffffffffffffffffffffffffffffffffffffffffffffffffffffffffe01682016040526020811015610a1f57600080fd5b8101908080516040519392919084640100000000821115610a3f57600080fd5b908301906020820185811115610a5457600080fd5b8251866020820283011164010000000082111715610a7157600080fd5b82525081516020918201928201910280838360005b83811015610a9e578181015183820152602001610a86565b5050505090500160405250505050505b47610ab9338261115c565b6000610ada8773ffffffffffffffffffffffffffffffffffffffff166110ba565b905085811015610b35576040517f08c379a00000000000000000000000000000000000000000000000000000000081526004018080602001828103825260248152602001806113a96024913960400191505060405180910390fd5b8015610b6257610b6273ffffffffffffffffffffffffffffffffffffffff88168d8363ffffffff610c9716565b505050505050506001548114610bd957604080517f08c379a000000000000000000000000000000000000000000000000000000000815260206004820152601f60248201527f5265656e7472616e637947756172643a207265656e7472616e742063616c6c00604482015290519081900360640190fd5b5050505050565b60025473ffffffffffffffffffffffffffffffffffffffff1681565b610c046104a9565b610c6f57604080517f08c379a000000000000000000000000000000000000000000000000000000000815260206004820181905260248201527f4f776e61626c653a2063616c6c6572206973206e6f7420746865206f776e6572604482015290519081900360640190fd5b610c78816112af565b50565b60035473ffffffffffffffffffffffffffffffffffffffff1681565b6040805173ffffffffffffffffffffffffffffffffffffffff8481166024830152604480830185905283518084039091018152606490920183526020820180517bffffffffffffffffffffffffffffffffffffffffffffffffffffffff167fa9059cbb00000000000000000000000000000000000000000000000000000000178152925182516000946060949389169392918291908083835b60208310610d6d57805182527fffffffffffffffffffffffffffffffffffffffffffffffffffffffffffffffe09092019160209182019101610d30565b6001836020036101000a0380198251168184511680821785525050505050509050019150506000604051808303816000865af19150503d8060008114610dcf576040519150601f19603f3d011682016040523d82523d6000602084013e610dd4565b606091505b5091509150818015610e02575080511580610e025750808060200190516020811015610dff57600080fd5b50515b610bd957604080517f08c379a000000000000000000000000000000000000000000000000000000000815260206004820152600d60248201527f21736166655472616e7366657200000000000000000000000000000000000000604482015290519081900360640190fd5b6040805173ffffffffffffffffffffffffffffffffffffffff8481166024830152604480830185905283518084039091018152606490920183526020820180517bffffffffffffffffffffffffffffffffffffffffffffffffffffffff167f095ea7b300000000000000000000000000000000000000000000000000000000178152925182516000946060949389169392918291908083835b60208310610f4357805182527fffffffffffffffffffffffffffffffffffffffffffffffffffffffffffffffe09092019160209182019101610f06565b6001836020036101000a0380198251168184511680821785525050505050509050019150506000604051808303816000865af19150503d8060008114610fa5576040519150601f19603f3d011682016040523d82523d6000602084013e610faa565b606091505b5091509150818015610fd8575080511580610fd85750808060200190516020811015610fd557600080fd5b50515b610bd957604080517f08c379a000000000000000000000000000000000000000000000000000000000815260206004820152600c60248201527f2173616665417070726f76650000000000000000000000000000000000000000604482015290519081900360640190fd5b6000828211156110b457604080517f08c379a000000000000000000000000000000000000000000000000000000000815260206004820152601e60248201527f536166654d6174683a207375627472616374696f6e206f766572666c6f770000604482015290519081900360640190fd5b50900390565b604080517f70a08231000000000000000000000000000000000000000000000000000000008152306004820152905160009173ffffffffffffffffffffffffffffffffffffffff8416916370a0823191602480820192602092909190829003018186803b15801561112a57600080fd5b505afa15801561113e573d6000803e3d6000fd5b505050506040513d602081101561115457600080fd5b505192915050565b6040805160008082526020820190925273ffffffffffffffffffffffffffffffffffffffff84169083906040518082805190602001908083835b602083106111d357805182527fffffffffffffffffffffffffffffffffffffffffffffffffffffffffffffffe09092019160209182019101611196565b6001836020036101000a03801982511681845116808217855250505050505090500191505060006040518083038185875af1925050503d8060008114611235576040519150601f19603f3d011682016040523d82523d6000602084013e61123a565b606091505b50509050806112aa57604080517f08c379a000000000000000000000000000000000000000000000000000000000815260206004820152601060248201527f21736166655472616e7366657245544800000000000000000000000000000000604482015290519081900360640190fd5b505050565b73ffffffffffffffffffffffffffffffffffffffff811661131b576040517f08c379a00000000000000000000000000000000000000000000000000000000081526004018080602001828103825260268152602001806113cd6026913960400191505060405180910390fd5b6000805460405173ffffffffffffffffffffffffffffffffffffffff808516939216917f8be0079c531659141344cd1fd0a4f28419497f9722a3daafe3b4186f6b6457e091a3600080547fffffffffffffffffffffffff00000000000000000000000000000000000000001673ffffffffffffffffffffffffffffffffffffffff9290921691909117905556fe696e73756666696369656e74206661726d696e6720746f6b656e732072656365697665644f776e61626c653a206e6577206f776e657220697320746865207a65726f2061646472657373a265627a7a72315820d15fc961d91a0dc088ab9bbda133d62eb1451771a1e3c1790e403ca39650c3c564736f6c63430005100032",
  "source": "pragma solidity 0.5.16;\nimport 'openzeppelin-solidity-2.3.0/contracts/ownership/Ownable.sol';\nimport 'openzeppelin-solidity-2.3.0/contracts/utils/ReentrancyGuard.sol';\nimport 'openzeppelin-solidity-2.3.0/contracts/math/SafeMath.sol';\nimport '@uniswap/v2-core/contracts/interfaces/IUniswapV2Factory.sol';\nimport '@uniswap/v2-core/contracts/interfaces/IUniswapV2Pair.sol';\nimport './uniswap/IUniswapV2Router02.sol';\nimport './SafeToken.sol';\nimport './Strategy.sol';\n\ncontract StrategyWithdrawMinimizeTrading is Ownable, ReentrancyGuard, Strategy {\n    using SafeToken for address;\n    using SafeMath for uint256;\n\n    IUniswapV2Factory public factory;\n    IUniswapV2Router02 public router;\n    address public weth;\n\n    /// @dev Create a new withdraw minimize trading strategy instance.\n    /// @param _router The Uniswap router smart contract.\n    constructor(IUniswapV2Router02 _router) public {\n        factory = IUniswapV2Factory(_router.factory());\n        router = _router;\n        weth = _router.WETH();\n    }\n\n    /// @dev Execute worker strategy. Take LP tokens + ETH. Return LP tokens + ETH.\n    /// @param user User address to withdraw liquidity.\n    /// @param debt Debt amount in WAD of the user.\n    /// @param data Extra calldata information passed along to this strategy.\n    function execute(address user, uint256 debt, bytes calldata data) external payable nonReentrant {\n        // 1. Find out what farming token we are dealing with.\n        (address fToken, uint256 minFToken) = abi.decode(data, (address, uint256));\n        IUniswapV2Pair lpToken = IUniswapV2Pair(factory.getPair(fToken, weth));\n        // 2. Remove all liquidity back to ETH and farming tokens.\n        lpToken.approve(address(router), uint256(-1));\n        router.removeLiquidityETH(fToken, lpToken.balanceOf(address(this)), 0, 0, address(this), now);\n        // 3. Convert farming tokens to ETH.\n        address[] memory path = new address[](2);\n        path[0] = fToken;\n        path[1] = weth;\n        fToken.safeApprove(address(router), 0);\n        fToken.safeApprove(address(router), uint256(-1));\n        uint256 balance = address(this).balance;\n        if (debt > balance) {\n            // Convert some farming tokens to ETH.\n            uint256 remainingDebt = debt.sub(balance);\n            router.swapTokensForExactETH(remainingDebt, fToken.myBalance(), path, address(this), now);\n        }\n        // 4. Return ETH back to the original caller.\n        uint256 remainingBalance = address(this).balance;\n        SafeToken.safeTransferETH(msg.sender, remainingBalance);\n        // 5. Return remaining farming tokens to user.\n        uint256 remainingFToken = fToken.myBalance();\n        require(remainingFToken >= minFToken, 'insufficient farming tokens received');\n        if (remainingFToken > 0) {\n            fToken.safeTransfer(user, remainingFToken);\n        }\n    }\n\n    /// @dev Recover ERC20 tokens that were accidentally sent to this smart contract.\n    /// @param token The token contract. Can be anything. This contract should not hold ERC20 tokens.\n    /// @param to The address to send the tokens to.\n    /// @param value The number of tokens to transfer to `to`.\n    function recover(address token, address to, uint256 value) external onlyOwner nonReentrant {\n        token.safeTransfer(to, value);\n    }\n\n    function() external payable {}\n}\n",
  "sourcePath": "C:/workspace/Project/projects.spider.miner/alphahomora/contracts/5/StrategyWithdrawMinimizeTrading.sol",
  "compiler": {
    "name": "solc",
    "version": "0.5.16+commit.9c3226ce.Emscripten.clang"
  },
  "schemaVersion": "3.2.5",
  "updatedAt": "2021-01-08T06:13:44.907Z",
  "devdoc": {
    "methods": {
      "constructor": {
        "details": "Create a new withdraw minimize trading strategy instance.",
        "params": {
          "_router": "The Uniswap router smart contract."
        }
      },
      "execute(address,uint256,bytes)": {
        "details": "Execute worker strategy. Take LP tokens + ETH. Return LP tokens + ETH.",
        "params": {
          "data": "Extra calldata information passed along to this strategy.",
          "debt": "Debt amount in WAD of the user.",
          "user": "User address to withdraw liquidity."
        }
      },
      "isOwner()": {
        "details": "Returns true if the caller is the current owner."
      },
      "owner()": {
        "details": "Returns the address of the current owner."
      },
      "recover(address,address,uint256)": {
        "details": "Recover ERC20 tokens that were accidentally sent to this smart contract.",
        "params": {
          "to": "The address to send the tokens to.",
          "token": "The token contract. Can be anything. This contract should not hold ERC20 tokens.",
          "value": "The number of tokens to transfer to `to`."
        }
      },
      "renounceOwnership()": {
        "details": "Leaves the contract without owner. It will not be possible to call `onlyOwner` functions anymore. Can only be called by the current owner.     * > Note: Renouncing ownership will leave the contract without an owner, thereby removing any functionality that is only available to the owner."
      },
      "transferOwnership(address)": {
        "details": "Transfers ownership of the contract to a new account (`newOwner`). Can only be called by the current owner."
      }
    }
  },
  "userdoc": {
    "methods": {}
  }
}