{
  "contractName": "SushiswapPool12Goblin",
  "abi": [
    {
      "inputs": [
        {
          "internalType": "address",
          "name": "_operator",
          "type": "address"
        },
        {
          "internalType": "contract IMasterChef",
          "name": "_masterChef",
          "type": "address"
        },
        {
          "internalType": "contract IUniswapV2Router02",
          "name": "_router",
          "type": "address"
        },
        {
          "internalType": "contract Strategy",
          "name": "_addStrat",
          "type": "address"
        },
        {
          "internalType": "contract Strategy",
          "name": "_liqStrat",
          "type": "address"
        },
        {
          "internalType": "uint256",
          "name": "_reinvestBountyBps",
          "type": "uint256"
        }
      ],
      "payable": false,
      "stateMutability": "nonpayable",
      "type": "constructor"
    },
    {
      "anonymous": false,
      "inputs": [
        {
          "indexed": true,
          "internalType": "uint256",
          "name": "id",
          "type": "uint256"
        },
        {
          "indexed": false,
          "internalType": "uint256",
          "name": "share",
          "type": "uint256"
        }
      ],
      "name": "AddShare",
      "type": "event"
    },
    {
      "anonymous": false,
      "inputs": [
        {
          "indexed": true,
          "internalType": "uint256",
          "name": "id",
          "type": "uint256"
        },
        {
          "indexed": false,
          "internalType": "uint256",
          "name": "wad",
          "type": "uint256"
        }
      ],
      "name": "Liquidate",
      "type": "event"
    },
    {
      "anonymous": false,
      "inputs": [
        {
          "indexed": true,
          "internalType": "address",
          "name": "previousOwner",
          "type": "address"
        },
        {
          "indexed": true,
          "internalType": "address",
          "name": "newOwner",
          "type": "address"
        }
      ],
      "name": "OwnershipTransferred",
      "type": "event"
    },
    {
      "anonymous": false,
      "inputs": [
        {
          "indexed": true,
          "internalType": "address",
          "name": "caller",
          "type": "address"
        },
        {
          "indexed": false,
          "internalType": "uint256",
          "name": "reward",
          "type": "uint256"
        },
        {
          "indexed": false,
          "internalType": "uint256",
          "name": "bounty",
          "type": "uint256"
        }
      ],
      "name": "Reinvest",
      "type": "event"
    },
    {
      "anonymous": false,
      "inputs": [
        {
          "indexed": true,
          "internalType": "uint256",
          "name": "id",
          "type": "uint256"
        },
        {
          "indexed": false,
          "internalType": "uint256",
          "name": "share",
          "type": "uint256"
        }
      ],
      "name": "RemoveShare",
      "type": "event"
    },
    {
      "payable": true,
      "stateMutability": "payable",
      "type": "fallback"
    },
    {
      "constant": true,
      "inputs": [],
      "name": "addStrat",
      "outputs": [
        {
          "internalType": "contract Strategy",
          "name": "",
          "type": "address"
        }
      ],
      "payable": false,
      "stateMutability": "view",
      "type": "function"
    },
    {
      "constant": true,
      "inputs": [],
      "name": "factory",
      "outputs": [
        {
          "internalType": "contract IUniswapV2Factory",
          "name": "",
          "type": "address"
        }
      ],
      "payable": false,
      "stateMutability": "view",
      "type": "function"
    },
    {
      "constant": true,
      "inputs": [],
      "name": "isOwner",
      "outputs": [
        {
          "internalType": "bool",
          "name": "",
          "type": "bool"
        }
      ],
      "payable": false,
      "stateMutability": "view",
      "type": "function"
    },
    {
      "constant": true,
      "inputs": [],
      "name": "liqStrat",
      "outputs": [
        {
          "internalType": "contract Strategy",
          "name": "",
          "type": "address"
        }
      ],
      "payable": false,
      "stateMutability": "view",
      "type": "function"
    },
    {
      "constant": true,
      "inputs": [],
      "name": "lpToken",
      "outputs": [
        {
          "internalType": "contract IUniswapV2Pair",
          "name": "",
          "type": "address"
        }
      ],
      "payable": false,
      "stateMutability": "view",
      "type": "function"
    },
    {
      "constant": true,
      "inputs": [],
      "name": "masterChef",
      "outputs": [
        {
          "internalType": "contract IMasterChef",
          "name": "",
          "type": "address"
        }
      ],
      "payable": false,
      "stateMutability": "view",
      "type": "function"
    },
    {
      "constant": true,
      "inputs": [
        {
          "internalType": "address",
          "name": "",
          "type": "address"
        }
      ],
      "name": "okStrats",
      "outputs": [
        {
          "internalType": "bool",
          "name": "",
          "type": "bool"
        }
      ],
      "payable": false,
      "stateMutability": "view",
      "type": "function"
    },
    {
      "constant": true,
      "inputs": [],
      "name": "operator",
      "outputs": [
        {
          "internalType": "address",
          "name": "",
          "type": "address"
        }
      ],
      "payable": false,
      "stateMutability": "view",
      "type": "function"
    },
    {
      "constant": true,
      "inputs": [],
      "name": "owner",
      "outputs": [
        {
          "internalType": "address",
          "name": "",
          "type": "address"
        }
      ],
      "payable": false,
      "stateMutability": "view",
      "type": "function"
    },
    {
      "constant": true,
      "inputs": [],
      "name": "pid",
      "outputs": [
        {
          "internalType": "uint256",
          "name": "",
          "type": "uint256"
        }
      ],
      "payable": false,
      "stateMutability": "view",
      "type": "function"
    },
    {
      "constant": true,
      "inputs": [],
      "name": "reinvestBountyBps",
      "outputs": [
        {
          "internalType": "uint256",
          "name": "",
          "type": "uint256"
        }
      ],
      "payable": false,
      "stateMutability": "view",
      "type": "function"
    },
    {
      "constant": false,
      "inputs": [],
      "name": "renounceOwnership",
      "outputs": [],
      "payable": false,
      "stateMutability": "nonpayable",
      "type": "function"
    },
    {
      "constant": true,
      "inputs": [],
      "name": "router",
      "outputs": [
        {
          "internalType": "contract IUniswapV2Router02",
          "name": "",
          "type": "address"
        }
      ],
      "payable": false,
      "stateMutability": "view",
      "type": "function"
    },
    {
      "constant": true,
      "inputs": [
        {
          "internalType": "uint256",
          "name": "",
          "type": "uint256"
        }
      ],
      "name": "shares",
      "outputs": [
        {
          "internalType": "uint256",
          "name": "",
          "type": "uint256"
        }
      ],
      "payable": false,
      "stateMutability": "view",
      "type": "function"
    },
    {
      "constant": true,
      "inputs": [],
      "name": "sushi",
      "outputs": [
        {
          "internalType": "address",
          "name": "",
          "type": "address"
        }
      ],
      "payable": false,
      "stateMutability": "view",
      "type": "function"
    },
    {
      "constant": true,
      "inputs": [],
      "name": "totalShare",
      "outputs": [
        {
          "internalType": "uint256",
          "name": "",
          "type": "uint256"
        }
      ],
      "payable": false,
      "stateMutability": "view",
      "type": "function"
    },
    {
      "constant": false,
      "inputs": [
        {
          "internalType": "address",
          "name": "newOwner",
          "type": "address"
        }
      ],
      "name": "transferOwnership",
      "outputs": [],
      "payable": false,
      "stateMutability": "nonpayable",
      "type": "function"
    },
    {
      "constant": true,
      "inputs": [],
      "name": "weth",
      "outputs": [
        {
          "internalType": "address",
          "name": "",
          "type": "address"
        }
      ],
      "payable": false,
      "stateMutability": "view",
      "type": "function"
    },
    {
      "constant": true,
      "inputs": [
        {
          "internalType": "uint256",
          "name": "share",
          "type": "uint256"
        }
      ],
      "name": "shareToBalance",
      "outputs": [
        {
          "internalType": "uint256",
          "name": "",
          "type": "uint256"
        }
      ],
      "payable": false,
      "stateMutability": "view",
      "type": "function"
    },
    {
      "constant": true,
      "inputs": [
        {
          "internalType": "uint256",
          "name": "balance",
          "type": "uint256"
        }
      ],
      "name": "balanceToShare",
      "outputs": [
        {
          "internalType": "uint256",
          "name": "",
          "type": "uint256"
        }
      ],
      "payable": false,
      "stateMutability": "view",
      "type": "function"
    },
    {
      "constant": false,
      "inputs": [],
      "name": "reinvest",
      "outputs": [],
      "payable": false,
      "stateMutability": "nonpayable",
      "type": "function"
    },
    {
      "constant": false,
      "inputs": [
        {
          "internalType": "uint256",
          "name": "id",
          "type": "uint256"
        },
        {
          "internalType": "address",
          "name": "user",
          "type": "address"
        },
        {
          "internalType": "uint256",
          "name": "debt",
          "type": "uint256"
        },
        {
          "internalType": "bytes",
          "name": "data",
          "type": "bytes"
        }
      ],
      "name": "work",
      "outputs": [],
      "payable": true,
      "stateMutability": "payable",
      "type": "function"
    },
    {
      "constant": true,
      "inputs": [
        {
          "internalType": "uint256",
          "name": "aIn",
          "type": "uint256"
        },
        {
          "internalType": "uint256",
          "name": "rIn",
          "type": "uint256"
        },
        {
          "internalType": "uint256",
          "name": "rOut",
          "type": "uint256"
        }
      ],
      "name": "getMktSellAmount",
      "outputs": [
        {
          "internalType": "uint256",
          "name": "",
          "type": "uint256"
        }
      ],
      "payable": false,
      "stateMutability": "pure",
      "type": "function"
    },
    {
      "constant": true,
      "inputs": [
        {
          "internalType": "uint256",
          "name": "id",
          "type": "uint256"
        }
      ],
      "name": "health",
      "outputs": [
        {
          "internalType": "uint256",
          "name": "",
          "type": "uint256"
        }
      ],
      "payable": false,
      "stateMutability": "view",
      "type": "function"
    },
    {
      "constant": false,
      "inputs": [
        {
          "internalType": "uint256",
          "name": "id",
          "type": "uint256"
        }
      ],
      "name": "liquidate",
      "outputs": [],
      "payable": false,
      "stateMutability": "nonpayable",
      "type": "function"
    },
    {
      "constant": false,
      "inputs": [
        {
          "internalType": "address",
          "name": "token",
          "type": "address"
        },
        {
          "internalType": "address",
          "name": "to",
          "type": "address"
        },
        {
          "internalType": "uint256",
          "name": "value",
          "type": "uint256"
        }
      ],
      "name": "recover",
      "outputs": [],
      "payable": false,
      "stateMutability": "nonpayable",
      "type": "function"
    },
    {
      "constant": false,
      "inputs": [
        {
          "internalType": "uint256",
          "name": "_reinvestBountyBps",
          "type": "uint256"
        }
      ],
      "name": "setReinvestBountyBps",
      "outputs": [],
      "payable": false,
      "stateMutability": "nonpayable",
      "type": "function"
    },
    {
      "constant": false,
      "inputs": [
        {
          "internalType": "address[]",
          "name": "strats",
          "type": "address[]"
        },
        {
          "internalType": "bool",
          "name": "isOk",
          "type": "bool"
        }
      ],
      "name": "setStrategyOk",
      "outputs": [],
      "payable": false,
      "stateMutability": "nonpayable",
      "type": "function"
    },
    {
      "constant": false,
      "inputs": [
        {
          "internalType": "contract Strategy",
          "name": "_addStrat",
          "type": "address"
        },
        {
          "internalType": "contract Strategy",
          "name": "_liqStrat",
          "type": "address"
        }
      ],
      "name": "setCriticalStrategies",
      "outputs": [],
      "payable": false,
      "stateMutability": "nonpayable",
      "type": "function"
    }
  ],
  "bytecode": "0x60806040523480156200001157600080fd5b506040516200319a3803806200319a833981810160405260c08110156200003757600080fd5b50805160208201516040808401516060850151608086015160a090960151600080546001600160a01b031916331780825594519697959693959294929391926001600160a01b0316917f8be0079c531659141344cd1fd0a4f28419497f9722a3daafe3b4186f6b6457e0908290a36001808190555085600860006101000a8154816001600160a01b0302191690836001600160a01b03160217905550836001600160a01b031663ad5c46486040518163ffffffff1660e01b815260040160206040518083038186803b1580156200010d57600080fd5b505afa15801562000122573d6000803e3d6000fd5b505050506040513d60208110156200013957600080fd5b5051600680546001600160a01b03199081166001600160a01b03938416179091556002805482168884161790556004805490911691861691821781556040805163c45a015560e01b8152905163c45a015592828101926020929190829003018186803b158015620001a957600080fd5b505afa158015620001be573d6000803e3d6000fd5b505050506040513d6020811015620001d557600080fd5b5051600380546001600160a01b0319166001600160a01b0392831617905560025460408051631526fe2760e01b8152600c600482015290516000939290921691631526fe2791602480820192608092909190829003018186803b1580156200023c57600080fd5b505afa15801562000251573d6000803e3d6000fd5b505050506040513d60808110156200026857600080fd5b5051600580546001600160a01b0319166001600160a01b038084169190911790915560025460408051630a08790360e01b81529051939450911691630a08790391600480820192602092909190829003018186803b158015620002ca57600080fd5b505afa158015620002df573d6000803e3d6000fd5b505050506040513d6020811015620002f657600080fd5b5051600780546001600160a01b03199081166001600160a01b0393841617909155600c805482168784161790819055600d805490921686841617825582166000908152600a60209081526040808320805460ff199081166001908117909255945486168452818420805490951617909355600e869055600554835163095ea7b360e01b81528b861660048201526000196024820152935194169363095ea7b393604480820194918390030190829087803b158015620003b457600080fd5b505af1158015620003c9573d6000803e3d6000fd5b505050506040513d6020811015620003e057600080fd5b5050600554600480546040805163095ea7b360e01b81526001600160a01b039283169381019390935260001960248401525192169163095ea7b3916044808201926020929091908290030181600087803b1580156200043e57600080fd5b505af115801562000453573d6000803e3d6000fd5b505050506040513d60208110156200046a57600080fd5b505060045460075462000499916001600160a01b039182169116600019620004a6602090811b6200293117901c565b5050505050505062000607565b604080516001600160a01b038481166024830152604480830185905283518084039091018152606490920183526020820180516001600160e01b031663095ea7b360e01b178152925182516000946060949389169392918291908083835b60208310620005255780518252601f19909201916020918201910162000504565b6001836020036101000a0380198251168184511680821785525050505050509050019150506000604051808303816000865af19150503d806000811462000589576040519150601f19603f3d011682016040523d82523d6000602084013e6200058e565b606091505b5091509150818015620005bf575080511580620005bf5750808060200190516020811015620005bc57600080fd5b50515b62000600576040805162461bcd60e51b815260206004820152600c60248201526b2173616665417070726f766560a01b604482015290519081900360640190fd5b5050505050565b612b8380620006176000396000f3fe6080604052600436106101c25760003560e01c8063715018a6116100f7578063c7aa6ae711610095578063f2fde38b11610064578063f2fde38b1461061b578063f3b8912b1461065b578063f887ea401461069b578063fdb5a03e146106b0576101c2565b8063c7aa6ae71461053c578063d75734c814610551578063e7956f2114610587578063f106845414610606576101c2565b80638da5cb5b116100d15780638da5cb5b146104a15780638f32d59b146104b65780638fa4a940146104df578063c45a015514610527576101c2565b8063715018a614610438578063783b6d601461044d5780638195510514610477576101c2565b806348db8cc411610164578063578993991161013e57806357899399146103cf57806357a858fc146103e45780635fcbd2851461040e5780636191e37b14610423576101c2565b806348db8cc41461030c578063570ca735146103a5578063575a86b2146103ba576101c2565b80631620fbd5116101a05780631620fbd5146102535780631ec82cb81461027d5780633fc8cef3146102cd578063415f1240146102e2576101c2565b8063026c4207146101c45780630a087903146101eb5780631363bdd314610229575b005b3480156101d057600080fd5b506101d96106c5565b60408051918252519081900360200190f35b3480156101f757600080fd5b506102006106cb565b6040805173ffffffffffffffffffffffffffffffffffffffff9092168252519081900360200190f35b34801561023557600080fd5b506101d96004803603602081101561024c57600080fd5b50356106e7565b34801561025f57600080fd5b506101c26004803603602081101561027657600080fd5b50356107cd565b34801561028957600080fd5b506101c2600480360360608110156102a057600080fd5b5073ffffffffffffffffffffffffffffffffffffffff813581169160208101359091169060400135610845565b3480156102d957600080fd5b5061020061095f565b3480156102ee57600080fd5b506101c26004803603602081101561030557600080fd5b503561097b565b6101c26004803603608081101561032257600080fd5b81359173ffffffffffffffffffffffffffffffffffffffff602082013516916040820135919081019060808101606082013564010000000081111561036657600080fd5b82018360208201111561037857600080fd5b8035906020019184600183028401116401000000008311171561039a57600080fd5b509092509050610d3e565b3480156103b157600080fd5b506102006111fc565b3480156103c657600080fd5b50610200611218565b3480156103db57600080fd5b50610200611234565b3480156103f057600080fd5b506101d96004803603602081101561040757600080fd5b5035611250565b34801561041a57600080fd5b50610200611262565b34801561042f57600080fd5b5061020061127e565b34801561044457600080fd5b506101c261129a565b34801561045957600080fd5b506101d96004803603602081101561047057600080fd5b503561137c565b34801561048357600080fd5b506101d96004803603602081101561049a57600080fd5b503561162b565b3480156104ad57600080fd5b506102006116f9565b3480156104c257600080fd5b506104cb611715565b604080519115158252519081900360200190f35b3480156104eb57600080fd5b506101c26004803603604081101561050257600080fd5b5073ffffffffffffffffffffffffffffffffffffffff81358116916020013516611733565b34801561053357600080fd5b506102006117f9565b34801561054857600080fd5b506101d9611815565b34801561055d57600080fd5b506101d96004803603606081101561057457600080fd5b508035906020810135906040013561181b565b34801561059357600080fd5b506101c2600480360360408110156105aa57600080fd5b8101906020810181356401000000008111156105c557600080fd5b8201836020820111156105d757600080fd5b803590602001918460208302840111640100000000831117156105f957600080fd5b9193509150351515611900565b34801561061257600080fd5b506101d96119fb565b34801561062757600080fd5b506101c26004803603602081101561063e57600080fd5b503573ffffffffffffffffffffffffffffffffffffffff16611a00565b34801561066757600080fd5b506104cb6004803603602081101561067e57600080fd5b503573ffffffffffffffffffffffffffffffffffffffff16611a7f565b3480156106a757600080fd5b50610200611a94565b3480156106bc57600080fd5b506101c2611ab0565b600b5481565b60075473ffffffffffffffffffffffffffffffffffffffff1681565b6000600b54600014156106fb5750806107c8565b600254604080517f93f1a40b000000000000000000000000000000000000000000000000000000008152600c6004820152306024820152815160009373ffffffffffffffffffffffffffffffffffffffff16926393f1a40b9260448082019391829003018186803b15801561076f57600080fd5b505afa158015610783573d6000803e3d6000fd5b505050506040513d604081101561079957600080fd5b5051600b549091506107c49082906107b890869063ffffffff611f9616565b9063ffffffff61201216565b9150505b919050565b6107d5611715565b61084057604080517f08c379a000000000000000000000000000000000000000000000000000000000815260206004820181905260248201527f4f776e61626c653a2063616c6c6572206973206e6f7420746865206f776e6572604482015290519081900360640190fd5b600e55565b61084d611715565b6108b857604080517f08c379a000000000000000000000000000000000000000000000000000000000815260206004820181905260248201527f4f776e61626c653a2063616c6c6572206973206e6f7420746865206f776e6572604482015290519081900360640190fd5b600180548101908190556108e973ffffffffffffffffffffffffffffffffffffffff8516848463ffffffff61209616565b600154811461095957604080517f08c379a000000000000000000000000000000000000000000000000000000000815260206004820152601f60248201527f5265656e7472616e637947756172643a207265656e7472616e742063616c6c00604482015290519081900360640190fd5b50505050565b60065473ffffffffffffffffffffffffffffffffffffffff1681565b60085473ffffffffffffffffffffffffffffffffffffffff163314610a0157604080517f08c379a000000000000000000000000000000000000000000000000000000000815260206004820152600c60248201527f6e6f74206f70657261746f720000000000000000000000000000000000000000604482015290519081900360640190fd5b60018054810190819055610a148261226c565b600554600d54604080517f70a08231000000000000000000000000000000000000000000000000000000008152306004820152905173ffffffffffffffffffffffffffffffffffffffff9384169363a9059cbb93169184916370a0823191602480820192602092909190829003018186803b158015610a9257600080fd5b505afa158015610aa6573d6000803e3d6000fd5b505050506040513d6020811015610abc57600080fd5b5051604080517fffffffff0000000000000000000000000000000000000000000000000000000060e086901b16815273ffffffffffffffffffffffffffffffffffffffff909316600484015260248301919091525160448083019260209291908290030181600087803b158015610b3257600080fd5b505af1158015610b46573d6000803e3d6000fd5b505050506040513d6020811015610b5c57600080fd5b5050600d546007546040805173ffffffffffffffffffffffffffffffffffffffff92831660208281019190915260008284018190528351808403850181526060808501958690527fb61d27f600000000000000000000000000000000000000000000000000000000909552606484018281526084850183905260a48501958652815160c48601528151969097169663b61d27f6969295869592949193909260e40191850190808383895b83811015610c1e578181015183820152602001610c06565b50505050905090810190601f168015610c4b5780820380516001836020036101000a031916815260200191505b50945050505050600060405180830381600087803b158015610c6c57600080fd5b505af1158015610c80573d6000803e3d6000fd5b505050506000479050610c933382612384565b60408051828152905184917f253e5385159062a101837d58c10ad4694c58979ebc3ba6b5cb2cbba2fe461692919081900360200190a2506001548114610d3a57604080517f08c379a000000000000000000000000000000000000000000000000000000000815260206004820152601f60248201527f5265656e7472616e637947756172643a207265656e7472616e742063616c6c00604482015290519081900360640190fd5b5050565b60085473ffffffffffffffffffffffffffffffffffffffff163314610dc457604080517f08c379a000000000000000000000000000000000000000000000000000000000815260206004820152600c60248201527f6e6f74206f70657261746f720000000000000000000000000000000000000000604482015290519081900360640190fd5b60018054810190819055610dd78661226c565b6000606084846040811015610deb57600080fd5b73ffffffffffffffffffffffffffffffffffffffff8235169190810190604081016020820135640100000000811115610e2357600080fd5b820183602082011115610e3557600080fd5b80359060200191846001830284011164010000000083111715610e5757600080fd5b91908080601f016020809104026020016040519081016040528093929190818152602001838380828437600092018290525073ffffffffffffffffffffffffffffffffffffffff89168152600a60205260409020549799509297505060ff9095169450610f2a935050505057604080517f08c379a000000000000000000000000000000000000000000000000000000000815260206004820152601860248201527f756e617070726f76656420776f726b2073747261746567790000000000000000604482015290519081900360640190fd5b600554604080517f70a08231000000000000000000000000000000000000000000000000000000008152306004820152905173ffffffffffffffffffffffffffffffffffffffff9092169163a9059cbb91859184916370a08231916024808301926020929190829003018186803b158015610fa457600080fd5b505afa158015610fb8573d6000803e3d6000fd5b505050506040513d6020811015610fce57600080fd5b5051604080517fffffffff0000000000000000000000000000000000000000000000000000000060e086901b16815273ffffffffffffffffffffffffffffffffffffffff909316600484015260248301919091525160448083019260209291908290030181600087803b15801561104457600080fd5b505af1158015611058573d6000803e3d6000fd5b505050506040513d602081101561106e57600080fd5b50506040517fb61d27f600000000000000000000000000000000000000000000000000000000815273ffffffffffffffffffffffffffffffffffffffff88811660048301908152602483018990526060604484019081528451606485015284519286169363b61d27f69334938d938d938993608490910190602085019080838360005b838110156111095781810151838201526020016110f1565b50505050905090810190601f1680156111365780820380516001836020036101000a031916815260200191505b509450505050506000604051808303818588803b15801561115657600080fd5b505af115801561116a573d6000803e3d6000fd5b5050505050611178886124d7565b6111823347612384565b505060015481146111f457604080517f08c379a000000000000000000000000000000000000000000000000000000000815260206004820152601f60248201527f5265656e7472616e637947756172643a207265656e7472616e742063616c6c00604482015290519081900360640190fd5b505050505050565b60085473ffffffffffffffffffffffffffffffffffffffff1681565b60025473ffffffffffffffffffffffffffffffffffffffff1681565b600c5473ffffffffffffffffffffffffffffffffffffffff1681565b60096020526000908152604090205481565b60055473ffffffffffffffffffffffffffffffffffffffff1681565b600d5473ffffffffffffffffffffffffffffffffffffffff1681565b6112a2611715565b61130d57604080517f08c379a000000000000000000000000000000000000000000000000000000000815260206004820181905260248201527f4f776e61626c653a2063616c6c6572206973206e6f7420746865206f776e6572604482015290519081900360640190fd5b6000805460405173ffffffffffffffffffffffffffffffffffffffff909116907f8be0079c531659141344cd1fd0a4f28419497f9722a3daafe3b4186f6b6457e0908390a3600080547fffffffffffffffffffffffff0000000000000000000000000000000000000000169055565b60008181526009602052604081205481906113969061162b565b90506000600560009054906101000a900473ffffffffffffffffffffffffffffffffffffffff1673ffffffffffffffffffffffffffffffffffffffff166318160ddd6040518163ffffffff1660e01b815260040160206040518083038186803b15801561140257600080fd5b505afa158015611416573d6000803e3d6000fd5b505050506040513d602081101561142c57600080fd5b5051600554604080517f0902f1ac0000000000000000000000000000000000000000000000000000000081529051929350600092839273ffffffffffffffffffffffffffffffffffffffff1691630902f1ac916004808301926060929190829003018186803b15801561149e57600080fd5b505afa1580156114b2573d6000803e3d6000fd5b505050506040513d60608110156114c857600080fd5b508051602091820151600654600554604080517f0dfe168100000000000000000000000000000000000000000000000000000000815290516dffffffffffffffffffffffffffff9586169850949093169550600094859473ffffffffffffffffffffffffffffffffffffffff938416949390921692630dfe16819260048083019392829003018186803b15801561155e57600080fd5b505afa158015611572573d6000803e3d6000fd5b505050506040513d602081101561158857600080fd5b505173ffffffffffffffffffffffffffffffffffffffff16146115ac5782846115af565b83835b909250905060006115ca866107b8898663ffffffff611f9616565b905060006115e2876107b88a8663ffffffff611f9616565b905061161d82611611836115fc878263ffffffff61269b16565b61160c898863ffffffff61269b16565b61181b565b9063ffffffff61271216565b9a9950505050505050505050565b6000600b546000141561163f5750806107c8565b600254604080517f93f1a40b000000000000000000000000000000000000000000000000000000008152600c6004820152306024820152815160009373ffffffffffffffffffffffffffffffffffffffff16926393f1a40b9260448082019391829003018186803b1580156116b357600080fd5b505afa1580156116c7573d6000803e3d6000fd5b505050506040513d60408110156116dd57600080fd5b5051600b549091506107c4906107b8858463ffffffff611f9616565b60005473ffffffffffffffffffffffffffffffffffffffff1690565b60005473ffffffffffffffffffffffffffffffffffffffff16331490565b61173b611715565b6117a657604080517f08c379a000000000000000000000000000000000000000000000000000000000815260206004820181905260248201527f4f776e61626c653a2063616c6c6572206973206e6f7420746865206f776e6572604482015290519081900360640190fd5b600c805473ffffffffffffffffffffffffffffffffffffffff9384167fffffffffffffffffffffffff000000000000000000000000000000000000000091821617909155600d8054929093169116179055565b60035473ffffffffffffffffffffffffffffffffffffffff1681565b600e5481565b60008361182a575060006118f9565b60008311801561183a5750600082115b6118a557604080517f08c379a000000000000000000000000000000000000000000000000000000000815260206004820152601260248201527f62616420726573657276652076616c7565730000000000000000000000000000604482015290519081900360640190fd5b60006118b9856103e563ffffffff611f9616565b905060006118cd828563ffffffff611f9616565b905060006118e783611611886103e863ffffffff611f9616565b90508082816118f257fe5b0493505050505b9392505050565b611908611715565b61197357604080517f08c379a000000000000000000000000000000000000000000000000000000000815260206004820181905260248201527f4f776e61626c653a2063616c6c6572206973206e6f7420746865206f776e6572604482015290519081900360640190fd5b8160005b818110156119f45782600a600087878581811061199057fe5b6020908102929092013573ffffffffffffffffffffffffffffffffffffffff1683525081019190915260400160002080547fffffffffffffffffffffffffffffffffffffffffffffffffffffffffffffff0016911515919091179055600101611977565b5050505050565b600c81565b611a08611715565b611a7357604080517f08c379a000000000000000000000000000000000000000000000000000000000815260206004820181905260248201527f4f776e61626c653a2063616c6c6572206973206e6f7420746865206f776e6572604482015290519081900360640190fd5b611a7c81612786565b50565b600a6020526000908152604090205460ff1681565b60045473ffffffffffffffffffffffffffffffffffffffff1681565b333214611b1e57604080517f08c379a000000000000000000000000000000000000000000000000000000000815260206004820152600760248201527f6e6f7420656f6100000000000000000000000000000000000000000000000000604482015290519081900360640190fd5b60018054810190819055600254604080517f441a3e70000000000000000000000000000000000000000000000000000000008152600c6004820152600060248201819052915173ffffffffffffffffffffffffffffffffffffffff9093169263441a3e709260448084019391929182900301818387803b158015611ba157600080fd5b505af1158015611bb5573d6000803e3d6000fd5b505060075460009250611be5915073ffffffffffffffffffffffffffffffffffffffff163063ffffffff61287f16565b905080611bf25750611f26565b6000612710611c0c600e5484611f9690919063ffffffff16565b81611c1357fe5b6007549190049150611c429073ffffffffffffffffffffffffffffffffffffffff16338363ffffffff61209616565b600c54611c959073ffffffffffffffffffffffffffffffffffffffff16611c6f848463ffffffff61269b16565b60075473ffffffffffffffffffffffffffffffffffffffff16919063ffffffff61209616565b600c546007546040805173ffffffffffffffffffffffffffffffffffffffff9283166020808301919091526000828401819052606080840182905284518085038201815260808501958690527fb61d27f600000000000000000000000000000000000000000000000000000000909552306084850181815260a4860184905260c48601928352865160e48701528651979098169763b61d27f6979196939593949093610104019190850190808383895b83811015611d5d578181015183820152602001611d45565b50505050905090810190601f168015611d8a5780820380516001836020036101000a031916815260200191505b50945050505050600060405180830381600087803b158015611dab57600080fd5b505af1158015611dbf573d6000803e3d6000fd5b5050600254600554604080517f70a08231000000000000000000000000000000000000000000000000000000008152306004820152905173ffffffffffffffffffffffffffffffffffffffff938416955063e2bbb1589450600c93909216916370a0823191602480820192602092909190829003018186803b158015611e4457600080fd5b505afa158015611e58573d6000803e3d6000fd5b505050506040513d6020811015611e6e57600080fd5b5051604080517fffffffff0000000000000000000000000000000000000000000000000000000060e086901b1681526004810193909352602483019190915251604480830192600092919082900301818387803b158015611ece57600080fd5b505af1158015611ee2573d6000803e3d6000fd5b5050604080518581526020810185905281513394507fc003f45bc224d116b6d079100d4ab57a5b9633244c47a5a92a176c5b79a85f2893509081900390910190a250505b6001548114611a7c57604080517f08c379a000000000000000000000000000000000000000000000000000000000815260206004820152601f60248201527f5265656e7472616e637947756172643a207265656e7472616e742063616c6c00604482015290519081900360640190fd5b600082611fa55750600061200c565b82820282848281611fb257fe5b0414612009576040517f08c379a0000000000000000000000000000000000000000000000000000000008152600401808060200182810382526021815260200180612b2e6021913960400191505060405180910390fd5b90505b92915050565b600080821161208257604080517f08c379a000000000000000000000000000000000000000000000000000000000815260206004820152601a60248201527f536166654d6174683a206469766973696f6e206279207a65726f000000000000604482015290519081900360640190fd5b600082848161208d57fe5b04949350505050565b6040805173ffffffffffffffffffffffffffffffffffffffff8481166024830152604480830185905283518084039091018152606490920183526020820180517bffffffffffffffffffffffffffffffffffffffffffffffffffffffff167fa9059cbb00000000000000000000000000000000000000000000000000000000178152925182516000946060949389169392918291908083835b6020831061216c57805182527fffffffffffffffffffffffffffffffffffffffffffffffffffffffffffffffe0909201916020918201910161212f565b6001836020036101000a0380198251168184511680821785525050505050509050019150506000604051808303816000865af19150503d80600081146121ce576040519150601f19603f3d011682016040523d82523d6000602084013e6121d3565b606091505b509150915081801561220157508051158061220157508080602001905160208110156121fe57600080fd5b50515b6119f457604080517f08c379a000000000000000000000000000000000000000000000000000000000815260206004820152600d60248201527f21736166655472616e7366657200000000000000000000000000000000000000604482015290519081900360640190fd5b6000818152600960205260409020548015610d3a57600061228c8261162b565b600254604080517f441a3e70000000000000000000000000000000000000000000000000000000008152600c600482015260248101849052905192935073ffffffffffffffffffffffffffffffffffffffff9091169163441a3e709160448082019260009290919082900301818387803b15801561230957600080fd5b505af115801561231d573d6000803e3d6000fd5b5050600b54612335925090508363ffffffff61269b16565b600b556000838152600960209081526040808320929092558151848152915185927fca07b1e9ff462c1feca0fa258869d03f3657c3a02eaceed810db4f58848856dc92908290030190a2505050565b6040805160008082526020820190925273ffffffffffffffffffffffffffffffffffffffff84169083906040518082805190602001908083835b602083106123fb57805182527fffffffffffffffffffffffffffffffffffffffffffffffffffffffffffffffe090920191602091820191016123be565b6001836020036101000a03801982511681845116808217855250505050505090500191505060006040518083038185875af1925050503d806000811461245d576040519150601f19603f3d011682016040523d82523d6000602084013e612462565b606091505b50509050806124d257604080517f08c379a000000000000000000000000000000000000000000000000000000000815260206004820152601060248201527f21736166655472616e7366657245544800000000000000000000000000000000604482015290519081900360640190fd5b505050565b600554604080517f70a08231000000000000000000000000000000000000000000000000000000008152306004820152905160009273ffffffffffffffffffffffffffffffffffffffff16916370a08231916024808301926020929190829003018186803b15801561254857600080fd5b505afa15801561255c573d6000803e3d6000fd5b505050506040513d602081101561257257600080fd5b505190508015610d3a576000612587826106e7565b600254604080517fe2bbb158000000000000000000000000000000000000000000000000000000008152600c600482015260248101869052905192935073ffffffffffffffffffffffffffffffffffffffff9091169163e2bbb1589160448082019260009290919082900301818387803b15801561260457600080fd5b505af1158015612618573d6000803e3d6000fd5b50505060008481526009602052604090205461263b91508263ffffffff61271216565b600084815260096020526040902055600b5461265d908263ffffffff61271216565b600b5560408051828152905184917fdbdb2d65c9e75a246e9a50307e793774f5ad8d986766a102b8a0eacb58208da2919081900360200190a2505050565b60008282111561270c57604080517f08c379a000000000000000000000000000000000000000000000000000000000815260206004820152601e60248201527f536166654d6174683a207375627472616374696f6e206f766572666c6f770000604482015290519081900360640190fd5b50900390565b60008282018381101561200957604080517f08c379a000000000000000000000000000000000000000000000000000000000815260206004820152601b60248201527f536166654d6174683a206164646974696f6e206f766572666c6f770000000000604482015290519081900360640190fd5b73ffffffffffffffffffffffffffffffffffffffff81166127f2576040517f08c379a0000000000000000000000000000000000000000000000000000000008152600401808060200182810382526026815260200180612b086026913960400191505060405180910390fd5b6000805460405173ffffffffffffffffffffffffffffffffffffffff808516939216917f8be0079c531659141344cd1fd0a4f28419497f9722a3daafe3b4186f6b6457e091a3600080547fffffffffffffffffffffffff00000000000000000000000000000000000000001673ffffffffffffffffffffffffffffffffffffffff92909216919091179055565b60008273ffffffffffffffffffffffffffffffffffffffff166370a08231836040518263ffffffff1660e01b8152600401808273ffffffffffffffffffffffffffffffffffffffff1673ffffffffffffffffffffffffffffffffffffffff16815260200191505060206040518083038186803b1580156128fe57600080fd5b505afa158015612912573d6000803e3d6000fd5b505050506040513d602081101561292857600080fd5b50519392505050565b6040805173ffffffffffffffffffffffffffffffffffffffff8481166024830152604480830185905283518084039091018152606490920183526020820180517bffffffffffffffffffffffffffffffffffffffffffffffffffffffff167f095ea7b300000000000000000000000000000000000000000000000000000000178152925182516000946060949389169392918291908083835b60208310612a0757805182527fffffffffffffffffffffffffffffffffffffffffffffffffffffffffffffffe090920191602091820191016129ca565b6001836020036101000a0380198251168184511680821785525050505050509050019150506000604051808303816000865af19150503d8060008114612a69576040519150601f19603f3d011682016040523d82523d6000602084013e612a6e565b606091505b5091509150818015612a9c575080511580612a9c5750808060200190516020811015612a9957600080fd5b50515b6119f457604080517f08c379a000000000000000000000000000000000000000000000000000000000815260206004820152600c60248201527f2173616665417070726f76650000000000000000000000000000000000000000604482015290519081900360640190fdfe4f776e61626c653a206e6577206f776e657220697320746865207a65726f2061646472657373536166654d6174683a206d756c7469706c69636174696f6e206f766572666c6f77a265627a7a72315820c70c48b350418ab01a6a72009806e8e6441441cd4d3151c859607c70b4e2f6b364736f6c63430005100032",
  "source": "pragma solidity 0.5.16;\nimport \"openzeppelin-solidity-2.3.0/contracts/ownership/Ownable.sol\";\nimport \"openzeppelin-solidity-2.3.0/contracts/math/SafeMath.sol\";\nimport \"openzeppelin-solidity-2.3.0/contracts/utils/ReentrancyGuard.sol\";\nimport \"openzeppelin-solidity-2.3.0/contracts/token/ERC20/IERC20.sol\";\nimport \"@uniswap/v2-core/contracts/interfaces/IUniswapV2Factory.sol\";\nimport \"@uniswap/v2-core/contracts/interfaces/IUniswapV2Pair.sol\";\nimport \"@uniswap/v2-core/contracts/libraries/Math.sol\";\nimport \"./uniswap/IUniswapV2Router02.sol\";\nimport \"./Strategy.sol\";\nimport \"./SafeToken.sol\";\nimport \"./Goblin.sol\";\nimport \"./interfaces/IMasterChef.sol\";\n\n// SushiswapPool12Goblin is specific for SUSHI-ETH pool in Sushiswap.\n// In this case, fToken = SUSHI and pid = 12.\ncontract SushiswapPool12Goblin is Ownable, ReentrancyGuard, Goblin {\n    /// @notice Libraries\n    using SafeToken for address;\n    using SafeMath for uint256;\n\n    /// @notice Events\n    event Reinvest(address indexed caller, uint256 reward, uint256 bounty);\n    event AddShare(uint256 indexed id, uint256 share);\n    event RemoveShare(uint256 indexed id, uint256 share);\n    event Liquidate(uint256 indexed id, uint256 wad);\n\n    /// @notice Immutable variables\n    IMasterChef public masterChef;\n    IUniswapV2Factory public factory;\n    IUniswapV2Router02 public router;\n    IUniswapV2Pair public lpToken;\n    address public weth;    \n    address public sushi;\n    address public operator;\n    uint256 public constant pid = 12;\n\n    /// @notice Mutable state variables\n    mapping(uint256 => uint256) public shares;\n    mapping(address => bool) public okStrats;\n    uint256 public totalShare;\n    Strategy public addStrat;\n    Strategy public liqStrat;\n    uint256 public reinvestBountyBps;\n\n    constructor(\n        address _operator,\n        IMasterChef _masterChef,\n        IUniswapV2Router02 _router,        \n        Strategy _addStrat,\n        Strategy _liqStrat,\n        uint256 _reinvestBountyBps\n    ) public {\n        operator = _operator;\n        weth = _router.WETH();\n        masterChef = _masterChef;\n        router = _router;\n        factory = IUniswapV2Factory(_router.factory());                \n        (IERC20 _lpToken, , , ) = masterChef.poolInfo(pid);\n        lpToken = IUniswapV2Pair(address(_lpToken));     \n        sushi = address(masterChef.sushi());      \n        addStrat = _addStrat;\n        liqStrat = _liqStrat;\n        okStrats[address(addStrat)] = true;\n        okStrats[address(liqStrat)] = true;\n        reinvestBountyBps = _reinvestBountyBps;\n        lpToken.approve(address(_masterChef), uint256(-1)); // 100% trust in the staking pool\n        lpToken.approve(address(router), uint256(-1)); // 100% trust in the router\n        sushi.safeApprove(address(router), uint256(-1)); // 100% trust in the router        \n    }\n\n    /// @dev Require that the caller must be an EOA account to avoid flash loans.\n    modifier onlyEOA() {\n        require(msg.sender == tx.origin, \"not eoa\");\n        _;\n    }\n\n    /// @dev Require that the caller must be the operator (the bank).\n    modifier onlyOperator() {\n        require(msg.sender == operator, \"not operator\");\n        _;\n    }\n\n    /// @dev Return the entitied LP token balance for the given shares.\n    /// @param share The number of shares to be converted to LP balance.\n    function shareToBalance(uint256 share) public view returns (uint256) {\n        if (totalShare == 0) return share; // When there's no share, 1 share = 1 balance.\n        (uint256 totalBalance, ) = masterChef.userInfo(pid, address(this));\n        return share.mul(totalBalance).div(totalShare);\n    }\n\n    /// @dev Return the number of shares to receive if staking the given LP tokens.\n    /// @param balance the number of LP tokens to be converted to shares.\n    function balanceToShare(uint256 balance) public view returns (uint256) {\n        if (totalShare == 0) return balance; // When there's no share, 1 share = 1 balance.\n        (uint256 totalBalance, ) = masterChef.userInfo(pid, address(this));\n        return balance.mul(totalShare).div(totalBalance);\n    }\n\n    /// @dev Re-invest whatever this worker has earned back to staked LP tokens.\n    function reinvest() public onlyEOA nonReentrant {\n        // 1. Withdraw all the rewards.        \n        masterChef.withdraw(pid, 0);\n        uint256 reward = sushi.balanceOf(address(this));        \n        if (reward == 0) return;\n        // 2. Send the reward bounty to the caller.\n        uint256 bounty = reward.mul(reinvestBountyBps) / 10000;        \n        sushi.safeTransfer(msg.sender, bounty);\n        // 3. Use add Two-side optimal strategy to convert sushi to ETH and add \n        // liquidity to get LP tokens.\n        sushi.safeTransfer(address(addStrat), reward.sub(bounty));\n        addStrat.execute(address(this), 0, abi.encode(sushi, 0, 0));\n        // 4. Mint more LP tokens and stake them for more rewards.\n        masterChef.deposit(pid, lpToken.balanceOf(address(this)));\n        emit Reinvest(msg.sender, reward, bounty);\n    }\n\n    /// @dev Work on the given position. Must be called by the operator.\n    /// @param id The position ID to work on.\n    /// @param user The original user that is interacting with the operator.\n    /// @param debt The amount of user debt to help the strategy make decisions.\n    /// @param data The encoded data, consisting of strategy address and calldata.\n    function work(uint256 id, address user, uint256 debt, bytes calldata data) \n        external payable \n        onlyOperator nonReentrant \n    {\n        // 1. Convert this position back to LP tokens.\n        _removeShare(id);\n        // 2. Perform the worker strategy; sending LP tokens + ETH; expecting LP tokens + ETH.\n        (address strat, bytes memory ext) = abi.decode(data, (address, bytes));\n        require(okStrats[strat], \"unapproved work strategy\");\n        lpToken.transfer(strat, lpToken.balanceOf(address(this)));\n        Strategy(strat).execute.value(msg.value)(user, debt, ext);\n        // 3. Add LP tokens back to the farming pool.\n        _addShare(id);\n        // 4. Return any remaining ETH back to the operator.\n        SafeToken.safeTransferETH(msg.sender, address(this).balance);\n    }\n\n    /// @dev Return maximum output given the input amount and the status of Uniswap reserves.\n    /// @param aIn The amount of asset to market sell.\n    /// @param rIn the amount of asset in reserve for input.\n    /// @param rOut The amount of asset in reserve for output.\n    function getMktSellAmount(uint256 aIn, uint256 rIn, uint256 rOut) public pure returns (uint256) {\n        if (aIn == 0) return 0;\n        require(rIn > 0 && rOut > 0, \"bad reserve values\");\n        uint256 aInWithFee = aIn.mul(997);\n        uint256 numerator = aInWithFee.mul(rOut);\n        uint256 denominator = rIn.mul(1000).add(aInWithFee);\n        return numerator / denominator;\n    }\n\n    /// @dev Return the amount of ETH to receive if we are to liquidate the given position.\n    /// @param id The position ID to perform health check.\n    function health(uint256 id) external view returns (uint256) {\n        // 1. Get the position's LP balance and LP total supply.\n        uint256 lpBalance = shareToBalance(shares[id]);\n        uint256 lpSupply = lpToken.totalSupply(); // Ignore pending mintFee as it is insignificant\n        // 2. Get the pool's total supply of WETH and farming token.\n        (uint256 r0, uint256 r1,) = lpToken.getReserves();\n        (uint256 totalWETH, uint256 totalSushi) = lpToken.token0() == weth ? (r0, r1) : (r1, r0);\n        // 3. Convert the position's LP tokens to the underlying assets.\n        uint256 userWETH = lpBalance.mul(totalWETH).div(lpSupply);\n        uint256 userSushi = lpBalance.mul(totalSushi).div(lpSupply);\n        // 4. Convert all farming tokens to ETH and return total ETH.\n        return getMktSellAmount(\n            userSushi, totalSushi.sub(userSushi), totalWETH.sub(userWETH)\n        ).add(userWETH);\n    }\n\n    /// @dev Liquidate the given position by converting it to ETH and return back to caller.\n    /// @param id The position ID to perform liquidation\n    function liquidate(uint256 id) external onlyOperator nonReentrant {\n        // 1. Convert the position back to LP tokens and use liquidate strategy.\n        _removeShare(id);\n        lpToken.transfer(address(liqStrat), lpToken.balanceOf(address(this)));\n        liqStrat.execute(address(0), 0, abi.encode(sushi, 0));\n        // 2. Return all available ETH back to the operator.\n        uint256 wad = address(this).balance;\n        SafeToken.safeTransferETH(msg.sender, wad);\n        emit Liquidate(id, wad);\n    }\n\n    /// @dev Internal function to stake all outstanding LP tokens to the given position ID.\n    function _addShare(uint256 id) internal {\n        uint256 balance = lpToken.balanceOf(address(this));\n\n        if (balance > 0) {\n            uint256 share = balanceToShare(balance);\n            masterChef.deposit(pid, balance);\n            shares[id] = shares[id].add(share);\n            totalShare = totalShare.add(share);\n            emit AddShare(id, share);\n        }\n    }\n\n    /// @dev Internal function to remove shares of the ID and convert to outstanding LP tokens.\n    function _removeShare(uint256 id) internal {\n        uint256 share = shares[id];\n        if (share > 0) {\n            uint256 balance = shareToBalance(share);\n            masterChef.withdraw(pid, balance);\n            totalShare = totalShare.sub(share);\n            shares[id] = 0;\n            emit RemoveShare(id, share);\n        }\n    }\n\n    /// @dev Recover ERC20 tokens that were accidentally sent to this smart contract.\n    /// @param token The token contract. Can be anything. This contract should not hold ERC20 tokens.\n    /// @param to The address to send the tokens to.\n    /// @param value The number of tokens to transfer to `to`.\n    function recover(address token, address to, uint256 value) external onlyOwner nonReentrant {\n        token.safeTransfer(to, value);\n    }\n\n    /// @dev Set the reward bounty for calling reinvest operations.\n    /// @param _reinvestBountyBps The bounty value to update.\n    function setReinvestBountyBps(uint256 _reinvestBountyBps) external onlyOwner {\n        reinvestBountyBps = _reinvestBountyBps;\n    }\n\n    /// @dev Set the given strategies' approval status.\n    /// @param strats The strategy addresses.\n    /// @param isOk Whether to approve or unapprove the given strategies.\n    function setStrategyOk(address[] calldata strats, bool isOk) external onlyOwner {\n        uint256 len = strats.length;\n        for (uint256 idx = 0; idx < len; idx++) {\n            okStrats[strats[idx]] = isOk;\n        }\n    }\n\n    /// @dev Update critical strategy smart contracts. EMERGENCY ONLY. Bad strategies can steal funds.\n    /// @param _addStrat The new add strategy contract.\n    /// @param _liqStrat The new liquidate strategy contract.\n    function setCriticalStrategies(Strategy _addStrat, Strategy _liqStrat) external onlyOwner {\n        addStrat = _addStrat;\n        liqStrat = _liqStrat;\n    }\n\n    function() external payable {}\n}\n",
  "sourcePath": "C:/workspace/Project/projects.spider.miner/alphahomora/contracts/5/SushiswapPool12Goblin.sol",
  "compiler": {
    "name": "solc",
    "version": "0.5.16+commit.9c3226ce.Emscripten.clang"
  },
  "schemaVersion": "3.2.5",
  "updatedAt": "2021-01-08T06:13:44.938Z",
  "devdoc": {
    "methods": {
      "balanceToShare(uint256)": {
        "details": "Return the number of shares to receive if staking the given LP tokens.",
        "params": {
          "balance": "the number of LP tokens to be converted to shares."
        }
      },
      "getMktSellAmount(uint256,uint256,uint256)": {
        "details": "Return maximum output given the input amount and the status of Uniswap reserves.",
        "params": {
          "aIn": "The amount of asset to market sell.",
          "rIn": "the amount of asset in reserve for input.",
          "rOut": "The amount of asset in reserve for output."
        }
      },
      "health(uint256)": {
        "details": "Return the amount of ETH to receive if we are to liquidate the given position.",
        "params": {
          "id": "The position ID to perform health check."
        }
      },
      "isOwner()": {
        "details": "Returns true if the caller is the current owner."
      },
      "liquidate(uint256)": {
        "details": "Liquidate the given position by converting it to ETH and return back to caller.",
        "params": {
          "id": "The position ID to perform liquidation"
        }
      },
      "owner()": {
        "details": "Returns the address of the current owner."
      },
      "recover(address,address,uint256)": {
        "details": "Recover ERC20 tokens that were accidentally sent to this smart contract.",
        "params": {
          "to": "The address to send the tokens to.",
          "token": "The token contract. Can be anything. This contract should not hold ERC20 tokens.",
          "value": "The number of tokens to transfer to `to`."
        }
      },
      "reinvest()": {
        "details": "Re-invest whatever this worker has earned back to staked LP tokens."
      },
      "renounceOwnership()": {
        "details": "Leaves the contract without owner. It will not be possible to call `onlyOwner` functions anymore. Can only be called by the current owner.     * > Note: Renouncing ownership will leave the contract without an owner, thereby removing any functionality that is only available to the owner."
      },
      "setCriticalStrategies(address,address)": {
        "details": "Update critical strategy smart contracts. EMERGENCY ONLY. Bad strategies can steal funds.",
        "params": {
          "_addStrat": "The new add strategy contract.",
          "_liqStrat": "The new liquidate strategy contract."
        }
      },
      "setReinvestBountyBps(uint256)": {
        "details": "Set the reward bounty for calling reinvest operations.",
        "params": {
          "_reinvestBountyBps": "The bounty value to update."
        }
      },
      "setStrategyOk(address[],bool)": {
        "details": "Set the given strategies' approval status.",
        "params": {
          "isOk": "Whether to approve or unapprove the given strategies.",
          "strats": "The strategy addresses."
        }
      },
      "shareToBalance(uint256)": {
        "details": "Return the entitied LP token balance for the given shares.",
        "params": {
          "share": "The number of shares to be converted to LP balance."
        }
      },
      "transferOwnership(address)": {
        "details": "Transfers ownership of the contract to a new account (`newOwner`). Can only be called by the current owner."
      },
      "work(uint256,address,uint256,bytes)": {
        "details": "Work on the given position. Must be called by the operator.",
        "params": {
          "data": "The encoded data, consisting of strategy address and calldata.",
          "debt": "The amount of user debt to help the strategy make decisions.",
          "id": "The position ID to work on.",
          "user": "The original user that is interacting with the operator."
        }
      }
    }
  },
  "userdoc": {
    "methods": {}
  }
}