{
  "contractName": "SushiswapGoblin",
  "abi": [
    {
      "inputs": [
        {
          "internalType": "address",
          "name": "_operator",
          "type": "address"
        },
        {
          "internalType": "contract IMasterChef",
          "name": "_masterChef",
          "type": "address"
        },
        {
          "internalType": "contract IUniswapV2Router02",
          "name": "_router",
          "type": "address"
        },
        {
          "internalType": "uint256",
          "name": "_pid",
          "type": "uint256"
        },
        {
          "internalType": "contract Strategy",
          "name": "_addStrat",
          "type": "address"
        },
        {
          "internalType": "contract Strategy",
          "name": "_liqStrat",
          "type": "address"
        },
        {
          "internalType": "uint256",
          "name": "_reinvestBountyBps",
          "type": "uint256"
        }
      ],
      "payable": false,
      "stateMutability": "nonpayable",
      "type": "constructor"
    },
    {
      "anonymous": false,
      "inputs": [
        {
          "indexed": true,
          "internalType": "uint256",
          "name": "id",
          "type": "uint256"
        },
        {
          "indexed": false,
          "internalType": "uint256",
          "name": "share",
          "type": "uint256"
        }
      ],
      "name": "AddShare",
      "type": "event"
    },
    {
      "anonymous": false,
      "inputs": [
        {
          "indexed": true,
          "internalType": "uint256",
          "name": "id",
          "type": "uint256"
        },
        {
          "indexed": false,
          "internalType": "uint256",
          "name": "wad",
          "type": "uint256"
        }
      ],
      "name": "Liquidate",
      "type": "event"
    },
    {
      "anonymous": false,
      "inputs": [
        {
          "indexed": true,
          "internalType": "address",
          "name": "previousOwner",
          "type": "address"
        },
        {
          "indexed": true,
          "internalType": "address",
          "name": "newOwner",
          "type": "address"
        }
      ],
      "name": "OwnershipTransferred",
      "type": "event"
    },
    {
      "anonymous": false,
      "inputs": [
        {
          "indexed": true,
          "internalType": "address",
          "name": "caller",
          "type": "address"
        },
        {
          "indexed": false,
          "internalType": "uint256",
          "name": "reward",
          "type": "uint256"
        },
        {
          "indexed": false,
          "internalType": "uint256",
          "name": "bounty",
          "type": "uint256"
        }
      ],
      "name": "Reinvest",
      "type": "event"
    },
    {
      "anonymous": false,
      "inputs": [
        {
          "indexed": true,
          "internalType": "uint256",
          "name": "id",
          "type": "uint256"
        },
        {
          "indexed": false,
          "internalType": "uint256",
          "name": "share",
          "type": "uint256"
        }
      ],
      "name": "RemoveShare",
      "type": "event"
    },
    {
      "payable": true,
      "stateMutability": "payable",
      "type": "fallback"
    },
    {
      "constant": true,
      "inputs": [],
      "name": "addStrat",
      "outputs": [
        {
          "internalType": "contract Strategy",
          "name": "",
          "type": "address"
        }
      ],
      "payable": false,
      "stateMutability": "view",
      "type": "function"
    },
    {
      "constant": true,
      "inputs": [],
      "name": "fToken",
      "outputs": [
        {
          "internalType": "address",
          "name": "",
          "type": "address"
        }
      ],
      "payable": false,
      "stateMutability": "view",
      "type": "function"
    },
    {
      "constant": true,
      "inputs": [],
      "name": "factory",
      "outputs": [
        {
          "internalType": "contract IUniswapV2Factory",
          "name": "",
          "type": "address"
        }
      ],
      "payable": false,
      "stateMutability": "view",
      "type": "function"
    },
    {
      "constant": true,
      "inputs": [],
      "name": "isOwner",
      "outputs": [
        {
          "internalType": "bool",
          "name": "",
          "type": "bool"
        }
      ],
      "payable": false,
      "stateMutability": "view",
      "type": "function"
    },
    {
      "constant": true,
      "inputs": [],
      "name": "liqStrat",
      "outputs": [
        {
          "internalType": "contract Strategy",
          "name": "",
          "type": "address"
        }
      ],
      "payable": false,
      "stateMutability": "view",
      "type": "function"
    },
    {
      "constant": true,
      "inputs": [],
      "name": "lpToken",
      "outputs": [
        {
          "internalType": "contract IUniswapV2Pair",
          "name": "",
          "type": "address"
        }
      ],
      "payable": false,
      "stateMutability": "view",
      "type": "function"
    },
    {
      "constant": true,
      "inputs": [],
      "name": "masterChef",
      "outputs": [
        {
          "internalType": "contract IMasterChef",
          "name": "",
          "type": "address"
        }
      ],
      "payable": false,
      "stateMutability": "view",
      "type": "function"
    },
    {
      "constant": true,
      "inputs": [
        {
          "internalType": "address",
          "name": "",
          "type": "address"
        }
      ],
      "name": "okStrats",
      "outputs": [
        {
          "internalType": "bool",
          "name": "",
          "type": "bool"
        }
      ],
      "payable": false,
      "stateMutability": "view",
      "type": "function"
    },
    {
      "constant": true,
      "inputs": [],
      "name": "operator",
      "outputs": [
        {
          "internalType": "address",
          "name": "",
          "type": "address"
        }
      ],
      "payable": false,
      "stateMutability": "view",
      "type": "function"
    },
    {
      "constant": true,
      "inputs": [],
      "name": "owner",
      "outputs": [
        {
          "internalType": "address",
          "name": "",
          "type": "address"
        }
      ],
      "payable": false,
      "stateMutability": "view",
      "type": "function"
    },
    {
      "constant": true,
      "inputs": [],
      "name": "pid",
      "outputs": [
        {
          "internalType": "uint256",
          "name": "",
          "type": "uint256"
        }
      ],
      "payable": false,
      "stateMutability": "view",
      "type": "function"
    },
    {
      "constant": true,
      "inputs": [],
      "name": "reinvestBountyBps",
      "outputs": [
        {
          "internalType": "uint256",
          "name": "",
          "type": "uint256"
        }
      ],
      "payable": false,
      "stateMutability": "view",
      "type": "function"
    },
    {
      "constant": false,
      "inputs": [],
      "name": "renounceOwnership",
      "outputs": [],
      "payable": false,
      "stateMutability": "nonpayable",
      "type": "function"
    },
    {
      "constant": true,
      "inputs": [],
      "name": "router",
      "outputs": [
        {
          "internalType": "contract IUniswapV2Router02",
          "name": "",
          "type": "address"
        }
      ],
      "payable": false,
      "stateMutability": "view",
      "type": "function"
    },
    {
      "constant": true,
      "inputs": [
        {
          "internalType": "uint256",
          "name": "",
          "type": "uint256"
        }
      ],
      "name": "shares",
      "outputs": [
        {
          "internalType": "uint256",
          "name": "",
          "type": "uint256"
        }
      ],
      "payable": false,
      "stateMutability": "view",
      "type": "function"
    },
    {
      "constant": true,
      "inputs": [],
      "name": "sushi",
      "outputs": [
        {
          "internalType": "address",
          "name": "",
          "type": "address"
        }
      ],
      "payable": false,
      "stateMutability": "view",
      "type": "function"
    },
    {
      "constant": true,
      "inputs": [],
      "name": "totalShare",
      "outputs": [
        {
          "internalType": "uint256",
          "name": "",
          "type": "uint256"
        }
      ],
      "payable": false,
      "stateMutability": "view",
      "type": "function"
    },
    {
      "constant": false,
      "inputs": [
        {
          "internalType": "address",
          "name": "newOwner",
          "type": "address"
        }
      ],
      "name": "transferOwnership",
      "outputs": [],
      "payable": false,
      "stateMutability": "nonpayable",
      "type": "function"
    },
    {
      "constant": true,
      "inputs": [],
      "name": "weth",
      "outputs": [
        {
          "internalType": "address",
          "name": "",
          "type": "address"
        }
      ],
      "payable": false,
      "stateMutability": "view",
      "type": "function"
    },
    {
      "constant": true,
      "inputs": [
        {
          "internalType": "uint256",
          "name": "share",
          "type": "uint256"
        }
      ],
      "name": "shareToBalance",
      "outputs": [
        {
          "internalType": "uint256",
          "name": "",
          "type": "uint256"
        }
      ],
      "payable": false,
      "stateMutability": "view",
      "type": "function"
    },
    {
      "constant": true,
      "inputs": [
        {
          "internalType": "uint256",
          "name": "balance",
          "type": "uint256"
        }
      ],
      "name": "balanceToShare",
      "outputs": [
        {
          "internalType": "uint256",
          "name": "",
          "type": "uint256"
        }
      ],
      "payable": false,
      "stateMutability": "view",
      "type": "function"
    },
    {
      "constant": false,
      "inputs": [],
      "name": "reinvest",
      "outputs": [],
      "payable": false,
      "stateMutability": "nonpayable",
      "type": "function"
    },
    {
      "constant": false,
      "inputs": [
        {
          "internalType": "uint256",
          "name": "id",
          "type": "uint256"
        },
        {
          "internalType": "address",
          "name": "user",
          "type": "address"
        },
        {
          "internalType": "uint256",
          "name": "debt",
          "type": "uint256"
        },
        {
          "internalType": "bytes",
          "name": "data",
          "type": "bytes"
        }
      ],
      "name": "work",
      "outputs": [],
      "payable": true,
      "stateMutability": "payable",
      "type": "function"
    },
    {
      "constant": true,
      "inputs": [
        {
          "internalType": "uint256",
          "name": "aIn",
          "type": "uint256"
        },
        {
          "internalType": "uint256",
          "name": "rIn",
          "type": "uint256"
        },
        {
          "internalType": "uint256",
          "name": "rOut",
          "type": "uint256"
        }
      ],
      "name": "getMktSellAmount",
      "outputs": [
        {
          "internalType": "uint256",
          "name": "",
          "type": "uint256"
        }
      ],
      "payable": false,
      "stateMutability": "pure",
      "type": "function"
    },
    {
      "constant": true,
      "inputs": [
        {
          "internalType": "uint256",
          "name": "id",
          "type": "uint256"
        }
      ],
      "name": "health",
      "outputs": [
        {
          "internalType": "uint256",
          "name": "",
          "type": "uint256"
        }
      ],
      "payable": false,
      "stateMutability": "view",
      "type": "function"
    },
    {
      "constant": false,
      "inputs": [
        {
          "internalType": "uint256",
          "name": "id",
          "type": "uint256"
        }
      ],
      "name": "liquidate",
      "outputs": [],
      "payable": false,
      "stateMutability": "nonpayable",
      "type": "function"
    },
    {
      "constant": false,
      "inputs": [
        {
          "internalType": "address",
          "name": "token",
          "type": "address"
        },
        {
          "internalType": "address",
          "name": "to",
          "type": "address"
        },
        {
          "internalType": "uint256",
          "name": "value",
          "type": "uint256"
        }
      ],
      "name": "recover",
      "outputs": [],
      "payable": false,
      "stateMutability": "nonpayable",
      "type": "function"
    },
    {
      "constant": false,
      "inputs": [
        {
          "internalType": "uint256",
          "name": "_reinvestBountyBps",
          "type": "uint256"
        }
      ],
      "name": "setReinvestBountyBps",
      "outputs": [],
      "payable": false,
      "stateMutability": "nonpayable",
      "type": "function"
    },
    {
      "constant": false,
      "inputs": [
        {
          "internalType": "address[]",
          "name": "strats",
          "type": "address[]"
        },
        {
          "internalType": "bool",
          "name": "isOk",
          "type": "bool"
        }
      ],
      "name": "setStrategyOk",
      "outputs": [],
      "payable": false,
      "stateMutability": "nonpayable",
      "type": "function"
    },
    {
      "constant": false,
      "inputs": [
        {
          "internalType": "contract Strategy",
          "name": "_addStrat",
          "type": "address"
        },
        {
          "internalType": "contract Strategy",
          "name": "_liqStrat",
          "type": "address"
        }
      ],
      "name": "setCriticalStrategies",
      "outputs": [],
      "payable": false,
      "stateMutability": "nonpayable",
      "type": "function"
    }
  ],
  "bytecode": "0x60806040523480156200001157600080fd5b506040516200355638038062003556833981810160405260e08110156200003757600080fd5b50805160208201516040808401516060850151608086015160a087015160c090970151600080546001600160a01b031916331780825595519798969794969395929491926001600160a01b0316917f8be0079c531659141344cd1fd0a4f28419497f9722a3daafe3b4186f6b6457e0908290a36001808190555086600960006101000a8154816001600160a01b0302191690836001600160a01b03160217905550846001600160a01b031663ad5c46486040518163ffffffff1660e01b815260040160206040518083038186803b1580156200011257600080fd5b505afa15801562000127573d6000803e3d6000fd5b505050506040513d60208110156200013e57600080fd5b5051600680546001600160a01b03199081166001600160a01b03938416179091556002805482168984161790556004805490911691871691821781556040805163c45a015560e01b8152905163c45a015592828101926020929190829003018186803b158015620001ae57600080fd5b505afa158015620001c3573d6000803e3d6000fd5b505050506040513d6020811015620001da57600080fd5b5051600380546001600160a01b0319166001600160a01b03928316179055600a85905560025460408051631526fe2760e01b81526004810188905290516000939290921691631526fe2791602480820192608092909190829003018186803b1580156200024657600080fd5b505afa1580156200025b573d6000803e3d6000fd5b505050506040513d60808110156200027257600080fd5b5051600580546001600160a01b0319166001600160a01b03808416919091179182905560408051630dfe168160e01b815290519394506000939290911691630dfe168191600480820192602092909190829003018186803b158015620002d757600080fd5b505afa158015620002ec573d6000803e3d6000fd5b505050506040513d60208110156200030357600080fd5b50516005546040805163d21220a760e01b815290519293506000926001600160a01b039092169163d21220a791600480820192602092909190829003018186803b1580156200035157600080fd5b505afa15801562000366573d6000803e3d6000fd5b505050506040513d60208110156200037d57600080fd5b50516006549091506001600160a01b038381169116146200039f5781620003a1565b805b600780546001600160a01b0319166001600160a01b0392831617905560025460408051630a08790360e01b815290519190921691630a087903916004808301926020929190829003018186803b158015620003fb57600080fd5b505afa15801562000410573d6000803e3d6000fd5b505050506040513d60208110156200042757600080fd5b5051600880546001600160a01b03199081166001600160a01b0393841617909155600e805482168984161790819055600f805490921688841617825582166000908152600c60209081526040808320805460ff1990811660019081179092559454861684528184208054909516179093556010889055600554835163095ea7b360e01b81528e861660048201526000196024820152935194169363095ea7b393604480820194918390030190829087803b158015620004e557600080fd5b505af1158015620004fa573d6000803e3d6000fd5b505050506040513d60208110156200051157600080fd5b5050600554600480546040805163095ea7b360e01b81526001600160a01b039283169381019390935260001960248401525192169163095ea7b3916044808201926020929091908290030181600087803b1580156200056f57600080fd5b505af115801562000584573d6000803e3d6000fd5b505050506040513d60208110156200059b57600080fd5b5050600454600754620005ca916001600160a01b03918216911660001962000607602090811b62002b8c17901c565b600454600854620005f7916001600160a01b03918216911660001962000607602090811b62002b8c17901c565b5050505050505050505062000768565b604080516001600160a01b038481166024830152604480830185905283518084039091018152606490920183526020820180516001600160e01b031663095ea7b360e01b178152925182516000946060949389169392918291908083835b60208310620006865780518252601f19909201916020918201910162000665565b6001836020036101000a0380198251168184511680821785525050505050509050019150506000604051808303816000865af19150503d8060008114620006ea576040519150601f19603f3d011682016040523d82523d6000602084013e620006ef565b606091505b5091509150818015620007205750805115806200072057508080602001905160208110156200071d57600080fd5b50515b62000761576040805162461bcd60e51b815260206004820152600c60248201526b2173616665417070726f766560a01b604482015290519081900360640190fd5b5050505050565b612dde80620007786000396000f3fe6080604052600436106101cd5760003560e01c8063783b6d60116100f7578063c7aa6ae711610095578063f2fde38b11610064578063f2fde38b1461063b578063f3b8912b1461067b578063f887ea40146106bb578063fdb5a03e146106d0576101cd565b8063c7aa6ae71461055c578063d75734c814610571578063e7956f21146105a7578063f106845414610626576101cd565b80638f32d59b116100d15780638f32d59b146104c15780638fa4a940146104ea578063a8694e5714610532578063c45a015514610547576101cd565b8063783b6d601461045857806381955105146104825780638da5cb5b146104ac576101cd565b806348db8cc41161016f57806357a858fc1161013e57806357a858fc146103ef5780635fcbd285146104195780636191e37b1461042e578063715018a614610443576101cd565b806348db8cc414610317578063570ca735146103b0578063575a86b2146103c557806357899399146103da576101cd565b80631620fbd5116101ab5780631620fbd51461025e5780631ec82cb8146102885780633fc8cef3146102d8578063415f1240146102ed576101cd565b8063026c4207146101cf5780630a087903146101f65780631363bdd314610234575b005b3480156101db57600080fd5b506101e46106e5565b60408051918252519081900360200190f35b34801561020257600080fd5b5061020b6106eb565b6040805173ffffffffffffffffffffffffffffffffffffffff9092168252519081900360200190f35b34801561024057600080fd5b506101e46004803603602081101561025757600080fd5b5035610707565b34801561026a57600080fd5b506101cd6004803603602081101561028157600080fd5b50356107f2565b34801561029457600080fd5b506101cd600480360360608110156102ab57600080fd5b5073ffffffffffffffffffffffffffffffffffffffff81358116916020810135909116906040013561086a565b3480156102e457600080fd5b5061020b610984565b3480156102f957600080fd5b506101cd6004803603602081101561031057600080fd5b50356109a0565b6101cd6004803603608081101561032d57600080fd5b81359173ffffffffffffffffffffffffffffffffffffffff602082013516916040820135919081019060808101606082013564010000000081111561037157600080fd5b82018360208201111561038357600080fd5b803590602001918460018302840111640100000000831117156103a557600080fd5b509092509050610d63565b3480156103bc57600080fd5b5061020b611221565b3480156103d157600080fd5b5061020b61123d565b3480156103e657600080fd5b5061020b611259565b3480156103fb57600080fd5b506101e46004803603602081101561041257600080fd5b5035611275565b34801561042557600080fd5b5061020b611287565b34801561043a57600080fd5b5061020b6112a3565b34801561044f57600080fd5b506101cd6112bf565b34801561046457600080fd5b506101e46004803603602081101561047b57600080fd5b50356113a1565b34801561048e57600080fd5b506101e4600480360360208110156104a557600080fd5b5035611650565b3480156104b857600080fd5b5061020b611723565b3480156104cd57600080fd5b506104d661173f565b604080519115158252519081900360200190f35b3480156104f657600080fd5b506101cd6004803603604081101561050d57600080fd5b5073ffffffffffffffffffffffffffffffffffffffff8135811691602001351661175d565b34801561053e57600080fd5b5061020b611823565b34801561055357600080fd5b5061020b61183f565b34801561056857600080fd5b506101e461185b565b34801561057d57600080fd5b506101e46004803603606081101561059457600080fd5b5080359060208101359060400135611861565b3480156105b357600080fd5b506101cd600480360360408110156105ca57600080fd5b8101906020810181356401000000008111156105e557600080fd5b8201836020820111156105f757600080fd5b8035906020019184602083028401116401000000008311171561061957600080fd5b9193509150351515611946565b34801561063257600080fd5b506101e4611a41565b34801561064757600080fd5b506101cd6004803603602081101561065e57600080fd5b503573ffffffffffffffffffffffffffffffffffffffff16611a47565b34801561068757600080fd5b506104d66004803603602081101561069e57600080fd5b503573ffffffffffffffffffffffffffffffffffffffff16611ac6565b3480156106c757600080fd5b5061020b611adb565b3480156106dc57600080fd5b506101cd611af7565b600d5481565b60085473ffffffffffffffffffffffffffffffffffffffff1681565b6000600d546000141561071b5750806107ed565b600254600a54604080517f93f1a40b0000000000000000000000000000000000000000000000000000000081526004810192909252306024830152805160009373ffffffffffffffffffffffffffffffffffffffff16926393f1a40b926044808301939192829003018186803b15801561079457600080fd5b505afa1580156107a8573d6000803e3d6000fd5b505050506040513d60408110156107be57600080fd5b5051600d549091506107e99082906107dd90869063ffffffff6121eb16565b9063ffffffff61226716565b9150505b919050565b6107fa61173f565b61086557604080517f08c379a000000000000000000000000000000000000000000000000000000000815260206004820181905260248201527f4f776e61626c653a2063616c6c6572206973206e6f7420746865206f776e6572604482015290519081900360640190fd5b601055565b61087261173f565b6108dd57604080517f08c379a000000000000000000000000000000000000000000000000000000000815260206004820181905260248201527f4f776e61626c653a2063616c6c6572206973206e6f7420746865206f776e6572604482015290519081900360640190fd5b6001805481019081905561090e73ffffffffffffffffffffffffffffffffffffffff8516848463ffffffff6122eb16565b600154811461097e57604080517f08c379a000000000000000000000000000000000000000000000000000000000815260206004820152601f60248201527f5265656e7472616e637947756172643a207265656e7472616e742063616c6c00604482015290519081900360640190fd5b50505050565b60065473ffffffffffffffffffffffffffffffffffffffff1681565b60095473ffffffffffffffffffffffffffffffffffffffff163314610a2657604080517f08c379a000000000000000000000000000000000000000000000000000000000815260206004820152600c60248201527f6e6f74206f70657261746f720000000000000000000000000000000000000000604482015290519081900360640190fd5b60018054810190819055610a39826124c1565b600554600f54604080517f70a08231000000000000000000000000000000000000000000000000000000008152306004820152905173ffffffffffffffffffffffffffffffffffffffff9384169363a9059cbb93169184916370a0823191602480820192602092909190829003018186803b158015610ab757600080fd5b505afa158015610acb573d6000803e3d6000fd5b505050506040513d6020811015610ae157600080fd5b5051604080517fffffffff0000000000000000000000000000000000000000000000000000000060e086901b16815273ffffffffffffffffffffffffffffffffffffffff909316600484015260248301919091525160448083019260209291908290030181600087803b158015610b5757600080fd5b505af1158015610b6b573d6000803e3d6000fd5b505050506040513d6020811015610b8157600080fd5b5050600f546007546040805173ffffffffffffffffffffffffffffffffffffffff92831660208281019190915260008284018190528351808403850181526060808501958690527fb61d27f600000000000000000000000000000000000000000000000000000000909552606484018281526084850183905260a48501958652815160c48601528151969097169663b61d27f6969295869592949193909260e40191850190808383895b83811015610c43578181015183820152602001610c2b565b50505050905090810190601f168015610c705780820380516001836020036101000a031916815260200191505b50945050505050600060405180830381600087803b158015610c9157600080fd5b505af1158015610ca5573d6000803e3d6000fd5b505050506000479050610cb833826125dc565b60408051828152905184917f253e5385159062a101837d58c10ad4694c58979ebc3ba6b5cb2cbba2fe461692919081900360200190a2506001548114610d5f57604080517f08c379a000000000000000000000000000000000000000000000000000000000815260206004820152601f60248201527f5265656e7472616e637947756172643a207265656e7472616e742063616c6c00604482015290519081900360640190fd5b5050565b60095473ffffffffffffffffffffffffffffffffffffffff163314610de957604080517f08c379a000000000000000000000000000000000000000000000000000000000815260206004820152600c60248201527f6e6f74206f70657261746f720000000000000000000000000000000000000000604482015290519081900360640190fd5b60018054810190819055610dfc866124c1565b6000606084846040811015610e1057600080fd5b73ffffffffffffffffffffffffffffffffffffffff8235169190810190604081016020820135640100000000811115610e4857600080fd5b820183602082011115610e5a57600080fd5b80359060200191846001830284011164010000000083111715610e7c57600080fd5b91908080601f016020809104026020016040519081016040528093929190818152602001838380828437600092018290525073ffffffffffffffffffffffffffffffffffffffff89168152600c60205260409020549799509297505060ff9095169450610f4f935050505057604080517f08c379a000000000000000000000000000000000000000000000000000000000815260206004820152601860248201527f756e617070726f76656420776f726b2073747261746567790000000000000000604482015290519081900360640190fd5b600554604080517f70a08231000000000000000000000000000000000000000000000000000000008152306004820152905173ffffffffffffffffffffffffffffffffffffffff9092169163a9059cbb91859184916370a08231916024808301926020929190829003018186803b158015610fc957600080fd5b505afa158015610fdd573d6000803e3d6000fd5b505050506040513d6020811015610ff357600080fd5b5051604080517fffffffff0000000000000000000000000000000000000000000000000000000060e086901b16815273ffffffffffffffffffffffffffffffffffffffff909316600484015260248301919091525160448083019260209291908290030181600087803b15801561106957600080fd5b505af115801561107d573d6000803e3d6000fd5b505050506040513d602081101561109357600080fd5b50506040517fb61d27f600000000000000000000000000000000000000000000000000000000815273ffffffffffffffffffffffffffffffffffffffff88811660048301908152602483018990526060604484019081528451606485015284519286169363b61d27f69334938d938d938993608490910190602085019080838360005b8381101561112e578181015183820152602001611116565b50505050905090810190601f16801561115b5780820380516001836020036101000a031916815260200191505b509450505050506000604051808303818588803b15801561117b57600080fd5b505af115801561118f573d6000803e3d6000fd5b505050505061119d8861272f565b6111a733476125dc565b5050600154811461121957604080517f08c379a000000000000000000000000000000000000000000000000000000000815260206004820152601f60248201527f5265656e7472616e637947756172643a207265656e7472616e742063616c6c00604482015290519081900360640190fd5b505050505050565b60095473ffffffffffffffffffffffffffffffffffffffff1681565b60025473ffffffffffffffffffffffffffffffffffffffff1681565b600e5473ffffffffffffffffffffffffffffffffffffffff1681565b600b6020526000908152604090205481565b60055473ffffffffffffffffffffffffffffffffffffffff1681565b600f5473ffffffffffffffffffffffffffffffffffffffff1681565b6112c761173f565b61133257604080517f08c379a000000000000000000000000000000000000000000000000000000000815260206004820181905260248201527f4f776e61626c653a2063616c6c6572206973206e6f7420746865206f776e6572604482015290519081900360640190fd5b6000805460405173ffffffffffffffffffffffffffffffffffffffff909116907f8be0079c531659141344cd1fd0a4f28419497f9722a3daafe3b4186f6b6457e0908390a3600080547fffffffffffffffffffffffff0000000000000000000000000000000000000000169055565b6000818152600b602052604081205481906113bb90611650565b90506000600560009054906101000a900473ffffffffffffffffffffffffffffffffffffffff1673ffffffffffffffffffffffffffffffffffffffff166318160ddd6040518163ffffffff1660e01b815260040160206040518083038186803b15801561142757600080fd5b505afa15801561143b573d6000803e3d6000fd5b505050506040513d602081101561145157600080fd5b5051600554604080517f0902f1ac0000000000000000000000000000000000000000000000000000000081529051929350600092839273ffffffffffffffffffffffffffffffffffffffff1691630902f1ac916004808301926060929190829003018186803b1580156114c357600080fd5b505afa1580156114d7573d6000803e3d6000fd5b505050506040513d60608110156114ed57600080fd5b508051602091820151600654600554604080517f0dfe168100000000000000000000000000000000000000000000000000000000815290516dffffffffffffffffffffffffffff9586169850949093169550600094859473ffffffffffffffffffffffffffffffffffffffff938416949390921692630dfe16819260048083019392829003018186803b15801561158357600080fd5b505afa158015611597573d6000803e3d6000fd5b505050506040513d60208110156115ad57600080fd5b505173ffffffffffffffffffffffffffffffffffffffff16146115d15782846115d4565b83835b909250905060006115ef866107dd898663ffffffff6121eb16565b90506000611607876107dd8a8663ffffffff6121eb16565b90506116428261163683611621878263ffffffff6128f616565b611631898863ffffffff6128f616565b611861565b9063ffffffff61296d16565b9a9950505050505050505050565b6000600d54600014156116645750806107ed565b600254600a54604080517f93f1a40b0000000000000000000000000000000000000000000000000000000081526004810192909252306024830152805160009373ffffffffffffffffffffffffffffffffffffffff16926393f1a40b926044808301939192829003018186803b1580156116dd57600080fd5b505afa1580156116f1573d6000803e3d6000fd5b505050506040513d604081101561170757600080fd5b5051600d549091506107e9906107dd858463ffffffff6121eb16565b60005473ffffffffffffffffffffffffffffffffffffffff1690565b60005473ffffffffffffffffffffffffffffffffffffffff16331490565b61176561173f565b6117d057604080517f08c379a000000000000000000000000000000000000000000000000000000000815260206004820181905260248201527f4f776e61626c653a2063616c6c6572206973206e6f7420746865206f776e6572604482015290519081900360640190fd5b600e805473ffffffffffffffffffffffffffffffffffffffff9384167fffffffffffffffffffffffff000000000000000000000000000000000000000091821617909155600f8054929093169116179055565b60075473ffffffffffffffffffffffffffffffffffffffff1681565b60035473ffffffffffffffffffffffffffffffffffffffff1681565b60105481565b6000836118705750600061193f565b6000831180156118805750600082115b6118eb57604080517f08c379a000000000000000000000000000000000000000000000000000000000815260206004820152601260248201527f62616420726573657276652076616c7565730000000000000000000000000000604482015290519081900360640190fd5b60006118ff856103e563ffffffff6121eb16565b90506000611913828563ffffffff6121eb16565b9050600061192d83611636886103e863ffffffff6121eb16565b905080828161193857fe5b0493505050505b9392505050565b61194e61173f565b6119b957604080517f08c379a000000000000000000000000000000000000000000000000000000000815260206004820181905260248201527f4f776e61626c653a2063616c6c6572206973206e6f7420746865206f776e6572604482015290519081900360640190fd5b8160005b81811015611a3a5782600c60008787858181106119d657fe5b6020908102929092013573ffffffffffffffffffffffffffffffffffffffff1683525081019190915260400160002080547fffffffffffffffffffffffffffffffffffffffffffffffffffffffffffffff00169115159190911790556001016119bd565b5050505050565b600a5481565b611a4f61173f565b611aba57604080517f08c379a000000000000000000000000000000000000000000000000000000000815260206004820181905260248201527f4f776e61626c653a2063616c6c6572206973206e6f7420746865206f776e6572604482015290519081900360640190fd5b611ac3816129e1565b50565b600c6020526000908152604090205460ff1681565b60045473ffffffffffffffffffffffffffffffffffffffff1681565b333214611b6557604080517f08c379a000000000000000000000000000000000000000000000000000000000815260206004820152600760248201527f6e6f7420656f6100000000000000000000000000000000000000000000000000604482015290519081900360640190fd5b60018054810190819055600254600a54604080517f441a3e700000000000000000000000000000000000000000000000000000000081526004810192909252600060248301819052905173ffffffffffffffffffffffffffffffffffffffff9093169263441a3e7092604480820193929182900301818387803b158015611beb57600080fd5b505af1158015611bff573d6000803e3d6000fd5b505060085460009250611c2f915073ffffffffffffffffffffffffffffffffffffffff163063ffffffff612ada16565b905080611c3c575061217b565b6000612710611c56601054846121eb90919063ffffffff16565b81611c5d57fe5b6008549190049150611c8c9073ffffffffffffffffffffffffffffffffffffffff16338363ffffffff6122eb16565b60408051600280825260608083018452926020830190803883395050600854825192935073ffffffffffffffffffffffffffffffffffffffff1691839150600090611cd357fe5b73ffffffffffffffffffffffffffffffffffffffff9283166020918202929092010152600654825191169082906001908110611d0b57fe5b73ffffffffffffffffffffffffffffffffffffffff9283166020918202929092010152600454166318cbafe5611d47858563ffffffff6128f616565b60008430426040518663ffffffff1660e01b815260040180868152602001858152602001806020018473ffffffffffffffffffffffffffffffffffffffff1673ffffffffffffffffffffffffffffffffffffffff168152602001838152602001828103825285818151815260200191508051906020019060200280838360005b83811015611ddf578181015183820152602001611dc7565b505050509050019650505050505050600060405180830381600087803b158015611e0857600080fd5b505af1158015611e1c573d6000803e3d6000fd5b505050506040513d6000823e601f3d9081017fffffffffffffffffffffffffffffffffffffffffffffffffffffffffffffffe01682016040526020811015611e6357600080fd5b8101908080516040519392919084640100000000821115611e8357600080fd5b908301906020820185811115611e9857600080fd5b8251866020820283011164010000000082111715611eb557600080fd5b82525081516020918201928201910280838360005b83811015611ee2578181015183820152602001611eca565b50505050919091016040818152600e5460075473ffffffffffffffffffffffffffffffffffffffff90811660208086019190915260008486018190528451808703860181526060808801968790527fb61d27f600000000000000000000000000000000000000000000000000000000909652606487018281526084880183905260a48801968752815160c48901528151949095169b5063b61d27f69a504799509097508796509492939260e4019190850190808383895b83811015611fb1578181015183820152602001611f99565b50505050905090810190601f168015611fde5780820380516001836020036101000a031916815260200191505b509450505050506000604051808303818588803b158015611ffe57600080fd5b505af1158015612012573d6000803e3d6000fd5b5050600254600a54600554604080517f70a08231000000000000000000000000000000000000000000000000000000008152306004820152905173ffffffffffffffffffffffffffffffffffffffff948516975063e2bbb15896509294509216916370a08231916024808301926020929190829003018186803b15801561209857600080fd5b505afa1580156120ac573d6000803e3d6000fd5b505050506040513d60208110156120c257600080fd5b5051604080517fffffffff0000000000000000000000000000000000000000000000000000000060e086901b1681526004810193909352602483019190915251604480830192600092919082900301818387803b15801561212257600080fd5b505af1158015612136573d6000803e3d6000fd5b5050604080518681526020810186905281513394507fc003f45bc224d116b6d079100d4ab57a5b9633244c47a5a92a176c5b79a85f2893509081900390910190a25050505b6001548114611ac357604080517f08c379a000000000000000000000000000000000000000000000000000000000815260206004820152601f60248201527f5265656e7472616e637947756172643a207265656e7472616e742063616c6c00604482015290519081900360640190fd5b6000826121fa57506000612261565b8282028284828161220757fe5b041461225e576040517f08c379a0000000000000000000000000000000000000000000000000000000008152600401808060200182810382526021815260200180612d896021913960400191505060405180910390fd5b90505b92915050565b60008082116122d757604080517f08c379a000000000000000000000000000000000000000000000000000000000815260206004820152601a60248201527f536166654d6174683a206469766973696f6e206279207a65726f000000000000604482015290519081900360640190fd5b60008284816122e257fe5b04949350505050565b6040805173ffffffffffffffffffffffffffffffffffffffff8481166024830152604480830185905283518084039091018152606490920183526020820180517bffffffffffffffffffffffffffffffffffffffffffffffffffffffff167fa9059cbb00000000000000000000000000000000000000000000000000000000178152925182516000946060949389169392918291908083835b602083106123c157805182527fffffffffffffffffffffffffffffffffffffffffffffffffffffffffffffffe09092019160209182019101612384565b6001836020036101000a0380198251168184511680821785525050505050509050019150506000604051808303816000865af19150503d8060008114612423576040519150601f19603f3d011682016040523d82523d6000602084013e612428565b606091505b5091509150818015612456575080511580612456575080806020019051602081101561245357600080fd5b50515b611a3a57604080517f08c379a000000000000000000000000000000000000000000000000000000000815260206004820152600d60248201527f21736166655472616e7366657200000000000000000000000000000000000000604482015290519081900360640190fd5b6000818152600b60205260409020548015610d5f5760006124e182611650565b600254600a54604080517f441a3e700000000000000000000000000000000000000000000000000000000081526004810192909252602482018490525192935073ffffffffffffffffffffffffffffffffffffffff9091169163441a3e709160448082019260009290919082900301818387803b15801561256157600080fd5b505af1158015612575573d6000803e3d6000fd5b5050600d5461258d925090508363ffffffff6128f616565b600d556000838152600b60209081526040808320929092558151848152915185927fca07b1e9ff462c1feca0fa258869d03f3657c3a02eaceed810db4f58848856dc92908290030190a2505050565b6040805160008082526020820190925273ffffffffffffffffffffffffffffffffffffffff84169083906040518082805190602001908083835b6020831061265357805182527fffffffffffffffffffffffffffffffffffffffffffffffffffffffffffffffe09092019160209182019101612616565b6001836020036101000a03801982511681845116808217855250505050505090500191505060006040518083038185875af1925050503d80600081146126b5576040519150601f19603f3d011682016040523d82523d6000602084013e6126ba565b606091505b505090508061272a57604080517f08c379a000000000000000000000000000000000000000000000000000000000815260206004820152601060248201527f21736166655472616e7366657245544800000000000000000000000000000000604482015290519081900360640190fd5b505050565b600554604080517f70a08231000000000000000000000000000000000000000000000000000000008152306004820152905160009273ffffffffffffffffffffffffffffffffffffffff16916370a08231916024808301926020929190829003018186803b1580156127a057600080fd5b505afa1580156127b4573d6000803e3d6000fd5b505050506040513d60208110156127ca57600080fd5b505190508015610d5f5760006127df82610707565b600254600a54604080517fe2bbb1580000000000000000000000000000000000000000000000000000000081526004810192909252602482018690525192935073ffffffffffffffffffffffffffffffffffffffff9091169163e2bbb1589160448082019260009290919082900301818387803b15801561285f57600080fd5b505af1158015612873573d6000803e3d6000fd5b5050506000848152600b602052604090205461289691508263ffffffff61296d16565b6000848152600b6020526040902055600d546128b8908263ffffffff61296d16565b600d5560408051828152905184917fdbdb2d65c9e75a246e9a50307e793774f5ad8d986766a102b8a0eacb58208da2919081900360200190a2505050565b60008282111561296757604080517f08c379a000000000000000000000000000000000000000000000000000000000815260206004820152601e60248201527f536166654d6174683a207375627472616374696f6e206f766572666c6f770000604482015290519081900360640190fd5b50900390565b60008282018381101561225e57604080517f08c379a000000000000000000000000000000000000000000000000000000000815260206004820152601b60248201527f536166654d6174683a206164646974696f6e206f766572666c6f770000000000604482015290519081900360640190fd5b73ffffffffffffffffffffffffffffffffffffffff8116612a4d576040517f08c379a0000000000000000000000000000000000000000000000000000000008152600401808060200182810382526026815260200180612d636026913960400191505060405180910390fd5b6000805460405173ffffffffffffffffffffffffffffffffffffffff808516939216917f8be0079c531659141344cd1fd0a4f28419497f9722a3daafe3b4186f6b6457e091a3600080547fffffffffffffffffffffffff00000000000000000000000000000000000000001673ffffffffffffffffffffffffffffffffffffffff92909216919091179055565b60008273ffffffffffffffffffffffffffffffffffffffff166370a08231836040518263ffffffff1660e01b8152600401808273ffffffffffffffffffffffffffffffffffffffff1673ffffffffffffffffffffffffffffffffffffffff16815260200191505060206040518083038186803b158015612b5957600080fd5b505afa158015612b6d573d6000803e3d6000fd5b505050506040513d6020811015612b8357600080fd5b50519392505050565b6040805173ffffffffffffffffffffffffffffffffffffffff8481166024830152604480830185905283518084039091018152606490920183526020820180517bffffffffffffffffffffffffffffffffffffffffffffffffffffffff167f095ea7b300000000000000000000000000000000000000000000000000000000178152925182516000946060949389169392918291908083835b60208310612c6257805182527fffffffffffffffffffffffffffffffffffffffffffffffffffffffffffffffe09092019160209182019101612c25565b6001836020036101000a0380198251168184511680821785525050505050509050019150506000604051808303816000865af19150503d8060008114612cc4576040519150601f19603f3d011682016040523d82523d6000602084013e612cc9565b606091505b5091509150818015612cf7575080511580612cf75750808060200190516020811015612cf457600080fd5b50515b611a3a57604080517f08c379a000000000000000000000000000000000000000000000000000000000815260206004820152600c60248201527f2173616665417070726f76650000000000000000000000000000000000000000604482015290519081900360640190fdfe4f776e61626c653a206e6577206f776e657220697320746865207a65726f2061646472657373536166654d6174683a206d756c7469706c69636174696f6e206f766572666c6f77a265627a7a72315820e3723b11b1f2b555e91d08af0e12e513ba5307638cea675b595429ec4a48bdff64736f6c63430005100032",
  "source": "pragma solidity 0.5.16;\nimport \"openzeppelin-solidity-2.3.0/contracts/ownership/Ownable.sol\";\nimport \"openzeppelin-solidity-2.3.0/contracts/math/SafeMath.sol\";\nimport \"openzeppelin-solidity-2.3.0/contracts/utils/ReentrancyGuard.sol\";\nimport \"openzeppelin-solidity-2.3.0/contracts/token/ERC20/IERC20.sol\";\nimport \"@uniswap/v2-core/contracts/interfaces/IUniswapV2Factory.sol\";\nimport \"@uniswap/v2-core/contracts/interfaces/IUniswapV2Pair.sol\";\nimport \"@uniswap/v2-core/contracts/libraries/Math.sol\";\nimport \"./uniswap/IUniswapV2Router02.sol\";\nimport \"./Strategy.sol\";\nimport \"./SafeToken.sol\";\nimport \"./Goblin.sol\";\nimport \"./interfaces/IMasterChef.sol\";\n\ncontract SushiswapGoblin is Ownable, ReentrancyGuard, Goblin {\n    /// @notice Libraries\n    using SafeToken for address;\n    using SafeMath for uint256;\n\n    /// @notice Events\n    event Reinvest(address indexed caller, uint256 reward, uint256 bounty);\n    event AddShare(uint256 indexed id, uint256 share);\n    event RemoveShare(uint256 indexed id, uint256 share);\n    event Liquidate(uint256 indexed id, uint256 wad);\n\n    /// @notice Immutable variables\n    IMasterChef public masterChef;\n    IUniswapV2Factory public factory;\n    IUniswapV2Router02 public router;\n    IUniswapV2Pair public lpToken;\n    address public weth;\n    address public fToken;\n    address public sushi;\n    address public operator;\n    uint256 public pid;\n\n    /// @notice Mutable state variables\n    mapping(uint256 => uint256) public shares;\n    mapping(address => bool) public okStrats;\n    uint256 public totalShare;\n    Strategy public addStrat;\n    Strategy public liqStrat;\n    uint256 public reinvestBountyBps;\n\n    constructor(\n        address _operator,\n        IMasterChef _masterChef,\n        IUniswapV2Router02 _router,\n        uint256 _pid,        \n        Strategy _addStrat,\n        Strategy _liqStrat,\n        uint256 _reinvestBountyBps\n    ) public {\n        operator = _operator;\n        weth = _router.WETH();\n        masterChef = _masterChef;\n        router = _router;\n        factory = IUniswapV2Factory(_router.factory());\n        // Get lpToken and fToken from MasterChef pool\n        pid = _pid;\n        (IERC20 _lpToken, , , ) = masterChef.poolInfo(_pid);\n        lpToken = IUniswapV2Pair(address(_lpToken));\n        address token0 = lpToken.token0();\n        address token1 = lpToken.token1();\n        fToken = token0 == weth ? token1 : token0;\n        sushi = address(masterChef.sushi());\n        addStrat = _addStrat;\n        liqStrat = _liqStrat;\n        okStrats[address(addStrat)] = true;\n        okStrats[address(liqStrat)] = true;\n        reinvestBountyBps = _reinvestBountyBps;\n        lpToken.approve(address(_masterChef), uint256(-1)); // 100% trust in the staking pool\n        lpToken.approve(address(router), uint256(-1)); // 100% trust in the router\n        fToken.safeApprove(address(router), uint256(-1)); // 100% trust in the router\n        sushi.safeApprove(address(router), uint256(-1)); // 100% trust in the router\n    }\n\n    /// @dev Require that the caller must be an EOA account to avoid flash loans.\n    modifier onlyEOA() {\n        require(msg.sender == tx.origin, \"not eoa\");\n        _;\n    }\n\n    /// @dev Require that the caller must be the operator (the bank).\n    modifier onlyOperator() {\n        require(msg.sender == operator, \"not operator\");\n        _;\n    }\n\n    /// @dev Return the entitied LP token balance for the given shares.\n    /// @param share The number of shares to be converted to LP balance.\n    function shareToBalance(uint256 share) public view returns (uint256) {\n        if (totalShare == 0) return share; // When there's no share, 1 share = 1 balance.\n        (uint256 totalBalance, ) = masterChef.userInfo(pid, address(this));\n        return share.mul(totalBalance).div(totalShare);\n    }\n\n    /// @dev Return the number of shares to receive if staking the given LP tokens.\n    /// @param balance the number of LP tokens to be converted to shares.\n    function balanceToShare(uint256 balance) public view returns (uint256) {\n        if (totalShare == 0) return balance; // When there's no share, 1 share = 1 balance.\n        (uint256 totalBalance, ) = masterChef.userInfo(pid, address(this));\n        return balance.mul(totalShare).div(totalBalance);\n    }\n\n    /// @dev Re-invest whatever this worker has earned back to staked LP tokens.\n    function reinvest() public onlyEOA nonReentrant {\n        // 1. Withdraw all the rewards.        \n        masterChef.withdraw(pid, 0);\n        uint256 reward = sushi.balanceOf(address(this));\n        if (reward == 0) return;\n        // 2. Send the reward bounty to the caller.\n        uint256 bounty = reward.mul(reinvestBountyBps) / 10000;\n        sushi.safeTransfer(msg.sender, bounty);\n        // 3. Convert all the remaining rewards to ETH.\n        address[] memory path = new address[](2);\n        path[0] = address(sushi);\n        path[1] = address(weth);\n        router.swapExactTokensForETH(reward.sub(bounty), 0, path, address(this), now);\n        // 4. Use add ETH strategy to convert all ETH to LP tokens.\n        addStrat.execute.value(address(this).balance)(address(0), 0, abi.encode(fToken, 0));\n        // 5. Mint more LP tokens and stake them for more rewards.\n        masterChef.deposit(pid, lpToken.balanceOf(address(this)));\n        emit Reinvest(msg.sender, reward, bounty);\n    }\n\n    /// @dev Work on the given position. Must be called by the operator.\n    /// @param id The position ID to work on.\n    /// @param user The original user that is interacting with the operator.\n    /// @param debt The amount of user debt to help the strategy make decisions.\n    /// @param data The encoded data, consisting of strategy address and calldata.\n    function work(uint256 id, address user, uint256 debt, bytes calldata data) \n        external payable \n        onlyOperator nonReentrant \n    {\n        // 1. Convert this position back to LP tokens.\n        _removeShare(id);\n        // 2. Perform the worker strategy; sending LP tokens + ETH; expecting LP tokens + ETH.\n        (address strat, bytes memory ext) = abi.decode(data, (address, bytes));\n        require(okStrats[strat], \"unapproved work strategy\");\n        lpToken.transfer(strat, lpToken.balanceOf(address(this)));\n        Strategy(strat).execute.value(msg.value)(user, debt, ext);\n        // 3. Add LP tokens back to the farming pool.\n        _addShare(id);\n        // 4. Return any remaining ETH back to the operator.\n        SafeToken.safeTransferETH(msg.sender, address(this).balance);\n    }\n\n    /// @dev Return maximum output given the input amount and the status of Uniswap reserves.\n    /// @param aIn The amount of asset to market sell.\n    /// @param rIn the amount of asset in reserve for input.\n    /// @param rOut The amount of asset in reserve for output.\n    function getMktSellAmount(uint256 aIn, uint256 rIn, uint256 rOut) public pure returns (uint256) {\n        if (aIn == 0) return 0;\n        require(rIn > 0 && rOut > 0, \"bad reserve values\");\n        uint256 aInWithFee = aIn.mul(997);\n        uint256 numerator = aInWithFee.mul(rOut);\n        uint256 denominator = rIn.mul(1000).add(aInWithFee);\n        return numerator / denominator;\n    }\n\n    /// @dev Return the amount of ETH to receive if we are to liquidate the given position.\n    /// @param id The position ID to perform health check.\n    function health(uint256 id) external view returns (uint256) {\n        // 1. Get the position's LP balance and LP total supply.\n        uint256 lpBalance = shareToBalance(shares[id]);\n        uint256 lpSupply = lpToken.totalSupply(); // Ignore pending mintFee as it is insignificant\n        // 2. Get the pool's total supply of WETH and farming token.\n        (uint256 r0, uint256 r1,) = lpToken.getReserves();\n        (uint256 totalWETH, uint256 totalfToken) = lpToken.token0() == weth ? (r0, r1) : (r1, r0);\n        // 3. Convert the position's LP tokens to the underlying assets.\n        uint256 userWETH = lpBalance.mul(totalWETH).div(lpSupply);\n        uint256 userfToken = lpBalance.mul(totalfToken).div(lpSupply);\n        // 4. Convert all farming tokens to ETH and return total ETH.\n        return getMktSellAmount(\n            userfToken, totalfToken.sub(userfToken), totalWETH.sub(userWETH)\n        ).add(userWETH);\n    }\n\n    /// @dev Liquidate the given position by converting it to ETH and return back to caller.\n    /// @param id The position ID to perform liquidation\n    function liquidate(uint256 id) external onlyOperator nonReentrant {\n        // 1. Convert the position back to LP tokens and use liquidate strategy.\n        _removeShare(id);\n        lpToken.transfer(address(liqStrat), lpToken.balanceOf(address(this)));\n        liqStrat.execute(address(0), 0, abi.encode(fToken, 0));\n        // 2. Return all available ETH back to the operator.\n        uint256 wad = address(this).balance;\n        SafeToken.safeTransferETH(msg.sender, wad);\n        emit Liquidate(id, wad);\n    }\n\n    /// @dev Internal function to stake all outstanding LP tokens to the given position ID.\n    function _addShare(uint256 id) internal {\n        uint256 balance = lpToken.balanceOf(address(this));\n        if (balance > 0) {\n            uint256 share = balanceToShare(balance);\n            masterChef.deposit(pid, balance);\n            shares[id] = shares[id].add(share);\n            totalShare = totalShare.add(share);\n            emit AddShare(id, share);\n        }\n    }\n\n    /// @dev Internal function to remove shares of the ID and convert to outstanding LP tokens.\n    function _removeShare(uint256 id) internal {\n        uint256 share = shares[id];\n        if (share > 0) {\n            uint256 balance = shareToBalance(share);\n            masterChef.withdraw(pid, balance);\n            totalShare = totalShare.sub(share);\n            shares[id] = 0;\n            emit RemoveShare(id, share);\n        }\n    }\n\n    /// @dev Recover ERC20 tokens that were accidentally sent to this smart contract.\n    /// @param token The token contract. Can be anything. This contract should not hold ERC20 tokens.\n    /// @param to The address to send the tokens to.\n    /// @param value The number of tokens to transfer to `to`.\n    function recover(address token, address to, uint256 value) external onlyOwner nonReentrant {\n        token.safeTransfer(to, value);\n    }\n\n    /// @dev Set the reward bounty for calling reinvest operations.\n    /// @param _reinvestBountyBps The bounty value to update.\n    function setReinvestBountyBps(uint256 _reinvestBountyBps) external onlyOwner {\n        reinvestBountyBps = _reinvestBountyBps;\n    }\n\n    /// @dev Set the given strategies' approval status.\n    /// @param strats The strategy addresses.\n    /// @param isOk Whether to approve or unapprove the given strategies.\n    function setStrategyOk(address[] calldata strats, bool isOk) external onlyOwner {\n        uint256 len = strats.length;\n        for (uint256 idx = 0; idx < len; idx++) {\n            okStrats[strats[idx]] = isOk;\n        }\n    }\n\n    /// @dev Update critical strategy smart contracts. EMERGENCY ONLY. Bad strategies can steal funds.\n    /// @param _addStrat The new add strategy contract.\n    /// @param _liqStrat The new liquidate strategy contract.\n    function setCriticalStrategies(Strategy _addStrat, Strategy _liqStrat) external onlyOwner {\n        addStrat = _addStrat;\n        liqStrat = _liqStrat;\n    }\n\n    function() external payable {}\n}\n",
  "sourcePath": "C:/workspace/Project/projects.spider.miner/alphahomora/contracts/5/SushiswapGoblin.sol",
  "compiler": {
    "name": "solc",
    "version": "0.5.16+commit.9c3226ce.Emscripten.clang"
  },
  "schemaVersion": "3.2.5",
  "updatedAt": "2021-01-08T06:13:44.922Z",
  "devdoc": {
    "methods": {
      "balanceToShare(uint256)": {
        "details": "Return the number of shares to receive if staking the given LP tokens.",
        "params": {
          "balance": "the number of LP tokens to be converted to shares."
        }
      },
      "getMktSellAmount(uint256,uint256,uint256)": {
        "details": "Return maximum output given the input amount and the status of Uniswap reserves.",
        "params": {
          "aIn": "The amount of asset to market sell.",
          "rIn": "the amount of asset in reserve for input.",
          "rOut": "The amount of asset in reserve for output."
        }
      },
      "health(uint256)": {
        "details": "Return the amount of ETH to receive if we are to liquidate the given position.",
        "params": {
          "id": "The position ID to perform health check."
        }
      },
      "isOwner()": {
        "details": "Returns true if the caller is the current owner."
      },
      "liquidate(uint256)": {
        "details": "Liquidate the given position by converting it to ETH and return back to caller.",
        "params": {
          "id": "The position ID to perform liquidation"
        }
      },
      "owner()": {
        "details": "Returns the address of the current owner."
      },
      "recover(address,address,uint256)": {
        "details": "Recover ERC20 tokens that were accidentally sent to this smart contract.",
        "params": {
          "to": "The address to send the tokens to.",
          "token": "The token contract. Can be anything. This contract should not hold ERC20 tokens.",
          "value": "The number of tokens to transfer to `to`."
        }
      },
      "reinvest()": {
        "details": "Re-invest whatever this worker has earned back to staked LP tokens."
      },
      "renounceOwnership()": {
        "details": "Leaves the contract without owner. It will not be possible to call `onlyOwner` functions anymore. Can only be called by the current owner.     * > Note: Renouncing ownership will leave the contract without an owner, thereby removing any functionality that is only available to the owner."
      },
      "setCriticalStrategies(address,address)": {
        "details": "Update critical strategy smart contracts. EMERGENCY ONLY. Bad strategies can steal funds.",
        "params": {
          "_addStrat": "The new add strategy contract.",
          "_liqStrat": "The new liquidate strategy contract."
        }
      },
      "setReinvestBountyBps(uint256)": {
        "details": "Set the reward bounty for calling reinvest operations.",
        "params": {
          "_reinvestBountyBps": "The bounty value to update."
        }
      },
      "setStrategyOk(address[],bool)": {
        "details": "Set the given strategies' approval status.",
        "params": {
          "isOk": "Whether to approve or unapprove the given strategies.",
          "strats": "The strategy addresses."
        }
      },
      "shareToBalance(uint256)": {
        "details": "Return the entitied LP token balance for the given shares.",
        "params": {
          "share": "The number of shares to be converted to LP balance."
        }
      },
      "transferOwnership(address)": {
        "details": "Transfers ownership of the contract to a new account (`newOwner`). Can only be called by the current owner."
      },
      "work(uint256,address,uint256,bytes)": {
        "details": "Work on the given position. Must be called by the operator.",
        "params": {
          "data": "The encoded data, consisting of strategy address and calldata.",
          "debt": "The amount of user debt to help the strategy make decisions.",
          "id": "The position ID to work on.",
          "user": "The original user that is interacting with the operator."
        }
      }
    }
  },
  "userdoc": {
    "methods": {}
  }
}