{
  "contractName": "TripleSlopeModel",
  "abi": [
    {
      "constant": true,
      "inputs": [
        {
          "internalType": "uint256",
          "name": "debt",
          "type": "uint256"
        },
        {
          "internalType": "uint256",
          "name": "floating",
          "type": "uint256"
        }
      ],
      "name": "getInterestRate",
      "outputs": [
        {
          "internalType": "uint256",
          "name": "",
          "type": "uint256"
        }
      ],
      "payable": false,
      "stateMutability": "pure",
      "type": "function"
    }
  ],
  "bytecode": "0x608060405234801561001057600080fd5b506103af806100206000396000f3fe608060405234801561001057600080fd5b506004361061002b5760003560e01c8063c6dfa13f14610030575b600080fd5b6100536004803603604081101561004657600080fd5b5080359060200135610065565b60408051918252519081900360200190f35b600080610078848463ffffffff61017016565b9050600061009e826100928761271063ffffffff6101eb16565b9063ffffffff61025e16565b90506113888110156100c3576301e1338067016345785d8a00005b049250505061016a565b61251c811015610113576301e13380610102612710610092670214e8348c4f00006100f68661138863ffffffff6102e216565b9063ffffffff6101eb16565b67016345785d8a000001816100b957fe5b612710811015610157576301e13380610146612710610092670a688906bd8b00006100f686611d4c63ffffffff6102e216565b6703782dace9d9000001816100b957fe5b6301e13380670de0b6b3a76400006100b9565b92915050565b6000828201838110156101e457604080517f08c379a000000000000000000000000000000000000000000000000000000000815260206004820152601b60248201527f536166654d6174683a206164646974696f6e206f766572666c6f770000000000604482015290519081900360640190fd5b9392505050565b6000826101fa5750600061016a565b8282028284828161020757fe5b04146101e4576040517f08c379a000000000000000000000000000000000000000000000000000000000815260040180806020018281038252602181526020018061035a6021913960400191505060405180910390fd5b60008082116102ce57604080517f08c379a000000000000000000000000000000000000000000000000000000000815260206004820152601a60248201527f536166654d6174683a206469766973696f6e206279207a65726f000000000000604482015290519081900360640190fd5b60008284816102d957fe5b04949350505050565b60008282111561035357604080517f08c379a000000000000000000000000000000000000000000000000000000000815260206004820152601e60248201527f536166654d6174683a207375627472616374696f6e206f766572666c6f770000604482015290519081900360640190fd5b5090039056fe536166654d6174683a206d756c7469706c69636174696f6e206f766572666c6f77a265627a7a723158202f1795bb685eadff247fc493abff6276df10e50faf406c2a63cd8b1286699b5964736f6c63430005100032",
  "source": "pragma solidity 0.5.16;\nimport \"openzeppelin-solidity-2.3.0/contracts/ownership/Ownable.sol\";\nimport \"openzeppelin-solidity-2.3.0/contracts/math/SafeMath.sol\";\nimport \"./BankConfig.sol\";\nimport \"./GoblinConfig.sol\";\n\n\ninterface InterestModel {\n    /// @dev Return the interest rate per second, using 1e18 as denom.\n    function getInterestRate(uint256 debt, uint256 floating) external view returns (uint256);\n}\n\ncontract TripleSlopeModel {\n    using SafeMath for uint256;\n\n    /// @dev Return the interest rate per second, using 1e18 as denom.\n    function getInterestRate(uint256 debt, uint256 floating) external pure returns (uint256) {\n        uint256 total = debt.add(floating);\n        uint256 utilization = debt.mul(10000).div(total);\n        if (utilization < 5000) {\n            // Less than 50% utilization - 10% APY\n            return uint256(10e16) / 365 days;\n        } else if (utilization < 9500) {\n            // Between 50% and 95% - 10%-25% APY\n            return (10e16 + utilization.sub(5000).mul(15e16).div(10000)) / 365 days;\n        } else if (utilization < 10000) {\n            // Between 95% and 100% - 25%-100% APY\n            return (25e16 + utilization.sub(7500).mul(75e16).div(10000)) / 365 days;\n        } else {\n            // Not possible, but just in case - 100% APY\n            return uint256(100e16) / 365 days;\n        }\n    }\n}\n\ncontract ConfigurableInterestBankConfig is BankConfig, Ownable {\n    /// The minimum ETH debt size per position.\n    uint256 public minDebtSize;\n    /// The portion of interests allocated to the reserve pool.\n    uint256 public getReservePoolBps;\n    /// The reward for successfully killing a position.\n    uint256 public getKillBps;\n    /// Mapping for goblin address to its configuration.\n    mapping (address => GoblinConfig) public goblins;\n    /// Interest rate model\n    InterestModel public interestModel;\n\n    constructor(\n        uint256 _minDebtSize,\n        uint256 _reservePoolBps,\n        uint256 _killBps,\n        InterestModel _interestModel\n    ) public {\n        setParams(_minDebtSize, _reservePoolBps, _killBps, _interestModel);\n    }\n\n    /// @dev Set all the basic parameters. Must only be called by the owner.\n    /// @param _minDebtSize The new minimum debt size value.\n    /// @param _reservePoolBps The new interests allocated to the reserve pool value.\n    /// @param _killBps The new reward for killing a position value.\n    /// @param _interestModel The new interest rate model contract.\n    function setParams(\n        uint256 _minDebtSize,\n        uint256 _reservePoolBps,\n        uint256 _killBps,\n        InterestModel _interestModel\n    ) public onlyOwner {\n        minDebtSize = _minDebtSize;\n        getReservePoolBps = _reservePoolBps;\n        getKillBps = _killBps;\n        interestModel = _interestModel;\n    }\n\n    /// @dev Set the configuration for the given goblins. Must only be called by the owner.\n    function setGoblins(address[] calldata addrs, GoblinConfig[] calldata configs) external onlyOwner {\n        require(addrs.length == configs.length, \"bad length\");\n        for (uint256 idx = 0; idx < addrs.length; idx++) {\n            goblins[addrs[idx]] = configs[idx];\n        }\n    }\n\n    /// @dev Return the interest rate per second, using 1e18 as denom.\n    function getInterestRate(uint256 debt, uint256 floating) external view returns (uint256) {\n        return interestModel.getInterestRate(debt, floating);\n    }\n\n    /// @dev Return whether the given address is a goblin.\n    function isGoblin(address goblin) external view returns (bool) {\n        return address(goblins[goblin]) != address(0);\n    }\n\n    /// @dev Return whether the given goblin accepts more debt. Revert on non-goblin.\n    function acceptDebt(address goblin) external view returns (bool) {\n        return goblins[goblin].acceptDebt(goblin);\n    }\n\n    /// @dev Return the work factor for the goblin + ETH debt, using 1e4 as denom. Revert on non-goblin.\n    function workFactor(address goblin, uint256 debt) external view returns (uint256) {\n        return goblins[goblin].workFactor(goblin, debt);\n    }\n\n    /// @dev Return the kill factor for the goblin + ETH debt, using 1e4 as denom. Revert on non-goblin.\n    function killFactor(address goblin, uint256 debt) external view returns (uint256) {\n        return goblins[goblin].killFactor(goblin, debt);\n    }\n}\n",
  "sourcePath": "C:/workspace/Project/projects.spider.miner/alphahomora/contracts/5/ConfigurableInterestBankConfig.sol",
  "compiler": {
    "name": "solc",
    "version": "0.5.16+commit.9c3226ce.Emscripten.clang"
  },
  "schemaVersion": "3.2.5",
  "updatedAt": "2021-01-08T06:13:44.735Z",
  "devdoc": {
    "methods": {
      "getInterestRate(uint256,uint256)": {
        "details": "Return the interest rate per second, using 1e18 as denom."
      }
    }
  },
  "userdoc": {
    "methods": {}
  }
}