{
  "contractName": "UniswapGoblinConfig",
  "abi": [
    {
      "inputs": [
        {
          "internalType": "contract PriceOracle",
          "name": "_oracle",
          "type": "address"
        }
      ],
      "payable": false,
      "stateMutability": "nonpayable",
      "type": "constructor"
    },
    {
      "anonymous": false,
      "inputs": [
        {
          "indexed": true,
          "internalType": "address",
          "name": "previousOwner",
          "type": "address"
        },
        {
          "indexed": true,
          "internalType": "address",
          "name": "newOwner",
          "type": "address"
        }
      ],
      "name": "OwnershipTransferred",
      "type": "event"
    },
    {
      "constant": true,
      "inputs": [
        {
          "internalType": "address",
          "name": "",
          "type": "address"
        }
      ],
      "name": "goblins",
      "outputs": [
        {
          "internalType": "bool",
          "name": "acceptDebt",
          "type": "bool"
        },
        {
          "internalType": "uint64",
          "name": "workFactor",
          "type": "uint64"
        },
        {
          "internalType": "uint64",
          "name": "killFactor",
          "type": "uint64"
        },
        {
          "internalType": "uint64",
          "name": "maxPriceDiff",
          "type": "uint64"
        }
      ],
      "payable": false,
      "stateMutability": "view",
      "type": "function"
    },
    {
      "constant": true,
      "inputs": [],
      "name": "isOwner",
      "outputs": [
        {
          "internalType": "bool",
          "name": "",
          "type": "bool"
        }
      ],
      "payable": false,
      "stateMutability": "view",
      "type": "function"
    },
    {
      "constant": true,
      "inputs": [],
      "name": "oracle",
      "outputs": [
        {
          "internalType": "contract PriceOracle",
          "name": "",
          "type": "address"
        }
      ],
      "payable": false,
      "stateMutability": "view",
      "type": "function"
    },
    {
      "constant": true,
      "inputs": [],
      "name": "owner",
      "outputs": [
        {
          "internalType": "address",
          "name": "",
          "type": "address"
        }
      ],
      "payable": false,
      "stateMutability": "view",
      "type": "function"
    },
    {
      "constant": false,
      "inputs": [],
      "name": "renounceOwnership",
      "outputs": [],
      "payable": false,
      "stateMutability": "nonpayable",
      "type": "function"
    },
    {
      "constant": false,
      "inputs": [
        {
          "internalType": "address",
          "name": "newOwner",
          "type": "address"
        }
      ],
      "name": "transferOwnership",
      "outputs": [],
      "payable": false,
      "stateMutability": "nonpayable",
      "type": "function"
    },
    {
      "constant": false,
      "inputs": [
        {
          "internalType": "contract PriceOracle",
          "name": "_oracle",
          "type": "address"
        }
      ],
      "name": "setOracle",
      "outputs": [],
      "payable": false,
      "stateMutability": "nonpayable",
      "type": "function"
    },
    {
      "constant": false,
      "inputs": [
        {
          "internalType": "address[]",
          "name": "addrs",
          "type": "address[]"
        },
        {
          "components": [
            {
              "internalType": "bool",
              "name": "acceptDebt",
              "type": "bool"
            },
            {
              "internalType": "uint64",
              "name": "workFactor",
              "type": "uint64"
            },
            {
              "internalType": "uint64",
              "name": "killFactor",
              "type": "uint64"
            },
            {
              "internalType": "uint64",
              "name": "maxPriceDiff",
              "type": "uint64"
            }
          ],
          "internalType": "struct UniswapGoblinConfig.Config[]",
          "name": "configs",
          "type": "tuple[]"
        }
      ],
      "name": "setConfigs",
      "outputs": [],
      "payable": false,
      "stateMutability": "nonpayable",
      "type": "function"
    },
    {
      "constant": true,
      "inputs": [
        {
          "internalType": "address",
          "name": "goblin",
          "type": "address"
        }
      ],
      "name": "isStable",
      "outputs": [
        {
          "internalType": "bool",
          "name": "",
          "type": "bool"
        }
      ],
      "payable": false,
      "stateMutability": "view",
      "type": "function"
    },
    {
      "constant": true,
      "inputs": [
        {
          "internalType": "address",
          "name": "goblin",
          "type": "address"
        }
      ],
      "name": "acceptDebt",
      "outputs": [
        {
          "internalType": "bool",
          "name": "",
          "type": "bool"
        }
      ],
      "payable": false,
      "stateMutability": "view",
      "type": "function"
    },
    {
      "constant": true,
      "inputs": [
        {
          "internalType": "address",
          "name": "goblin",
          "type": "address"
        },
        {
          "internalType": "uint256",
          "name": "",
          "type": "uint256"
        }
      ],
      "name": "workFactor",
      "outputs": [
        {
          "internalType": "uint256",
          "name": "",
          "type": "uint256"
        }
      ],
      "payable": false,
      "stateMutability": "view",
      "type": "function"
    },
    {
      "constant": true,
      "inputs": [
        {
          "internalType": "address",
          "name": "goblin",
          "type": "address"
        },
        {
          "internalType": "uint256",
          "name": "",
          "type": "uint256"
        }
      ],
      "name": "killFactor",
      "outputs": [
        {
          "internalType": "uint256",
          "name": "",
          "type": "uint256"
        }
      ],
      "payable": false,
      "stateMutability": "view",
      "type": "function"
    }
  ],
  "bytecode": "0x60806040523480156200001157600080fd5b50604051620018b2380380620018b28339810160408190526200003491620000b6565b600080546001600160a01b03191633178082556040516001600160a01b039190911691907f8be0079c531659141344cd1fd0a4f28419497f9722a3daafe3b4186f6b6457e0908290a3600180546001600160a01b0319166001600160a01b03929092169190911790556200011f565b8051620000b08162000105565b92915050565b600060208284031215620000c957600080fd5b6000620000d78484620000a3565b949350505050565b6000620000b082620000f9565b6000620000b082620000df565b6001600160a01b031690565b6200011081620000ec565b81146200011c57600080fd5b50565b611783806200012f6000396000f3fe608060405234801561001057600080fd5b50600436106100d35760003560e01c80638da5cb5b11610081578063a71d6f431161005b578063a71d6f4314610196578063ad58e573146101b9578063f2fde38b146101cc576100d3565b80638da5cb5b146101665780638f32d59b1461017b5780639185f6ec14610183576100d3565b8063715018a6116100b2578063715018a6146101365780637adbf9731461013e5780637dc0d1d014610151576100d3565b80620237f0146100d85780630e803bf51461010157806313f6321b14610116575b600080fd5b6100eb6100e6366004611059565b6101df565b6040516100f89190611575565b60405180910390f35b61011461010f3660046110d7565b610255565b005b61012961012436600461109d565b6104e2565b6040516100f8919061167f565b610114610568565b61011461014c366004611183565b610615565b61015961069a565b6040516100f891906115c1565b61016e6106b6565b6040516100f8919061154c565b6100eb6106d2565b6100eb610191366004611059565b6106f0565b6101a96101a4366004611059565b610c24565b6040516100f89493929190611583565b6101296101c736600461109d565b610c73565b6101146101da366004611059565b610ced565b60006101ea826106f0565b610229576040517f08c379a00000000000000000000000000000000000000000000000000000000081526004016102209061160f565b60405180910390fd5b5073ffffffffffffffffffffffffffffffffffffffff1660009081526002602052604090205460ff1690565b61025d6106d2565b610293576040517f08c379a00000000000000000000000000000000000000000000000000000000081526004016102209061163f565b828181146102cd576040517f08c379a00000000000000000000000000000000000000000000000000000000081526004016102209061165f565b60005b818110156104da5760405180608001604052808585848181106102ef57fe5b6103059260206080909202019081019150611147565b1515815260200185858481811061031857fe5b9050608002016020016020610330919081019061123c565b67ffffffffffffffff16815260200185858481811061034b57fe5b9050608002016040016020610363919081019061123c565b67ffffffffffffffff16815260200185858481811061037e57fe5b9050608002016060016020610396919081019061123c565b67ffffffffffffffff169052600260008888858181106103b257fe5b90506020020160206103c79190810190611059565b73ffffffffffffffffffffffffffffffffffffffff16815260208082019290925260409081016000208351815493850151928501516060909501517fffffffffffffffffffffffffffffffffffffffffffffffffffffffffffffff00909416901515177fffffffffffffffffffffffffffffffffffffffffffffff0000000000000000ff1661010067ffffffffffffffff93841602177fffffffffffffffffffffffffffffff0000000000000000ffffffffffffffffff16690100000000000000000094831694909402939093177fffffffffffffff0000000000000000ffffffffffffffffffffffffffffffffff167101000000000000000000000000000000000091909216021790556001016102d0565b505050505050565b60006104ed836106f0565b610523576040517f08c379a00000000000000000000000000000000000000000000000000000000081526004016102209061160f565b5073ffffffffffffffffffffffffffffffffffffffff82166000908152600260205260409020546901000000000000000000900467ffffffffffffffff165b92915050565b6105706106d2565b6105a6576040517f08c379a00000000000000000000000000000000000000000000000000000000081526004016102209061163f565b6000805460405173ffffffffffffffffffffffffffffffffffffffff909116907f8be0079c531659141344cd1fd0a4f28419497f9722a3daafe3b4186f6b6457e0908390a3600080547fffffffffffffffffffffffff0000000000000000000000000000000000000000169055565b61061d6106d2565b610653576040517f08c379a00000000000000000000000000000000000000000000000000000000081526004016102209061163f565b600180547fffffffffffffffffffffffff00000000000000000000000000000000000000001673ffffffffffffffffffffffffffffffffffffffff92909216919091179055565b60015473ffffffffffffffffffffffffffffffffffffffff1681565b60005473ffffffffffffffffffffffffffffffffffffffff1690565b60005473ffffffffffffffffffffffffffffffffffffffff16331490565b6000808273ffffffffffffffffffffffffffffffffffffffff16635fcbd2856040518163ffffffff1660e01b815260040160206040518083038186803b15801561073957600080fd5b505afa15801561074d573d6000803e3d6000fd5b505050506040513d601f19601f820116820180604052506107719190810190611165565b905060008173ffffffffffffffffffffffffffffffffffffffff16630dfe16816040518163ffffffff1660e01b815260040160206040518083038186803b1580156107bb57600080fd5b505afa1580156107cf573d6000803e3d6000fd5b505050506040513d601f19601f820116820180604052506107f3919081019061107f565b905060008273ffffffffffffffffffffffffffffffffffffffff1663d21220a76040518163ffffffff1660e01b815260040160206040518083038186803b15801561083d57600080fd5b505afa158015610851573d6000803e3d6000fd5b505050506040513d601f19601f82011682018060405250610875919081019061107f565b90506000808473ffffffffffffffffffffffffffffffffffffffff16630902f1ac6040518163ffffffff1660e01b815260040160606040518083038186803b1580156108c057600080fd5b505afa1580156108d4573d6000803e3d6000fd5b505050506040513d601f19601f820116820180604052506108f891908101906111a1565b506dffffffffffffffffffffffffffff9182169350169050600061093873ffffffffffffffffffffffffffffffffffffffff86168763ffffffff610d3716565b9050600061096273ffffffffffffffffffffffffffffffffffffffff86168863ffffffff610d3716565b905061097584606563ffffffff610de316565b61098683606463ffffffff610de316565b11156109be576040517f08c379a00000000000000000000000000000000000000000000000000000000081526004016102209061164f565b6109cf83606563ffffffff610de316565b6109e082606463ffffffff610de316565b1115610a18576040517f08c379a0000000000000000000000000000000000000000000000000000000008152600401610220906115ef565b6001546040517fac41865a000000000000000000000000000000000000000000000000000000008152600091829173ffffffffffffffffffffffffffffffffffffffff9091169063ac41865a90610a75908b908b9060040161155a565b604080518083038186803b158015610a8c57600080fd5b505afa158015610aa0573d6000803e3d6000fd5b505050506040513d601f19601f82011682018060405250610ac4919081019061120c565b9150915062093a804203811015610b07576040517f08c379a00000000000000000000000000000000000000000000000000000000081526004016102209061161f565b6000610b3187610b2588670de0b6b3a764000063ffffffff610de316565b9063ffffffff610e3716565b73ffffffffffffffffffffffffffffffffffffffff8d1660009081526002602052604090205490915071010000000000000000000000000000000000900467ffffffffffffffff16610b89612710610b258684610de3565b821115610bc2576040517f08c379a00000000000000000000000000000000000000000000000000000000081526004016102209061166f565b610bd881610b258661271063ffffffff610de316565b821015610c11576040517f08c379a0000000000000000000000000000000000000000000000000000000008152600401610220906115df565b5060019c9b505050505050505050505050565b60026020526000908152604090205460ff81169067ffffffffffffffff610100820481169169010000000000000000008104821691710100000000000000000000000000000000009091041684565b6000610c7e836106f0565b610cb4576040517f08c379a00000000000000000000000000000000000000000000000000000000081526004016102209061160f565b505073ffffffffffffffffffffffffffffffffffffffff16600090815260026020526040902054610100900467ffffffffffffffff1690565b610cf56106d2565b610d2b576040517f08c379a00000000000000000000000000000000000000000000000000000000081526004016102209061163f565b610d3481610e86565b50565b6040517f70a0823100000000000000000000000000000000000000000000000000000000815260009073ffffffffffffffffffffffffffffffffffffffff8416906370a0823190610d8c90859060040161154c565b60206040518083038186803b158015610da457600080fd5b505afa158015610db8573d6000803e3d6000fd5b505050506040513d601f19601f82011682018060405250610ddc91908101906111ee565b9392505050565b600082610df257506000610562565b82820282848281610dff57fe5b0414610ddc576040517f08c379a00000000000000000000000000000000000000000000000000000000081526004016102209061162f565b6000808211610e72576040517f08c379a0000000000000000000000000000000000000000000000000000000008152600401610220906115ff565b6000828481610e7d57fe5b04949350505050565b73ffffffffffffffffffffffffffffffffffffffff8116610ed3576040517f08c379a0000000000000000000000000000000000000000000000000000000008152600401610220906115cf565b6000805460405173ffffffffffffffffffffffffffffffffffffffff808516939216917f8be0079c531659141344cd1fd0a4f28419497f9722a3daafe3b4186f6b6457e091a3600080547fffffffffffffffffffffffff00000000000000000000000000000000000000001673ffffffffffffffffffffffffffffffffffffffff92909216919091179055565b8035610562816116f6565b8051610562816116f6565b60008083601f840112610f8857600080fd5b50813567ffffffffffffffff811115610fa057600080fd5b602083019150836020820283011115610fb857600080fd5b9250929050565b60008083601f840112610fd157600080fd5b50813567ffffffffffffffff811115610fe957600080fd5b602083019150836080820283011115610fb857600080fd5b80356105628161170a565b805161056281611713565b803561056281611713565b80516105628161171c565b803561056281611725565b805161056281611725565b80516105628161172e565b803561056281611737565b60006020828403121561106b57600080fd5b60006110778484610f60565b949350505050565b60006020828403121561109157600080fd5b60006110778484610f6b565b600080604083850312156110b057600080fd5b60006110bc8585610f60565b92505060206110cd8582860161102d565b9150509250929050565b600080600080604085870312156110ed57600080fd5b843567ffffffffffffffff81111561110457600080fd5b61111087828801610f76565b9450945050602085013567ffffffffffffffff81111561112f57600080fd5b61113b87828801610fbf565b95989497509550505050565b60006020828403121561115957600080fd5b60006110778484611001565b60006020828403121561117757600080fd5b6000611077848461100c565b60006020828403121561119557600080fd5b60006110778484611017565b6000806000606084860312156111b657600080fd5b60006111c28686611022565b93505060206111d386828701611022565b92505060406111e486828701611043565b9150509250925092565b60006020828403121561120057600080fd5b60006110778484611038565b6000806040838503121561121f57600080fd5b600061122b8585611038565b92505060206110cd85828601611038565b60006020828403121561124e57600080fd5b6000611077848461104e565b61126381611696565b82525050565b611263816116a1565b611263816116a6565b600061128860268361168d565b7f4f776e61626c653a206e6577206f776e657220697320746865207a65726f206181527f6464726573730000000000000000000000000000000000000000000000000000602082015260400192915050565b60006112e7600d8361168d565b7f707269636520746f6f206c6f7700000000000000000000000000000000000000815260200192915050565b6000611320600e8361168d565b7f6261642074312062616c616e6365000000000000000000000000000000000000815260200192915050565b6000611359601a8361168d565b7f536166654d6174683a206469766973696f6e206279207a65726f000000000000815260200192915050565b600061139260078361168d565b7f21737461626c6500000000000000000000000000000000000000000000000000815260200192915050565b60006113cb600f8361168d565b7f707269636520746f6f207374616c650000000000000000000000000000000000815260200192915050565b600061140460218361168d565b7f536166654d6174683a206d756c7469706c69636174696f6e206f766572666c6f81527f7700000000000000000000000000000000000000000000000000000000000000602082015260400192915050565b600061146360208361168d565b7f4f776e61626c653a2063616c6c6572206973206e6f7420746865206f776e6572815260200192915050565b600061149c600e8361168d565b7f6261642074302062616c616e6365000000000000000000000000000000000000815260200192915050565b60006114d560078361168d565b7f626164206c656e00000000000000000000000000000000000000000000000000815260200192915050565b600061150e600e8361168d565b7f707269636520746f6f2068696768000000000000000000000000000000000000815260200192915050565b611263816116dd565b611263816116e9565b60208101610562828461125a565b60408101611568828561125a565b610ddc602083018461125a565b602081016105628284611269565b608081016115918287611269565b61159e6020830186611543565b6115ab6040830185611543565b6115b86060830184611543565b95945050505050565b602081016105628284611272565b602080825281016105628161127b565b60208082528101610562816112da565b6020808252810161056281611313565b602080825281016105628161134c565b6020808252810161056281611385565b60208082528101610562816113be565b60208082528101610562816113f7565b6020808252810161056281611456565b602080825281016105628161148f565b60208082528101610562816114c8565b6020808252810161056281611501565b60208101610562828461153a565b90815260200190565b6000610562826116c4565b151590565b600061056282611696565b6dffffffffffffffffffffffffffff1690565b73ffffffffffffffffffffffffffffffffffffffff1690565b90565b63ffffffff1690565b67ffffffffffffffff1690565b6116ff81611696565b8114610d3457600080fd5b6116ff816116a1565b6116ff816116a6565b6116ff816116b1565b6116ff816116dd565b6116ff816116e0565b6116ff816116e956fea365627a7a723158201bdbb64c1d08086140cf39311a77812f889ad1ee4f6b9028e68ac16a2f6d16696c6578706572696d656e74616cf564736f6c63430005100040",
  "source": "pragma solidity 0.5.16;\npragma experimental ABIEncoderV2;\nimport \"openzeppelin-solidity-2.3.0/contracts/ownership/Ownable.sol\";\nimport \"openzeppelin-solidity-2.3.0/contracts/math/SafeMath.sol\";\nimport \"@uniswap/v2-core/contracts/interfaces/IUniswapV2Pair.sol\";\nimport \"./GoblinConfig.sol\";\nimport \"./PriceOracle.sol\";\nimport \"./SafeToken.sol\";\n\ninterface IUniswapGoblin {\n    function lpToken() external view returns (IUniswapV2Pair);\n}\n\ncontract UniswapGoblinConfig is Ownable, GoblinConfig {\n    using SafeToken for address;\n    using SafeMath for uint256;\n\n    struct Config {\n        bool acceptDebt;\n        uint64 workFactor;\n        uint64 killFactor;\n        uint64 maxPriceDiff;\n    }\n\n    PriceOracle public oracle;\n    mapping (address => Config) public goblins;\n\n    constructor(PriceOracle _oracle) public {\n        oracle = _oracle;\n    }\n\n    /// @dev Set oracle address. Must be called by owner.\n    function setOracle(PriceOracle _oracle) external onlyOwner {\n        oracle = _oracle;\n    }\n\n    /// @dev Set goblin configurations. Must be called by owner.\n    function setConfigs(address[] calldata addrs, Config[] calldata configs) external onlyOwner {\n        uint256 len = addrs.length;\n        require(configs.length == len, \"bad len\");\n        for (uint256 idx = 0; idx < len; idx++) {\n            goblins[addrs[idx]] = Config({\n                acceptDebt: configs[idx].acceptDebt,\n                workFactor: configs[idx].workFactor,\n                killFactor: configs[idx].killFactor,\n                maxPriceDiff: configs[idx].maxPriceDiff\n            });\n        }\n    }\n\n    /// @dev Return whether the given goblin is stable, presumably not under manipulation.\n    function isStable(address goblin) public view returns (bool) {\n        IUniswapV2Pair lp = IUniswapGoblin(goblin).lpToken();\n        address token0 = lp.token0();\n        address token1 = lp.token1();\n        // 1. Check that reserves and balances are consistent (within 1%)\n        (uint256 r0, uint256 r1,) = lp.getReserves();\n        uint256 t0bal = token0.balanceOf(address(lp));\n        uint256 t1bal = token1.balanceOf(address(lp));\n        require(t0bal.mul(100) <= r0.mul(101), \"bad t0 balance\");\n        require(t1bal.mul(100) <= r1.mul(101), \"bad t1 balance\");\n        // 2. Check that price is in the acceptable range\n        (uint256 price, uint256 lastUpdate) = oracle.getPrice(token0, token1);\n        require(lastUpdate >= now - 7 days, \"price too stale\");\n        uint256 lpPrice = r1.mul(1e18).div(r0);\n        uint256 maxPriceDiff = goblins[goblin].maxPriceDiff;\n        require(lpPrice <= price.mul(maxPriceDiff).div(10000), \"price too high\");\n        require(lpPrice >= price.mul(10000).div(maxPriceDiff), \"price too low\");\n        // 3. Done\n        return true;\n    }\n\n    /// @dev Return whether the given goblin accepts more debt.\n    function acceptDebt(address goblin) external view returns (bool) {\n        require(isStable(goblin), \"!stable\");\n        return goblins[goblin].acceptDebt;\n    }\n\n    /// @dev Return the work factor for the goblin + ETH debt, using 1e4 as denom.\n    function workFactor(address goblin, uint256 /* debt */) external view returns (uint256) {\n        require(isStable(goblin), \"!stable\");\n        return uint256(goblins[goblin].workFactor);\n    }\n\n    /// @dev Return the kill factor for the goblin + ETH debt, using 1e4 as denom.\n    function killFactor(address goblin, uint256 /* debt */) external view returns (uint256) {\n        require(isStable(goblin), \"!stable\");\n        return uint256(goblins[goblin].killFactor);\n    }\n}\n",
  "sourcePath": "C:/workspace/Project/projects.spider.miner/alphahomora/contracts/5/UniswapGoblinConfig.sol",
  "compiler": {
    "name": "solc",
    "version": "0.5.16+commit.9c3226ce.Emscripten.clang"
  },
  "schemaVersion": "3.2.5",
  "updatedAt": "2021-01-08T06:13:44.969Z",
  "devdoc": {
    "methods": {
      "acceptDebt(address)": {
        "details": "Return whether the given goblin accepts more debt."
      },
      "isOwner()": {
        "details": "Returns true if the caller is the current owner."
      },
      "isStable(address)": {
        "details": "Return whether the given goblin is stable, presumably not under manipulation."
      },
      "killFactor(address,uint256)": {
        "details": "Return the kill factor for the goblin + ETH debt, using 1e4 as denom."
      },
      "owner()": {
        "details": "Returns the address of the current owner."
      },
      "renounceOwnership()": {
        "details": "Leaves the contract without owner. It will not be possible to call `onlyOwner` functions anymore. Can only be called by the current owner.     * > Note: Renouncing ownership will leave the contract without an owner, thereby removing any functionality that is only available to the owner."
      },
      "setConfigs(address[],(bool,uint64,uint64,uint64)[])": {
        "details": "Set goblin configurations. Must be called by owner."
      },
      "setOracle(address)": {
        "details": "Set oracle address. Must be called by owner."
      },
      "transferOwnership(address)": {
        "details": "Transfers ownership of the contract to a new account (`newOwner`). Can only be called by the current owner."
      },
      "workFactor(address,uint256)": {
        "details": "Return the work factor for the goblin + ETH debt, using 1e4 as denom."
      }
    }
  },
  "userdoc": {
    "methods": {}
  }
}