{
  "contractName": "UniswapGoblin",
  "abi": [
    {
      "inputs": [
        {
          "internalType": "address",
          "name": "_operator",
          "type": "address"
        },
        {
          "internalType": "contract IStakingRewards",
          "name": "_staking",
          "type": "address"
        },
        {
          "internalType": "contract IUniswapV2Router02",
          "name": "_router",
          "type": "address"
        },
        {
          "internalType": "address",
          "name": "_fToken",
          "type": "address"
        },
        {
          "internalType": "address",
          "name": "_uni",
          "type": "address"
        },
        {
          "internalType": "contract Strategy",
          "name": "_addStrat",
          "type": "address"
        },
        {
          "internalType": "contract Strategy",
          "name": "_liqStrat",
          "type": "address"
        },
        {
          "internalType": "uint256",
          "name": "_reinvestBountyBps",
          "type": "uint256"
        }
      ],
      "payable": false,
      "stateMutability": "nonpayable",
      "type": "constructor"
    },
    {
      "anonymous": false,
      "inputs": [
        {
          "indexed": true,
          "internalType": "uint256",
          "name": "id",
          "type": "uint256"
        },
        {
          "indexed": false,
          "internalType": "uint256",
          "name": "share",
          "type": "uint256"
        }
      ],
      "name": "AddShare",
      "type": "event"
    },
    {
      "anonymous": false,
      "inputs": [
        {
          "indexed": true,
          "internalType": "uint256",
          "name": "id",
          "type": "uint256"
        },
        {
          "indexed": false,
          "internalType": "uint256",
          "name": "wad",
          "type": "uint256"
        }
      ],
      "name": "Liquidate",
      "type": "event"
    },
    {
      "anonymous": false,
      "inputs": [
        {
          "indexed": true,
          "internalType": "address",
          "name": "previousOwner",
          "type": "address"
        },
        {
          "indexed": true,
          "internalType": "address",
          "name": "newOwner",
          "type": "address"
        }
      ],
      "name": "OwnershipTransferred",
      "type": "event"
    },
    {
      "anonymous": false,
      "inputs": [
        {
          "indexed": true,
          "internalType": "address",
          "name": "caller",
          "type": "address"
        },
        {
          "indexed": false,
          "internalType": "uint256",
          "name": "reward",
          "type": "uint256"
        },
        {
          "indexed": false,
          "internalType": "uint256",
          "name": "bounty",
          "type": "uint256"
        }
      ],
      "name": "Reinvest",
      "type": "event"
    },
    {
      "anonymous": false,
      "inputs": [
        {
          "indexed": true,
          "internalType": "uint256",
          "name": "id",
          "type": "uint256"
        },
        {
          "indexed": false,
          "internalType": "uint256",
          "name": "share",
          "type": "uint256"
        }
      ],
      "name": "RemoveShare",
      "type": "event"
    },
    {
      "payable": true,
      "stateMutability": "payable",
      "type": "fallback"
    },
    {
      "constant": true,
      "inputs": [],
      "name": "addStrat",
      "outputs": [
        {
          "internalType": "contract Strategy",
          "name": "",
          "type": "address"
        }
      ],
      "payable": false,
      "stateMutability": "view",
      "type": "function"
    },
    {
      "constant": true,
      "inputs": [],
      "name": "fToken",
      "outputs": [
        {
          "internalType": "address",
          "name": "",
          "type": "address"
        }
      ],
      "payable": false,
      "stateMutability": "view",
      "type": "function"
    },
    {
      "constant": true,
      "inputs": [],
      "name": "factory",
      "outputs": [
        {
          "internalType": "contract IUniswapV2Factory",
          "name": "",
          "type": "address"
        }
      ],
      "payable": false,
      "stateMutability": "view",
      "type": "function"
    },
    {
      "constant": true,
      "inputs": [],
      "name": "isOwner",
      "outputs": [
        {
          "internalType": "bool",
          "name": "",
          "type": "bool"
        }
      ],
      "payable": false,
      "stateMutability": "view",
      "type": "function"
    },
    {
      "constant": true,
      "inputs": [],
      "name": "liqStrat",
      "outputs": [
        {
          "internalType": "contract Strategy",
          "name": "",
          "type": "address"
        }
      ],
      "payable": false,
      "stateMutability": "view",
      "type": "function"
    },
    {
      "constant": true,
      "inputs": [],
      "name": "lpToken",
      "outputs": [
        {
          "internalType": "contract IUniswapV2Pair",
          "name": "",
          "type": "address"
        }
      ],
      "payable": false,
      "stateMutability": "view",
      "type": "function"
    },
    {
      "constant": true,
      "inputs": [
        {
          "internalType": "address",
          "name": "",
          "type": "address"
        }
      ],
      "name": "okStrats",
      "outputs": [
        {
          "internalType": "bool",
          "name": "",
          "type": "bool"
        }
      ],
      "payable": false,
      "stateMutability": "view",
      "type": "function"
    },
    {
      "constant": true,
      "inputs": [],
      "name": "operator",
      "outputs": [
        {
          "internalType": "address",
          "name": "",
          "type": "address"
        }
      ],
      "payable": false,
      "stateMutability": "view",
      "type": "function"
    },
    {
      "constant": true,
      "inputs": [],
      "name": "owner",
      "outputs": [
        {
          "internalType": "address",
          "name": "",
          "type": "address"
        }
      ],
      "payable": false,
      "stateMutability": "view",
      "type": "function"
    },
    {
      "constant": true,
      "inputs": [],
      "name": "reinvestBountyBps",
      "outputs": [
        {
          "internalType": "uint256",
          "name": "",
          "type": "uint256"
        }
      ],
      "payable": false,
      "stateMutability": "view",
      "type": "function"
    },
    {
      "constant": false,
      "inputs": [],
      "name": "renounceOwnership",
      "outputs": [],
      "payable": false,
      "stateMutability": "nonpayable",
      "type": "function"
    },
    {
      "constant": true,
      "inputs": [],
      "name": "router",
      "outputs": [
        {
          "internalType": "contract IUniswapV2Router02",
          "name": "",
          "type": "address"
        }
      ],
      "payable": false,
      "stateMutability": "view",
      "type": "function"
    },
    {
      "constant": true,
      "inputs": [
        {
          "internalType": "uint256",
          "name": "",
          "type": "uint256"
        }
      ],
      "name": "shares",
      "outputs": [
        {
          "internalType": "uint256",
          "name": "",
          "type": "uint256"
        }
      ],
      "payable": false,
      "stateMutability": "view",
      "type": "function"
    },
    {
      "constant": true,
      "inputs": [],
      "name": "staking",
      "outputs": [
        {
          "internalType": "contract IStakingRewards",
          "name": "",
          "type": "address"
        }
      ],
      "payable": false,
      "stateMutability": "view",
      "type": "function"
    },
    {
      "constant": true,
      "inputs": [],
      "name": "totalShare",
      "outputs": [
        {
          "internalType": "uint256",
          "name": "",
          "type": "uint256"
        }
      ],
      "payable": false,
      "stateMutability": "view",
      "type": "function"
    },
    {
      "constant": false,
      "inputs": [
        {
          "internalType": "address",
          "name": "newOwner",
          "type": "address"
        }
      ],
      "name": "transferOwnership",
      "outputs": [],
      "payable": false,
      "stateMutability": "nonpayable",
      "type": "function"
    },
    {
      "constant": true,
      "inputs": [],
      "name": "uni",
      "outputs": [
        {
          "internalType": "address",
          "name": "",
          "type": "address"
        }
      ],
      "payable": false,
      "stateMutability": "view",
      "type": "function"
    },
    {
      "constant": true,
      "inputs": [],
      "name": "weth",
      "outputs": [
        {
          "internalType": "address",
          "name": "",
          "type": "address"
        }
      ],
      "payable": false,
      "stateMutability": "view",
      "type": "function"
    },
    {
      "constant": true,
      "inputs": [
        {
          "internalType": "uint256",
          "name": "share",
          "type": "uint256"
        }
      ],
      "name": "shareToBalance",
      "outputs": [
        {
          "internalType": "uint256",
          "name": "",
          "type": "uint256"
        }
      ],
      "payable": false,
      "stateMutability": "view",
      "type": "function"
    },
    {
      "constant": true,
      "inputs": [
        {
          "internalType": "uint256",
          "name": "balance",
          "type": "uint256"
        }
      ],
      "name": "balanceToShare",
      "outputs": [
        {
          "internalType": "uint256",
          "name": "",
          "type": "uint256"
        }
      ],
      "payable": false,
      "stateMutability": "view",
      "type": "function"
    },
    {
      "constant": false,
      "inputs": [],
      "name": "reinvest",
      "outputs": [],
      "payable": false,
      "stateMutability": "nonpayable",
      "type": "function"
    },
    {
      "constant": false,
      "inputs": [
        {
          "internalType": "uint256",
          "name": "id",
          "type": "uint256"
        },
        {
          "internalType": "address",
          "name": "user",
          "type": "address"
        },
        {
          "internalType": "uint256",
          "name": "debt",
          "type": "uint256"
        },
        {
          "internalType": "bytes",
          "name": "data",
          "type": "bytes"
        }
      ],
      "name": "work",
      "outputs": [],
      "payable": true,
      "stateMutability": "payable",
      "type": "function"
    },
    {
      "constant": true,
      "inputs": [
        {
          "internalType": "uint256",
          "name": "aIn",
          "type": "uint256"
        },
        {
          "internalType": "uint256",
          "name": "rIn",
          "type": "uint256"
        },
        {
          "internalType": "uint256",
          "name": "rOut",
          "type": "uint256"
        }
      ],
      "name": "getMktSellAmount",
      "outputs": [
        {
          "internalType": "uint256",
          "name": "",
          "type": "uint256"
        }
      ],
      "payable": false,
      "stateMutability": "pure",
      "type": "function"
    },
    {
      "constant": true,
      "inputs": [
        {
          "internalType": "uint256",
          "name": "id",
          "type": "uint256"
        }
      ],
      "name": "health",
      "outputs": [
        {
          "internalType": "uint256",
          "name": "",
          "type": "uint256"
        }
      ],
      "payable": false,
      "stateMutability": "view",
      "type": "function"
    },
    {
      "constant": false,
      "inputs": [
        {
          "internalType": "uint256",
          "name": "id",
          "type": "uint256"
        }
      ],
      "name": "liquidate",
      "outputs": [],
      "payable": false,
      "stateMutability": "nonpayable",
      "type": "function"
    },
    {
      "constant": false,
      "inputs": [
        {
          "internalType": "address",
          "name": "token",
          "type": "address"
        },
        {
          "internalType": "address",
          "name": "to",
          "type": "address"
        },
        {
          "internalType": "uint256",
          "name": "value",
          "type": "uint256"
        }
      ],
      "name": "recover",
      "outputs": [],
      "payable": false,
      "stateMutability": "nonpayable",
      "type": "function"
    },
    {
      "constant": false,
      "inputs": [
        {
          "internalType": "uint256",
          "name": "_reinvestBountyBps",
          "type": "uint256"
        }
      ],
      "name": "setReinvestBountyBps",
      "outputs": [],
      "payable": false,
      "stateMutability": "nonpayable",
      "type": "function"
    },
    {
      "constant": false,
      "inputs": [
        {
          "internalType": "address[]",
          "name": "strats",
          "type": "address[]"
        },
        {
          "internalType": "bool",
          "name": "isOk",
          "type": "bool"
        }
      ],
      "name": "setStrategyOk",
      "outputs": [],
      "payable": false,
      "stateMutability": "nonpayable",
      "type": "function"
    },
    {
      "constant": false,
      "inputs": [
        {
          "internalType": "contract Strategy",
          "name": "_addStrat",
          "type": "address"
        },
        {
          "internalType": "contract Strategy",
          "name": "_liqStrat",
          "type": "address"
        }
      ],
      "name": "setCriticalStrategies",
      "outputs": [],
      "payable": false,
      "stateMutability": "nonpayable",
      "type": "function"
    }
  ],
  "bytecode": "0x60806040523480156200001157600080fd5b50604051620033423803806200334283398181016040526101008110156200003857600080fd5b50805160208201516040808401516060850151608086015160a087015160c088015160e090980151600080546001600160a01b031916331780825596519899979895979496939592949391926001600160a01b0392909216917f8be0079c531659141344cd1fd0a4f28419497f9722a3daafe3b4186f6b6457e0908290a36001808190555087600960006101000a8154816001600160a01b0302191690836001600160a01b03160217905550856001600160a01b031663ad5c46486040518163ffffffff1660e01b815260040160206040518083038186803b1580156200011e57600080fd5b505afa15801562000133573d6000803e3d6000fd5b505050506040513d60208110156200014a57600080fd5b5051600680546001600160a01b03199081166001600160a01b03938416179091556002805482168a84161790556004805490911691881691821781556040805163c45a015560e01b8152905163c45a015592828101926020929190829003018186803b158015620001ba57600080fd5b505afa158015620001cf573d6000803e3d6000fd5b505050506040513d6020811015620001e657600080fd5b5051600380546001600160a01b0319166001600160a01b0392831617908190556006546040805163e6a4390560e01b81529184166004830152888416602483015251919092169163e6a43905916044808301926020929190829003018186803b1580156200025357600080fd5b505afa15801562000268573d6000803e3d6000fd5b505050506040513d60208110156200027f57600080fd5b5051600580546001600160a01b03199081166001600160a01b03938416178255600780548216898516179055600880548216888516179055600d805482168785161790819055600e805490921686851617825583166000908152600b60209081526040808320805460ff199081166001908117909255945487168452818420805490951617909355600f8690559254825163095ea7b360e01b81528c861660048201526000196024820152925194169363095ea7b3936044808501949193918390030190829087803b1580156200035557600080fd5b505af11580156200036a573d6000803e3d6000fd5b505050506040513d60208110156200038157600080fd5b5050600554600480546040805163095ea7b360e01b81526001600160a01b039283169381019390935260001960248401525192169163095ea7b3916044808201926020929091908290030181600087803b158015620003df57600080fd5b505af1158015620003f4573d6000803e3d6000fd5b505050506040513d60208110156200040b57600080fd5b505060045462000437906001600160a01b0387811691166000196200046f602090811b62002b1017901c565b60045462000461906001600160a01b0386811691166000196200046f602090811b62002b1017901c565b5050505050505050620005d0565b604080516001600160a01b038481166024830152604480830185905283518084039091018152606490920183526020820180516001600160e01b031663095ea7b360e01b178152925182516000946060949389169392918291908083835b60208310620004ee5780518252601f199092019160209182019101620004cd565b6001836020036101000a0380198251168184511680821785525050505050509050019150506000604051808303816000865af19150503d806000811462000552576040519150601f19603f3d011682016040523d82523d6000602084013e62000557565b606091505b5091509150818015620005885750805115806200058857508080602001905160208110156200058557600080fd5b50515b620005c9576040805162461bcd60e51b815260206004820152600c60248201526b2173616665417070726f766560a01b604482015290519081900360640190fd5b5050505050565b612d6280620005e06000396000f3fe6080604052600436106101c25760003560e01c8063783b6d60116100f7578063c7aa6ae711610095578063f2fde38b11610064578063f2fde38b1461061b578063f3b8912b1461065b578063f887ea401461069b578063fdb5a03e146106b0576101c2565b8063c7aa6ae71461053c578063d75734c814610551578063e7956f2114610587578063edc9af9514610606576101c2565b80638f32d59b116100d15780638f32d59b146104a15780638fa4a940146104ca578063a8694e5714610512578063c45a015514610527576101c2565b8063783b6d601461043857806381955105146104625780638da5cb5b1461048c576101c2565b80634cf088d91161016457806357a858fc1161013e57806357a858fc146103cf5780635fcbd285146103f95780636191e37b1461040e578063715018a614610423576101c2565b80634cf088d914610390578063570ca735146103a557806357899399146103ba576101c2565b80631ec82cb8116101a05780631ec82cb81461023f5780633fc8cef31461028f578063415f1240146102cd57806348db8cc4146102f7576101c2565b8063026c4207146101c45780631363bdd3146101eb5780631620fbd514610215575b005b3480156101d057600080fd5b506101d96106c5565b60408051918252519081900360200190f35b3480156101f757600080fd5b506101d96004803603602081101561020e57600080fd5b50356106cb565b34801561022157600080fd5b506101c26004803603602081101561023857600080fd5b50356107ae565b34801561024b57600080fd5b506101c26004803603606081101561026257600080fd5b5073ffffffffffffffffffffffffffffffffffffffff813581169160208101359091169060400135610826565b34801561029b57600080fd5b506102a4610940565b6040805173ffffffffffffffffffffffffffffffffffffffff9092168252519081900360200190f35b3480156102d957600080fd5b506101c2600480360360208110156102f057600080fd5b503561095c565b6101c26004803603608081101561030d57600080fd5b81359173ffffffffffffffffffffffffffffffffffffffff602082013516916040820135919081019060808101606082013564010000000081111561035157600080fd5b82018360208201111561036357600080fd5b8035906020019184600183028401116401000000008311171561038557600080fd5b509092509050610d1f565b34801561039c57600080fd5b506102a46111dd565b3480156103b157600080fd5b506102a46111f9565b3480156103c657600080fd5b506102a4611215565b3480156103db57600080fd5b506101d9600480360360208110156103f257600080fd5b5035611231565b34801561040557600080fd5b506102a4611243565b34801561041a57600080fd5b506102a461125f565b34801561042f57600080fd5b506101c261127b565b34801561044457600080fd5b506101d96004803603602081101561045b57600080fd5b503561135d565b34801561046e57600080fd5b506101d96004803603602081101561048557600080fd5b503561160c565b34801561049857600080fd5b506102a46116d7565b3480156104ad57600080fd5b506104b66116f3565b604080519115158252519081900360200190f35b3480156104d657600080fd5b506101c2600480360360408110156104ed57600080fd5b5073ffffffffffffffffffffffffffffffffffffffff81358116916020013516611711565b34801561051e57600080fd5b506102a46117d7565b34801561053357600080fd5b506102a46117f3565b34801561054857600080fd5b506101d961180f565b34801561055d57600080fd5b506101d96004803603606081101561057457600080fd5b5080359060208101359060400135611815565b34801561059357600080fd5b506101c2600480360360408110156105aa57600080fd5b8101906020810181356401000000008111156105c557600080fd5b8201836020820111156105d757600080fd5b803590602001918460208302840111640100000000831117156105f957600080fd5b91935091503515156118fa565b34801561061257600080fd5b506102a46119f5565b34801561062757600080fd5b506101c26004803603602081101561063e57600080fd5b503573ffffffffffffffffffffffffffffffffffffffff16611a11565b34801561066757600080fd5b506104b66004803603602081101561067e57600080fd5b503573ffffffffffffffffffffffffffffffffffffffff16611a90565b3480156106a757600080fd5b506102a4611aa5565b3480156106bc57600080fd5b506101c2611ac1565b600c5481565b6000600c54600014156106df5750806107a9565b600254604080517f70a08231000000000000000000000000000000000000000000000000000000008152306004820152905160009273ffffffffffffffffffffffffffffffffffffffff16916370a08231916024808301926020929190829003018186803b15801561075057600080fd5b505afa158015610764573d6000803e3d6000fd5b505050506040513d602081101561077a57600080fd5b5051600c549091506107a590829061079990869063ffffffff61219316565b9063ffffffff61220f16565b9150505b919050565b6107b66116f3565b61082157604080517f08c379a000000000000000000000000000000000000000000000000000000000815260206004820181905260248201527f4f776e61626c653a2063616c6c6572206973206e6f7420746865206f776e6572604482015290519081900360640190fd5b600f55565b61082e6116f3565b61089957604080517f08c379a000000000000000000000000000000000000000000000000000000000815260206004820181905260248201527f4f776e61626c653a2063616c6c6572206973206e6f7420746865206f776e6572604482015290519081900360640190fd5b600180548101908190556108ca73ffffffffffffffffffffffffffffffffffffffff8516848463ffffffff61229316565b600154811461093a57604080517f08c379a000000000000000000000000000000000000000000000000000000000815260206004820152601f60248201527f5265656e7472616e637947756172643a207265656e7472616e742063616c6c00604482015290519081900360640190fd5b50505050565b60065473ffffffffffffffffffffffffffffffffffffffff1681565b60095473ffffffffffffffffffffffffffffffffffffffff1633146109e257604080517f08c379a000000000000000000000000000000000000000000000000000000000815260206004820152600c60248201527f6e6f74206f70657261746f720000000000000000000000000000000000000000604482015290519081900360640190fd5b600180548101908190556109f582612469565b600554600e54604080517f70a08231000000000000000000000000000000000000000000000000000000008152306004820152905173ffffffffffffffffffffffffffffffffffffffff9384169363a9059cbb93169184916370a0823191602480820192602092909190829003018186803b158015610a7357600080fd5b505afa158015610a87573d6000803e3d6000fd5b505050506040513d6020811015610a9d57600080fd5b5051604080517fffffffff0000000000000000000000000000000000000000000000000000000060e086901b16815273ffffffffffffffffffffffffffffffffffffffff909316600484015260248301919091525160448083019260209291908290030181600087803b158015610b1357600080fd5b505af1158015610b27573d6000803e3d6000fd5b505050506040513d6020811015610b3d57600080fd5b5050600e546007546040805173ffffffffffffffffffffffffffffffffffffffff92831660208281019190915260008284018190528351808403850181526060808501958690527fb61d27f600000000000000000000000000000000000000000000000000000000909552606484018281526084850183905260a48501958652815160c48601528151969097169663b61d27f6969295869592949193909260e40191850190808383895b83811015610bff578181015183820152602001610be7565b50505050905090810190601f168015610c2c5780820380516001836020036101000a031916815260200191505b50945050505050600060405180830381600087803b158015610c4d57600080fd5b505af1158015610c61573d6000803e3d6000fd5b505050506000479050610c74338261257a565b60408051828152905184917f253e5385159062a101837d58c10ad4694c58979ebc3ba6b5cb2cbba2fe461692919081900360200190a2506001548114610d1b57604080517f08c379a000000000000000000000000000000000000000000000000000000000815260206004820152601f60248201527f5265656e7472616e637947756172643a207265656e7472616e742063616c6c00604482015290519081900360640190fd5b5050565b60095473ffffffffffffffffffffffffffffffffffffffff163314610da557604080517f08c379a000000000000000000000000000000000000000000000000000000000815260206004820152600c60248201527f6e6f74206f70657261746f720000000000000000000000000000000000000000604482015290519081900360640190fd5b60018054810190819055610db886612469565b6000606084846040811015610dcc57600080fd5b73ffffffffffffffffffffffffffffffffffffffff8235169190810190604081016020820135640100000000811115610e0457600080fd5b820183602082011115610e1657600080fd5b80359060200191846001830284011164010000000083111715610e3857600080fd5b91908080601f016020809104026020016040519081016040528093929190818152602001838380828437600092018290525073ffffffffffffffffffffffffffffffffffffffff89168152600b60205260409020549799509297505060ff9095169450610f0b935050505057604080517f08c379a000000000000000000000000000000000000000000000000000000000815260206004820152601860248201527f756e617070726f76656420776f726b2073747261746567790000000000000000604482015290519081900360640190fd5b600554604080517f70a08231000000000000000000000000000000000000000000000000000000008152306004820152905173ffffffffffffffffffffffffffffffffffffffff9092169163a9059cbb91859184916370a08231916024808301926020929190829003018186803b158015610f8557600080fd5b505afa158015610f99573d6000803e3d6000fd5b505050506040513d6020811015610faf57600080fd5b5051604080517fffffffff0000000000000000000000000000000000000000000000000000000060e086901b16815273ffffffffffffffffffffffffffffffffffffffff909316600484015260248301919091525160448083019260209291908290030181600087803b15801561102557600080fd5b505af1158015611039573d6000803e3d6000fd5b505050506040513d602081101561104f57600080fd5b50506040517fb61d27f600000000000000000000000000000000000000000000000000000000815273ffffffffffffffffffffffffffffffffffffffff88811660048301908152602483018990526060604484019081528451606485015284519286169363b61d27f69334938d938d938993608490910190602085019080838360005b838110156110ea5781810151838201526020016110d2565b50505050905090810190601f1680156111175780820380516001836020036101000a031916815260200191505b509450505050506000604051808303818588803b15801561113757600080fd5b505af115801561114b573d6000803e3d6000fd5b5050505050611159886126cd565b611163334761257a565b505060015481146111d557604080517f08c379a000000000000000000000000000000000000000000000000000000000815260206004820152601f60248201527f5265656e7472616e637947756172643a207265656e7472616e742063616c6c00604482015290519081900360640190fd5b505050505050565b60025473ffffffffffffffffffffffffffffffffffffffff1681565b60095473ffffffffffffffffffffffffffffffffffffffff1681565b600d5473ffffffffffffffffffffffffffffffffffffffff1681565b600a6020526000908152604090205481565b60055473ffffffffffffffffffffffffffffffffffffffff1681565b600e5473ffffffffffffffffffffffffffffffffffffffff1681565b6112836116f3565b6112ee57604080517f08c379a000000000000000000000000000000000000000000000000000000000815260206004820181905260248201527f4f776e61626c653a2063616c6c6572206973206e6f7420746865206f776e6572604482015290519081900360640190fd5b6000805460405173ffffffffffffffffffffffffffffffffffffffff909116907f8be0079c531659141344cd1fd0a4f28419497f9722a3daafe3b4186f6b6457e0908390a3600080547fffffffffffffffffffffffff0000000000000000000000000000000000000000169055565b6000818152600a602052604081205481906113779061160c565b90506000600560009054906101000a900473ffffffffffffffffffffffffffffffffffffffff1673ffffffffffffffffffffffffffffffffffffffff166318160ddd6040518163ffffffff1660e01b815260040160206040518083038186803b1580156113e357600080fd5b505afa1580156113f7573d6000803e3d6000fd5b505050506040513d602081101561140d57600080fd5b5051600554604080517f0902f1ac0000000000000000000000000000000000000000000000000000000081529051929350600092839273ffffffffffffffffffffffffffffffffffffffff1691630902f1ac916004808301926060929190829003018186803b15801561147f57600080fd5b505afa158015611493573d6000803e3d6000fd5b505050506040513d60608110156114a957600080fd5b508051602091820151600654600554604080517f0dfe168100000000000000000000000000000000000000000000000000000000815290516dffffffffffffffffffffffffffff9586169850949093169550600094859473ffffffffffffffffffffffffffffffffffffffff938416949390921692630dfe16819260048083019392829003018186803b15801561153f57600080fd5b505afa158015611553573d6000803e3d6000fd5b505050506040513d602081101561156957600080fd5b505173ffffffffffffffffffffffffffffffffffffffff161461158d578284611590565b83835b909250905060006115ab86610799898663ffffffff61219316565b905060006115c3876107998a8663ffffffff61219316565b90506115fe826115f2836115dd878263ffffffff61288a16565b6115ed898863ffffffff61288a16565b611815565b9063ffffffff61290116565b9a9950505050505050505050565b6000600c54600014156116205750806107a9565b600254604080517f70a08231000000000000000000000000000000000000000000000000000000008152306004820152905160009273ffffffffffffffffffffffffffffffffffffffff16916370a08231916024808301926020929190829003018186803b15801561169157600080fd5b505afa1580156116a5573d6000803e3d6000fd5b505050506040513d60208110156116bb57600080fd5b5051600c549091506107a590610799858463ffffffff61219316565b60005473ffffffffffffffffffffffffffffffffffffffff1690565b60005473ffffffffffffffffffffffffffffffffffffffff16331490565b6117196116f3565b61178457604080517f08c379a000000000000000000000000000000000000000000000000000000000815260206004820181905260248201527f4f776e61626c653a2063616c6c6572206973206e6f7420746865206f776e6572604482015290519081900360640190fd5b600d805473ffffffffffffffffffffffffffffffffffffffff9384167fffffffffffffffffffffffff000000000000000000000000000000000000000091821617909155600e8054929093169116179055565b60075473ffffffffffffffffffffffffffffffffffffffff1681565b60035473ffffffffffffffffffffffffffffffffffffffff1681565b600f5481565b600083611824575060006118f3565b6000831180156118345750600082115b61189f57604080517f08c379a000000000000000000000000000000000000000000000000000000000815260206004820152601260248201527f62616420726573657276652076616c7565730000000000000000000000000000604482015290519081900360640190fd5b60006118b3856103e563ffffffff61219316565b905060006118c7828563ffffffff61219316565b905060006118e1836115f2886103e863ffffffff61219316565b90508082816118ec57fe5b0493505050505b9392505050565b6119026116f3565b61196d57604080517f08c379a000000000000000000000000000000000000000000000000000000000815260206004820181905260248201527f4f776e61626c653a2063616c6c6572206973206e6f7420746865206f776e6572604482015290519081900360640190fd5b8160005b818110156119ee5782600b600087878581811061198a57fe5b6020908102929092013573ffffffffffffffffffffffffffffffffffffffff1683525081019190915260400160002080547fffffffffffffffffffffffffffffffffffffffffffffffffffffffffffffff0016911515919091179055600101611971565b5050505050565b60085473ffffffffffffffffffffffffffffffffffffffff1681565b611a196116f3565b611a8457604080517f08c379a000000000000000000000000000000000000000000000000000000000815260206004820181905260248201527f4f776e61626c653a2063616c6c6572206973206e6f7420746865206f776e6572604482015290519081900360640190fd5b611a8d81612975565b50565b600b6020526000908152604090205460ff1681565b60045473ffffffffffffffffffffffffffffffffffffffff1681565b333214611b2f57604080517f08c379a000000000000000000000000000000000000000000000000000000000815260206004820152600760248201527f6e6f7420656f6100000000000000000000000000000000000000000000000000604482015290519081900360640190fd5b60018054810190819055600254604080517f3d18b912000000000000000000000000000000000000000000000000000000008152905173ffffffffffffffffffffffffffffffffffffffff90921691633d18b9129160048082019260009290919082900301818387803b158015611ba557600080fd5b505af1158015611bb9573d6000803e3d6000fd5b505060085460009250611be2915073ffffffffffffffffffffffffffffffffffffffff16612a6e565b905080611bef5750612123565b6000612710611c09600f548461219390919063ffffffff16565b81611c1057fe5b6008549190049150611c3f9073ffffffffffffffffffffffffffffffffffffffff16338363ffffffff61229316565b60408051600280825260608083018452926020830190803883395050600854825192935073ffffffffffffffffffffffffffffffffffffffff1691839150600090611c8657fe5b73ffffffffffffffffffffffffffffffffffffffff9283166020918202929092010152600654825191169082906001908110611cbe57fe5b73ffffffffffffffffffffffffffffffffffffffff9283166020918202929092010152600454166318cbafe5611cfa858563ffffffff61288a16565b60008430426040518663ffffffff1660e01b815260040180868152602001858152602001806020018473ffffffffffffffffffffffffffffffffffffffff1673ffffffffffffffffffffffffffffffffffffffff168152602001838152602001828103825285818151815260200191508051906020019060200280838360005b83811015611d92578181015183820152602001611d7a565b505050509050019650505050505050600060405180830381600087803b158015611dbb57600080fd5b505af1158015611dcf573d6000803e3d6000fd5b505050506040513d6000823e601f3d9081017fffffffffffffffffffffffffffffffffffffffffffffffffffffffffffffffe01682016040526020811015611e1657600080fd5b8101908080516040519392919084640100000000821115611e3657600080fd5b908301906020820185811115611e4b57600080fd5b8251866020820283011164010000000082111715611e6857600080fd5b82525081516020918201928201910280838360005b83811015611e95578181015183820152602001611e7d565b50505050919091016040818152600d5460075473ffffffffffffffffffffffffffffffffffffffff90811660208086019190915260008486018190528451808703860181526060808801968790527fb61d27f600000000000000000000000000000000000000000000000000000000909652606487018281526084880183905260a48801968752815160c48901528151949095169b5063b61d27f69a504799509097508796509492939260e4019190850190808383895b83811015611f64578181015183820152602001611f4c565b50505050905090810190601f168015611f915780820380516001836020036101000a031916815260200191505b509450505050506000604051808303818588803b158015611fb157600080fd5b505af1158015611fc5573d6000803e3d6000fd5b5050600254600554604080517f70a08231000000000000000000000000000000000000000000000000000000008152306004820152905173ffffffffffffffffffffffffffffffffffffffff938416965063a694fc3a95509290911692506370a08231916024808301926020929190829003018186803b15801561204857600080fd5b505afa15801561205c573d6000803e3d6000fd5b505050506040513d602081101561207257600080fd5b5051604080517fffffffff0000000000000000000000000000000000000000000000000000000060e085901b168152600481019290925251602480830192600092919082900301818387803b1580156120ca57600080fd5b505af11580156120de573d6000803e3d6000fd5b5050604080518681526020810186905281513394507fc003f45bc224d116b6d079100d4ab57a5b9633244c47a5a92a176c5b79a85f2893509081900390910190a25050505b6001548114611a8d57604080517f08c379a000000000000000000000000000000000000000000000000000000000815260206004820152601f60248201527f5265656e7472616e637947756172643a207265656e7472616e742063616c6c00604482015290519081900360640190fd5b6000826121a257506000612209565b828202828482816121af57fe5b0414612206576040517f08c379a0000000000000000000000000000000000000000000000000000000008152600401808060200182810382526021815260200180612d0d6021913960400191505060405180910390fd5b90505b92915050565b600080821161227f57604080517f08c379a000000000000000000000000000000000000000000000000000000000815260206004820152601a60248201527f536166654d6174683a206469766973696f6e206279207a65726f000000000000604482015290519081900360640190fd5b600082848161228a57fe5b04949350505050565b6040805173ffffffffffffffffffffffffffffffffffffffff8481166024830152604480830185905283518084039091018152606490920183526020820180517bffffffffffffffffffffffffffffffffffffffffffffffffffffffff167fa9059cbb00000000000000000000000000000000000000000000000000000000178152925182516000946060949389169392918291908083835b6020831061236957805182527fffffffffffffffffffffffffffffffffffffffffffffffffffffffffffffffe0909201916020918201910161232c565b6001836020036101000a0380198251168184511680821785525050505050509050019150506000604051808303816000865af19150503d80600081146123cb576040519150601f19603f3d011682016040523d82523d6000602084013e6123d0565b606091505b50915091508180156123fe5750805115806123fe57508080602001905160208110156123fb57600080fd5b50515b6119ee57604080517f08c379a000000000000000000000000000000000000000000000000000000000815260206004820152600d60248201527f21736166655472616e7366657200000000000000000000000000000000000000604482015290519081900360640190fd5b6000818152600a60205260409020548015610d1b5760006124898261160c565b600254604080517f2e1a7d4d00000000000000000000000000000000000000000000000000000000815260048101849052905192935073ffffffffffffffffffffffffffffffffffffffff90911691632e1a7d4d9160248082019260009290919082900301818387803b1580156124ff57600080fd5b505af1158015612513573d6000803e3d6000fd5b5050600c5461252b925090508363ffffffff61288a16565b600c556000838152600a60209081526040808320929092558151848152915185927fca07b1e9ff462c1feca0fa258869d03f3657c3a02eaceed810db4f58848856dc92908290030190a2505050565b6040805160008082526020820190925273ffffffffffffffffffffffffffffffffffffffff84169083906040518082805190602001908083835b602083106125f157805182527fffffffffffffffffffffffffffffffffffffffffffffffffffffffffffffffe090920191602091820191016125b4565b6001836020036101000a03801982511681845116808217855250505050505090500191505060006040518083038185875af1925050503d8060008114612653576040519150601f19603f3d011682016040523d82523d6000602084013e612658565b606091505b50509050806126c857604080517f08c379a000000000000000000000000000000000000000000000000000000000815260206004820152601060248201527f21736166655472616e7366657245544800000000000000000000000000000000604482015290519081900360640190fd5b505050565b600554604080517f70a08231000000000000000000000000000000000000000000000000000000008152306004820152905160009273ffffffffffffffffffffffffffffffffffffffff16916370a08231916024808301926020929190829003018186803b15801561273e57600080fd5b505afa158015612752573d6000803e3d6000fd5b505050506040513d602081101561276857600080fd5b505190508015610d1b57600061277d826106cb565b600254604080517fa694fc3a00000000000000000000000000000000000000000000000000000000815260048101869052905192935073ffffffffffffffffffffffffffffffffffffffff9091169163a694fc3a9160248082019260009290919082900301818387803b1580156127f357600080fd5b505af1158015612807573d6000803e3d6000fd5b5050506000848152600a602052604090205461282a91508263ffffffff61290116565b6000848152600a6020526040902055600c5461284c908263ffffffff61290116565b600c5560408051828152905184917fdbdb2d65c9e75a246e9a50307e793774f5ad8d986766a102b8a0eacb58208da2919081900360200190a2505050565b6000828211156128fb57604080517f08c379a000000000000000000000000000000000000000000000000000000000815260206004820152601e60248201527f536166654d6174683a207375627472616374696f6e206f766572666c6f770000604482015290519081900360640190fd5b50900390565b60008282018381101561220657604080517f08c379a000000000000000000000000000000000000000000000000000000000815260206004820152601b60248201527f536166654d6174683a206164646974696f6e206f766572666c6f770000000000604482015290519081900360640190fd5b73ffffffffffffffffffffffffffffffffffffffff81166129e1576040517f08c379a0000000000000000000000000000000000000000000000000000000008152600401808060200182810382526026815260200180612ce76026913960400191505060405180910390fd5b6000805460405173ffffffffffffffffffffffffffffffffffffffff808516939216917f8be0079c531659141344cd1fd0a4f28419497f9722a3daafe3b4186f6b6457e091a3600080547fffffffffffffffffffffffff00000000000000000000000000000000000000001673ffffffffffffffffffffffffffffffffffffffff92909216919091179055565b604080517f70a08231000000000000000000000000000000000000000000000000000000008152306004820152905160009173ffffffffffffffffffffffffffffffffffffffff8416916370a0823191602480820192602092909190829003018186803b158015612ade57600080fd5b505afa158015612af2573d6000803e3d6000fd5b505050506040513d6020811015612b0857600080fd5b505192915050565b6040805173ffffffffffffffffffffffffffffffffffffffff8481166024830152604480830185905283518084039091018152606490920183526020820180517bffffffffffffffffffffffffffffffffffffffffffffffffffffffff167f095ea7b300000000000000000000000000000000000000000000000000000000178152925182516000946060949389169392918291908083835b60208310612be657805182527fffffffffffffffffffffffffffffffffffffffffffffffffffffffffffffffe09092019160209182019101612ba9565b6001836020036101000a0380198251168184511680821785525050505050509050019150506000604051808303816000865af19150503d8060008114612c48576040519150601f19603f3d011682016040523d82523d6000602084013e612c4d565b606091505b5091509150818015612c7b575080511580612c7b5750808060200190516020811015612c7857600080fd5b50515b6119ee57604080517f08c379a000000000000000000000000000000000000000000000000000000000815260206004820152600c60248201527f2173616665417070726f76650000000000000000000000000000000000000000604482015290519081900360640190fdfe4f776e61626c653a206e6577206f776e657220697320746865207a65726f2061646472657373536166654d6174683a206d756c7469706c69636174696f6e206f766572666c6f77a265627a7a723158200834723ed0ee508ecc3d8ed328dbcb5f38ded440003455dbab1ea202efa45a6764736f6c63430005100032",
  "source": "pragma solidity 0.5.16;\nimport \"openzeppelin-solidity-2.3.0/contracts/ownership/Ownable.sol\";\nimport \"openzeppelin-solidity-2.3.0/contracts/math/SafeMath.sol\";\nimport \"openzeppelin-solidity-2.3.0/contracts/utils/ReentrancyGuard.sol\";\nimport \"synthetix/contracts/interfaces/IStakingRewards.sol\";\nimport \"@uniswap/v2-core/contracts/interfaces/IUniswapV2Factory.sol\";\nimport \"@uniswap/v2-core/contracts/interfaces/IUniswapV2Pair.sol\";\nimport \"@uniswap/v2-core/contracts/libraries/Math.sol\";\nimport \"./uniswap/IUniswapV2Router02.sol\";\nimport \"./Strategy.sol\";\nimport \"./SafeToken.sol\";\nimport \"./Goblin.sol\";\n\ncontract UniswapGoblin is Ownable, ReentrancyGuard, Goblin {\n    /// @notice Libraries\n    using SafeToken for address;\n    using SafeMath for uint256;\n\n    /// @notice Events\n    event Reinvest(address indexed caller, uint256 reward, uint256 bounty);\n    event AddShare(uint256 indexed id, uint256 share);\n    event RemoveShare(uint256 indexed id, uint256 share);\n    event Liquidate(uint256 indexed id, uint256 wad);\n\n    /// @notice Immutable variables\n    IStakingRewards public staking;\n    IUniswapV2Factory public factory;\n    IUniswapV2Router02 public router;\n    IUniswapV2Pair public lpToken;\n    address public weth;\n    address public fToken;\n    address public uni;\n    address public operator;\n\n    /// @notice Mutable state variables\n    mapping(uint256 => uint256) public shares;\n    mapping(address => bool) public okStrats;\n    uint256 public totalShare;\n    Strategy public addStrat;\n    Strategy public liqStrat;\n    uint256 public reinvestBountyBps;\n\n    constructor(\n        address _operator,\n        IStakingRewards _staking,\n        IUniswapV2Router02 _router,\n        address _fToken,\n        address _uni,\n        Strategy _addStrat,\n        Strategy _liqStrat,\n        uint256 _reinvestBountyBps\n    ) public {\n        operator = _operator;\n        weth = _router.WETH();\n        staking = _staking;\n        router = _router;\n        factory = IUniswapV2Factory(_router.factory());\n        lpToken = IUniswapV2Pair(factory.getPair(weth, _fToken));\n        fToken = _fToken;\n        uni = _uni;\n        addStrat = _addStrat;\n        liqStrat = _liqStrat;\n        okStrats[address(addStrat)] = true;\n        okStrats[address(liqStrat)] = true;\n        reinvestBountyBps = _reinvestBountyBps;\n        lpToken.approve(address(_staking), uint256(-1)); // 100% trust in the staking pool\n        lpToken.approve(address(router), uint256(-1)); // 100% trust in the router\n        _fToken.safeApprove(address(router), uint256(-1)); // 100% trust in the router\n        _uni.safeApprove(address(router), uint256(-1)); // 100% trust in the router\n    }\n\n    /// @dev Require that the caller must be an EOA account to avoid flash loans.\n    modifier onlyEOA() {\n        require(msg.sender == tx.origin, \"not eoa\");\n        _;\n    }\n\n    /// @dev Require that the caller must be the operator (the bank).\n    modifier onlyOperator() {\n        require(msg.sender == operator, \"not operator\");\n        _;\n    }\n\n    /// @dev Return the entitied LP token balance for the given shares.\n    /// @param share The number of shares to be converted to LP balance.\n    function shareToBalance(uint256 share) public view returns (uint256) {\n        if (totalShare == 0) return share; // When there's no share, 1 share = 1 balance.\n        uint256 totalBalance = staking.balanceOf(address(this));\n        return share.mul(totalBalance).div(totalShare);\n    }\n\n    /// @dev Return the number of shares to receive if staking the given LP tokens.\n    /// @param balance the number of LP tokens to be converted to shares.\n    function balanceToShare(uint256 balance) public view returns (uint256) {\n        if (totalShare == 0) return balance; // When there's no share, 1 share = 1 balance.\n        uint256 totalBalance = staking.balanceOf(address(this));\n        return balance.mul(totalShare).div(totalBalance);\n    }\n\n    /// @dev Re-invest whatever this worker has earned back to staked LP tokens.\n    function reinvest() public onlyEOA nonReentrant {\n        // 1. Withdraw all the rewards.\n        staking.getReward();\n        uint256 reward = uni.myBalance();\n        if (reward == 0) return;\n        // 2. Send the reward bounty to the caller.\n        uint256 bounty = reward.mul(reinvestBountyBps) / 10000;\n        uni.safeTransfer(msg.sender, bounty);\n        // 3. Convert all the remaining rewards to ETH.\n        address[] memory path = new address[](2);\n        path[0] = address(uni);\n        path[1] = address(weth);\n        router.swapExactTokensForETH(reward.sub(bounty), 0, path, address(this), now);\n        // 4. Use add ETH strategy to convert all ETH to LP tokens.\n        addStrat.execute.value(address(this).balance)(address(0), 0, abi.encode(fToken, 0));\n        // 5. Mint more LP tokens and stake them for more rewards.\n        staking.stake(lpToken.balanceOf(address(this)));\n        emit Reinvest(msg.sender, reward, bounty);\n    }\n\n    /// @dev Work on the given position. Must be called by the operator.\n    /// @param id The position ID to work on.\n    /// @param user The original user that is interacting with the operator.\n    /// @param debt The amount of user debt to help the strategy make decisions.\n    /// @param data The encoded data, consisting of strategy address and calldata.\n    function work(uint256 id, address user, uint256 debt, bytes calldata data)\n        external payable\n        onlyOperator nonReentrant\n    {\n        // 1. Convert this position back to LP tokens.\n        _removeShare(id);\n        // 2. Perform the worker strategy; sending LP tokens + ETH; expecting LP tokens + ETH.\n        (address strat, bytes memory ext) = abi.decode(data, (address, bytes));\n        require(okStrats[strat], \"unapproved work strategy\");\n        lpToken.transfer(strat, lpToken.balanceOf(address(this)));\n        Strategy(strat).execute.value(msg.value)(user, debt, ext);\n        // 3. Add LP tokens back to the farming pool.\n        _addShare(id);\n        // 4. Return any remaining ETH back to the operator.\n        SafeToken.safeTransferETH(msg.sender, address(this).balance);\n    }\n\n    /// @dev Return maximum output given the input amount and the status of Uniswap reserves.\n    /// @param aIn The amount of asset to market sell.\n    /// @param rIn the amount of asset in reserve for input.\n    /// @param rOut The amount of asset in reserve for output.\n    function getMktSellAmount(uint256 aIn, uint256 rIn, uint256 rOut) public pure returns (uint256) {\n        if (aIn == 0) return 0;\n        require(rIn > 0 && rOut > 0, \"bad reserve values\");\n        uint256 aInWithFee = aIn.mul(997);\n        uint256 numerator = aInWithFee.mul(rOut);\n        uint256 denominator = rIn.mul(1000).add(aInWithFee);\n        return numerator / denominator;\n    }\n\n    /// @dev Return the amount of ETH to receive if we are to liquidate the given position.\n    /// @param id The position ID to perform health check.\n    function health(uint256 id) external view returns (uint256) {\n        // 1. Get the position's LP balance and LP total supply.\n        uint256 lpBalance = shareToBalance(shares[id]);\n        uint256 lpSupply = lpToken.totalSupply(); // Ignore pending mintFee as it is insignificant\n        // 2. Get the pool's total supply of WETH and farming token.\n        (uint256 r0, uint256 r1,) = lpToken.getReserves();\n        (uint256 totalWETH, uint256 totalfToken) = lpToken.token0() == weth ? (r0, r1) : (r1, r0);\n        // 3. Convert the position's LP tokens to the underlying assets.\n        uint256 userWETH = lpBalance.mul(totalWETH).div(lpSupply);\n        uint256 userfToken = lpBalance.mul(totalfToken).div(lpSupply);\n        // 4. Convert all farming tokens to ETH and return total ETH.\n        return getMktSellAmount(\n            userfToken, totalfToken.sub(userfToken), totalWETH.sub(userWETH)\n        ).add(userWETH);\n    }\n\n    /// @dev Liquidate the given position by converting it to ETH and return back to caller.\n    /// @param id The position ID to perform liquidation\n    function liquidate(uint256 id) external onlyOperator nonReentrant {\n        // 1. Convert the position back to LP tokens and use liquidate strategy.\n        _removeShare(id);\n        lpToken.transfer(address(liqStrat), lpToken.balanceOf(address(this)));\n        liqStrat.execute(address(0), 0, abi.encode(fToken, 0));\n        // 2. Return all available ETH back to the operator.\n        uint256 wad = address(this).balance;\n        SafeToken.safeTransferETH(msg.sender, wad);\n        emit Liquidate(id, wad);\n    }\n\n    /// @dev Internal function to stake all outstanding LP tokens to the given position ID.\n    function _addShare(uint256 id) internal {\n        uint256 balance = lpToken.balanceOf(address(this));\n        if (balance > 0) {\n            uint256 share = balanceToShare(balance);\n            staking.stake(balance);\n            shares[id] = shares[id].add(share);\n            totalShare = totalShare.add(share);\n            emit AddShare(id, share);\n        }\n    }\n\n    /// @dev Internal function to remove shares of the ID and convert to outstanding LP tokens.\n    function _removeShare(uint256 id) internal {\n        uint256 share = shares[id];\n        if (share > 0) {\n            uint256 balance = shareToBalance(share);\n            staking.withdraw(balance);\n            totalShare = totalShare.sub(share);\n            shares[id] = 0;\n            emit RemoveShare(id, share);\n        }\n    }\n\n    /// @dev Recover ERC20 tokens that were accidentally sent to this smart contract.\n    /// @param token The token contract. Can be anything. This contract should not hold ERC20 tokens.\n    /// @param to The address to send the tokens to.\n    /// @param value The number of tokens to transfer to `to`.\n    function recover(address token, address to, uint256 value) external onlyOwner nonReentrant {\n        token.safeTransfer(to, value);\n    }\n\n    /// @dev Set the reward bounty for calling reinvest operations.\n    /// @param _reinvestBountyBps The bounty value to update.\n    function setReinvestBountyBps(uint256 _reinvestBountyBps) external onlyOwner {\n        reinvestBountyBps = _reinvestBountyBps;\n    }\n\n    /// @dev Set the given strategies' approval status.\n    /// @param strats The strategy addresses.\n    /// @param isOk Whether to approve or unapprove the given strategies.\n    function setStrategyOk(address[] calldata strats, bool isOk) external onlyOwner {\n        uint256 len = strats.length;\n        for (uint256 idx = 0; idx < len; idx++) {\n            okStrats[strats[idx]] = isOk;\n        }\n    }\n\n    /// @dev Update critical strategy smart contracts. EMERGENCY ONLY. Bad strategies can steal funds.\n    /// @param _addStrat The new add strategy contract.\n    /// @param _liqStrat The new liquidate strategy contract.\n    function setCriticalStrategies(Strategy _addStrat, Strategy _liqStrat) external onlyOwner {\n        addStrat = _addStrat;\n        liqStrat = _liqStrat;\n    }\n\n    function() external payable {}\n}\n",
  "sourcePath": "C:/workspace/Project/projects.spider.miner/alphahomora/contracts/5/UniswapGoblin.sol",
  "compiler": {
    "name": "solc",
    "version": "0.5.16+commit.9c3226ce.Emscripten.clang"
  },
  "schemaVersion": "3.3.2",
  "updatedAt": "2021-01-13T08:43:04.060Z",
  "networkType": "ethereum",
  "devdoc": {
    "methods": {
      "balanceToShare(uint256)": {
        "details": "Return the number of shares to receive if staking the given LP tokens.",
        "params": {
          "balance": "the number of LP tokens to be converted to shares."
        }
      },
      "getMktSellAmount(uint256,uint256,uint256)": {
        "details": "Return maximum output given the input amount and the status of Uniswap reserves.",
        "params": {
          "aIn": "The amount of asset to market sell.",
          "rIn": "the amount of asset in reserve for input.",
          "rOut": "The amount of asset in reserve for output."
        }
      },
      "health(uint256)": {
        "details": "Return the amount of ETH to receive if we are to liquidate the given position.",
        "params": {
          "id": "The position ID to perform health check."
        }
      },
      "isOwner()": {
        "details": "Returns true if the caller is the current owner."
      },
      "liquidate(uint256)": {
        "details": "Liquidate the given position by converting it to ETH and return back to caller.",
        "params": {
          "id": "The position ID to perform liquidation"
        }
      },
      "owner()": {
        "details": "Returns the address of the current owner."
      },
      "recover(address,address,uint256)": {
        "details": "Recover ERC20 tokens that were accidentally sent to this smart contract.",
        "params": {
          "to": "The address to send the tokens to.",
          "token": "The token contract. Can be anything. This contract should not hold ERC20 tokens.",
          "value": "The number of tokens to transfer to `to`."
        }
      },
      "reinvest()": {
        "details": "Re-invest whatever this worker has earned back to staked LP tokens."
      },
      "renounceOwnership()": {
        "details": "Leaves the contract without owner. It will not be possible to call `onlyOwner` functions anymore. Can only be called by the current owner.     * > Note: Renouncing ownership will leave the contract without an owner, thereby removing any functionality that is only available to the owner."
      },
      "setCriticalStrategies(address,address)": {
        "details": "Update critical strategy smart contracts. EMERGENCY ONLY. Bad strategies can steal funds.",
        "params": {
          "_addStrat": "The new add strategy contract.",
          "_liqStrat": "The new liquidate strategy contract."
        }
      },
      "setReinvestBountyBps(uint256)": {
        "details": "Set the reward bounty for calling reinvest operations.",
        "params": {
          "_reinvestBountyBps": "The bounty value to update."
        }
      },
      "setStrategyOk(address[],bool)": {
        "details": "Set the given strategies' approval status.",
        "params": {
          "isOk": "Whether to approve or unapprove the given strategies.",
          "strats": "The strategy addresses."
        }
      },
      "shareToBalance(uint256)": {
        "details": "Return the entitied LP token balance for the given shares.",
        "params": {
          "share": "The number of shares to be converted to LP balance."
        }
      },
      "transferOwnership(address)": {
        "details": "Transfers ownership of the contract to a new account (`newOwner`). Can only be called by the current owner."
      },
      "work(uint256,address,uint256,bytes)": {
        "details": "Work on the given position. Must be called by the operator.",
        "params": {
          "data": "The encoded data, consisting of strategy address and calldata.",
          "debt": "The amount of user debt to help the strategy make decisions.",
          "id": "The position ID to work on.",
          "user": "The original user that is interacting with the operator."
        }
      }
    }
  },
  "userdoc": {
    "methods": {}
  }
}